:020000040800F2
:1000000000280020152800088D27000899270008DF
:100010009F270008A5270008AB2700080000000064
:10002000000000000000000000000000B1270008F0
:10003000BD27000800000000C9270008D5270008D8
:100040005D2800085D2800085D2800085D2800087C
:100050005D2800085D2800085D2800085D2800086C
:100060005D2800085D2800085D2800085D2800085C
:100070005D2800085D2800085D2800085D2800084C
:100080005D280008E12700085D2800085D280008B9
:100090005D2800085D2800085D2800085D2800082C
:1000A0005D2800085D2800085D2800085D2800081C
:1000B0005D2800085D280008000000005D28000899
:1000C0005D28000800000000000000005D28000816
:1000D00000000000F52700085D280008000000006F
:1000E0005D2800085D2800085D2800080000000069
:1000F0000000000000000000000000000000000000
:0C01000000000000000000005FF808F1A3
:10010C0010B5054C237833B9044B13B10448AFF345
:10011C0000800123237010BDA80000200000000007
:10012C00B828000808B5034B1BB103490348AFF3CB
:10013C00008008BD00000000AC000020B8280008BA
:10014C0080B500AF084B1B68074A43F010031360DF
:10015C00032000F047F9002000F008F802F028FA1C
:10016C000023184680BD00BF0020024080B582B03D
:10017C0000AF7860124B1A68124B1B7819464FF47B
:10018C007A73B3FBF1F3B2FBF3F3184600F05FF9AB
:10019C000346002B01D001230EE07B680F2B0AD8FD
:1001AC00002279684FF0FF3000F027F9064A7B688F
:1001BC001360002300E0012318460837BD4680BDBC
:1001CC00A4000020040000200000002080B400AF38
:1001DC00054B1B781A46054B1B681344034A1360E6
:1001EC0000BFBD4680BC704704000020C400002046
:1001FC0080B400AF024B1B681846BD4680BC7047EC
:10020C00C400002080B584B000AF7860FFF7F0FF29
:10021C00B8607B68FB60FB68B3F1FF3F05D00A4B0D
:10022C001B781A46FB681344FB6000BFFFF7E0FF26
:10023C000246BB68D31AFA689A42F7D800BF00BFCF
:10024C001037BD4680BD00BF0400002080B485B0CF
:10025C0000AF78607B6803F00703FB600C4BDB6836
:10026C00BB60BA684FF6FF031340BB60FB681A0211
:10027C00BB68134343F0BF6343F40033BB60044AD1
:10028C00BB68D36000BF1437BD4680BC704700BF4D
:10029C0000ED00E080B400AF044BDB681B0A03F0F8
:1002AC0007031846BD4680BC704700BF00ED00E058
:1002BC0080B483B000AF0346FB7197F90730002B75
:1002CC000BDBFB7903F01F02064997F907305B093A
:1002DC00012000FA02F241F8232000BF0C37BD4682
:1002EC0080BC704700E100E080B483B000AF0346EF
:1002FC003960FB7197F90730002B0ADB3B68DAB2E7
:10030C000C4997F907301201D2B20B4483F8002341
:10031C000AE03B68DAB20849FB7903F00F03043BAF
:10032C001201D2B20B441A7600BF0C37BD4680BC0A
:10033C00704700BF00E100E000ED00E080B489B040
:10034C0000AFF860B9607A60FB6803F00703FB61EB
:10035C00FB69C3F10703042B28BF0423BB61FB69B2
:10036C000433062B02D9FB69033B00E000237B61BD
:10037C004FF0FF32BB6902FA03F3DA43BB681A4051
:10038C007B699A404FF0FF317B6901FA03F3D94343
:10039C007B680B40134318462437BD4680BC70471E
:1003AC0080B582B000AF78607B68013BB3F1807F91
:1003BC0001D301230FE00A4A7B68013B53600F21F4
:1003CC004FF0FF30FFF790FF054B00229A60044B73
:1003DC0007221A60002318460837BD4680BD00BFAF
:1003EC0010E000E080B582B000AF78607868FFF76D
:1003FC002DFF00BF0837BD4680BD80B586B000AF6D
:10040C000346B9607A60FB7300237B61FFF742FF00
:10041C0078617A68B9687869FFF790FF024697F9B6
:10042C000F3011461846FFF75FFF00BF1837BD4667
:10043C0080BD80B582B000AF0346FB7197F90730E1
:10044C001846FFF735FF00BF0837BD4680BD80B5A5
:10045C0082B000AF78607868FFF7A2FF03461846B9
:10046C000837BD4680BD000080B485B000AF786011
:10047C000023FB607B68002B01D1012343E07B68E8
:10048C001B681A46224B1344224AA2FB03231B0966
:10049C009A007B681A647B681F4ADA637B680222C5
:1004AC0083F821207B681B681B68FB60FB6823F4C6
:1004BC007F5323F03003FB607B685A687B689B6832
:1004CC001A437B68DB681A437B681B691A437B6899
:1004DC005B691A437B689B691A437B68DB6913432E
:1004EC00FA681343FB607B681B68FA681A607B68C8
:1004FC0000229A637B68012283F821207B6800220A
:10050C0083F82020002318461437BD4680BC704762
:10051C00F8FFFDBFCDCCCCCC0000024080B586B03E
:10052C0000AFF860B9607A603B600023FB75FB6834
:10053C0093F82030012B01D102234AE0FB68012201
:10054C0083F82020FB6893F82130012B3AD1FB680B
:10055C00022283F82120FB6800229A63FB681B6847
:10056C001A68FB681B6822F001021A603B687A6803
:10057C00B968F86800F0F3F9FB68DB6A002B08D067
:10058C00FB681B681A68FB681B6842F00E021A6055
:10059C000FE0FB681B681A68FB681B6822F00402FA
:1005AC001A60FB681B681A68FB681B6842F00A0239
:1005BC001A60FB681B681A68FB681B6842F0010232
:1005CC001A6005E0FB68002283F820200223FB75EB
:1005DC00FB7D18461837BD4680BD80B485B000AF92
:1005EC0078600023FB737B6893F82130022B08D0D2
:1005FC007B6804229A637B68002283F82020012305
:10060C0020E07B681B681A687B681B6822F00E026E
:10061C001A607B681B681A687B681B6822F00102F1
:10062C001A607B681A6C7B68DB6B012101FA02F2A1
:10063C005A607B68012283F821207B68002283F8B2
:10064C002020FB7B18461437BD4680BC7047000049
:10065C0080B584B000AF78600023FB737B6893F89F
:10066C002130022B05D07B6804229A630123FB7393
:10067C0051E07B681B681A687B681B6822F00E02CD
:10068C001A607B681B681A687B681B6822F0010281
:10069C001A607B681B68224A934229D07B681B68CE
:1006AC00204A934222D07B681B681F4A93421AD07F
:1006BC007B681B681D4A934212D07B681B681C4ADE
:1006CC0093420AD07B681B681A4A934202D14FF4BA
:1006DC0080130EE04FF080730BE04FF4803308E092
:1006EC004FF4805305E04FF4807302E0102300E0D8
:1006FC000123114A53607B68012283F821207B6817
:10070C00002283F820207B685B6B002B03D07B6876
:10071C005B6B78689847FB7B18461037BD4680BDED
:10072C00080002401C00024030000240440002401D
:10073C00580002406C0002400000024080B584B0BA
:10074C0000AF78607B68DB6B1B68FB607B681B68A9
:10075C001B68BB607B681B6C04229A40FB681340CF
:10076C00002B4FD0BB6803F00403002B4AD07B68EE
:10077C001B681B6803F02003002B07D17B681B68E8
:10078C001A687B681B6822F004021A607B681B687D
:10079C00664A934229D07B681B68654A934222D0F3
:1007AC007B681B68634A93421AD07B681B68624A59
:1007BC00934212D07B681B68604A93420AD07B68D4
:1007CC001B685F4A934202D14FF480030EE04FF056
:1007DC0080630BE04FF4802308E04FF4804305E086
:1007EC004FF4806302E0402300E00423554A536039
:1007FC007B68DB6A002B00F094807B68DB6A78688E
:10080C0098478EE07B681B6C02229A40FB68134071
:10081C00002B56D0BB6803F00203002B51D07B6831
:10082C001B681B6803F02003002B0BD17B681B6833
:10083C001A687B681B6822F00A021A607B68012226
:10084C0083F821207B681B68384A934229D07B6847
:10085C001B68374A934222D07B681B68354A934207
:10086C001AD07B681B68344A934212D07B681B6891
:10087C00324A93420AD07B681B68314A934202D1B8
:10088C004FF400130EE04FF000730BE04FF4003305
:10089C0008E04FF4005305E04FF4007302E020230E
:1008AC0000E00223274A53607B68002283F8202053
:1008BC007B689B6A002B34D07B689B6A786898476E
:1008CC002FE07B681B6C08229A40FB681340002BBE
:1008DC0028D0BB6803F00803002B23D07B681B686F
:1008EC001A687B681B6822F00E021A607B681A6C0F
:1008FC007B68DB6B012101FA02F25A607B680122F2
:10090C009A637B68012283F821207B68002283F89C
:10091C0020207B681B6B002B04D07B681B6B7868DA
:10092C00984700BF00BF1037BD4680BD080002408D
:10093C001C000240300002404400024058000240BB
:10094C006C0002400000024080B483B000AF7860BD
:10095C007B689B6B18460C37BD4680BC704780B4D7
:10096C0085B000AFF860B9607A603B60FB681A6CC8
:10097C00FB68DB6B012101FA02F25A60FB681B6811
:10098C003A685A60FB685B68102B08D1FB681B68DF
:10099C007A689A60FB681B68BA68DA6007E0FB68E3
:1009AC001B68BA689A60FB681B687A68DA6000BFDB
:1009BC001437BD4680BC704780B48BB000AF7860F4
:1009CC00396000237B6200233B6261E101227B6A78
:1009DC0002FA03F3FB613B681B68FA691340BB61C5
:1009EC00BA69FB699A4240F050813B685B68974A50
:1009FC0093425ED0954A934275D8954A934258D00B
:100A0C00934A93426FD8934A934252D0914A93425D
:100A1C0069D8914A93424CD08F4A934263D88F4AFB
:100A2C00934246D08D4A93425DD8122B2AD8122B72
:100A3C0059D801A252F823F0BF0A0008990A0008FD
:100A4C00AB0A0008ED0A0008F30A0008F30A0008D4
:100A5C00F30A0008F30A0008F30A0008F30A000876
:100A6C00F30A0008F30A0008F30A0008F30A000866
:100A7C00F30A0008F30A0008F30A0008A10A0008A8
:100A8C00B50A0008764A934213D02CE03B68DB6829
:100A9C003B6229E03B68DB6804333B6224E03B6843
:100AAC00DB6808333B621FE03B68DB680C333B625E
:100ABC001AE03B689B68002B02D104233B6213E0D5
:100ACC003B689B68012B05D108233B627B68FA6964
:100ADC001A6109E008233B627B68FA695A6103E0FA
:100AEC0000233B6200E000BFBB69FF2B01D87B6891
:100AFC0001E07B6804337B61BB69FF2B02D87B6A06
:100B0C009B0002E07B6A083B9B003B617B691A6897
:100B1C000F213B6901FA03F3DB431A40396A3B6945
:100B2C0001FA03F31A437B691A603B685B6803F0B4
:100B3C008053002B00F0A9804A4B9B69494A43F033
:100B4C0001039361474B9B6903F00103BB60BB68D6
:100B5C00454A7B6A9B08023352F82330FB607B6A60
:100B6C0003F003039B000F2202FA03F3DB43FA6842
:100B7C001340FB607B683D4A93420DD07B683C4A36
:100B8C00934207D07B683B4A934201D1022304E095
:100B9C00032302E0012300E000237A6A02F003023F
:100BAC0092009340FA681343FB602F497B6A9B08C1
:100BBC000233FA6841F823203B685B6803F4803306
:100BCC00002B06D02C4B1A682B49BB6913430B60C6
:100BDC0006E0294B1A68BB69DB43274913400B60BD
:100BEC003B685B6803F40033002B06D0224B5A6839
:100BFC002149BB6913434B6006E01F4B5A68BB6924
:100C0C00DB431D4913404B603B685B6803F4801366
:100C1C00002B06D0184B9A681749BB6913438B609D
:100C2C0006E0154B9A68BB69DB43134913408B6094
:100C3C003B685B6803F40013002B1FD00E4BDA6883
:100C4C000D49BB691343CB601FE000BF000032109D
:100C5C0000003110000022100000211000001210C2
:100C6C00000011100010024000000140000801407B
:100C7C00000C014000100140000401400B4BDA68ED
:100C8C00BB69DB4309491340CB607B6A01337B6250
:100C9C003B681A687B6A22FA03F3002B7FF496AE4A
:100CAC0000BF00BF2C37BD4680BC7047000401401C
:100CBC0080B485B000AF78600B467B807B689A6807
:100CCC007B881340002B02D00123FB7301E000232F
:100CDC00FB73FB7B18461437BD4680BC704780B451
:100CEC0083B000AF78600B467B8013467B707B78BB
:100CFC00002B03D07A887B681A6103E07B881A0486
:100D0C007B681A6100BF0C37BD4680BC7047000081
:100D1C0080B586B000AF78607B68002B01D10123D1
:100D2C0072E27B681B6803F00103002B00F08780E4
:100D3C00924B5B6803F00C03042B0CD08F4B5B685D
:100D4C0003F00C03082B12D18C4B5B6803F480333B
:100D5C00B3F5803F0BD1894B1B6803F40033002B98
:100D6C006CD07B685B68002B68D101234CE27B68FC
:100D7C005B68B3F5803F06D1804B1B687F4A43F418
:100D8C00803313602EE07B685B68002B0CD17B4BAF
:100D9C001B687A4A23F480331360784B1B68774ABC
:100DAC0023F4802313601DE07B685B68B3F5A02FF0
:100DBC000CD1724B1B68714A43F4802313606F4B48
:100DCC001B686E4A43F4803313600BE06B4B1B685B
:100DDC006A4A23F480331360684B1B68674A23F418
:100DEC00802313607B685B68002B13D0FFF700FA3D
:100DFC00386108E0FFF7FCF902463B69D31A642B13
:100E0C0001D9032300E25D4B1B6803F40033002B74
:100E1C00F0D014E0FFF7ECF9386108E0FFF7E8F9DF
:100E2C0002463B69D31A642B01D90323ECE1534BE3
:100E3C001B6803F40033002BF0D100E000BF7B688B
:100E4C001B6803F00203002B63D04C4B5B6803F070
:100E5C000C03002B0BD0494B5B6803F00C03082BE5
:100E6C001CD1464B5B6803F48033002B16D1434BEB
:100E7C001B6803F00203002B05D07B681B69012B58
:100E8C0001D00123C0E13D4B1B6823F0F8027B68C5
:100E9C005B69DB00394913430B603AE07B681B69E3
:100EAC00002B20D0364B01221A60FFF7A1F93861D4
:100EBC0008E0FFF79DF902463B69D31A022B01D9D2
:100ECC000323A1E12D4B1B6803F00203002BF0D090
:100EDC002A4B1B6823F0F8027B685B69DB0027490F
:100EEC0013430B6015E0264B00221A60FFF780F9C4
:100EFC00386108E0FFF77CF902463B69D31A022BF4
:100F0C0001D9032380E11D4B1B6803F00203002B66
:100F1C00F0D17B681B6803F00803002B3AD07B6888
:100F2C009B69002B19D0174B01221A60FFF760F94F
:100F3C00386108E0FFF75CF902463B69D31A022BD3
:100F4C0001D9032360E10D4B5B6A03F00203002B14
:100F5C00F0D0012000F0D8FA1CE00A4B00221A60F5
:100F6C00FFF746F938610FE0FFF742F902463B699B
:100F7C00D31A022B08D9032346E100BF001002400C
:100F8C000000424280044242924B5B6A03F002032F
:100F9C00002BE9D17B681B6803F00403002B00F0E5
:100FAC00A6800023FB758B4BDB6903F08053002B71
:100FBC000DD1884BDB69874A43F08053D361854B55
:100FCC00DB6903F08053BB60BB680123FB75824B6C
:100FDC001B6803F48073002B18D17F4B1B687E4A6F
:100FEC0043F480731360FFF703F9386108E0FFF7EF
:100FFC00FFF802463B69D31A642B01D9032303E1A2
:10100C00754B1B6803F48073002BF0D07B68DB6896
:10101C00012B06D16F4B1B6A6E4A43F0010313621E
:10102C002DE07B68DB68002B0CD16A4B1B6A694A8C
:10103C0023F001031362674B1B6A664A23F0040317
:10104C0013621CE07B68DB68052B0CD1614B1B6ABF
:10105C00604A43F0040313625E4B1B6A5D4A43F023
:10106C00010313620BE05B4B1B6A5A4A23F001032A
:10107C001362584B1B6A574A23F0040313627B68B4
:10108C00DB68002B15D0FFF7B3F838610AE0FFF7E7
:10109C00AFF802463B69D31A41F28832934201D928
:1010AC000323B1E04B4B1B6A03F00203002BEED081
:1010BC0014E0FFF79DF838610AE0FFF799F8024653
:1010CC003B69D31A41F28832934201D903239BE046
:1010DC00404B1B6A03F00203002BEED1FB7D012B6E
:1010EC0005D13C4BDB693B4A23F08053D3617B68D1
:1010FC00DB69002B00F08780364B5B6803F00C0338
:10110C00082B61D07B68DB69022B46D1334B002264
:10111C001A60FFF76DF8386108E0FFF769F80246CE
:10112C003B69D31A022B01D903236DE0294B1B68B1
:10113C0003F00073002BF0D17B681B6AB3F5803F82
:10114C0008D1244B5B6823F400327B689B682149EF
:10115C0013434B601F4B5B6823F474127B68196A52
:10116C007B685B6A0B431B4913434B601B4B01228F
:10117C001A60FFF73DF8386108E0FFF739F80246CE
:10118C003B69D31A022B01D903233DE0114B1B6899
:10119C0003F00073002BF0D035E0104B00221A60E6
:1011AC00FFF726F8386108E0FFF722F802463B69A2
:1011BC00D31A022B01D9032326E0064B1B6803F03C
:1011CC000073002BF0D11EE07B68DB69012B07D18B
:1011DC00012319E000100240007000406000424200
:1011EC000B4B5B68FB60FB6803F480327B681B6A0B
:1011FC009A4206D1FB6803F470127B685B6A9A42D0
:10120C0001D0012300E0002318461837BD4680BDED
:10121C000010024080B584B000AF786039607B6804
:10122C00002B01D10123D0E06A4B1B6803F00703AC
:10123C003A689A4210D9674B1B6823F0070265493C
:10124C003B6813430B60634B1B6803F007033A685E
:10125C009A4201D00123B8E07B681B6803F00203BB
:10126C00002B20D07B681B6803F00403002B05D0F7
:10127C00594B5B68584A43F4E06353607B681B68C6
:10128C0003F00803002B05D0534B5B68524A43F420
:10129C0060535360504B5B6823F0F0027B689B6893
:1012AC004D4913434B607B681B6803F00103002B13
:1012BC0040D07B685B68012B07D1474B1B6803F45C
:1012CC000033002B15D101237FE07B685B68022B78
:1012DC0007D1414B1B6803F00073002B09D101238C
:1012EC0073E03D4B1B6803F00203002B01D101237B
:1012FC006BE0394B5B6823F003027B685B68364913
:10130C0013434B60FEF774FFF8600AE0FEF770FFC2
:10131C000246FB68D31A41F28832934201D9032367
:10132C0053E02D4B5B6803F00C027B685B689B0001
:10133C009A42EBD1274B1B6803F007033A689A4299
:10134C0010D2244B1B6823F0070222493B6813433D
:10135C000B60204B1B6803F007033A689A4201D0DC
:10136C00012332E07B681B6803F00403002B08D0D8
:10137C00194B5B6823F4E0627B68DB681649134306
:10138C004B607B681B6803F00803002B09D0124BE1
:10139C005B6823F460527B681B69DB000E491343C6
:1013AC004B6000F021F802460B4B5B681B0903F005
:1013BC000F030A49CB5C22FA03F3094A1360094B69
:1013CC001B681846FEF7D2FE002318461037BD46A0
:1013DC0080BD00BF0020024000100240E028000841
:1013EC00A40000200000002090B48AB000AF294B6C
:1013FC003C1D0FCB84E80F0040F201233B800023FF
:10140C00FB610023BB6100237B6200237B61002313
:10141C003B62214B5B68FB61FB6903F00C03042B03
:10142C0002D0082B03D02BE01C4B3B622BE0FB695A
:10143C009B0C03F00F0328333B4413F8243C7B61D3
:10144C00FB6903F48033002B12D0134B5B685B0CED
:10145C0003F0010328333B4413F8283CBB617B6940
:10146C000E4A03FB02F2BB69B2FBF3F37B6204E0AE
:10147C007B690B4A02FB03F37B627B6A3B6202E0F3
:10148C00064B3B6200BF3B6A18462837BD4690BCF2
:10149C00704700BFD02800080010024000127A00EC
:1014AC0000093D0080B400AF024B1B681846BD46D6
:1014BC0080BC7047A400002080B500AFFFF7F2FF9E
:1014CC000246054B5B681B0A03F007030349CB5C20
:1014DC0022FA03F3184680BD00100240F0280008E1
:1014EC0080B500AFFFF7DEFF0246054B5B68DB0AF9
:1014FC0003F007030349CB5C22FA03F3184680BDC3
:10150C0000100240F028000880B485B000AF78606D
:10151C000A4B1B680A4AA2FB03235B0A7A6802FB8C
:10152C0003F3FB6000BFFB685A1EFA60002BF9D175
:10153C0000BF00BF1437BD4680BC7047A40000201C
:10154C00D34D621080B582B000AF78607B68002B01
:10155C0001D101233FE07B6893F83D30DBB2002BD7
:10156C0006D17B68002283F83C20786801F052F8A1
:10157C007B68242283F83D207B681B68DA687B68D3
:10158C001B6822F40052DA60786800F0FDFD7B687D
:10159C001B681A697B681B6822F490421A617B688D
:1015AC001B685A697B681B6822F02A025A617B68A7
:1015BC001B68DA687B681B6842F40052DA607B684F
:1015CC0000221A647B68202283F83D207B6820224D
:1015DC0083F83E20002318460837BD4680BD80B5F1
:1015EC008AB002AFF860B9603B601346FB80002301
:1015FC007B61FB6893F83D30DBB2202B7CD1BB6860
:10160C00002B02D0FB88002B01D1012375E0FB6875
:10161C0093F83C30012B01D102236EE0FB680122D0
:10162C0083F83C20FB6800221A64FB68212283F8B3
:10163C003D20FEF7DDFD7861FB68FA889A84FB6833
:10164C00FA88DA84FB689B68B3F5805F08D1FB6885
:10165C001B69002B04D10023FB61BB68BB6103E059
:10166C00BB68FB610023BB61FB68002283F83C2054
:10167C002AE03B6800937B6900228021F86800F027
:10168C00D4FB0346002B01D0032336E0FB69002B6F
:10169C000BD1BB691B881A46FB681B68C2F3080296
:1016AC005A60BB690233BB6107E0FB691A78FB68BF
:1016BC001B685A60FB690133FB61FB68DB8C9BB2D6
:1016CC00013B9AB2FB68DA84FB68DB8C9BB2002B83
:1016DC00CFD13B6800937B6900224021F86800F071
:1016EC00A4FB0346002B01D0032306E0FB68202259
:1016FC0083F83D20002300E0022318462037BD4626
:10170C0080BD80B485B000AFF860B9601346FB8033
:10171C00FB6893F83D30DBB2202B30D1BB68002B3B
:10172C0002D0FB88002B01D1012329E0FB6893F840
:10173C003C30012B01D1022322E0FB68012283F80B
:10174C003C20FB68BA681A62FB68FA889A84FB68CA
:10175C00FA88DA84FB6800221A64FB68212283F879
:10176C003D20FB68002283F83C20FB681B68DA688C
:10177C00FB681B6842F08002DA60002300E0022361
:10178C0018461437BD4680BC7047000080B586B043
:10179C0000AFF860B9601346FB80FB6893F83D30EE
:1017AC00DBB2202B53D1BB68002B02D0FB88002B63
:1017BC0001D101234CE0FB6893F83C30012B01D1A3
:1017CC00022345E0FB68012283F83C20BA68FB68E1
:1017DC001A62FB68FA889A84FB68FA88DA84FB68D8
:1017EC0000221A64FB68212283F83D20FB685B6BA6
:1017FC00194A9A62FB685B6B184ADA62FB685B6B8E
:10180C00174A1A63FB685B6B00225A6307F10803E3
:10181C007B61FB68586B7B691968FB681B68043338
:10182C001A46FB88FEF77AFEFB681B686FF04002D5
:10183C001A60FB68002283F83C20FB681B685A691D
:10184C00FB681B6842F080025A61002300E002230F
:10185C0018461837BD4680BD351D0008871D000889
:10186C00A31D000880B582B000AF78607B681B6850
:10187C00DA687B681B6822F4F072DA607B681B689C
:10188C005A697B681B6822F001025A617B681B6BEA
:10189C00012B07D17B681B68DA687B681B6822F018
:1018AC001002DA607B681B685B6903F08003002B15
:1018BC0024D07B681B685A697B681B6822F0800205
:1018CC005A617B685B6B002B18D07B685B6B0022CA
:1018DC005A637B685B6B1846FEF77FFE0346002B52
:1018EC000CD07B685B6B1846FFF72EF80346202B59
:1018FC0004D17B6810221A64032340E07B681B68C8
:10190C005B6903F04003002B24D07B681B685A6989
:10191C007B681B6822F040025A617B689B6B002B32
:10192C0018D07B689B6B00225A637B689B6B1846B4
:10193C00FEF753FE0346002B0CD07B689B6B1846BE
:10194C00FFF702F80346202B04D17B6810221A649F
:10195C00032314E07B680022DA847B680022DA859A
:10196C007B6800221A647B68202283F83E207B6807
:10197C00202283F83D207B6800221A63002318463E
:10198C000837BD4680BD000080B58AB000AF7860D6
:10199C007B681B681B687B627B681B68DB683B622F
:1019AC007B681B685B69FB610023BB6100237B6167
:1019BC007B6A03F00F03BB61BB69002B0DD17B6A03
:1019CC0003F02003002B08D03B6A03F02003002B0C
:1019DC0003D0786800F02FFB7BE1BB69002B00F093
:1019EC00B180FB6903F00103002B05D13B6A03F4C2
:1019FC009073002B00F0A6807B6A03F00103002B90
:101A0C000AD03B6A03F48073002B05D07B681B6CF7
:101A1C0043F001027B681A647B6A03F00403002B19
:101A2C000AD0FB6903F00103002B05D07B681B6C0B
:101A3C0043F002027B681A647B6A03F00203002BFA
:101A4C000AD0FB6903F00103002B05D07B681B6CEB
:101A5C0043F004027B681A647B6A03F00803002BD2
:101A6C000FD03B6A03F02003002B04D1FB6903F079
:101A7C000103002B05D07B681B6C43F008027B68CC
:101A8C001A647B681B6C002B00F01E817B6A03F0D0
:101A9C002003002B07D03B6A03F02003002B02D05D
:101AAC00786800F0C8FA7B681B685B6903F0400338
:101ABC00002B14BF01230023DBB27B617B681B6C02
:101ACC0003F00803002B02D17B69002B31D078681E
:101ADC0000F00AFA7B681B685B6903F04003002B7B
:101AEC0023D07B681B685A697B681B6822F0400214
:101AFC005A617B689B6B002B13D07B689B6B764A7F
:101B0C005A637B689B6B1846FEF7A2FD0346002BBD
:101B1C0016D07B689B6B5B6B7A68926B1046984710
:101B2C000EE0786800F0ECF80AE0786800F0E8F86D
:101B3C0006E0786800F0E4F87B6800221A64C3E0E1
:101B4C0000BFC1E07B681B6B012B40F0A1807B6A5E
:101B5C0003F01003002B00F09B803B6A03F0100392
:101B6C00002B00F095800023FB607B681B681B68D2
:101B7C00FB607B681B685B68FB60FB687B681B68B1
:101B8C005B6903F04003002B4ED07B689B6B1B689A
:101B9C005B683B823B8A002B00F098807B689B8DB6
:101BAC003A8A9A4280F092807B683A8ADA857B681E
:101BBC009B6B9B69202B2BD07B681B68DA687B683E
:101BCC001B6822F48072DA607B681B685A697B6838
:101BDC001B6822F001025A617B681B685A697B689A
:101BEC001B6822F040025A617B68202283F83E2059
:101BFC007B6800221A637B681B68DA687B681B6849
:101C0C0022F01002DA607B689B6B1846FEF7E5FC4D
:101C1C007B689A8D7B68DB8D9BB2D31A9BB219467D
:101C2C00786800F076F851E07B689A8D7B68DB8DE4
:101C3C009BB2D31A7B827B68DB8D9BB2002B47D087
:101C4C007B8A002B44D07B681B68DA687B681B6836
:101C5C0022F49072DA607B681B685A697B681B6897
:101C6C0022F001025A617B68202283F83E207B68B7
:101C7C0000221A637B681B68DA687B681B6822F099
:101C8C001002DA607B8A1946786800F042F81FE08F
:101C9C007B6A03F08003002B08D03B6A03F08003BF
:101CAC00002B03D0786800F05FF912E07B6A03F038
:101CBC004003002B0DD03B6A03F04003002B08D0EF
:101CCC00786800F0A0F904E000BF02E000BF00E07B
:101CDC0000BF2837BD4680BD4D1F000880B483B0BF
:101CEC0000AF786000BF0C37BD4680BC704780B435
:101CFC0083B000AF786000BF0C37BD4680BC704726
:101D0C0080B483B000AF786000BF0C37BD4680BC98
:101D1C00704780B483B000AF78600B467B8000BF07
:101D2C000C37BD4680BC704780B584B000AF78607E
:101D3C007B685B6AFB607B681B681B6803F0200395
:101D4C00002B13D1FB680022DA84FB681B685A69EC
:101D5C00FB681B6822F080025A61FB681B68DA681A
:101D6C00FB681B6842F04002DA6002E0F86800F0A1
:101D7C0099FA00BF1037BD4680BD80B584B000AF66
:101D8C0078607B685B6AFB60F868FFF7A7FF00BFB1
:101D9C001037BD4680BD80B584B000AF786000239D
:101DAC00FB607B685B6ABB60BB681B685B6903F0AC
:101DBC008003002B14BF01230023DBB2FB60BB6844
:101DCC0093F83D30DBB2212B08D1FB68002B05D0FA
:101DDC00BB680022DA84B86800F071F8BB681B6835
:101DEC005B6903F04003002B14BF01230023DBB21B
:101DFC00FB60BB6893F83E30DBB2222B08D1FB684A
:101E0C00002B05D0BB680022DA85B86800F06CF8AE
:101E1C00BB681B6C43F01002BB681A64B868FFF710
:101E2C006FFF00BF1037BD4680BD80B584B000AFDA
:101E3C00F860B9603B601346FB712CE0BB69B3F1F1
:101E4C00FF3F28D0BB69002B07D0FEF7D1F9024623
:101E5C003B68D31ABA699A421DD2FB681B68DA68D0
:101E6C00FB681B6822F4D072DA60FB681B685A6945
:101E7C00FB681B6822F001025A61FB68202283F880
:101E8C003D20FB68202283F83E20FB68002283F86B
:101E9C003C2003230FE0FB681B681A68BB681340E7
:101EAC00BA689A420CBF01230023DBB21A46FB79B5
:101EBC009A42C3D0002318461037BD4680BD80B46B
:101ECC0083B000AF78607B681B68DA687B681B683E
:101EDC0022F0C002DA607B68202283F83D2000BF2C
:101EEC000C37BD4680BC704780B483B000AF7860BF
:101EFC007B681B68DA687B681B6822F49072DA6076
:101F0C007B681B685A697B681B6822F001025A6166
:101F1C007B681B6B012B07D17B681B68DA687B68BD
:101F2C001B6822F01002DA607B68202283F83E20C6
:101F3C007B6800221A6300BF0C37BD4680BC70471B
:101F4C0080B584B000AF78607B685B6AFB60FB682F
:101F5C000022DA85FB680022DA84F868FFF7D0FEED
:101F6C0000BF1037BD4680BD80B485B000AF78602F
:101F7C007B6893F83D30DBB2212B3ED17B689B68AC
:101F8C00B3F5805F14D17B681B69002B10D17B6883
:101F9C001B6AFB60FB681B881A467B681B68C2F3D4
:101FAC0008025A607B681B6A9A1C7B681A6208E0FC
:101FBC007B681B6A591C7A6811621A787B681B68EB
:101FCC005A607B68DB8C9BB2013B9BB27A681946EA
:101FDC00D184002B0FD17B681B68DA687B681B6887
:101FEC0022F08002DA607B681B68DA687B681B6809
:101FFC0042F04002DA60002300E002231846143756
:10200C00BD4680BC704780B582B000AF78607B68FD
:10201C001B68DA687B681B6822F04002DA607B6818
:10202C00202283F83D20786800F03CF90023184604
:10203C000837BD4680BD80B586B000AF78607B6840
:10204C0093F83E30DBB2222B40F099807B689B6882
:10205C00B3F5805F17D17B681B69002B13D100236C
:10206C007B617B689B6A3B617B681B685B689BB28E
:10207C00C3F308039AB23B691A807B689B6A9A1C6B
:10208C007B689A6226E07B689B6A7B6100233B61DC
:10209C007B689B68B3F5805F07D07B689B68002BDF
:1020AC000AD17B681B69002B06D17B681B685B68B7
:1020BC00DAB27B691A7008E07B681B685B68DBB27C
:1020CC0003F07F03DAB27B691A707B689B6A5A1C37
:1020DC007B689A627B68DB8D9BB2013B9BB27A6812
:1020EC001946D185002B48D17B681B68DA687B6860
:1020FC001B6822F02002DA607B681B68DA687B6858
:10210C001B6822F48072DA607B681B685A697B68F2
:10211C001B6822F001025A617B68202283F83E2062
:10212C007B681B6B012B23D17B6800221A637B68B5
:10213C001B68DA687B681B6822F01002DA607B6827
:10214C001B681B6803F01003102B0AD10023FB60E3
:10215C007B681B681B68FB607B681B685B68FB60AB
:10216C00FB687B689B8D19467868FFF7D2FD02E00F
:10217C007868FFF7BCFD002302E0002300E0022397
:10218C0018461837BD4680BD80B584B000AF786066
:10219C007B681B681B6923F440517B68DA687B6899
:1021AC001B680A431A617B689A687B681B691A432F
:1021BC007B685B691343BB607B681B68DB6823F43B
:1021CC00B05323F00C037A681268B9680B43D360E0
:1021DC007B681B685B6923F440717B689A697B6838
:1021EC001B680A435A617B681B682C4A934203D1D3
:1021FC00FFF776F9F86002E0FFF75EF9F860FA682D
:10220C0013469B0013449A001A447B685B689B003E
:10221C00B2FBF3F3224AA2FB03235B091901FA6810
:10222C0013469B0013449A001A447B685B689B001E
:10223C00B2FBF3F21A4BA3FB02035B09642000FB15
:10224C0003F3D31A1B013233154AA2FB03235B0998
:10225C0003F0F0031944FA6813469B0013449A00E8
:10226C001A447B685B689B00B2FBF3F20C4BA3FB3C
:10227C0002035B09642000FB03F3D31A1B01323306
:10228C00074AA2FB03235B0903F00F027B681B6860
:10229C000A449A6000BF1037BD4680BD003801402B
:1022AC001F85EB5180B582B000AF78607B68124A15
:1022BC0093420CD100224FF480411048FEF70FFDE1
:1022CC0001224FF400410D48FEF709FD0FE07B6839
:1022DC000B4A93420BD101224FF480410748FEF781
:1022EC00FEFC00224FF400410448FEF7F8FC00BF4E
:1022FC000837BD4680BD00BFC8000020000C01405F
:10230C000C01002080B500AFFDF71AFF00F04CF86F
:10231C0000F0FCF800F0DCF800F086F800F0AEF805
:10232C0001211B48FEF7C4FC0346012B09D1642391
:10233C00322218491848FFF752F9C820FDF762FFFE
:10234C00EEE702211248FEF7B3FC0346012B08D13D
:10235C00322212491048FFF7D4F9C820FDF752FF7A
:10236C00DEE704210A48FEF7A3FC0346012B08D143
:10237C0032220B490B48FFF709FAC820FDF742FF40
:10238C00CEE70548FFF76EFA0648FFF76BFAC7E78A
:10239C00000C014008000020C80000203C00002078
:1023AC00700000200C01002080B590B000AF07F148
:1023BC00180328220021184600F070FA3B1D002259
:1023CC001A605A609A60DA601A610223BB610123B9
:1023DC00BB621023FB6202237B630023BB634FF4BD
:1023EC000023FB6307F118031846FEF791FC034624
:1023FC00002B01D000F0D6F80F237B600223BB60CA
:10240C000023FB6000233B6100237B613B1D00210B
:10241C001846FEF7FFFE0346002B01D000F0C2F871
:10242C0000BF4037BD4680BD80B500AF114B124A8E
:10243C001A60104B4FF416525A600E4B00229A60E1
:10244C000C4B0022DA600B4B00221A61094B0C2258
:10245C005A61084B00229A61064B0022DA6105484A
:10246C00FFF770F80346002B01D000F09BF800BF7B
:10247C0080BD00BFC80000200038014080B500AF0F
:10248C00114B124A1A60104B4FF416525A600E4BF5
:10249C0000229A600C4B0022DA600B4B00221A616E
:1024AC00094B0C225A61084B00229A61064B002200
:1024BC00DA610548FFF746F80346002B01D000F01F
:1024CC0071F800BF80BD00BF0C010020004400402B
:1024DC0080B582B000AF0C4B5B690B4A43F0010333
:1024EC005361094B5B6903F001037B607B6800223D
:1024FC0000211120FDF781FF1120FDF79AFF00BF8D
:10250C000837BD4680BD00BF0010024080B586B0C4
:10251C0000AF07F1080300221A605A609A60DA6073
:10252C001E4B9B691D4A43F0040393611B4B9B6933
:10253C0003F004037B607B68184B9B69174A43F0DC
:10254C0008039361154B9B6903F008033B603B68E0
:10255C0000224FF440411248FEF7C1FB0723BB6039
:10256C000023FB6000233B6107F1080319460C486C
:10257C00FEF722FA4FF44043BB600123FB600023BB
:10258C003B6102237B6107F1080319460448FEF7FF
:10259C0013FA00BF1837BD4680BD00BF00100240C3
:1025AC00000C014080B400AF00BFBD4680BC70473A
:1025BC0080B485B000AF154B9B69144A43F00103FE
:1025CC009361124B9B6903F00103BB60BB680F4B1B
:1025DC00DB690E4A43F08053D3610C4BDB6903F08B
:1025EC0080537B607B680A4B5B68FB60FB6823F065
:1025FC00E063FB60FB6843F08063FB60044AFB68AC
:10260C00536000BF1437BD4680BC704700100240B9
:10261C000000014080B58AB000AF786007F1180364
:10262C0000221A605A609A60DA607B681B684E4A16
:10263C0093423AD14D4B9B694C4A43F4804393618E
:10264C004A4B9B6903F480437B617B69474B9B69D5
:10265C00464A43F004039361444B9B6903F0040323
:10266C003B613B694FF40073BB610223FB610323A5
:10267C007B6207F1180319463D48FEF79DF94FF4AC
:10268C008063BB610023FB6100233B6207F11803ED
:10269C0019463748FEF790F9002200212520FDF756
:1026AC00ACFE2520FDF7C5FE5AE07B681B68314A5D
:1026BC00934255D12D4BDB692C4A43F40033D36143
:1026CC002A4BDB6903F40033FB60FB68274B9B69E7
:1026DC00264A43F004039361244B9B6903F00403E3
:1026EC00BB60BB680423BB610223FB6103237B62D9
:1026FC0007F1180319461E48FEF75EF90823BB6163
:10270C000023FB6100233B6207F1180319461848AC
:10271C00FEF752F9184B194A1A60174B10225A60DF
:10272C00154B00229A60144B8022DA60124B002267
:10273C001A61114B00225A610F4B20229A610E4BE9
:10274C000022DA610C48FDF78FFE0346002B01D006
:10275C00FFF728FF7B68084A5A63074A7B68536275
:10276C0000BF2837BD4680BD003801400010024034
:10277C00000801400044004050010020800002404D
:10278C0080B400AF00BFBD4680BC704780B400AFC2
:10279C00FEE780B400AFFEE780B400AFFEE780B484
:1027AC0000AFFEE780B400AF00BFBD4680BC7047F1
:1027BC0080B400AF00BFBD4680BC704780B400AF92
:1027CC0000BFBD4680BC704780B500AFFDF7FEFC76
:1027DC0000BF80BD80B500AF0248FDF7AFFF00BF62
:1027EC0080BD00BF5001002080B500AF0248FFF74C
:1027FC00CBF800BF80BD00BFC800002080B400AF84
:10280C0000BFBD4680BC70470C480D490D4A0023E3
:10281C0002E0D458C4500433C4188C42F9D30A4A89
:10282C000A4C002301E013600432A242FBD3FFF7F1
:10283C00E5FF00F00FF8FFF765FD70470000002082
:10284C00A800002000290008A80000209401002006
:10285C00FEE7000070B500260C4D0D4C641BA41057
:10286C00A64209D100F022F800260A4D0A4C641B3E
:10287C00A410A64205D170BD55F8043B984701360B
:10288C00EEE755F8043B98470136F2E7F8280008C4
:10289C00F8280008F8280008FC2800080346024421
:1028AC00934200D1704703F8011BF9E7F8B500BF5C
:1028BC00F8BC08BC9E467047F8B500BFF8BC08BC15
:0428CC009E4670476D
:1028D00002030405060708090A0B0C0D0E0F101061
:1028E00000000000000000000102030406070809C0
:0828F0000000000001020304D6
:0428F80031010008A2
:0428FC000D010008C2
:102900001000000001000000555341525420506F48
:102910006C6C696E67204D6F6465200A0D000000C5
:1029200000000000000000000000000000000000A7
:10293000000000000000000000000000555341525C
:102940005420496E74657272757074204D6F6465A1
:10295000200A0D0000000000000000000000000040
:102960000000000000000000000000000000000067
:10297000555341525420444D41204D6F6465200A07
:102980000D0000000000000000000000000000003A
:102990000000000000000000000000000000000037
:0829A000000000000024F40017
:0400000508002815B2
:00000001FF
