:020000040800F2
:100000000028002065320008AD310008B931000831
:10001000BF310008C5310008CB31000800000000E6
:10002000000000000000000000000000D1310008C6
:10003000DD31000800000000E9310008F53100085A
:10004000AD320008AD320008AD320008AD32000814
:10005000AD320008AD320008AD320008AD32000804
:10006000AD320008AD320008AD320008AD320008F4
:10007000AD320008AD320008AD320008AD320008E4
:10008000AD320008AD320008AD320008AD320008D4
:10009000AD320008AD320008AD320008AD320008C4
:1000A000AD320008AD320008AD320008AD320008B4
:1000B000AD320008AD32000800000000AD3200088B
:1000C000AD3200080000000000000000AD32000862
:1000D00000000000AD320008AD3200080000000052
:1000E000AD320008AD320008AD320008000000005B
:1000F0000000000000000000000000000000000000
:0C01000000000000000000005FF808F1A3
:10010C0010B5054C237833B9044B13B10448AFF345
:10011C0000800123237010BD70000020000000003F
:10012C00083C000808B5034B1BB103490348AFF367
:10013C00008008BD0000000074000020083C00088E
:10014C0080B500AF084B1B68074A43F010031360DF
:10015C00032000F057FD002000F008F802F01AFF11
:10016C000023184680BD00BF0020024080B582B03D
:10017C0000AF7860124B1A68124B1B7819464FF47B
:10018C007A73B3FBF1F3B2FBF3F3184600F061FDA5
:10019C000346002B01D001230EE07B680F2B0AD8FD
:1001AC00002279684FF0FF3000F037FD064A7B687B
:1001BC001360002300E0012318460837BD4680BDBC
:1001CC0008000020040000200000002080B400AFD4
:1001DC00054B1B781A46054B1B681344034A1360E6
:1001EC0000BFBD4680BC7047040000208C0000207E
:1001FC0080B400AF024B1B681846BD4680BC7047EC
:10020C008C00002080B584B000AF7860FFF7F0FF61
:10021C00B8607B68FB60FB68B3F1FF3F05D00A4B0D
:10022C001B781A46FB681344FB6000BFFFF7E0FF26
:10023C000246BB68D31AFA689A42F7D800BF00BFCF
:10024C001037BD4680BD00BF0400002080B586B0CD
:10025C0000AF78600023FB7500233B610023BB607B
:10026C000023FB607B68002B01D10123BEE07B687F
:10027C009B68002B7B689B6A002B09D17B68002252
:10028C00DA627B68002283F82420786802F0B4FEDE
:10029C00786800F0C5FB0346FB757B689B6A03F02E
:1002AC001003002B40F09980FB7D002B40F09580D3
:1002BC007B689B6A23F4885323F0020343F0020209
:1002CC007B689A627B685A687B68DB691A437B6837
:1002DC001B7B5B001343BA681343BB607B689B6852
:1002EC00B3F5807F03D07B689B68012B02D14FF460
:1002FC00807300E000233A6913433B617B681B7DEC
:10030C00012B19D17B681B7B002B09D17B689B6966
:10031C00013B5A033B69134343F400633B610BE01D
:10032C007B689B6A43F020027B689A627B68DB6A7D
:10033C0043F001027B68DA627B681B685B6823F41C
:10034C0069417B681B683A690A435A607B681B6881
:10035C009A68284B13407A681268B9680B4393600B
:10036C007B689B68B3F5807F03D07B689B68012B0F
:10037C0004D17B681B69013B1B05FB607B681B6818
:10038C00DB6A23F470017B681B68FA680A43DA6243
:10039C007B681B689A68184B1340BA689A420BD159
:1003AC007B680022DA627B689B6A23F0030343F0CC
:1003BC0001027B689A6218E07B689B6A23F0120347
:1003CC0043F010027B689A627B68DB6A43F001029F
:1003DC007B68DA620123FB7507E07B689B6A43F05C
:1003EC0010027B689A620123FB75FB7D1846183757
:1003FC00BD4680BDFDF7E1FFFE0E1FFF80B584B04A
:10040C0000AF78600023FB737B6893F82430012BDA
:10041C0001D1022398E07B68012283F824207868BC
:10042C0000F0A4FA0346FB73FB7B002B40F08780A3
:10043C007B689B6A23F4407323F0010343F48072BE
:10044C007B689A627B681B68414A934205D1414B99
:10045C005B6803F47023002B15D17B689B6A23F433
:10046C0080127B689A627B681B685B6803F480630C
:10047C00002B26D07B689B6A23F4405343F48052B4
:10048C007B689A621DE07B689B6A43F480127B68F0
:10049C009A627B681B682F4A934204D07B681B6866
:1004AC002B4A93420DD12B4B5B6803F48063002BDA
:1004BC0007D07B689B6A23F4405343F480527B68DB
:1004CC009A627B689B6A03F48053002B06D07B688E
:1004DC00DB6A23F006027B68DA6202E07B680022AA
:1004EC00DA627B68002283F824207B681B686FF03B
:1004FC0002021A607B681B689B6803F46023B3F5E7
:10050C00602F13D17B681B68114A934205D1114BA4
:10051C005B6803F47023002B08D17B681B689A6816
:10052C007B681B6842F4A0029A600CE07B681B6835
:10053C009A687B681B6842F480129A6003E07B68BF
:10054C00002283F82420FB7B18461037BD4680BD63
:10055C00002801400024014090B587B000AF7860BE
:10056C00396000237B610023FB6000233B61FFF7B4
:10057C003FFE78617B681B689B6803F48073002BDB
:10058C000BD07B689B6A43F020027B689A627B6885
:10059C00002283F824200123D3E07B681B685B686E
:1005AC0003F48073002B31D17B681B68DB6A03F486
:1005BC007003002B2AD121E03B68B3F1FF3F1DD023
:1005CC003B68002B07D0FFF713FE02467B69D31A5A
:1005DC003A689A4212D27B681B681B6803F00203CC
:1005EC00002B0BD17B689B6A43F004027B689A62F8
:1005FC007B68002283F824200323A2E07B681B681D
:10060C001B6803F00203002BD6D070E04F4B1C6824
:10061C00022001F0A7F90346B4FBF3F27B681B68D8
:10062C0019694B4B0B40002B18D17B681B68D968A0
:10063C00484B0B40002B11D17B681B681969464B4A
:10064C000B40002B08D17B681B68D968434B0B40CF
:10065C00002B01D1142320E029231EE07B681B68AA
:10066C0019693D4B0B40002B06D17B681B68D96880
:10067C003A4B0B40002B0DD07B681B681969384B2B
:10068C000B40002B08D17B681B68D968344B0B409E
:10069C00002B01D1542300E0FC2302FB03F33B614C
:1006AC0021E03B68B3F1FF3F1AD03B68002B07D029
:1006BC00FFF79EFD02467B69D31A3A689A420FD225
:1006CC00FB683A699A420BD97B689B6A43F0040237
:1006DC007B689A627B68002283F82420032330E035
:1006EC00FB680133FB60FB683A699A42D9D87B6896
:1006FC001B686FF012021A607B689B6A43F40072ED
:10070C007B689A627B681B689B6803F46023B3F573
:10071C00602F15D17B681B7B002B11D17B689B6AEA
:10072C0023F480727B689A627B689B6A03F4805323
:10073C00002B05D17B689B6A43F001027B689A62AF
:10074C00002318461C37BD4690BD00BF0800002092
:10075C00244992242449920092244912922449005B
:10076C004992240080B483B000AF78607B681B682A
:10077C00DB6C18460C37BD4680BC704780B485B026
:10078C0000AF786039600023FB730023BB607B688B
:10079C0093F82430012B01D10223DCE07B68012289
:1007AC0083F824203B685B68062B1CD87B681B688D
:1007BC00596B3B685A6813469B001344053B1F2238
:1007CC0002FA03F3DB4319403B6818683B685A682C
:1007DC0013469B001344053B00FA03F27B681B682D
:1007EC000A435A633CE03B685B680C2B1CD87B6863
:1007FC001B68196B3B685A6813469B001344233BD8
:10080C001F2202FA03F3DB4319403B6818683B686C
:10081C005A6813469B001344233B00FA03F27B688F
:10082C001B680A431A631BE07B681B68D96A3B6828
:10083C005A6813469B001344413B1F2202FA03F3F0
:10084C00DB4319403B6818683B685A6813469B00A9
:10085C001344413B00FA03F27B681B680A43DA62DB
:10086C003B681B68092B1CD97B681B68D9683B68E3
:10087C001A6813465B0013441E3B072202FA03F36B
:10088C00DB4319403B6898683B681A6813465B0069
:10089C0013441E3B00FA03F27B681B680A43DA60C0
:1008AC0019E07B681B6819693B681A6813465B0082
:1008BC001344072202FA03F3DB4319403B689868A0
:1008CC003B681A6813465B00134400FA03F27B681A
:1008DC001B680A431A613B681B68102B03D03B68EA
:1008EC001B68112B32D17B681B681D4A934225D1A2
:1008FC007B681B689B6803F40003002B26D17B6884
:10090C001B689A687B681B6842F400029A603B681B
:10091C001B68102B1AD1134B1B68134AA2FB032321
:10092C009A0C13469B0013445B00BB6002E0BB684F
:10093C00013BBB60BB68002BF9D107E07B689B6A6D
:10094C0043F020027B689A620123FB737B680022D0
:10095C0083F82420FB7B18461437BD4680BC7047B7
:10096C00002401400800002083DE1B4380B584B0C6
:10097C0000AF78600023FB600023BB607B681B68C2
:10098C009B6803F00103012B40D07B681B689A68BD
:10099C007B681B6842F001029A601F4B1B681F4A60
:1009AC00A2FB03239B0CBB6002E0BB68013BBB605A
:1009BC00BB68002BF9D1FFF71BFCF8601FE0FFF7B9
:1009CC0017FC0246FB68D31A022B18D97B681B68EC
:1009DC009B6803F00103012B11D07B689B6A43F0E9
:1009EC0010027B689A627B68DB6A43F001027B68C9
:1009FC00DA627B68002283F82420012307E07B68FD
:100A0C001B689B6803F00103012BD8D10023184607
:100A1C001037BD4680BD00BF0800002083DE1B439D
:100A2C0080B584B000AF78600023FB607B681B68E6
:100A3C009B6803F00103012B2ED17B681B689A681D
:100A4C007B681B6822F001029A60FFF7D1FBF8600B
:100A5C001BE0FFF7CDFB0246FB68D31A022B14D91F
:100A6C007B681B689B6803F00103012B0DD17B682D
:100A7C009B6A43F010027B689A627B68DB6A43F0E6
:100A8C0001027B68DA62012307E07B681B689B68C4
:100A9C0003F00103012BDCD0002318461037BD46B0
:100AAC0080BD000080B485B000AF78607B6803F037
:100ABC000703FB600C4BDB68BB60BA684FF6FF03A7
:100ACC001340BB60FB681A02BB68134343F0BF635F
:100ADC0043F40033BB60044ABB68D36000BF1437D7
:100AEC00BD4680BC704700BF00ED00E080B400AF95
:100AFC00044BDB681B0A03F007031846BD4680BC99
:100B0C00704700BF00ED00E080B483B000AF034637
:100B1C003960FB7197F90730002B0ADB3B68DAB2BE
:100B2C000C4997F907301201D2B20B4483F8002319
:100B3C000AE03B68DAB20849FB7903F00F03043B87
:100B4C001201D2B20B441A7600BF0C37BD4680BCE2
:100B5C00704700BF00E100E000ED00E080B489B018
:100B6C0000AFF860B9607A60FB6803F00703FB61C3
:100B7C00FB69C3F10703042B28BF0423BB61FB698A
:100B8C000433062B02D9FB69033B00E000237B6195
:100B9C004FF0FF32BB6902FA03F3DA43BB681A4029
:100BAC007B699A404FF0FF317B6901FA03F3D9431B
:100BBC007B680B40134318462437BD4680BC7047F6
:100BCC0080B582B000AF78607B68013BB3F1807F69
:100BDC0001D301230FE00A4A7B68013B53600F21CC
:100BEC004FF0FF30FFF790FF054B00229A60044B4B
:100BFC0007221A60002318460837BD4680BD00BF87
:100C0C0010E000E080B582B000AF78607868FFF744
:100C1C0049FF00BF0837BD4680BD80B586B000AF28
:100C2C000346B9607A60FB7300237B61FFF75EFFBC
:100C3C0078617A68B9687869FFF790FF024697F98E
:100C4C000F3011461846FFF75FFF00BF1837BD463F
:100C5C0080BD80B582B000AF78607868FFF7B0FFD8
:100C6C00034618460837BD4680BD000080B48BB0E3
:100C7C0000AF7860396000237B6200233B6261E146
:100C8C0001227B6A02FA03F3FB613B681B68FA6979
:100C9C001340BB61BA69FB699A4240F050813B68D2
:100CAC005B68974A93425ED0954A934275D8954AB1
:100CBC00934258D0934A93426FD8934A934252D05E
:100CCC00914A934269D8914A93424CD08F4A9342AD
:100CDC0063D88F4A934246D08D4A93425DD8122BEB
:100CEC002AD8122B59D801A252F823F0730D000800
:100CFC004D0D00085F0D0008A10D0008A70D0008A0
:100D0C00A70D0008A70D0008A70D0008A70D0008E7
:100D1C00A70D0008A70D0008A70D0008A70D0008D7
:100D2C00A70D0008A70D0008A70D0008A70D0008C7
:100D3C00550D0008690D0008764A934213D02CE03B
:100D4C003B68DB683B6229E03B68DB6804333B6251
:100D5C0024E03B68DB6808333B621FE03B68DB68E0
:100D6C000C333B621AE03B689B68002B02D10423D6
:100D7C003B6213E03B689B68012B05D108233B6267
:100D8C007B68FA691A6109E008233B627B68FA699F
:100D9C005A6103E000233B6200E000BFBB69FF2BFC
:100DAC0001D87B6801E07B6804337B61BB69FF2B56
:100DBC0002D87B6A9B0002E07B6A083B9B003B618C
:100DCC007B691A680F213B6901FA03F3DB431A4074
:100DDC00396A3B6901FA03F31A437B691A603B6871
:100DEC005B6803F08053002B00F0A9804A4B9B6991
:100DFC00494A43F001039361474B9B6903F001039C
:100E0C00BB60BB68454A7B6A9B08023352F82330AF
:100E1C00FB607B6A03F003039B000F2202FA03F3CF
:100E2C00DB43FA681340FB607B683D4A93420DD06C
:100E3C007B683C4A934207D07B683B4A934201D182
:100E4C00022304E0032302E0012300E000237A6A7A
:100E5C0002F0030292009340FA681343FB602F499F
:100E6C007B6A9B080233FA6841F823203B685B6875
:100E7C0003F48033002B06D02C4B1A682B49BB692A
:100E8C0013430B6006E0294B1A68BB69DB43274907
:100E9C0013400B603B685B6803F40033002B06D0F7
:100EAC00224B5A682149BB6913434B6006E01F4B28
:100EBC005A68BB69DB431D4913404B603B685B6858
:100ECC0003F48013002B06D0184B9A681749BB69A2
:100EDC0013438B6006E0154B9A68BB69DB431349DF
:100EEC0013408B603B685B6803F40013002B1FD02E
:100EFC000E4BDA680D49BB691343CB601FE000BF92
:100F0C0000003210000031100000221000002110EF
:100F1C0000001210000011100010024000000140EF
:100F2C0000080140000C0140001001400004014089
:100F3C000B4BDA68BB69DB4309491340CB607B6A16
:100F4C0001337B623B681A687B6A22FA03F3002B3D
:100F5C007FF496AE00BF00BF2C37BD4680BC7047F7
:100F6C000004014080B485B000AF78600B467B80F4
:100F7C007B689A687B881340002B02D00123FB739B
:100F8C0001E00023FB73FB7B18461437BD4680BC85
:100F9C00704780B483B000AF78600B467B801346FB
:100FAC007B707B78002B03D07A887B681A6103E016
:100FBC007B881A047B681A6100BF0C37BD4680BC65
:100FCC007047000080B586B000AF78607B68002B5E
:100FDC0001D1012372E27B681B6803F00103002B33
:100FEC0000F08780924B5B6803F00C03042B0CD051
:100FFC008F4B5B6803F00C03082B12D18C4B5B6896
:10100C0003F48033B3F5803F0BD1894B1B6803F499
:10101C000033002B6CD07B685B68002B68D10123FC
:10102C004CE27B685B68B3F5803F06D1804B1B6854
:10103C007F4A43F4803313602EE07B685B68002B9F
:10104C000CD17B4B1B687A4A23F480331360784BAA
:10105C001B68774A23F4802313601DE07B685B6870
:10106C00B3F5A02F0CD1724B1B68714A43F480234B
:10107C0013606F4B1B686E4A43F4803313600BE0B4
:10108C006B4B1B686A4A23F480331360684B1B68F4
:10109C00674A23F4802313607B685B68002B13D0B2
:1010AC00FFF7A6F8386108E0FFF7A2F802463B69A3
:1010BC00D31A642B01D9032300E25D4B1B6803F4A4
:1010CC000033002BF0D014E0FFF792F8386108E001
:1010DC00FFF78EF802463B69D31A642B01D9032320
:1010EC00ECE1534B1B6803F40033002BF0D100E010
:1010FC0000BF7B681B6803F00203002B63D04C4BD2
:10110C005B6803F00C03002B0BD0494B5B6803F0BE
:10111C000C03082B1CD1464B5B6803F48033002B6B
:10112C0016D1434B1B6803F00203002B05D07B68E0
:10113C001B69012B01D00123C0E13D4B1B6823F03F
:10114C00F8027B685B69DB00394913430B603AE0BA
:10115C007B681B69002B20D0364B01221A60FFF7ED
:10116C0047F8386108E0FFF743F802463B69D31AA9
:10117C00022B01D90323A1E12D4B1B6803F00203C1
:10118C00002BF0D02A4B1B6823F0F8027B685B69BC
:10119C00DB00274913430B6015E0264B00221A6035
:1011AC00FFF726F8386108E0FFF722F802463B69A2
:1011BC00D31A022B01D9032380E11D4B1B6803F0CA
:1011CC000203002BF0D17B681B6803F00803002B93
:1011DC003AD07B689B69002B19D0174B01221A60FF
:1011EC00FFF706F8386108E0FFF702F802463B69A2
:1011FC00D31A022B01D9032360E10D4B5B6A03F078
:10120C000203002BF0D0012000F0D8FA1CE00A4BAE
:10121C0000221A60FEF7ECFF38610FE0FEF7E8FFE2
:10122C0002463B69D31A022B08D9032346E100BFBF
:10123C00001002400000424280044242924B5B6A22
:10124C0003F00203002BE9D17B681B6803F0040355
:10125C00002B00F0A6800023FB758B4BDB6903F0A1
:10126C008053002B0DD1884BDB69874A43F08053A8
:10127C00D361854BDB6903F08053BB60BB680123F2
:10128C00FB75824B1B6803F48073002B18D17F4BCA
:10129C001B687E4A43F480731360FEF7A9FF386124
:1012AC0008E0FEF7A5FF02463B69D31A642B01D96F
:1012BC00032303E1754B1B6803F48073002BF0D000
:1012CC007B68DB68012B06D16F4B1B6A6E4A43F0BF
:1012DC00010313622DE07B68DB68002B0CD16A4B99
:1012EC001B6A694A23F001031362674B1B6A664A47
:1012FC0023F0040313621CE07B68DB68052B0CD124
:10130C00614B1B6A604A43F0040313625E4B1B6A19
:10131C005D4A43F0010313620BE05B4B1B6A5A4AB4
:10132C0023F001031362584B1B6A574A23F0040342
:10133C0013627B68DB68002B15D0FEF759FF386110
:10134C000AE0FEF755FF02463B69D31A41F2883298
:10135C00934201D90323B1E04B4B1B6A03F0020308
:10136C00002BEED014E0FEF743FF38610AE0FEF7E5
:10137C003FFF02463B69D31A41F28832934201D9AE
:10138C0003239BE0404B1B6A03F00203002BEED1BE
:10139C00FB7D012B05D13C4BDB693B4A23F0805391
:1013AC00D3617B68DB69002B00F08780364B5B6870
:1013BC0003F00C03082B61D07B68DB69022B46D150
:1013CC00334B00221A60FEF713FF386108E0FEF77A
:1013DC000FFF02463B69D31A022B01D903236DE0A0
:1013EC00294B1B6803F00073002BF0D17B681B6A40
:1013FC00B3F5803F08D1244B5B6823F400327B6843
:10140C009B68214913434B601F4B5B6823F4741298
:10141C007B68196A7B685B6A0B431B4913434B60FF
:10142C001B4B01221A60FEF7E3FE386108E0FEF761
:10143C00DFFE02463B69D31A022B01D903233DE0A0
:10144C00114B1B6803F00073002BF0D035E0104BF0
:10145C0000221A60FEF7CCFE386108E0FEF7C8FEE9
:10146C0002463B69D31A022B01D9032326E0064B13
:10147C001B6803F00073002BF0D11EE07B68DB6966
:10148C00012B07D1012319E000100240007000402D
:10149C00600042420B4B5B68FB60FB6803F48032DC
:1014AC007B681B6A9A4206D1FB6803F470127B6856
:1014BC005B6A9A4201D0012300E0002318461837DA
:1014CC00BD4680BD0010024080B584B000AF78608E
:1014DC0039607B68002B01D10123D0E06A4B1B687B
:1014EC0003F007033A689A4210D9674B1B6823F044
:1014FC00070265493B6813430B60634B1B6803F0A1
:10150C0007033A689A4201D00123B8E07B681B6854
:10151C0003F00203002B20D07B681B6803F004034C
:10152C00002B05D0594B5B68584A43F4E063536079
:10153C007B681B6803F00803002B05D0534B5B68DA
:10154C00524A43F460535360504B5B6823F0F002F3
:10155C007B689B684D4913434B607B681B6803F0A9
:10156C000103002B40D07B685B68012B07D1474BF4
:10157C001B6803F40033002B15D101237FE07B683B
:10158C005B68022B07D1414B1B6803F00073002BE7
:10159C0009D1012373E03D4B1B6803F00203002BC0
:1015AC0001D101236BE0394B5B6823F003027B68AC
:1015BC005B68364913434B60FEF71AFEF8600AE08D
:1015CC00FEF716FE0246FB68D31A41F288329342AC
:1015DC0001D9032353E02D4B5B6803F00C027B68AD
:1015EC005B689B009A42EBD1274B1B6803F0070307
:1015FC003A689A4210D2244B1B6823F00702224906
:10160C003B6813430B60204B1B6803F007033A68DD
:10161C009A4201D0012332E07B681B6803F004037B
:10162C00002B08D0194B5B6823F4E0627B68DB6805
:10163C00164913434B607B681B6803F00803002BAF
:10164C0009D0124B5B6823F460527B681B69DB008A
:10165C000E4913434B6000F021F802460B4B5B68BC
:10166C001B0903F00F030A49CB5C22FA03F3094A66
:10167C001360094B1B681846FEF778FD00231846CB
:10168C001037BD4680BD00BF002002400010024054
:10169C00583C0008080000200000002090B48AB0DC
:1016AC0000AF294B3C1D0FCB84E80F0040F2012307
:1016BC003B800023FB610023BB6100237B62002382
:1016CC007B6100233B62214B5B68FB61FB6903F090
:1016DC000C03042B02D0082B03D02BE01C4B3B62D9
:1016EC002BE0FB699B0C03F00F0328333B4413F8EE
:1016FC00243C7B61FB6903F48033002B12D0134B29
:10170C005B685B0C03F0010328333B4413F8283C63
:10171C00BB617B690E4A03FB02F2BB69B2FBF3F3BC
:10172C007B6204E07B690B4A02FB03F37B627B6AFE
:10173C003B6202E0064B3B6200BF3B6A184628370F
:10174C00BD4690BC704700BF203C00080010024012
:10175C0000127A0000093D0080B400AF024B1B68F8
:10176C001846BD4680BC70470800002080B500AF0D
:10177C00FFF7F2FF0246054B5B681B0A03F00703F9
:10178C000349CB5C22FA03F3184680BD00100240DB
:10179C00683C000880B500AFFFF7DEFF0246054B42
:1017AC005B68DB0A03F007030349CB5C22FA03F303
:1017BC00184680BD00100240683C000880B485B01B
:1017CC0000AF78600A4B1B680A4AA2FB03235B0A32
:1017DC007A6802FB03F3FB6000BFFB685A1EFA60D9
:1017EC00002BF9D100BF00BF1437BD4680BC704739
:1017FC0008000020D34D621080B586B000AF786031
:10180C0000233B610023FB607B681B6803F0010332
:10181C00002B7DD00023FB754F4BDB6903F080530D
:10182C00002B0DD14C4BDB694B4A43F08053D361F9
:10183C00494BDB6903F08053BB60BB680123FB752C
:10184C00464B1B6803F48073002B18D1434B1B6869
:10185C00424A43F480731360FEF7CAFC386108E017
:10186C00FEF7C6FC02463B69D31A642B01D903234D
:10187C006DE03A4B1B6803F48073002BF0D0364BB1
:10188C001B6A03F44073FB60FB68002B2ED07B6853
:10189C005B6803F44073FA689A4227D02E4B1B6A9C
:1018AC0023F44073FB602E4B01221A602C4B002258
:1018BC001A60294AFB681362FB6803F00103002BD2
:1018CC0014D0FEF795FC38610AE0FEF791FC024655
:1018DC003B69D31A41F28832934201D9032336E093
:1018EC001D4B1B6A03F00203002BEED01A4B1B6A34
:1018FC0023F440727B685B68174913430B62FB7DD2
:10190C00012B05D1144BDB69134A23F08053D361AF
:10191C007B681B6803F00203002B08D00E4B5B683E
:10192C0023F440427B689B680B4913434B607B68F4
:10193C001B6803F01003002B08D0074B5B6823F4E3
:10194C0080027B68DB68044913434B600023184614
:10195C001837BD4680BD00BF00100240007000402B
:10196C004004424290B58DB000AF7860584B07F1FF
:10197C000C040FCB84E80F0040F201233B810023C1
:10198C007B620023FB6200233B620023FB6100238C
:10199C00BB627B68102B0AD07B68102B00F28E8008
:1019AC007B68012B49D07B68022B79D086E0494BB0
:1019BC005B68FB61474B1B6803F08073002B7FD087
:1019CC00FB699B0C03F00F0330333B4413F8243CAE
:1019DC003B62FB6903F48033002B17D03D4B5B68F3
:1019EC005B0C03F0010330333B4413F8283C7B625F
:1019FC00FB6903F48033002B0DD0374A7B6AB2FBB2
:101A0C00F3F23B6A02FB03F3FB6204E03B6A334AEA
:101A1C0002FB03F3FB622F4B5B6803F48003B3F50B
:101A2C00800F02D1FB6ABB624AE0FB6A5B002C4A66
:101A3C00A2FB03235B08BB6242E0264B1B6AFB61E3
:101A4C00FB6903F44073B3F5807F08D1FB6903F0A5
:101A5C000203002B03D04FF40043BB621FE0FB6971
:101A6C0003F44073B3F5007F09D11A4B5B6A03F0A2
:101A7C000203002B03D049F64043BB620FE0FB6925
:101A8C0003F44073B3F5407F1CD1124B1B6803F475
:101A9C000033002B16D04FF22443BB6212E011E04E
:101AAC00FFF778FE02460B4B5B689B0B03F00303BE
:101ABC0001335B00B2FBF3F3BB6204E000BF02E056
:101ACC0000BF00E000BFBB6A18463437BD4690BD6E
:101ADC00303C00080010024000127A0000093D0062
:101AEC00ABAAAAAA80B582B000AF78607B68002B45
:101AFC0001D1012341E07B6893F83D30DBB2002B30
:101B0C0006D17B68002283F83C20786801F0B0FA9B
:101B1C007B68022283F83D207B681A687B6804335B
:101B2C001946104600F0E8FA7B68012283F846203B
:101B3C007B68012283F83E207B68012283F83F20DA
:101B4C007B68012283F840207B68012283F84120C6
:101B5C007B68012283F842207B68012283F84320B2
:101B6C007B68012283F844207B68012283F845209E
:101B7C007B68012283F83D20002318460837BD46B8
:101B8C0080BD000080B485B000AF78607B6893F8AE
:101B9C003D30DBB2012B01D001232DE07B6802220A
:101BAC0083F83D207B681B68164A934209D07B68FA
:101BBC001B68B3F1804F04D07B681B68124A9342B8
:101BCC0011D17B681B689B6803F00703FB60FB6803
:101BDC00062B10D07B681B681A687B681B6842F068
:101BEC0001021A6007E07B681B681A687B681B6837
:101BFC0042F001021A60002318461437BD4680BC1F
:101C0C00704700BF002C01400004004080B582B03A
:101C1C0000AF78607B68002B01D1012341E07B6829
:101C2C0093F83D30DBB2002B06D17B68002283F8A1
:101C3C003C20786800F039F87B68022283F83D205C
:101C4C007B681A687B6804331946104600F054FA16
:101C5C007B68012283F846207B68012283F83E20B2
:101C6C007B68012283F83F207B68012283F84020A7
:101C7C007B68012283F841207B68012283F8422093
:101C8C007B68012283F843207B68012283F844207F
:101C9C007B68012283F845207B68012283F83D2074
:101CAC00002318460837BD4680BD80B483B000AF12
:101CBC00786000BF0C37BD4680BC704780B584B0DF
:101CCC0000AF786039603B68002B09D17B6893F8D2
:101CDC003E30DBB2012B14BF01230023DBB222E028
:101CEC003B68042B09D17B6893F83F30DBB2012BA6
:101CFC0014BF01230023DBB215E03B68082B09D18C
:101D0C007B6893F84030DBB2012B14BF0123002316
:101D1C00DBB208E07B6893F84130DBB2012B14BFD7
:101D2C0001230023DBB2002B01D0012359E03B68D7
:101D3C00002B04D17B68022283F83E2013E03B6821
:101D4C00042B04D17B68022283F83F200BE03B6814
:101D5C00082B04D17B68022283F8402003E07B68C7
:101D6C00022283F841207B681B68012239681846DF
:101D7C0000F038FC7B681B681C4A934207D17B68D7
:101D8C001B685A6C7B681B6842F400425A647B687F
:101D9C001B68164A934209D07B681B68B3F1804FCD
:101DAC0004D07B681B68124A934211D17B681B6874
:101DBC009B6803F00703FB60FB68062B10D07B6865
:101DCC001B681A687B681B6842F001021A6007E006
:101DDC007B681B681A687B681B6842F001021A60FA
:101DEC00002318461037BD4680BD00BF002C0140B3
:101DFC000004004080B584B000AFF860B9607A6030
:101E0C00FB6893F83C30012B01D10223ACE0FB685A
:101E1C00012283F83C207B680C2B00F29F8001A2EE
:101E2C0052F823F0651E0008691F0008691F00089E
:101E3C00691F0008A51E0008691F0008691F00081B
:101E4C00691F0008E71E0008691F0008691F0008C9
:101E5C00691F0008271F0008FB681B68B968184633
:101E6C0000F0A2F9FB681B689A69FB681B6842F0DA
:101E7C0008029A61FB681B689A69FB681B6822F070
:101E8C0004029A61FB681B689969BB681A69FB6854
:101E9C001B680A439A6162E0FB681B68B9681846C4
:101EAC0000F0E8F9FB681B689A69FB681B6842F450
:101EBC0000629A61FB681B689A69FB681B6822F4D4
:101ECC0080629A61FB681B689969BB681B691A027E
:101EDC00FB681B680A439A6141E0FB681B68B968A0
:101EEC00184600F031FAFB681B68DA69FB681B685E
:101EFC0042F00802DA61FB681B68DA69FB681B6850
:101F0C0022F00402DA61FB681B68D969BB681A69A4
:101F1C00FB681B680A43DA6121E0FB681B68B9683F
:101F2C00184600F07BFAFB681B68DA69FB681B68D3
:101F3C0042F40062DA61FB681B68DA69FB681B68B3
:101F4C0022F48062DA61FB681B68D969BB681B6983
:101F5C001A02FB681B680A43DA6100E000BFFB68E9
:101F6C00002283F83C20002318461037BD4680BD64
:101F7C0080B584B000AF786039607B6893F83C30F2
:101F8C00012B01D10223B3E07B68012283F83C20B2
:101F9C007B68022283F83D207B681B689B68FB6092
:101FAC00FB6823F07703FB60FB6823F47F43FB6043
:101FBC007B681B68FA689A603B681B68B3F5005F26
:101FCC003ED0B3F5005F00F28780B3F5805F00F080
:101FDC008580B3F5805F7FD8702B1AD0702B7BD89F
:101FEC00602B50D0602B77D8502B3CD0502B73D813
:101FFC00402B58D0402B6FD8302B64D0302B6BD863
:10200C00202B60D0202B67D8002B5CD0102B5AD003
:10201C0062E07B6818683B6899683B685A683B6863
:10202C00DB6800F0C0FA7B681B689B68FB60FB6890
:10203C0043F07703FB607B681B68FA689A604EE09C
:10204C007B6818683B6899683B685A683B68DB6832
:10205C0000F0A9FA7B681B689A687B681B6842F4DD
:10206C0080429A603BE07B6818683B6859683B6823
:10207C00DB681A4600F020FA7B681B685021184672
:10208C0000F077FA2BE07B6818683B6859683B686E
:10209C00DB681A4600F03EFA7B681B686021184624
:1020AC0000F067FA1BE07B6818683B6859683B686E
:1020BC00DB681A4600F000FA7B681B684021184662
:1020CC0000F057FA0BE07B681A683B681B681946EE
:1020DC00104600F04EFA02E000BF00E000BF7B6843
:1020EC00012283F83D207B68002283F83C200023EA
:1020FC0018461037BD4680BD80B485B000AF7860FF
:10210C0039607B681B68FB607B68254A934207D06B
:10211C007B68B3F1804F03D07B68224A934208D18D
:10212C00FB6823F07003FB603B685B68FA68134341
:10213C00FB607B681A4A934207D07B68B3F1804FEF
:10214C0003D07B68174A934208D1FB6823F4407391
:10215C00FB603B68DB68FA681343FB60FB6823F0A9
:10216C0080023B685B691343FB607B68FA681A600A
:10217C003B689A687B68DA623B681A687B689A628B
:10218C007B68074A934203D13B681A697B681A63E0
:10219C007B6801225A6100BF1437BD4680BC704772
:1021AC00002C01400004004080B487B000AF786080
:1021BC0039607B681B6A23F001027B681A627B68BA
:1021CC001B6A7B617B685B683B617B689B69FB601E
:1021DC00FB6823F07003FB60FB6823F00303FB60D8
:1021EC003B681B68FA681343FB607B6923F00203AE
:1021FC007B613B689B687A6913437B617B681C4AF3
:10220C0093420CD17B6923F008037B613B68DB684C
:10221C007A6913437B617B6923F004037B617B68E0
:10222C00134A934211D13B6923F480733B613B69A0
:10223C0023F400733B613B685B693A6913433B6170
:10224C003B689B693A6913433B617B683A695A6006
:10225C007B68FA689A613B685A687B685A637B684A
:10226C007A691A6200BF1C37BD4680BC704700BF3C
:10227C00002C014080B487B000AF786039607B6877
:10228C001B6A23F010027B681A627B681B6A7B61F5
:10229C007B685B683B617B689B69FB60FB6823F434
:1022AC00E043FB60FB6823F44073FB603B681B68F6
:1022BC001B02FA681343FB607B6923F020037B61EC
:1022CC003B689B681B017A6913437B617B681D4AE1
:1022DC0093420DD17B6923F080037B613B68DB6803
:1022EC001B017A6913437B617B6923F040037B619B
:1022FC007B68144A934213D13B6923F480633B619E
:10230C003B6923F400633B613B685B699B003A6962
:10231C0013433B613B689B699B003A6913433B61E8
:10232C007B683A695A607B68FA689A613B685A68BC
:10233C007B689A637B687A691A6200BF1C37BD465A
:10234C0080BC7047002C014080B487B000AF78602F
:10235C0039607B681B6A23F480727B681A627B6825
:10236C001B6A7B617B685B683B617B68DB69FB603C
:10237C00FB6823F07003FB60FB6823F00303FB6036
:10238C003B681B68FA681343FB607B6923F400739A
:10239C007B613B689B681B027A6913437B617B689A
:1023AC001D4A93420DD17B6923F400637B613B682A
:1023BC00DB681B027A6913437B617B6923F48063BE
:1023CC007B617B68144A934213D13B6923F480539D
:1023DC003B613B6923F400533B613B685B691B0128
:1023EC003A6913433B613B689B691B013A69134390
:1023FC003B617B683A695A607B68FA68DA613B68D2
:10240C005A687B68DA637B687A691A6200BF1C378A
:10241C00BD4680BC704700BF002C014080B487B023
:10242C0000AF786039607B681B6A23F480527B684C
:10243C001A627B681B6A3B617B685B687B617B68AB
:10244C00DB69FB60FB6823F4E043FB60FB6823F46F
:10245C004073FB603B681B681B02FA681343FB600C
:10246C003B6923F400533B613B689B681B033A694F
:10247C0013433B617B680F4A934209D17B6923F478
:10248C0080437B613B685B699B017A6913437B6189
:10249C007B687A695A607B68FA68DA613B685A68CB
:1024AC007B681A647B683A691A6200BF1C37BD46A8
:1024BC0080BC7047002C014080B487B000AFF8603E
:1024CC00B9607A60FB681B6A7B61FB681B6A23F04E
:1024DC000102FB681A62FB689B693B613B6923F054
:1024EC00F0033B617B681B013A6913433B617B69D9
:1024FC0023F00A037B617A69BB6813437B61FB6839
:10250C003A699A61FB687A691A6200BF1C37BD464A
:10251C0080BC704780B487B000AFF860B9607A6057
:10252C00FB681B6A23F01002FB681A62FB689B694C
:10253C007B61FB681B6A3B617B6923F470437B61A5
:10254C007B681B037A6913437B613B6923F0A0030F
:10255C003B61BB681B013A6913433B61FB687A69B9
:10256C009A61FB683A691A6200BF1C37BD4680BC91
:10257C00704780B485B000AF786039607B689B6829
:10258C00FB60FB6823F07003FB603A68FB68134345
:10259C0043F00703FB607B68FA689A6000BF14374E
:1025AC00BD4680BC704780B487B000AFF860B9609E
:1025BC007A603B60FB689B687B617B6923F47F439B
:1025CC007B613B681A027B681A43BB6813437A69C8
:1025DC0013437B61FB687A699A6000BF1C37BD4668
:1025EC0080BC704780B487B000AFF860B9607A6087
:1025FC00BB6803F01F03012202FA03F37B61FB6843
:10260C001A6A7B69DB431A40FB681A62FB681A6A18
:10261C00BB6803F01F03796801FA03F31A43FB68E4
:10262C001A6200BF1C37BD4680BC704780B485B0B1
:10263C0000AF786039607B6893F83C30012B01D196
:10264C00022341E07B68012283F83C207B68022254
:10265C0083F83D207B681B685B68FB607B681B68AC
:10266C009B68BB60FB6823F07003FB603B681B68D6
:10267C00FA681343FB607B681B68FA685A607B68D6
:10268C001B68144A934209D07B681B68B3F1804FD6
:10269C0004D07B681B68104A93420CD1BB6823F0B2
:1026AC008003BB603B685B68BA681343BB607B68A4
:1026BC001B68BA689A607B68012283F83D207B68AE
:1026CC00002283F83C20002318461437BD4680BCFA
:1026DC00704700BF002C01400004004080B582B060
:1026EC0000AF78607B68002B01D101233FE07B6851
:1026FC0093F83D30DBB2002B06D17B68002283F8C7
:10270C003C20786800F000FD7B68242283F83D2093
:10271C007B681B68DA687B681B6822F40052DA60FD
:10272C00786800F005F97B681B681A697B681B6880
:10273C0022F490421A617B681B685A697B681B689B
:10274C0022F02A025A617B681B68DA687B681B6876
:10275C0042F40052DA607B6800221A647B68202203
:10276C0083F83D207B68202283F83E200023184606
:10277C000837BD4680BD80B58AB002AFF860B9603D
:10278C003B601346FB8000237B61FB6893F83D3074
:10279C00DBB2202B7CD1BB68002B02D0FB88002B3A
:1027AC0001D1012375E0FB6893F83C30012B01D17A
:1027BC0002236EE0FB68012283F83C20FB680022B8
:1027CC001A64FB68212283F83D20FDF711FD786126
:1027DC00FB68FA889A84FB68FA88DA84FB689B6841
:1027EC00B3F5805F08D1FB681B69002B04D1002373
:1027FC00FB61BB68BB6103E0BB68FB610023BB6191
:10280C00FB68002283F83C202AE03B6800937B693C
:10281C0000228021F86800F040F80346002B01D01C
:10282C00032336E0FB69002B0BD1BB691B881A46CE
:10283C00FB681B68C2F308025A60BB690233BB61B8
:10284C0007E0FB691A78FB681B685A60FB69013367
:10285C00FB61FB68DB8C9BB2013B9AB2FB68DA84B0
:10286C00FB68DB8C9BB2002BCFD13B6800937B6960
:10287C0000224021F86800F010F80346002B01D02C
:10288C00032306E0FB68202283F83D20002300E0B0
:10289C00022318462037BD4680BD80B584B000AFFA
:1028AC00F860B9603B601346FB712CE0BB69B3F177
:1028BC00FF3F28D0BB69002B07D0FDF799FC0246DF
:1028CC003B68D31ABA699A421DD2FB681B68DA6856
:1028DC00FB681B6822F4D072DA60FB681B685A69CB
:1028EC00FB681B6822F001025A61FB68202283F806
:1028FC003D20FB68202283F83E20FB68002283F8F1
:10290C003C2003230FE0FB681B681A68BB6813406C
:10291C00BA689A420CBF01230023DBB21A46FB793A
:10292C009A42C3D0002318461037BD4680BD000024
:10293C0080B584B000AF78607B681B681B6923F49A
:10294C0040517B68DA687B681B680A431A617B68B4
:10295C009A687B681B691A437B685B691343BB608D
:10296C007B681B68DB6823F4B05323F00C037A6894
:10297C001268B9680B43D3607B681B685B6923F4EE
:10298C0040717B689A697B681B680A435A617B6853
:10299C001B682C4A934203D1FEF7FCFEF86002E060
:1029AC00FEF7E4FEF860FA6813469B0013449A00A5
:1029BC001A447B685B689B00B2FBF3F3224AA2FBD0
:1029CC0003235B091901FA6813469B0013449A0010
:1029DC001A447B685B689B00B2FBF3F21A4BA3FBB7
:1029EC0002035B09642000FB03F3D31A1B0132338F
:1029FC00154AA2FB03235B0903F0F0031944FA68A0
:102A0C0013469B0013449A001A447B685B689B0036
:102A1C00B2FBF3F20C4BA3FB02035B09642000FB3B
:102A2C0003F3D31A1B013233074AA2FB03235B09BE
:102A3C0003F00F027B681B680A449A6000BF1037D2
:102A4C00BD4680BD003801401F85EB5180B588B074
:102A5C0000AFFDF775FB00F001F900F03BFA00F058
:102A6C008DF900F04DF900F00BFA7548FDF7C6FC36
:102A7C007448FFF787F808217248FFF71FF94021C7
:102A8C007148FEF76FFA0346002B5DD0012B40F026
:102A9C00D2800C216B48FFF711F94FF47A7168481A
:102AAC00FDF75AFD6648FDF75DFE03467B837B8B85
:102ABC001B017B837A8B3B1D6449184600F024FC78
:102ACC00391D642314226248FFF755FE02230222AB
:102ADC0060495F48FFF74FFEC820FDF793FB7B8BE7
:102AEC00B3F5EA6F10D200224FF480415A48FEF73A
:102AFC0050FA01224FF400415748FEF74AFA7B8BFB
:102B0C00C3F5E163FB6117E07B8B40F26C7293427F
:102B1C0010D900224FF400414F48FEF73AFA012237
:102B2C004FF480414C48FEF734FA7B8BA3F5E163FC
:102B3C00FB6101E00023FB61424B1B68FA691A64DC
:102B4C003220FDF75FFB79E000224FF480414248D0
:102B5C00FEF71FFA00224FF400413F48FEF719FA26
:102B6C0040213D48FEF7FEF90346002B17D1002209
:102B7C004FF480513848FEF70CFA00224FF4005104
:102B8C003548FEF706FA00224FF480413248FEF732
:102B9C0000FA00224FF400412F48FEF7FAF9802189
:102BAC002D48FEF7DFF90346002B0BD101224FF421
:102BBC0080512948FEF7EDF900224FF400512648C8
:102BCC00FEF7E7F94FF480712348FEF7CBF9034683
:102BDC00002B0BD100224FF480511F48FEF7D9F97E
:102BEC0001224FF400511C48FEF7D3F94FF4007149
:102BFC001948FEF7B7F90346002B03D1114B1B689C
:102C0C001922DA634FF480611348FEF7ABF90346DF
:102C1C00002B03D10B4B1B683222DA634FF400619B
:102C2C000D48FEF79FF90346002B06D1054B1B6898
:102C3C004B22DA6301E000BF21E700BF1FE700BFB2
:102C4C0090000020C000002000080140403C00081B
:102C5C0008010020543C0008000C014080B594B0E1
:102C6C0000AF07F1280328220021184600F044FB8E
:102C7C0007F1140300221A605A609A60DA601A6134
:102C8C003B1D00221A605A609A60DA600223BB6214
:102C9C000123BB631023FB6300237B6407F1280330
:102CAC001846FEF78FF90346002B01D000F06CF9A3
:102CBC000F237B610023BB610023FB614FF4806316
:102CCC003B6200237B6207F1140300211846FEF7D8
:102CDC00FBFB0346002B01D000F056F902237B606E
:102CEC004FF40043FB603B1D1846FEF785FD034681
:102CFC00002B01D000F048F900BF5037BD4680BD15
:102D0C0080B584B000AF3B1D00221A605A609A60F7
:102D1C00184B194A1A60174B00229A60154B012266
:102D2C001A73144B00221A75124B4FF46022DA619D
:102D3C00104B00225A600F4B01221A610D48FDF70F
:102D4C0085FA0346002B01D000F01EF909237B60A5
:102D5C000123BB600023FB603B1D19460548FDF7B2
:102D6C000DFD0346002B01D000F00EF900BF10370B
:102D7C00BD4680BD900000200024014080B58EB07F
:102D8C0000AF07F1280300221A605A609A60DA60DB
:102D9C0007F1200300221A605A603B1D00221A60C2
:102DAC005A609A60DA601A615A619A61334B4FF03B
:102DBC0080421A60314B4FF448725A602F4B0022FC
:102DCC009A602E4B4FF47A72DA602C4B00221A6107
:102DDC002A4B00229A612948FEF784FE0346002BF9
:102DEC0001D000F0D1F84FF48053BB6207F12803F7
:102DFC0019462248FFF7BCF80346002B01D000F01F
:102E0C00C3F81E48FEF702FF0346002B01D000F06A
:102E1C00BBF800233B6200237B6207F120031946B9
:102E2C001648FFF703FC0346002B01D000F0ACF86A
:102E3C0060237B604FF4FA73BB600023FB600023BC
:102E4C007B613B1D082219460C48FEF7D3FF034655
:102E5C00002B01D000F098F83B1D0C2219460748B6
:102E6C00FEF7C8FF0346002B01D000F08DF8034895
:102E7C0000F01AF900BF3837BD4680BDC0000020F5
:102E8C0080B500AF114B124A1A60104B4FF416521A
:102E9C005A600E4B00229A600C4B0022DA600B4BEE
:102EAC0000221A61094B0C225A61084B00229A61CC
:102EBC00064B0022DA610548FFF710FC0346002B95
:102ECC0001D000F061F800BF80BD00BF08010020F8
:102EDC000038014080B586B000AF07F1080300222E
:102EEC001A605A609A60DA60244B9B69234A43F05B
:102EFC0004039361214B9B6903F004037B607B68A3
:102F0C001E4B9B691D4A43F0080393611B4B9B6945
:102F1C0003F008033B603B6800224FF470411848F3
:102F2C00FEF737F86023BB600023FB6000233B6196
:102F3C0007F1080319461348FDF798FE4FF47C631C
:102F4C00BB600023FB6001233B6107F108031946BA
:102F5C000B48FDF78BFE4FF47043BB600123FB6005
:102F6C0000233B6102237B6107F1080319460448E7
:102F7C00FDF77CFE00BF1837BD4680BD0010024037
:102F8C00000C01400008014080B400AF00BFBD46FA
:102F9C0080BC704780B485B000AF154B9B69144A58
:102FAC0043F001039361124B9B6903F00103BB6077
:102FBC00BB680F4BDB690E4A43F08053D3610C4B5B
:102FCC00DB6903F080537B607B680A4B5B68FB60BA
:102FDC00FB6823F0E063FB60FB6843F08063FB60FD
:102FEC00044AFB68536000BF1437BD4680BC704771
:102FFC00001002400000014080B588B000AF78603E
:10300C0007F1100300221A605A609A60DA607B683C
:10301C001B68144A934221D1134B9B69124A43F407
:10302C0000739361104B9B6903F40073FB60FB68A6
:10303C000D4B9B690C4A43F0080393610A4B9B6947
:10304C0003F00803BB60BB6802233B6103237B6175
:10305C0007F1100319460548FDF708FE00BF20379D
:10306C00BD4680BD0024014000100240000C014010
:10307C0080B485B000AF78607B681B68B3F1804F7B
:10308C000BD1084BDB69074A43F00103D361054BB5
:10309C00DB6903F00103FB60FB6800BF1437BD461E
:1030AC0080BC70470010024080B588B000AF7860DB
:1030BC0007F1100300221A605A609A60DA607B688C
:1030CC001B68B3F1804F17D10D4B9B690C4A43F031
:1030DC00040393610A4B9B6903F00403FB60FB68D8
:1030EC000C233B6102237B610223FB6107F110037C
:1030FC0019460448FDF7BAFD00BF2037BD4680BD18
:10310C00001002400008014080B588B000AF786024
:10311C0007F1100300221A605A609A60DA607B682B
:10312C001B681C4A934231D11B4B9B691A4A43F4CE
:10313C0080439361184B9B6903F48043FB60FB68ED
:10314C00154B9B69144A43F004039361124B9B6922
:10315C0003F00403BB60BB684FF400733B610223B4
:10316C007B610323FB6107F1100319460B48FDF744
:10317C007DFD4FF480633B6100237B610023BB61C9
:10318C0007F1100319460548FDF770FD00BF203705
:10319C00BD4680BD003801400010024000080140CF
:1031AC0080B400AF00BFBD4680BC704780B400AF98
:1031BC00FEE780B400AFFEE780B400AFFEE780B45A
:1031CC0000AFFEE780B400AF00BFBD4680BC7047C7
:1031DC0080B400AF00BFBD4680BC704780B400AF68
:1031EC0000BFBD4680BC704780B500AFFCF7EEFF5A
:1031FC0000BF80BD80B584B000AF7860114B1B68F8
:10320C00002B02D10F4B104A1A600E4B1B68FB604F
:10321C000C4B1A687B6813446A46934207D900F03A
:10322C0041F803460C221A604FF0FF3306E0054BC1
:10323C001A687B681344034A1360FB6818461037FE
:10324C00BD4680BD4C0100206001002080B400AF61
:10325C0000BFBD4680BC70470C480D490D4A002389
:10326C0002E0D458C4500433C4188C42F9D30A4A2F
:10327C000A4C002301E013600432A242FBD3FFF797
:10328C00E5FF00F015F8FFF7E1FB704700000020A8
:10329C0070000020AC3C0008700000206001002091
:1032AC00FEE70000014B1868704700BF0C000020BF
:1032BC0070B500260C4D0D4C641BA410A64209D110
:1032CC0000F09CFC00260A4D0A4C641BA410A6427C
:1032DC0005D170BD55F8043B98470136EEE755F81B
:1032EC00043B98470136F2E7A43C0008A43C0008D4
:1032FC00A43C0008A83C000803460244934200D1B9
:10330C00704703F8011BF9E70EB46FF0004100B5EC
:10331C009CB01DAB02900690079104910848094996
:10332C0053F8042B0591006802A9019300F068F88A
:10333C000022029B1A701CB05DF804EB03B07047BE
:10334C000C0000200802FFFF2DE9F0478E68824632
:10335C009E420C4690461F4638D88A8912F4906FCC
:10336C0032D0256809690133A5EB010965694B4425
:10337C0005EB450505EBD5756D109D4238BF1D4617
:10338C00530531D5294600F06FFB064650B90C2386
:10339C004FF0FF30CAF80030A38943F04003A381FB
:1033AC00BDE8F0874A46216900F0CEFAA38923F4E0
:1033BC00906343F08003A38126614E4426603E4611
:1033CC006561A5EB0905A560BE4200D93E463246B3
:1033DC004146206800F0C6FAA36800209B1BA3603E
:1033EC00236833442360DBE72A4600F0B1FB064632
:1033FC000028E1D15046216900F0CEFAC7E7000061
:10340C002DE9F04F98468B8907461B060D4614464E
:10341C009DB00ED50B6963B9402100F025FB2860E7
:10342C00286120B90C233B604FF0FF30D1E04023E2
:10343C006B610023099320238DF8293030234FF042
:10344C000109CDF80C80DFF8A4818DF82A302346D1
:10345C009A4613F8012B0AB1252AF9D1BAEB040BC1
:10346C000BD05B46224629463846FFF76DFF0130EC
:10347C0000F0AA80099A5A4409929AF80030002B5D
:10348C0000F0A28000234FF0FF32CDE905230AF1B2
:10349C00010A049307938DF853301A93544605226E
:1034AC0014F8011B514800F041FA049AD8B9D0061F
:1034BC0044BF20238DF85330110744BF2B238DF8C4
:1034CC0053309AF800302A2B15D0544600204FF078
:1034DC000A0C079A214611F8013B303B092B4ED9B7
:1034EC00B0B1079214E0A0EB080309FA03F31343FD
:1034FC00A2460493D2E7039B191D1B680391002B72
:10350C00BBBF5B4242F0020207930793B8BF049221
:10351C0023782E2B0CD163782A2B35D1039B0234C4
:10352C001A1D1B680392002BB8BF4FF0FF33059395
:10353C00DFF8BCA003225046217800F0F7F940B127
:10354C004023A0EB0A0003FA00F0049B0134034370
:10355C00049314F8011B062226488DF8281000F05D
:10356C00E5F9002838D0244B1BBB039B073323F011
:10357C00070308330393099B3344099367E70C460D
:10358C0001200CFB0232A5E700234FF00A0C194670
:10359C0001340593204610F8012B303A092A03D93F
:1035AC00002BC5D00591C3E7044601230CFB012178
:1035BC00F0E703AB00932A463846104B04A9AFF34F
:1035CC000080421C0646D6D1AB895B063FF52CAF7A
:1035DC0009981DB0BDE8F08F03AB00932A4638461E
:1035EC00064B04A900F07CF8EBE700BF703C000828
:1035FC00763C00087A3C00080000000055330008B7
:10360C002DE9F047164699468A680B69074693429E
:10361C00B8BF1346336091F843200C46DDF8208088
:10362C000AB1013333602368990642BF3368023311
:10363C003360256815F0060506D104F1190AE36814
:10364C0032689B1AAB4228DC94F84320131E226884
:10365C0018BF012392062DD44946384604F1430283
:10366C00C047013020D02368E56803F00603042B23
:10367C0018BF002532684FF00006A36808BFAD1ACA
:10368C00226908BF25EAE5759342C4BF9B1AED1861
:10369C001A34B5421AD1002008E00123524649469B
:1036AC003846C047013003D14FF0FF30BDE8F087FA
:1036BC000135C4E73020E11881F843005A1C94F816
:1036CC0045102244023382F84310C5E701232246F9
:1036DC0049463846C0470130E6D00136D9E70000EC
:1036EC002DE9FF470F7E9146782F80460C469A466F
:1036FC000C9D01F1430207D8622F0AD8002F00F06D
:10370C00D980582F00F0A48004F1420584F842704F
:10371C003AE0A7F16303152BF6D801A151F823F079
:10372C008537000899370008153700081537000849
:10373C0015370008153700089937000815370008A9
:10374C00153700081537000815370008A73800088A
:10375C00C9370008893800081537000815370008E4
:10376C00C938000815370008C93700081537000894
:10377C0015370008913800082B681A1D1B682A6041
:10378C0004F1420584F842300123A4E02068296842
:10379C00060601F104030AD50E682B60002E03DA2D
:1037AC002D23764284F843300A235E4819E00E68D4
:1037BC0010F0400F2B6018BF36B2EFE72B68206873
:1037CC00191D2960010601D51E6802E04606FBD5CD
:1037DC001E886F2F0CBF08230A235248002184F83F
:1037EC0043106568002DA8BF2168A560A4BF21F017
:1037FC00040121600EB9002D4DD01546B6FBF3F136
:10380C0003FB1167C75D05F8017D3746BB420E46C9
:10381C00F4D9082B0BD12368DE0708D5236961681E
:10382C009942DEBF302305F8013C05F1FF35521BF0
:10383C0022614B4621464046CDF800A003AAFFF773
:10384C00DFFE01304CD14FF0FF3004B0BDE8F08703
:10385C00344881F845702968236851F8046B296055
:10386C001D0614D5DF0744BF43F0200323601EB9A7
:10387C00236823F0200323601023AFE7236843F071
:10388C00200323607823284884F84530E3E7590661
:10389C0048BFB6B2E6E71546BBE72B682668181D8D
:1038AC006169286035061B6801D5196002E0700655
:1038BC00FBD51980002315462361BAE72B6800213C
:1038CC001A1D2A601D686268284600F02FF808B19E
:1038DC00401B606063682361002384F84330A8E7D1
:1038EC002A46494640462369D0470130ABD023686D
:1038FC009B0713D4E068039B9842B8BF1846A4E713
:10390C000123324649464046D04701309BD0013511
:10391C00E36803995B1AAB42F2DCEBE7002504F198
:10392C001906F5E7813C0008923C0008034610B5E7
:10393C00C9B202449342184601D1002003E0047836
:10394C0001338C42F6D110BD0A44914200F1FF3391
:10395C0000D1704710B511F8014B914203F8014F9B
:10396C00F9D110BD884210B501EB020402D9844292
:10397C00234607D8431EA14208D011F8012B03F8A7
:10398C00012FF8E7014602448A4200D110BD13F81A
:10399C00014D02F8014DF7E738B50546002940D036
:1039AC0051F8043C0C1F002BB8BFE41800F010F9C0
:1039BC001C4A136833B9636014602846BDE838406C
:1039CC0000F00CB9A34208D9206821188B4201BF22
:1039DC0019685B6809182160EDE71A465B680BB142
:1039EC00A342FAD911685018A0420BD120680144A7
:1039FC00501883421160E0D118685B680144116073
:103A0C005360DAE702D90C232B60D6E72068211823
:103A1C008B4201BF19685B680918216063605460B0
:103A2C00CBE738BD5001002070B50E4E0C46316806
:103A3C00054611B900F0BCF830602146284600F06C
:103A4C00B7F8431C0AD0C41C24F00304A04207D0CE
:103A5C00211A284600F0ACF8013001D14FF0FF34A8
:103A6C00204670BD540100202DE9F041CD1C25F0FD
:103A7C00030508350C2D38BF0C25002D074601DB3E
:103A8C00A94205D90C2300263B603046BDE8F081E5
:103A9C002E4E00F09DF833681C4634BB2946384640
:103AAC00FFF7C2FF431C04464DD134682646002E56
:103ABC0040D123683146384604EB030800F078F80F
:103ACC0080453AD1216803356D1A25F00305083578
:103ADC000C2D38BF0C2538462946FFF7A5FF0130C1
:103AEC002BD023682B4423600EE02268521B1ED47B
:103AFC000B2A16D96119A342256018BF5960636857
:103B0C0008BF316062514B60384604F10B0600F07F
:103B1C0065F826F00706231DF21AB6D09B1BA3509E
:103B2C00B3E76268A3420CBF32605A60ECE72346ED
:103B3C006468B2E734467668B9E70C2338463B60D4
:103B4C0000F04CF8A1E72560DEE700BF5001002033
:103B5C002DE9F041804614460E4621B91146BDE8C8
:103B6C00F041FFF781BF2AB9FFF716FF254628461B
:103B7C00BDE8F08100F038F88442074602D8B4EB77
:103B8C00500F12D821464046FFF76EFF054600281D
:103B9C00EDD0BC422246314628BF3A46FFF7D4FE50
:103BAC0031464046FFF7F8FEE1E73546DFE7000017
:103BBC0038B50023054D044608462B60FFF71AFB69
:103BCC00431C02D12B6803B1236038BD580100207F
:103BDC00014800F011B800BF5C010020014800F062
:103BEC000CB800BF5C01002051F8043C181F002BDE
:103BFC00BCBF0B58C018704770477047F8B500BF72
:103C0C00F8BC08BC9E467047F8B500BFF8BC08BCB1
:043C1C009E46704709
:103C200002030405060708090A0B0C0D0E0F1010FD
:103C300002030405060708090A0B0C0D0E0F1010ED
:103C40004144432076616C7565203D202025752018
:103C5000000000000A0D000000000000000000004D
:103C60000102030406070809000000000102030422
:103C7000232D302B2000686C4C0065666745464755
:103C800000303132333435363738394142434445D8
:103C90004600303132333435363738396162636447
:043CA0006566000055
:043CA40031010008E2
:043CA8000D01000802
:103CAC0010000000010000000024F40010000020AF
:103CBC0000000000000000000000000000000000F8
:103CCC0000000000000000000000000000000000E8
:103CDC0000000000000000000000000000000000D8
:103CEC0000000000000000000000000000000000C8
:103CFC0000000000000000000000000000000000B8
:103D0C0000000000000000000000000000000000A7
:040000050800326558
:00000001FF
