:020000040800F2
:100000000028002041260008E1250008ED25000811
:10001000F3250008F9250008FF250008000000006E
:10002000000000000000000000000000052600089D
:1000300011260008000000001D26000829260008DF
:1000400089260008892600088926000889260008D4
:1000500089260008892600088926000889260008C4
:1000600089260008892600088926000889260008B4
:1000700089260008892600088926000889260008A4
:100080008926000889260008892600088926000894
:100090008926000889260008892600088926000884
:1000A0008926000889260008892600088926000874
:1000B000892600088926000800000000892600081B
:1000C00089260008000000000000000089260008C2
:1000D00000000000892600088926000800000000B2
:1000E00089260008892600088926000800000000EB
:1000F0000000000000000000000000000000000000
:0C01000000000000000000005FF808F1A3
:10010C0010B5054C237833B9044B13B10448AFF345
:10011C0000800123237010BD0C00002000000000A3
:10012C00E426000808B5034B1BB103490348AFF3A1
:10013C00008008BD0000000010000020E42600082C
:10014C004FF0FF0C1CEAD0521EBF1CEAD15392EAAE
:10015C000C0F93EA0C0F6FD01A4480EA010C40028A
:10016C0018BF5FEA41211ED04FF0006343EA5010E4
:10017C0043EA5111A0FB01310CF00040B1F5000F26
:10018C003EBF490041EAD3715B0040EA010062F1D5
:10019C007F02FD2A1DD8B3F1004F40EBC25008BFBF
:1001AC0020F00100704790F0000F0CF0004C08BFDD
:1001BC0049024CEA502040EA51207F3AC2BFD2F1AA
:1001CC00FF0340EAC250704740F400004FF00003B8
:1001DC00013A5DDC12F1190FDCBF00F000407047F2
:1001EC00C2F10002410021FA02F1C2F1200200FA30
:1001FC0002FC5FEA310040F1000053EA4C0308BFF7
:10020C0020EADC70704792F0000F00F0004C02BF47
:10021C00400010F4000F013AF9D040EA0C0093F0C2
:10022C00000F01F0004C02BF490011F4000F013B1C
:10023C00F9D041EA0C018FE70CEAD15392EA0C0F8A
:10024C0018BF93EA0C0F0AD030F0004C18BF31F0F5
:10025C00004CD8D180EA010000F00040704790F0CB
:10026C00000F17BF90F0004F084691F0000F91F06F
:10027C00004F14D092EA0C0F01D142020FD193EA35
:10028C000C0F03D14B0218BF084608D180EA0100BD
:10029C0000F0004040F0FE4040F40000704740F099
:1002AC00FE4040F44000704780F0004002E000BF88
:1002BC0081F0004142001FBF5FEA410392EA030F45
:1002CC007FEA226C7FEA236C6AD04FEA1262D2EB8F
:1002DC001363C1BFD218414048404140B8BF5B4294
:1002EC00192B88BF704710F0004F40F4000020F02D
:1002FC007F4018BF404211F0004F41F4000121F043
:10030C007F4118BF494292EA030F3FD0A2F101028C
:10031C0041FA03FC10EB0C00C3F1200301FA03F1CA
:10032C0000F0004302D5494260EB4000B0F5000FED
:10033C0013D3B0F1807F06D340084FEA310102F1AC
:10034C000102FE2A51D2B1F1004F40EBC25008BF5E
:10035C0020F0010040EA03007047490040EB000028
:10036C00013A28BFB0F5000FEDD2B0FA80FCACF129
:10037C00080CB2EB0C0200FA0CF0AABF00EBC25056
:10038C0052421843BCBFD0401843704792F0000F44
:10039C0081F4000106BF80F400000132013BB5E797
:1003AC004FEA41037FEA226C18BF7FEA236C21D00D
:1003BC0092EA030F04D092F0000F08BF0846704772
:1003CC0090EA010F1CBF0020704712F07F4F04D140
:1003DC00400028BF40F00040704712F100723CBF53
:1003EC0000F50000704700F0004343F0FE4040F47D
:1003FC00000070477FEA226216BF08467FEA23633B
:10040C000146420206BF5FEA412390EA010F40F425
:10041C00800070474FF0000304E000BF10F0004371
:10042C0048BF40425FEA000C08BF704743F0964358
:10043C0001464FF000001CE050EA010208BF704773
:10044C004FF000030AE000BF50EA010208BF7047FA
:10045C0011F0004302D5404261EB41015FEA010C0F
:10046C0002BF84460146002043F0B64308BFA3F107
:10047C008053A3F50003BCFA8CF2083AA3EBC253E9
:10048C0010DB01FA02FC634400FA02FCC2F1200208
:10049C00BCF1004F20FA02F243EB020008BF20F03F
:1004AC000100704702F1200201FA02FCC2F12002A5
:1004BC0050EA4C0021FA02F243EB020008BF20EA9A
:1004CC00DC7070474FF0FF3C06E000BF4FF0010CB2
:1004DC0002E000BF4FF0010C4DF804CD4FEA400292
:1004EC004FEA41037FEA226C18BF7FEA236C11D0DC
:1004FC0001B052EA530C18BF90EA010F58BFB2EB8F
:10050C00030088BFC81738BF6FEAE17018BF40F00E
:10051C00010070477FEA226C02D15FEA402C05D1C2
:10052C007FEA236CE4D15FEA412CE1D05DF8040B47
:10053C00704700BF844608466146FFE70FB5FFF7DA
:10054C00C9FF002848BF10F1000F0FBD4DF808ED92
:10055C00FFF7F4FF0CBF012000205DF808FB00BF83
:10056C004DF808EDFFF7EAFF34BF012000205DF8DD
:10057C0008FB00BF4DF808EDFFF7E0FF94BF01202A
:10058C0000205DF808FB00BF4DF808EDFFF7D2FF27
:10059C0094BF012000205DF808FB00BF4DF808ED6A
:1005AC00FFF7C8FF34BF012000205DF808FB00BF37
:1005BC004FEA4002B2F1FE4F0FD34FF09E03B3EB64
:1005CC0012620DD94FEA002343F0004310F0004FA4
:1005DC0023FA02F018BF404270474FF000007047FA
:1005EC0012F1610F01D1420205D110F0004008BF99
:1005FC006FF0004070474FF00000704780B500AFBF
:10060C00084B1B68074A43F010031360032000F0EB
:10061C002BF9002000F008F801F014FF0023184615
:10062C0080BD00BF0020024080B582B000AF786072
:10063C00124B1A68124B1B7819464FF47A73B3FBA2
:10064C00F1F3B2FBF3F3184600F035F90346002B37
:10065C0001D001230EE07B680F2B0AD800227968A9
:10066C004FF0FF3000F00BF9064A7B681360002353
:10067C0000E0012318460837BD4680BD0800002065
:10068C00040000200000002080B400AF054B1B7854
:10069C001A46054B1B681344034A136000BFBD4642
:1006AC0080BC7047040000202800002080B400AFFC
:1006BC00024B1B681846BD4680BC704728000020C2
:1006CC0080B584B000AF7860FFF7F0FFB8607B684E
:1006DC00FB60FB68B3F1FF3F05D00A4B1B781A4651
:1006EC00FB681344FB6000BFFFF7E0FF0246BB68EA
:1006FC00D31AFA689A42F7D800BF00BF1037BD462C
:10070C0080BD00BF0400002080B485B000AF7860CD
:10071C007B6803F00703FB600C4BDB68BB60BA68BB
:10072C004FF6FF031340BB60FB681A02BB68134310
:10073C0043F0BF6343F40033BB60044ABB68D3602F
:10074C0000BF1437BD4680BC704700BF00ED00E011
:10075C0080B400AF044BDB681B0A03F00703184698
:10076C00BD4680BC704700BF00ED00E080B483B094
:10077C0000AF03463960FB7197F90730002B0ADB99
:10078C003B68DAB20C4997F907301201D2B20B442C
:10079C0083F800230AE03B68DAB20849FB7903F0DE
:1007AC000F03043B1201D2B20B441A7600BF0C3774
:1007BC00BD4680BC704700BF00E100E000ED00E0EA
:1007CC0080B489B000AFF860B9607A60FB6803F060
:1007DC000703FB61FB69C3F10703042B28BF042348
:1007EC00BB61FB690433062B02D9FB69033B00E0B8
:1007FC0000237B614FF0FF32BB6902FA03F3DA434B
:10080C00BB681A407B699A404FF0FF317B6901FA53
:10081C0003F3D9437B680B40134318462437BD467A
:10082C0080BC704780B582B000AF78607B68013BBC
:10083C00B3F1807F01D301230FE00A4A7B68013BAF
:10084C0053600F214FF0FF30FFF790FF054B002254
:10085C009A60044B07221A60002318460837BD46DD
:10086C0080BD00BF10E000E080B582B000AF7860C2
:10087C007868FFF749FF00BF0837BD4680BD80B5DB
:10088C0086B000AF0346B9607A60FB7300237B61CE
:10089C00FFF75EFF78617A68B9687869FFF790FFB7
:1008AC00024697F90F3011461846FFF75FFF00BF5D
:1008BC001837BD4680BD80B582B000AF78607868CF
:1008CC00FFF7B0FF034618460837BD4680BD000051
:1008DC0080B48BB000AF7860396000237B6200235A
:1008EC003B6261E101227B6A02FA03F3FB613B6824
:1008FC001B68FA691340BB61BA69FB699A4240F004
:10090C0050813B685B68974A93425ED0954A93420C
:10091C0075D8954A934258D0934A93426FD8934ACC
:10092C00934252D0914A934269D8914A93424CD007
:10093C008F4A934263D88F4A934246D08D4A934252
:10094C005DD8122B2AD8122B59D801A252F823F0B9
:10095C00D7090008B1090008C3090008050A0008F6
:10096C000B0A00080B0A00080B0A00080B0A000807
:10097C000B0A00080B0A00080B0A00080B0A0008F7
:10098C000B0A00080B0A00080B0A00080B0A0008E7
:10099C000B0A0008B9090008CD090008764A9342F1
:1009AC0013D02CE03B68DB683B6229E03B68DB68DA
:1009BC0004333B6224E03B68DB6808333B621FE096
:1009CC003B68DB680C333B621AE03B689B68002B8E
:1009DC0002D104233B6213E03B689B68012B05D1D9
:1009EC0008233B627B68FA691A6109E008233B62C1
:1009FC007B68FA695A6103E000233B6200E000BFA8
:100A0C00BB69FF2B01D87B6801E07B6804337B61F9
:100A1C00BB69FF2B02D87B6A9B0002E07B6A083B18
:100A2C009B003B617B691A680F213B6901FA03F358
:100A3C00DB431A40396A3B6901FA03F31A437B69B9
:100A4C001A603B685B6803F08053002B00F0A980B0
:100A5C004A4B9B69494A43F001039361474B9B699D
:100A6C0003F00103BB60BB68454A7B6A9B080233F9
:100A7C0052F82330FB607B6A03F003039B000F22C8
:100A8C0002FA03F3DB43FA681340FB607B683D4AD0
:100A9C0093420DD07B683C4A934207D07B683B4A1B
:100AAC00934201D1022304E0032302E0012300E07E
:100ABC0000237A6A02F0030292009340FA6813430F
:100ACC00FB602F497B6A9B080233FA6841F82320AC
:100ADC003B685B6803F48033002B06D02C4B1A6800
:100AEC002B49BB6913430B6006E0294B1A68BB69A1
:100AFC00DB43274913400B603B685B6803F400330E
:100B0C00002B06D0224B5A682149BB6913434B601A
:100B1C0006E01F4B5A68BB69DB431D4913404B6011
:100B2C003B685B6803F48013002B06D0184B9A6863
:100B3C001749BB6913438B6006E0154B9A68BB6978
:100B4C00DB43134913408B603B685B6803F4001371
:100B5C00002B1FD00E4BDA680D49BB691343CB60D9
:100B6C001FE000BF00003210000031100000221006
:100B7C0000002110000012100000111000100240A3
:100B8C000000014000080140000C01400010014031
:100B9C00000401400B4BDA68BB69DB430949134085
:100BAC00CB607B6A01337B623B681A687B6A22FAF2
:100BBC0003F3002B7FF496AE00BF00BF2C37BD466D
:100BCC0080BC70470004014080B483B000AF7860F3
:100BDC000B467B8013467B707B78002B03D07A8886
:100BEC007B681A6103E07B881A047B681A6100BF7A
:100BFC000C37BD4680BC704780B586B000AF7860BE
:100C0C007B68002B01D1012372E27B681B6803F027
:100C1C000103002B00F08780924B5B6803F00C0300
:100C2C00042B0CD08F4B5B6803F00C03082B12D1F8
:100C3C008C4B5B6803F48033B3F5803F0BD1894B4D
:100C4C001B6803F40033002B6CD07B685B68002BB3
:100C5C0068D101234CE27B685B68B3F5803F06D119
:100C6C00804B1B687F4A43F4803313602EE07B6813
:100C7C005B68002B0CD17B4B1B687A4A23F48033C6
:100C8C001360784B1B68774A23F4802313601DE0B4
:100C9C007B685B68B3F5A02F0CD1724B1B68714A53
:100CAC0043F4802313606F4B1B686E4A43F480330C
:100CBC0013600BE06B4B1B686A4A23F480331360A0
:100CCC00684B1B68674A23F4802313607B685B685E
:100CDC00002B13D0FFF7EAFC386108E0FFF7E6FCC5
:100CEC0002463B69D31A642B01D9032300E25D4B06
:100CFC001B6803F40033002BF0D014E0FFF7D6FC94
:100D0C00386108E0FFF7D2FC02463B69D31A642B2A
:100D1C0001D90323ECE1534B1B6803F40033002B84
:100D2C00F0D100E000BF7B681B6803F00203002BCE
:100D3C0063D04C4B5B6803F00C03002B0BD0494B7E
:100D4C005B6803F00C03082B1CD1464B5B6803F467
:100D5C008033002B16D1434B1B6803F00203002B8E
:100D6C0005D07B681B69012B01D00123C0E13D4BF1
:100D7C001B6823F0F8027B685B69DB00394913437D
:100D8C000B603AE07B681B69002B20D0364B0122AC
:100D9C001A60FFF78BFC386108E0FFF787FC02460E
:100DAC003B69D31A022B01D90323A1E12D4B1B68FC
:100DBC0003F00203002BF0D02A4B1B6823F0F8023F
:100DCC007B685B69DB00274913430B6015E0264BFE
:100DDC0000221A60FFF76AFC386108E0FFF766FC36
:100DEC0002463B69D31A022B01D9032380E11D4B28
:100DFC001B6803F00203002BF0D17B681B6803F027
:100E0C000803002B3AD07B689B69002B19D0174B39
:100E1C0001221A60FFF74AFC386108E0FFF746FC34
:100E2C0002463B69D31A022B01D9032360E10D4B17
:100E3C005B6A03F00203002BF0D0012000F0D8FA1B
:100E4C001CE00A4B00221A60FFF730FC38610FE0FF
:100E5C00FFF72CFC02463B69D31A022B08D903235B
:100E6C0046E100BF001002400000424280044242B2
:100E7C00924B5B6A03F00203002BE9D17B681B6881
:100E8C0003F00403002B00F0A6800023FB758B4BB2
:100E9C00DB6903F08053002B0DD1884BDB69874A4B
:100EAC0043F08053D361854BDB6903F08053BB6007
:100EBC00BB680123FB75824B1B6803F48073002B0A
:100ECC0018D17F4B1B687E4A43F480731360FFF785
:100EDC00EDFB386108E0FFF7E9FB02463B69D31AEA
:100EEC00642B01D9032303E1754B1B6803F4807356
:100EFC00002BF0D07B68DB68012B06D16F4B1B6A93
:100F0C006E4A43F0010313622DE07B68DB68002B13
:100F1C000CD16A4B1B6A694A23F001031362674BBD
:100F2C001B6A664A23F0040313621CE07B68DB68CF
:100F3C00052B0CD1614B1B6A604A43F0040313620E
:100F4C005E4B1B6A5D4A43F0010313620BE05B4B83
:100F5C001B6A5A4A23F001031362584B1B6A574A07
:100F6C0023F0040313627B68DB68002B15D0FFF7BA
:100F7C009DFB38610AE0FFF799FB02463B69D31AE7
:100F8C0041F28832934201D90323B1E04B4B1B6AE7
:100F9C0003F00203002BEED014E0FFF787FB38615F
:100FAC000AE0FFF783FB02463B69D31A41F2883211
:100FBC00934201D903239BE0404B1B6A03F00203CD
:100FCC00002BEED1FB7D012B05D13C4BDB693B4A61
:100FDC0023F08053D3617B68DB69002B00F08780A2
:100FEC00364B5B6803F00C03082B61D07B68DB6924
:100FFC00022B46D1334B00221A60FFF757FB3861A6
:10100C0008E0FFF753FB02463B69D31A022B01D9C8
:10101C0003236DE0294B1B6803F00073002BF0D108
:10102C007B681B6AB3F5803F08D1244B5B6823F4C3
:10103C0000327B689B68214913434B601F4B5B68F4
:10104C0023F474127B68196A7B685B6A0B431B4937
:10105C0013434B601B4B01221A60FFF727FB3861CF
:10106C0008E0FFF723FB02463B69D31A022B01D998
:10107C0003233DE0114B1B6803F00073002BF0D0F1
:10108C0035E0104B00221A60FFF710FB386108E0C6
:10109C00FFF70CFB02463B69D31A022B01D9032341
:1010AC0026E0064B1B6803F00073002BF0D11EE00A
:1010BC007B68DB69012B07D1012319E0001002408A
:1010CC0000700040600042420B4B5B68FB60FB68A9
:1010DC0003F480327B681B6A9A4206D1FB6803F4E6
:1010EC0070127B685B6A9A4201D0012300E00023F6
:1010FC0018461837BD4680BD0010024080B584B03C
:10110C0000AF786039607B68002B01D10123D0E0FF
:10111C006A4B1B6803F007033A689A4210D9674B75
:10112C001B6823F0070265493B6813430B60634B54
:10113C001B6803F007033A689A4201D00123B8E018
:10114C007B681B6803F00203002B20D07B681B68B4
:10115C0003F00403002B05D0594B5B68584A43F449
:10116C00E06353607B681B6803F00803002B05D019
:10117C00534B5B68524A43F460535360504B5B686B
:10118C0023F0F0027B689B684D4913434B607B68EE
:10119C001B6803F00103002B40D07B685B68012BBC
:1011AC0007D1474B1B6803F40033002B15D10123E7
:1011BC007FE07B685B68022B07D1414B1B6803F017
:1011CC000073002B09D1012373E03D4B1B6803F026
:1011DC000203002B01D101236BE0394B5B6823F038
:1011EC0003027B685B68364913434B60FFF75EFA7A
:1011FC00F8600AE0FFF75AFA0246FB68D31A41F28C
:10120C008832934201D9032353E02D4B5B6803F0E2
:10121C000C027B685B689B009A42EBD1274B1B68E6
:10122C0003F007033A689A4210D2244B1B6823F050
:10123C00070222493B6813430B60204B1B6803F0E9
:10124C0007033A689A4201D0012332E07B681B689D
:10125C0003F00403002B08D0194B5B6823F4E06205
:10126C007B68DB68164913434B607B681B6803F093
:10127C000803002B09D0124B5B6823F460527B6887
:10128C001B69DB000E4913434B6000F021F802464A
:10129C000B4B5B681B0903F00F030A49CB5C22FA6A
:1012AC0003F3094A1360094B1B681846FFF7BCF996
:1012BC00002318461037BD4680BD00BF00200240F9
:1012CC000010024024270008080000200000002025
:1012DC0090B48AB000AF294B3C1D0FCB84E80F00B3
:1012EC0040F201233B800023FB610023BB61002300
:1012FC007B6200237B6100233B62214B5B68FB61BB
:10130C00FB6903F00C03042B02D0082B03D02BE059
:10131C001C4B3B622BE0FB699B0C03F00F03283347
:10132C003B4413F8243C7B61FB6903F48033002BB2
:10133C0012D0134B5B685B0C03F0010328333B4466
:10134C0013F8283CBB617B690E4A03FB02F2BB69B4
:10135C00B2FBF3F37B6204E07B690B4A02FB03F301
:10136C007B627B6A3B6202E0064B3B6200BF3B6ADE
:10137C0018462837BD4690BC704700BFFC260008B5
:10138C000010024000127A0000093D0080B400AF4A
:10139C00024B1B681846BD4680BC704708000020F5
:1013AC0080B500AFFFF7F2FF0246054B5B681B0AE6
:1013BC0003F007030349CB5C22FA03F3184680BD04
:1013CC00001002403427000880B500AFFFF7DEFFA5
:1013DC000246054B5B68DB0A03F007030349CB5C51
:1013EC0022FA03F3184680BD00100240342700088F
:1013FC0080B485B000AF78600A4B1B680A4AA2FB28
:10140C0003235B0A7A6802FB03F3FB6000BFFB68F3
:10141C005A1EFA60002BF9D100BF00BF1437BD462D
:10142C0080BC704708000020D34D621080B582B09C
:10143C0000AF78607B68002B01D1012376E07B68DC
:10144C005B6A002B08D17B685B68B3F5827F09D09F
:10145C007B680022DA6105E07B6800221A617B68F8
:10146C0000225A617B6800229A627B6893F85130A3
:10147C00DBB2002B06D17B68002283F85020786801
:10148C0001F012F87B68022283F851207B681B68FC
:10149C001A687B681B6822F040021A607B685B68E4
:1014AC0003F482727B689B6803F404431A437B68E1
:1014BC00DB6803F400631A437B681B6903F00203C7
:1014CC001A437B685B6903F001031A437B689B69D1
:1014DC0003F400731A437B68DB6903F038031A4387
:1014EC007B681B6A03F0800342EA03017B689B6AFA
:1014FC0003F400527B681B680A431A607B689B6983
:10150C001A0C7B681B6802F004025A607B681B682B
:10151C00DA697B681B6822F40062DA617B6800225E
:10152C005A657B68012283F851200023184608373E
:10153C00BD4680BD80B588B000AFF860B9603B6037
:10154C001346FB800023FB77FB6893F85030012B8C
:10155C0001D1022326E1FB68012283F85020FFF71A
:10156C00A5F8B861FB88FB82FB6893F85130DBB2BD
:10157C00012B02D00223FB770BE1BB68002B02D0BE
:10158C00FB88002B02D10123FB7702E1FB680322CD
:10159C0083F85120FB6800225A65FB68BA681A630D
:1015AC00FB68FA889A86FB68FA88DA86FB68002260
:1015BC009A63FB6800229A87FB680022DA87FB6833
:1015CC0000225A64FB6800221A64FB689B68B3F51E
:1015DC00004F0FD1FB681B681A68FB681B6822F070
:1015EC0040021A60FB681B681A68FB681B6842F4AF
:1015FC0080421A60FB681B681B6803F04003402B99
:10160C0007D0FB681B681A68FB681B6842F0400235
:10161C001A60FB68DB68B3F5006F4BD1FB685B6845
:10162C00002B02D0FB8A012B3ED1FB681B6B1A8866
:10163C00FB681B68DA60FB681B6B9A1CFB681A63FF
:10164C00FB68DB8E9BB2013B9AB2FB68DA862BE01F
:10165C00FB681B689B6803F00203022B12D1FB682A
:10166C001B6B1A88FB681B68DA60FB681B6B9A1C87
:10167C00FB681A63FB68DB8E9BB2013B9AB2FB687A
:10168C00DA8611E0FFF712F80246BB69D31A3A6802
:10169C009A4203D83B68B3F1FF3F02D13B68002B61
:1016AC0002D10323FB7774E0FB68DB8E9BB2002B2B
:1016BC00CED14CE0FB685B68002B02D0FB8A012B7F
:1016CC0040D1FB681A6BFB681B680C3312781A70DC
:1016DC00FB681B6B5A1CFB681A63FB68DB8E9BB2A6
:1016EC00013B9AB2FB68DA862CE0FB681B689B68AE
:1016FC0003F00203022B13D1FB681A6BFB681B6807
:10170C000C3312781A70FB681B6B5A1CFB681A633B
:10171C00FB68DB8E9BB2013B9AB2FB68DA8611E068
:10172C00FEF7C4FF0246BB69D31A3A689A4203D843
:10173C003B68B3F1FF3F02D13B68002B02D103237E
:10174C00FB7726E0FB68DB8E9BB2002BCDD1BA6910
:10175C003968F86800F054FA0346002B02D0FB6895
:10176C0020225A65FB689B68002B0AD100233B6141
:10177C00FB681B68DB683B61FB681B689B683B6113
:10178C003B69FB685B6D002B02D00123FB7700E00B
:10179C0000BFFB68012283F85120FB68002283F80C
:1017AC005020FB7F18462037BD4680BD80B58CB0DD
:1017BC0000AFF860B9607A607B800123FB62002384
:1017CC0087F82B30FB6893F85030012B01D10223A2
:1017DC008AE1FB68012283F85020FEF767FF7862EC
:1017EC00FB6893F8513087F82330FB685B68FB612A
:1017FC007B887B8397F82330012B0FD0FB69B3F5E3
:10180C00827F07D1FB689B68002B03D197F82330AC
:10181C00042B03D0022387F82B305BE1BB68002B31
:10182C0005D07B68002B02D07B88002B03D10123D1
:10183C0087F82B304EE1FB6893F85130DBB2042B68
:10184C0003D0FB68052283F85120FB6800225A65FF
:10185C00FB687A689A63FB687A88DA87FB687A880F
:10186C009A87FB68BA681A63FB687A88DA86FB6821
:10187C007A889A86FB6800221A64FB6800225A64F4
:10188C00FB681B681B6803F04003402B07D0FB6808
:10189C001B681A68FB681B6842F040021A60FB6800
:1018AC00DB68B3F5006F78D1FB685B68002B02D066
:1018BC007B8B012B66D1FB681B6B1A88FB681B6842
:1018CC00DA60FB681B6B9A1CFB681A63FB68DB8E87
:1018DC009BB2013B9AB2FB68DA8653E0FB681B684B
:1018EC009B6803F00203022B1BD1FB68DB8E9BB2BF
:1018FC00002B16D0FB6A012B13D1FB681B6B1A88CB
:10190C00FB681B68DA60FB681B6B9A1CFB681A632C
:10191C00FB68DB8E9BB2013B9AB2FB68DA86002334
:10192C00FB62FB681B689B6803F00103012B19D158
:10193C00FB68DB8F9BB2002B14D0FB681B68DA684A
:10194C00FB689B6B92B21A80FB689B6B9A1CFB68C2
:10195C009A63FB68DB8F9BB2013B9AB2FB68DA8718
:10196C000123FB62FEF7A2FE02467B6AD31ABA6B16
:10197C009A4207D8BB6BB3F1FF3F03D0032387F820
:10198C002B30A7E0FB68DB8E9BB2002BA6D1FB684B
:10199C00DB8F9BB2002BA1D17CE0FB685B68002B3A
:1019AC0002D07B8B012B6BD1FB681A6BFB681B681D
:1019BC000C3312781A70FB681B6B5A1CFB681A6389
:1019CC00FB68DB8E9BB2013B9AB2FB68DA8657E070
:1019DC00FB681B689B6803F00203022B1CD1FB689D
:1019EC00DB8E9BB2002B17D0FB6A012B14D1FB684A
:1019FC001A6BFB681B680C3312781A70FB681B6B34
:101A0C005A1CFB681A63FB68DB8E9BB2013B9AB2D3
:101A1C00FB68DA860023FB62FB681B689B6803F09B
:101A2C000103012B19D1FB68DB8F9BB2002B14D067
:101A3C00FB681B68DA68FB689B6BD2B21A70FB6898
:101A4C009B6B5A1CFB689A63FB68DB8F9BB2013B58
:101A5C009AB2FB68DA870123FB62FEF727FE024687
:101A6C007B6AD31ABA6B9A4203D8BB6BB3F1FF3FB4
:101A7C0002D1BB6B002B03D1032387F82B3029E059
:101A8C00FB68DB8E9BB2002BA2D1FB68DB8F9BB279
:101A9C00002B9DD17A6AB96BF86800F0B1F8034657
:101AAC00002B06D0012387F82B30FB6820225A65C7
:101ABC0010E0FB689B68002B0BD100237B61FB685B
:101ACC001B68DB687B61FB681B689B687B617B69BF
:101ADC0000E000BFFB68012283F85120FB68002264
:101AEC0083F8502097F82B3018463037BD4680BD10
:101AFC0080B588B000AFF860B9603B601346FB71ED
:101B0C00FEF7D4FD0246BB6A9B1A3A681344FB618C
:101B1C00FEF7CCFDB861394B1B685B011B0DFA69F4
:101B2C0002FB03F37B6154E03B68B3F1FF3F50D001
:101B3C00FEF7BCFD0246BB69D31AFA699A4202D978
:101B4C00FB69002B3DD1FB681B685A68FB681B685E
:101B5C0022F0E0025A60FB685B68B3F5827F11D11A
:101B6C00FB689B68B3F5004F04D0FB689B68B3F52A
:101B7C00806F07D1FB681B681A68FB681B6822F032
:101B8C0040021A60FB689B6AB3F5005F0FD1FB68DB
:101B9C001B681A68FB681B6822F400521A60FB6809
:101BAC001B681A68FB681B6842F400521A60FB68D9
:101BBC00012283F85120FB68002283F85020032374
:101BCC0017E07B69002B01D10023FB617B69013B92
:101BDC007B61FB681B689A68BB681340BA689A42C1
:101BEC000CBF01230023DBB21A46FB799A429BD12E
:101BFC00002318462037BD4680BD00BF08000020DA
:101C0C0080B586B002AFF860B9607A607B680093EB
:101C1C00BB6800228021F868FFF76AFF0346002B9F
:101C2C0007D0FB685B6D43F02002FB685A65032309
:101C3C0000E0002318461037BD4680BD80B582B049
:101C4C0000AF78607B68002B01D101233FE07B68FB
:101C5C0093F83D30DBB2002B06D17B68002283F871
:101C6C003C20786800F06AFC7B68242283F83D20D5
:101C7C007B681B68DA687B681B6822F40052DA60A8
:101C8C00786800F005F97B681B681A697B681B682B
:101C9C0022F490421A617B681B685A697B681B6846
:101CAC0022F02A025A617B681B68DA687B681B6821
:101CBC0042F40052DA607B6800221A647B682022AE
:101CCC0083F83D207B68202283F83E2000231846B1
:101CDC000837BD4680BD80B58AB002AFF860B960E8
:101CEC003B601346FB8000237B61FB6893F83D301F
:101CFC00DBB2202B7CD1BB68002B02D0FB88002BE5
:101D0C0001D1012375E0FB6893F83C30012B01D124
:101D1C0002236EE0FB68012283F83C20FB68002262
:101D2C001A64FB68212283F83D20FEF7BFFC786122
:101D3C00FB68FA889A84FB68FA88DA84FB689B68EB
:101D4C00B3F5805F08D1FB681B69002B04D100231D
:101D5C00FB61BB68BB6103E0BB68FB610023BB613B
:101D6C00FB68002283F83C202AE03B6800937B69E7
:101D7C0000228021F86800F040F80346002B01D0C7
:101D8C00032336E0FB69002B0BD1BB691B881A4679
:101D9C00FB681B68C2F308025A60BB690233BB6163
:101DAC0007E0FB691A78FB681B685A60FB69013312
:101DBC00FB61FB68DB8C9BB2013B9AB2FB68DA845B
:101DCC00FB68DB8C9BB2002BCFD13B6800937B690B
:101DDC0000224021F86800F010F80346002B01D0D7
:101DEC00032306E0FB68202283F83D20002300E05B
:101DFC00022318462037BD4680BD80B584B000AFA5
:101E0C00F860B9603B601346FB712CE0BB69B3F121
:101E1C00FF3F28D0BB69002B07D0FEF747FC0246DA
:101E2C003B68D31ABA699A421DD2FB681B68DA6800
:101E3C00FB681B6822F4D072DA60FB681B685A6975
:101E4C00FB681B6822F001025A61FB68202283F8B0
:101E5C003D20FB68202283F83E20FB68002283F89B
:101E6C003C2003230FE0FB681B681A68BB68134017
:101E7C00BA689A420CBF01230023DBB21A46FB79E5
:101E8C009A42C3D0002318461037BD4680BD0000CF
:101E9C0080B584B000AF78607B681B681B6923F445
:101EAC0040517B68DA687B681B680A431A617B685F
:101EBC009A687B681B691A437B685B691343BB6038
:101ECC007B681B68DB6823F4B05323F00C037A683F
:101EDC001268B9680B43D3607B681B685B6923F499
:101EEC0040717B689A697B681B680A435A617B68FE
:101EFC001B682C4A934203D1FFF766FAF86002E0A4
:101F0C00FFF74EFAF860FA6813469B0013449A00E8
:101F1C001A447B685B689B00B2FBF3F3224AA2FB7A
:101F2C0003235B091901FA6813469B0013449A00BA
:101F3C001A447B685B689B00B2FBF3F21A4BA3FB61
:101F4C0002035B09642000FB03F3D31A1B01323339
:101F5C00154AA2FB03235B0903F0F0031944FA684A
:101F6C0013469B0013449A001A447B685B689B00E1
:101F7C00B2FBF3F20C4BA3FB02035B09642000FBE6
:101F8C0003F3D31A1B013233074AA2FB03235B0969
:101F9C0003F00F027B681B680A449A6000BF10377D
:101FAC00BD4680BD003801401F85EB5180B584B023
:101FBC0000AF786039604FF000017868FEF7D0FA16
:101FCC000346002B09D03B682D221A703B68013365
:101FDC003B607B6883F000437B6049497868FEF77F
:101FEC00AFF803461846FEF7E3FA0346FB60FA68BF
:101FFC00444B83FB02139910D317C91A0B469B0051
:10200C000B445B00D11ACAB23B6805333032D2B2F2
:10201C001A70FB683B4A82FB03129210DB17D31A2F
:10202C00FB60FA68374B83FB02139910D317C91A5C
:10203C000B469B000B445B00D11ACAB23B680433BD
:10204C003032D2B21A703B6803332E221A70FB68FE
:10205C002C4A82FB03129210DB17D31AFB60FA682E
:10206C00284B83FB02139910D317C91A0B469B00FC
:10207C000B445B00D11ACAB23B6802333032D2B285
:10208C001A70FB681F4A82FB03129210DB17D31ADB
:10209C00FB60FA681B4B83FB02139910D317C91A08
:1020AC000B469B000B445B00D11ACAB23B68013350
:1020BC003032D2B21A70FB68124A82FB03129210B1
:1020CC00DB17D31AFB60FA680E4B83FB02139910D3
:1020DC00D317C91A0B469B000B445B00D11ACBB229
:1020EC003033DAB23B681A70FB68064A82FB031283
:1020FC009210DB17D31AFB6000BF1037BD4680BDB2
:10210C000000C8426766666690B597B002AF5E4B3A
:10211C003C460FCB07C4238002341B0C237007F101
:10212C000F0300221A601A71FEF768FA00F0B6F875
:10213C0000F050F900F0EEF800F022F9802387F857
:10214C003430002387F83530012210214F48FEF738
:10215C003BFD07F13401642302224D48FFF7EAF9F5
:10216C00002210214948FEF72FFD012387F8343057
:10217C004FF00003FB64012210214448FEF724FDBC
:10218C0007F1280207F1340164230093042340482B
:10219C00FFF70CFB002210213C48FEF715FD97F8C9
:1021AC00293003F04003002B07D04FF07C51F86C22
:1021BC00FEF780F80346FB640BE097F829305BB21E
:1021CC00002B06DA4FF07A51F86CFEF773F80346E1
:1021DC00FB64022387F83430012210212B48FEF7D0
:1021EC00F3FC07F1280207F1340164230093042364
:1021FC002748FFF7DBFA002210212448FEF7E4FC05
:10220C0097F8293087F8413097F82A3087F8403012
:10221C0097F841301B021AB297F840301BB21343A7
:10222C00A7F84A30B7F94A30DB11A7F84A30B7F8AB
:10223C004A305BB27B64786CFEF7F0F803461946C3
:10224C00F86CFEF737F80346FB6407F114031946E4
:10225C00F86CFFF7ABFE3946642314220D48FFF7E8
:10226C003AFD07F11401642314220A48FFF733FDE9
:10227C000223022208490748FFF72DFD4FF47A701C
:10228C00FEF71EFA5AE700BF1027000800080140AD
:10229C002C000020840000200C27000880B590B092
:1022AC0000AF07F1180328220021184600F00CFAA1
:1022BC003B1D00221A605A609A60DA601A61022390
:1022CC00BB610123BB621023FB6200237B6307F11C
:1022DC0018031846FEF790FC0346002B01D000F0C3
:1022EC00ABF80F237B600023BB600023FB60002353
:1022FC003B6100237B613B1D00211846FEF7FEFE6F
:10230C000346002B01D000F097F800BF4037BD46C4
:10231C0080BD000080B500AF174B184A1A60164BF1
:10232C004FF482725A60144B00229A60124B0022B6
:10233C00DA60114B00221A610F4B00225A610E4BCE
:10234C004FF400729A610C4B0022DA610A4B0022A6
:10235C001A62094B00225A62074B00229A62064B02
:10236C000A22DA620448FFF761F80346002B01D019
:10237C0000F062F800BF80BD2C000020003001404E
:10238C0080B500AF114B124A1A60104B4FF4E1327A
:10239C005A600E4B00229A600C4B0022DA600B4BF9
:1023AC0000221A61094B0C225A61084B00229A61D7
:1023BC00064B0022DA610548FFF740FC0346002B70
:1023CC0001D000F039F800BF80BD00BF84000020B0
:1023DC000038014080B586B000AF07F10803002239
:1023EC001A605A609A60DA60114B9B69104A43F08C
:1023FC00040393610E4B9B6903F004037B607B68C1
:10240C00002210210B48FEF7DFFB1023BB600123D9
:10241C00FB6000233B6102237B6107F10803194633
:10242C000448FEF755FA00BF1837BD4680BD00BF03
:10243C00001002400008014080B400AF00BFBD4650
:10244C0080BC704780B485B000AF154B9B69144AB3
:10245C0043F001039361124B9B6903F00103BB60D2
:10246C00BB680F4BDB690E4A43F08053D3610C4BB6
:10247C00DB6903F080537B607B680A4B5B68FB6015
:10248C00FB6823F0E063FB60FB6843F08063FB6058
:10249C00044AFB68536000BF1437BD4680BC7047CC
:1024AC00001002400000014080B588B000AF786099
:1024BC0007F1100300221A605A609A60DA607B6898
:1024CC001B681B4A93422FD11A4B9B69194A43F440
:1024DC0080539361174B9B6903F48053FB60FB683B
:1024EC00144B9B69134A43F004039361114B9B6992
:1024FC0003F00403BB60BB68A0233B6102237B6138
:10250C000323FB6107F1100319460B48FEF7E0F9B2
:10251C0040233B6100237B610023BB6107F1100367
:10252C0019460548FEF7D4F900BF2037BD4680BDDB
:10253C0000300140001002400008014080B588B016
:10254C0000AF786007F1100300221A605A609A609D
:10255C00DA607B681B681C4A934231D11B4B9B6928
:10256C001A4A43F480439361184B9B6903F48043EC
:10257C00FB60FB68154B9B69144A43F004039361A1
:10258C00124B9B6903F00403BB60BB684FF40073F0
:10259C003B6102237B610323FB6107F110031946A6
:1025AC000B48FEF795F94FF480633B6100237B6188
:1025BC000023BB6107F1100319460548FEF788F9A3
:1025CC0000BF2037BD4680BD0038014000100240DE
:1025DC000008014080B400AF00BFBD4680BC70470E
:1025EC0080B400AFFEE780B400AFFEE780B400AF6C
:1025FC00FEE780B400AFFEE780B400AF00BFBD467D
:10260C0080BC704780B400AF00BFBD4680BC704733
:10261C0080B400AF00BFBD4680BC704780B500AF32
:10262C00FEF732F800BF80BD80B400AF00BFBD46DE
:10263C0080BC70470C480D490D4A002302E0D45869
:10264C00C4500433C4188C42F9D30A4A0A4C0023F0
:10265C0001E013600432A242FBD3FFF7E5FF00F068
:10266C000FF8FFF751FD7047000000200C00002010
:10267C00442700080C000020C8000020FEE70000E2
:10268C0070B500260C4D0D4C641BA410A64209D14C
:10269C0000F022F800260A4D0A4C641BA410A64236
:1026AC0005D170BD55F8043B98470136EEE755F857
:1026BC00043B98470136F2E73C2700083C2700080A
:1026CC003C2700084027000803460244934200D1EF
:1026DC00704703F8011BF9E7F8B500BFF8BC08BC5C
:1026EC009E467047F8B500BFF8BC08BC9E467047C4
:1026FC0002030405060708090A0B0C0D0E0F101037
:10270C000A0D000074656D706572617475726520D8
:10271C003D20000000000000000000000000000050
:10272C00010203040607080900000000010203046B
:04273C00310100085F
:042740000D0100087F
:0C27440010000000010000000024F40060
:040000050800264188
:00000001FF
