:020000040800F2
:1000000000500020A11B0008411B00084D1B0008E8
:10001000531B0008591B00085F1B0008000000006C
:10002000000000000000000000000000651B000848
:10003000711B0008000000007D1B0008891B0008E0
:10004000E91B0008E91B0008E91B0008E91B000880
:10005000E91B0008E91B0008E91B0008E91B000870
:10006000E91B0008E91B0008E91B0008E91B000860
:10007000E91B0008E91B0008E91B0008E91B000850
:10008000E91B0008E91B0008E91B0008E91B000840
:10009000E91B0008E91B0008E91B0008E91B000830
:1000A000E91B0008E91B0008E91B0008E91B000820
:1000B000E91B0008E91B0008E91B0008E91B000810
:1000C000E91B0008E91B0008E91B0008E91B000800
:1000D000E91B0008E91B0008E91B0008E91B0008F0
:1000E000E91B0008E91B0008E91B000800000000EC
:1000F0000000000000000000000000000000000000
:0C01000000000000000000005FF808F1A3
:10010C0010B5054C237833B9044B13B10448AFF345
:10011C0000800123237010BD0C00002000000000A3
:10012C00441C000808B5034B1BB103490348AFF34B
:10013C00008008BD0000000010000020441C0008D6
:10014C0080B500AF084B1B68074A43F010031360DF
:10015C00032000F02BF9002000F008F801F07AFCE5
:10016C000023184680BD00BF0020024080B582B03D
:10017C0000AF7860124B1A68124B1B7819464FF47B
:10018C007A73B3FBF1F3B2FBF3F3184600F035F9D5
:10019C000346002B01D001230EE07B680F2B0AD8FD
:1001AC00002279684FF0FF3000F00BF9064A7B68AB
:1001BC001360002300E0012318460837BD4680BDBC
:1001CC0008000020040000200000002080B400AFD4
:1001DC00054B1B781A46054B1B681344034A1360E6
:1001EC0000BFBD4680BC70470400002028000020E2
:1001FC0080B400AF024B1B681846BD4680BC7047EC
:10020C002800002080B584B000AF7860FFF7F0FFC5
:10021C00B8607B68FB60FB68B3F1FF3F05D00A4B0D
:10022C001B781A46FB681344FB6000BFFFF7E0FF26
:10023C000246BB68D31AFA689A42F7D800BF00BFCF
:10024C001037BD4680BD00BF0400002080B485B0CF
:10025C0000AF78607B6803F00703FB600C4BDB6836
:10026C00BB60BA684FF6FF031340BB60FB681A0211
:10027C00BB68134343F0BF6343F40033BB60044AD1
:10028C00BB68D36000BF1437BD4680BC704700BF4D
:10029C0000ED00E080B400AF044BDB681B0A03F0F8
:1002AC0007031846BD4680BC704700BF00ED00E058
:1002BC0080B483B000AF03463960FB7197F9073007
:1002CC00002B0ADB3B68DAB20C4997F907301201B4
:1002DC00D2B20B4483F800230AE03B68DAB2084937
:1002EC00FB7903F00F03043B1201D2B20B441A76D4
:1002FC0000BF0C37BD4680BC704700BF00E100E07A
:10030C0000ED00E080B489B000AFF860B9607A60AD
:10031C00FB6803F00703FB61FB69C3F10703042BC4
:10032C0028BF0423BB61FB690433062B02D9FB698C
:10033C00033B00E000237B614FF0FF32BB6902FA04
:10034C0003F3DA43BB681A407B699A404FF0FF31E4
:10035C007B6901FA03F3D9437B680B4013431846BE
:10036C002437BD4680BC704780B582B000AF786042
:10037C007B68013BB3F1807F01D301230FE00A4A74
:10038C007B68013B53600F214FF0FF30FFF790FF6C
:10039C00054B00229A60044B07221A600023184672
:1003AC000837BD4680BD00BF10E000E080B582B0CC
:1003BC0000AF78607868FFF749FF00BF0837BD468B
:1003CC0080BD80B586B000AF0346B9607A60FB7320
:1003DC0000237B61FFF75EFF78617A68B968786902
:1003EC00FFF790FF024697F90F3011461846FFF7BA
:1003FC005FFF00BF1837BD4680BD80B582B000AF2F
:10040C0078607868FFF7B0FF034618460837BD469A
:10041C0080BD000080B48BB000AF786039600023E1
:10042C007B6200233B6269E101227B6A02FA03F3DF
:10043C00FB613B681B68FA691340BB61BA69FB69D5
:10044C009A4240F058813B685B689A4A93425ED06E
:10045C00984A934275D8984A934258D0964A9342F8
:10046C006FD8964A934252D0944A934269D8944A90
:10047C0093424CD0924A934263D8924A934246D0CC
:10048C00904A93425DD8122B2AD8122B59D801A22C
:10049C0052F823F01B050008F504000807050008B6
:1004AC00490500084F0500084F0500084F050008D6
:1004BC004F0500084F0500084F0500084F050008C0
:1004CC004F0500084F0500084F0500084F050008B0
:1004DC004F0500084F050008FD0400081105000831
:1004EC00794A934213D02CE03B68DB683B6229E0ED
:1004FC003B68DB6804333B6224E03B68DB68083311
:10050C003B621FE03B68DB680C333B621AE03B68E4
:10051C009B68002B02D104233B6213E03B689B6871
:10052C00012B05D108233B627B68FA691A6109E04B
:10053C0008233B627B68FA695A6103E000233B6243
:10054C0000E000BFBB69FF2B01D87B6801E07B6832
:10055C0004337B61BB69FF2B02D87B6A9B0002E0F2
:10056C007B6A083B9B003B617B691A680F213B69E6
:10057C0001FA03F3DB431A40396A3B6901FA03F3CE
:10058C001A437B691A603B685B6803F08053002B4D
:10059C0000F0B1804D4B9B694C4A43F001039361D1
:1005AC004A4B9B6903F00103BB60BB68484A7B6AFA
:1005BC009B08023352F82330FB607B6A03F0030381
:1005CC009B000F2202FA03F3DB43FA681340FB6033
:1005DC007B68404A934213D07B683F4A93420DD0CC
:1005EC007B683E4A934207D07B683D4A934201D1D7
:1005FC00032306E0042304E0022302E0012300E0CD
:10060C0000237A6A02F0030292009340FA681343C3
:10061C00FB602F497B6A9B080233FA6841F8232060
:10062C003B685B6803F48033002B06D02D4B1A68B3
:10063C002C49BB6913430B6006E02A4B1A68BB6953
:10064C00DB43284913400B603B685B6803F40033C1
:10065C00002B06D0234B5A682249BB6913434B60CD
:10066C0006E0204B5A68BB69DB431E4913404B60C4
:10067C003B685B6803F48013002B06D0194B9A6817
:10068C001849BB6913438B6006E0164B9A68BB692B
:10069C00DB43144913408B603B685B6803F4001325
:1006AC00002B21D00F4BDA680E49BB691343CB608A
:1006BC0021E000BF000032100000311000002210B9
:1006CC000000211000001210000011100010024058
:1006DC000000014000080140000C014000100140E6
:1006EC0000140140000401400B4BDA68BB69DB438A
:1006FC0009491340CB607B6A01337B623B681A6803
:10070C007B6A22FA03F3002B7FF48EAE00BF00BF8E
:10071C002C37BD4680BC70470004014080B483B0C8
:10072C0000AF78600B467B8013467B707B78002B88
:10073C0003D07A887B681A6103E07B881A047B6893
:10074C001A6100BF0C37BD4680BC704780B586B0BF
:10075C0000AF78607B68002B01D1012372E27B68CB
:10076C001B6803F00103002B00F08780924B5B6841
:10077C0003F00C03042B0CD08F4B5B6803F00C03C1
:10078C00082B12D18C4B5B6803F48033B3F5803F9C
:10079C000BD1894B1B6803F40033002B6CD07B68A6
:1007AC005B68002B68D101234CE27B685B68B3F576
:1007BC00803F06D1804B1B687F4A43F48033136023
:1007CC002EE07B685B68002B0CD17B4B1B687A4A54
:1007DC0023F480331360784B1B68774A23F480230F
:1007EC0013601DE07B685B68B3F5A02F0CD1724BD6
:1007FC001B68714A43F4802313606F4B1B686E4A6D
:10080C0043F4803313600BE06B4B1B686A4A23F490
:10081C0080331360684B1B68674A23F48023136092
:10082C007B685B68002B13D0FFF7E2FC386108E0B3
:10083C00FFF7DEFC02463B69D31A642B01D9032374
:10084C0000E25D4B1B6803F40033002BF0D014E086
:10085C00FFF7CEFC386108E0FFF7CAFC02463B69A3
:10086C00D31A642B01D90323ECE1534B1B6803F41B
:10087C000033002BF0D100E000BF7B681B6803F055
:10088C000203002B63D04C4B5B6803F00C03002B72
:10089C000BD0494B5B6803F00C03082B1CD1464B67
:1008AC005B6803F48033002B16D1434B1B6803F0B9
:1008BC000203002B05D07B681B69012B01D001239F
:1008CC00C0E13D4B1B6823F0F8027B685B69DB00E1
:1008DC00394913430B603AE07B681B69002B20D02D
:1008EC00364B01221A60FFF783FC386108E0FFF7F2
:1008FC007FFC02463B69D31A022B01D90323A1E1E9
:10090C002D4B1B6803F00203002BF0D02A4B1B6805
:10091C0023F0F8027B685B69DB00274913430B600B
:10092C0015E0264B00221A60FFF762FC386108E0E4
:10093C00FFF75EFC02463B69D31A022B01D9032355
:10094C0080E11D4B1B6803F00203002BF0D17B6888
:10095C001B6803F00803002B3AD07B689B69002BC3
:10096C0019D0174B01221A60FFF742FC386108E0DE
:10097C00FFF73EFC02463B69D31A022B01D9032335
:10098C0060E10D4B5B6A03F00203002BF0D00120F9
:10099C0000F0A6FA1CE00A4B00221A60FFF728FCB4
:1009AC0038610FE0FFF724FC02463B69D31A022B97
:1009BC0008D9032346E100BF001002400000424268
:1009CC0080044242924B5B6A03F00203002BE9D194
:1009DC007B681B6803F00403002B00F0A680002347
:1009EC00FB758B4BDB6903F08053002B0DD1884BCF
:1009FC00DB69874A43F08053D361854BDB6903F095
:100A0C008053BB60BB680123FB75824B1B6803F4EE
:100A1C008073002B18D17F4B1B687E4A43F4807384
:100A2C001360FFF7E5FB386108E0FFF7E1FB0246D6
:100A3C003B69D31A642B01D9032303E1754B1B6863
:100A4C0003F48073002BF0D07B68DB68012B06D19C
:100A5C006F4B1B6A6E4A43F0010313622DE07B68F7
:100A6C00DB68002B0CD16A4B1B6A694A23F001032B
:100A7C001362674B1B6A664A23F0040313621CE083
:100A8C007B68DB68052B0CD1614B1B6A604A43F019
:100A9C00040313625E4B1B6A5D4A43F0010313624D
:100AAC000BE05B4B1B6A5A4A23F001031362584B51
:100ABC001B6A574A23F0040313627B68DB68002B24
:100ACC0015D0FFF795FB38610AE0FFF791FB024662
:100ADC003B69D31A41F28832934201D90323B1E026
:100AEC004B4B1B6A03F00203002BEED014E0FFF714
:100AFC007FFB38610AE0FFF77BFB02463B69D31AA8
:100B0C0041F28832934201D903239BE0404B1B6A8C
:100B1C0003F00203002BEED1FB7D012B05D13C4BE6
:100B2C00DB693B4A23F08053D3617B68DB69002B84
:100B3C0000F08780364B5B6803F00C03082B61D008
:100B4C007B68DB69022B46D1334B00221A60FFF71E
:100B5C004FFB386108E0FFF74BFB02463B69D31AA9
:100B6C00022B01D903236DE0294B1B6803F00073A2
:100B7C00002BF0D17B681B6AB3F5803F08D1244B66
:100B8C005B6823F400327B689B68214913434B60FC
:100B9C001F4B5B6823F474127B68196A7B685B6A71
:100BAC000B431B4913434B601B4B01221A60FFF78D
:100BBC001FFB386108E0FFF71BFB02463B69D31AA9
:100BCC00022B01D903233DE0114B1B6803F000738A
:100BDC00002BF0D035E0104B00221A60FFF708FB19
:100BEC00386108E0FFF704FB02463B69D31A022B7D
:100BFC0001D9032326E0064B1B6803F00073002B7E
:100C0C00F0D11EE07B68DB69012B07D1012319E0D1
:100C1C000010024000700040600042420B4B5B68C9
:100C2C00FB60FB6803F480327B681B6A9A4206D136
:100C3C00FB6803F470127B685B6A9A4201D0012353
:100C4C0000E0002318461837BD4680BD0010024056
:100C5C0080B584B000AF786039607B68002B01D11F
:100C6C000123D0E06A4B1B6803F007033A689A42F1
:100C7C0010D9674B1B6823F0070265493B68134387
:100C8C000B60634B1B6803F007033A689A4201D070
:100C9C000123B8E07B681B6803F00203002B20D013
:100CAC007B681B6803F00403002B05D0594B5B6871
:100CBC00584A43F4E06353607B681B6803F00803F5
:100CCC00002B05D0534B5B68524A43F4605353607E
:100CDC00504B5B6823F0F0027B689B684D491343D3
:100CEC004B607B681B6803F00103002B40D07B68D2
:100CFC005B68012B07D1474B1B6803F40033002BB7
:100D0C0015D101237FE07B685B68022B07D1414B37
:100D1C001B6803F00073002B09D1012373E03D4BDA
:100D2C001B6803F00203002B01D101236BE0394B4C
:100D3C005B6823F003027B685B68364913434B60A6
:100D4C00FFF756FAF8600AE0FFF752FA0246FB6822
:100D5C00D31A41F28832934201D9032353E02D4B2D
:100D6C005B6803F00C027B685B689B009A42EBD1DA
:100D7C00274B1B6803F007033A689A4210D2244BA6
:100D8C001B6823F0070222493B6813430B60204B7E
:100D9C001B6803F007033A689A4201D0012332E042
:100DAC007B681B6803F00403002B08D0194B5B68AD
:100DBC0023F4E0627B68DB68164913434B607B6865
:100DCC001B6803F00803002B09D0124B5B6823F45B
:100DDC0060527B681B69DB000E4913434B6000F0CB
:100DEC0021F802460B4B5B681B0903F00F030A4901
:100DFC00CB5C22FA03F3094A1360094B1B681846B3
:100E0C00FFF7B4F9002318461037BD4680BD00BF6C
:100E1C00002002400010024080FF00080800002063
:100E2C000000002090B48AB000AF294B3C1D0FCBC2
:100E3C0084E80F0040F201233B800023FB61002378
:100E4C00BB6100237B6200237B6100233B62214B4F
:100E5C005B68FB61FB6903F00C03042B02D0082BCD
:100E6C0003D02BE01C4B3B622BE0FB699B0C03F08B
:100E7C000F0328333B4413F8243C7B61FB6903F4D8
:100E8C008033002B12D0134B5B685B0C03F0010317
:100E9C0028333B4413F8283CBB617B690E4A03FBA7
:100EAC0002F2BB69B2FBF3F37B6204E07B690B4A91
:100EBC0002FB03F37B627B6A3B6202E0064B3B6204
:100ECC0000BF3B6A18462837BD4690BC704700BF30
:100EDC005C1C00080010024000127A0000093D0062
:100EEC0080B485B000AF78600A4B1B680A4AA2FB3D
:100EFC0003235B0A7A6802FB03F3FB6000BFFB6809
:100F0C005A1EFA60002BF9D100BF00BF1437BD4642
:100F1C0080BC704708000020D34D621080B582B0B1
:100F2C0000AF78607B68002B01D1012376E07B68F1
:100F3C005B6A002B08D17B685B68B3F5827F09D0B4
:100F4C007B680022DA6105E07B6800221A617B680D
:100F5C0000225A617B6800229A627B6893F85130B8
:100F6C00DBB2002B06D17B68002283F85020786816
:100F7C0000F0A2FD7B68022283F851207B681B687D
:100F8C001A687B681B6822F040021A607B685B68F9
:100F9C0003F482727B689B6803F404431A437B68F6
:100FAC00DB6803F400631A437B681B6903F00203DC
:100FBC001A437B685B6903F001031A437B689B69E6
:100FCC0003F400731A437B68DB6903F038031A439C
:100FDC007B681B6A03F0800342EA03017B689B6A0F
:100FEC0003F400527B681B680A431A607B689B6998
:100FFC001A0C7B681B6802F004025A607B681B6841
:10100C00DA697B681B6822F40062DA617B68002273
:10101C005A657B68012283F8512000231846083753
:10102C00BD4680BD80B588B000AFF860B9603B604C
:10103C001346FB800023FB77FB6893F85030012BA1
:10104C0001D1022326E1FB68012283F85020FFF72F
:10105C00CFF8B861FB88FB82FB6893F85130DBB2A8
:10106C00012B02D00223FB770BE1BB68002B02D0D3
:10107C00FB88002B02D10123FB7702E1FB680322E2
:10108C0083F85120FB6800225A65FB68BA681A6322
:10109C00FB68FA889A86FB68FA88DA86FB68002275
:1010AC009A63FB6800229A87FB680022DA87FB6848
:1010BC0000225A64FB6800221A64FB689B68B3F533
:1010CC00004F0FD1FB681B681A68FB681B6822F085
:1010DC0040021A60FB681B681A68FB681B6842F4C4
:1010EC0080421A60FB681B681B6803F04003402BAE
:1010FC0007D0FB681B681A68FB681B6842F040024B
:10110C001A60FB68DB68B3F5006F4BD1FB685B685A
:10111C00002B02D0FB8A012B3ED1FB681B6B1A887B
:10112C00FB681B68DA60FB681B6B9A1CFB681A6314
:10113C00FB68DB8E9BB2013B9AB2FB68DA862BE034
:10114C00FB681B689B6803F00203022B12D1FB683F
:10115C001B6B1A88FB681B68DA60FB681B6B9A1C9C
:10116C00FB681A63FB68DB8E9BB2013B9AB2FB688F
:10117C00DA8611E0FFF73CF80246BB69D31A3A68ED
:10118C009A4203D83B68B3F1FF3F02D13B68002B76
:10119C0002D10323FB7774E0FB68DB8E9BB2002B40
:1011AC00CED14CE0FB685B68002B02D0FB8A012B94
:1011BC0040D1FB681A6BFB681B680C3312781A70F1
:1011CC00FB681B6B5A1CFB681A63FB68DB8E9BB2BB
:1011DC00013B9AB2FB68DA862CE0FB681B689B68C3
:1011EC0003F00203022B13D1FB681A6BFB681B681C
:1011FC000C3312781A70FB681B6B5A1CFB681A6351
:10120C00FB68DB8E9BB2013B9AB2FB68DA8611E07D
:10121C00FEF7EEFF0246BB69D31A3A689A4203D82E
:10122C003B68B3F1FF3F02D13B68002B02D1032393
:10123C00FB7726E0FB68DB8E9BB2002BCDD1BA6925
:10124C003968F86800F0B2F80346002B02D0FB684E
:10125C0020225A65FB689B68002B0AD100233B6156
:10126C00FB681B68DB683B61FB681B689B683B6128
:10127C003B69FB685B6D002B02D00123FB7700E020
:10128C0000BFFB68012283F85120FB68002283F821
:10129C005020FB7F18462037BD4680BD80B588B0F6
:1012AC0000AFF860B9603B601346FB71FEF7A0FF1E
:1012BC000246BB6A9B1A3A681344FB61FEF798FF1F
:1012CC00B861394B1B685B011B0DFA6902FB03F318
:1012DC007B6154E03B68B3F1FF3F50D0FEF788FFD1
:1012EC000246BB69D31AFA699A4202D9FB69002BF0
:1012FC003DD1FB681B685A68FB681B6822F0E00252
:10130C005A60FB685B68B3F5827F11D1FB689B6800
:10131C00B3F5004F04D0FB689B68B3F5806F07D121
:10132C00FB681B681A68FB681B6822F040021A6095
:10133C00FB689B6AB3F5005F0FD1FB681B681A68EA
:10134C00FB681B6822F400521A60FB681B681A6861
:10135C00FB681B6842F400521A60FB68012283F898
:10136C005120FB68002283F85020032317E07B698F
:10137C00002B01D10023FB617B69013B7B61FB6886
:10138C001B689A68BB681340BA689A420CBF012369
:10139C000023DBB21A46FB799A429BD100231846F4
:1013AC002037BD4680BD00BF0800002080B586B048
:1013BC0002AFF860B9607A607B680093BB6800226A
:1013CC008021F868FFF76AFF0346002B07D0FB6803
:1013DC005B6D43F02002FB685A65032300E0002399
:1013EC0018461037BD4680BD80B500AF00221021D5
:1013FC000248FFF793F900BF80BD00BF0008014011
:10140C0080B500AF012210210248FFF787F900BF19
:10141C0080BD00BF0008014080B500AF0022012153
:10142C000648FFF77BF90520FEF7ECFE01220121AF
:10143C000248FFF773F900BF80BD00BF000C0140EC
:10144C0080B582B000AF0346FB7100220221074831
:10145C00FFF764F9F91D4FF0FF3301220448FFF741
:10146C00E1FD00BF0837BD4680BD00BF000C014048
:10147C002C00002080B584B000AF78603960012268
:10148C0002211148FFF74AF915E03B68B3F5004F0C
:10149C0028BF4FF40043FB81FA894FF0FF33796882
:1014AC000A48FFF7BFFDFB897A6813447B60FB8910
:1014BC003A68D31A3B603B68002BE6D100BF00BFF3
:1014CC001037BD4680BD00BF000C01402C00002031
:1014DC0090B585B000AF0446084611461A4623461F
:1014EC00FB800346BB800B467B8013463B802A2047
:1014FC00FFF7A6FFFB881B0A9BB2DBB23B73FB8892
:10150C00DBB27B737B881B0A9BB2DBB2BB737B8821
:10151C00DBB2FB7307F10C0304211846FFF7AAFF9B
:10152C002B20FFF78DFFBB881B0A9BB2DBB23B72F3
:10153C00BB88DBB27B723B881B0A9BB2DBB2BB72F3
:10154C003B88DBB2FB7207F1080304211846FFF756
:10155C0091FF2C20FFF774FF00BF1437BD4690BDE0
:10156C0090B59BB000AFFFF73FFFFFF755FF012091
:10157C00FFF766FF4FF47A70FEF744FECB20FFF7BF
:10158C005FFF874A07F1600392E803001860043399
:10159C00197007F1600305211846FFF76BFFCF2088
:1015AC00FFF74EFF7F4A07F15C0312681146198062
:1015BC000233120C1A7007F15C0303211846FFF773
:1015CC0059FFE820FFF73CFF774A07F158031268F0
:1015DC00114619800233120C1A7007F158030321BB
:1015EC001846FFF747FFEA20FFF72AFF0023A7F86A
:1015FC00543007F1540302211846FFF73BFFED204E
:10160C00FFF71EFF694B3B6507F150030421184699
:10161C00FFF730FFF720FFF713FF202387F84C303C
:10162C0007F14C0301211846FFF724FFC020FFF7F8
:10163C0007FF232387F8483007F148030121184698
:10164C00FFF718FFC120FFF7FBFE102387F844308B
:10165C0007F1440301211846FFF70CFFC520FFF7E3
:10166C00EFFE42F63E03A7F8403007F1400302219B
:10167C001846FFF7FFFEC720FFF7E2FE862387F828
:10168C003C3007F13C0301211846FFF7F3FE3620EE
:10169C00FFF7D6FE482387F8383007F138030121CD
:1016AC001846FFF7E7FE3A20FFF7CAFE552387F8E6
:1016BC00343007F1340301211846FFF7DBFEB1206B
:1016CC00FFF7BEFE4FF4C0533B8607F130030221F7
:1016DC001846FFF7CFFEB620FFF7B2FE344A07F1EB
:1016EC002C031268114619800233120C1A7007F180
:1016FC002C0303211846FFF7BDFEF220FFF7A0FED6
:10170C00002387F8283007F1280301211846FFF73A
:10171C00B1FE2620FFF794FE012387F8243007F151
:10172C00240301211846FFF7A5FEE020FFF788FEF1
:10173C00204B07F114040FCB07C4238002341B0C7D
:10174C00237007F114030F211846FFF793FEE120D5
:10175C00FFF776FE184B3C1D0FCB07C423800234D9
:10176C001B0C23703B1D0F211846FFF783FE112025
:10177C00FFF766FE7820FEF745FD2920FFF760FE97
:10178C003620FFF75DFE48233B703B46012118468F
:10179C00FFF770FEFFF734FE00BF6C37BD4690BDFF
:1017AC006C1C0008741C0008781C0008640312816F
:1017BC007C1C0008801C0008901C000890B583B0AD
:1017CC0000AF0446084611461A462346FB800346E2
:1017DC00BB800B467B8013463B80FB88EF2B2DD8C0
:1017EC00BB88B3F5A07F29D2FA887B881344F02BF1
:1017FC0026DCBA883B881344B3F5A07F22DCFFF7C4
:10180C00F3FDFA887B8813449BB2013B9CB2BA88E7
:10181C003B8813449BB2013B9BB2B988F8882246A3
:10182C00FFF756FE7B883A8802FB03F35B001946F0
:10183C00B869FFF71FFEFFF7E3FD04E000BF02E00D
:10184C0000BF00E000BF0C37BD4690BD80B500AFB7
:10185C0001224FF480610248FEF760FF00BF80BD9B
:10186C000008014080B500AFFFF7CAFDFFF7EEFF9F
:10187C00FFF776FE00BF80BD80B582B002AF074B8C
:10188C000093F023F02228210020FFF797FF40F669
:10189C00B830FEF7B7FC00BFBD4680BDA01C0008E9
:1018AC0080B500AFFEF74CFC00F009F800F07AF8B8
:1018BC0000F042F8FFF7D6FFFFF7DEFFFCE780B53C
:1018CC0090B000AF07F1180328220021184600F051
:1018DC00ABF93B1D00221A605A609A60DA601A61FB
:1018EC000223BB610123BB621023FB6200237B63D9
:1018FC0007F118031846FEF729FF0346002B01D009
:10190C0000F0A2F80F237B600023BB600023FB6078
:10191C004FF480633B6100237B613B1D0021184623
:10192C00FFF796F90346002B01D000F08DF800BFAD
:10193C004037BD4680BD000080B500AF174B184A3C
:10194C001A60164B4FF482725A60144B00229A6044
:10195C00124B0022DA60114B00221A610F4B00224D
:10196C005A610E4B4FF400729A610C4B2822DA61CB
:10197C000A4B00221A62094B00225A62074B0022C2
:10198C009A62064B0A22DA620448FFF7C7FA03464A
:10199C00002B01D000F058F800BF80BD2C000020B7
:1019AC000030014080B586B000AF07F1080300227B
:1019BC001A605A609A60DA60204B9B691F4A43F0A8
:1019CC00040393611D4B9B6903F004037B607B68EC
:1019DC001A4B9B69194A43F008039361174B9B6997
:1019EC0003F008033B603B68002210211448FEF70B
:1019FC0095FE002203211348FEF790FE1023BB60D6
:101A0C000123FB6000233B6102237B6107F1080388
:101A1C0019460B48FEF7FEFC0323BB600123FB6059
:101A2C0000233B6102237B6107F10803194605483B
:101A3C00FEF7F0FC00BF1837BD4680BD0010024019
:101A4C0000080140000C014080B400AF00BFBD464F
:101A5C0080BC704780B485B000AF154B9B69144AAD
:101A6C0043F001039361124B9B6903F00103BB60CC
:101A7C00BB680F4BDB690E4A43F08053D3610C4BB0
:101A8C00DB6903F080537B607B680A4B5B68FB600F
:101A9C00FB6823F0E063FB60FB6843F08063FB6052
:101AAC00044AFB68536000BF1437BD4680BC7047C6
:101ABC00001002400000014080B588B000AF786093
:101ACC0007F1100300221A605A609A60DA607B6892
:101ADC001B68154A934223D1144B9B69134A43F458
:101AEC0080539361114B9B6903F48053FB60FB683B
:101AFC000E4B9B690D4A43F0040393610B4B9B699E
:101B0C0003F00403BB60BB68A0233B6102237B6131
:101B1C000323FB6107F1100319460548FEF77AFC15
:101B2C0000BF2037BD4680BD003001400010024090
:101B3C000008014080B400AF00BFBD4680BC7047B8
:101B4C0080B400AFFEE780B400AFFEE780B400AF16
:101B5C00FEE780B400AFFEE780B400AF00BFBD4627
:101B6C0080BC704780B400AF00BFBD4680BC7047DE
:101B7C0080B400AF00BFBD4680BC704780B500AFDD
:101B8C00FEF724FB00BF80BD80B400AF00BFBD4694
:101B9C0080BC70470C480D490D4A002302E0D45814
:101BAC00C4500433C4188C42F9D30A4A0A4C00239B
:101BBC0001E013600432A242FBD3FFF7E5FF00F013
:101BCC000FF8FFF76DFE7047000000200C0000209E
:101BDC0098FF00080C00002084000020FEE70000A5
:101BEC0070B500260C4D0D4C641BA410A64209D1F7
:101BFC0000F022F800260A4D0A4C641BA410A642E1
:101C0C0005D170BD55F8043B98470136EEE755F801
:101C1C00043B98470136F2E790FF000890FF00085C
:101C2C0090FF000894FF000803460244934200D141
:101C3C00704703F8011BF9E7F8B500BFF8BC08BC06
:101C4C009E467047F8B500BFF8BC08BC9E4670476E
:101C5C0002030405060708090A0B0C0D0E0F1010E1
:101C6C00392C00340200000000C1300085007800DF
:101C7C00088227000F312B0C0E084EF1370710038A
:101C8C000E090000000E1403110731C148080F0C97
:101C9C0031360F00392428A2208218401020084029
:101CAC00000000200000002000000841000000009F
:101CBC00082008000800082020A318A2080008002B
:101CCC0008200820082008200841082000000840AF
:101CDC0008201881310428C218202081288130A1C5
:101CEC0059E66A4749642880180030E2184120C33D
:101CFC00106118A228C328C2288130A12840308046
:101D0C0040E1306038E24103412338E238C138A168
:101D1C00492351446163618440E2286030C22881C8
:101D2C001820286038C1510171C3718258E05921C3
:101D3C005101512138A020002840286030A130C228
:101D4C0038C1410240C1596361A4510140C03060A7
:101D5C0040E238C140A04060828692E77A44828596
:101D6C0069A35942596440C2304020202061184177
:101D7C00100020A328C328A2286038E138C138E21B
:101D8C002840202028A22061310328E2184020A2FC
:101D9C002924102118412081186118810800104055
:101DAC001881186128C22081310330E230E33123DD
:101DBC0028E21020188118A120A1312331233102EF
:101DCC0028C13102416439233944394428C1418541
:101DDC00734B28E249C531025A265A266A876A870C
:101DEC0059E549633922520649C549E631031820A1
:101DFC002060416431231881188120A220A128E39E
:101E0C00312420A120C21881186028E249C6312350
:101E1C00312428E320C2188120A220A128E31861D4
:101E2C00104010601861082029240800082018624E
:101E3C0018C3188228C31840184120C218401860D3
:101E4C0030C2206030A13902394328C120803103CF
:101E5C00418528A218611000206120821841184188
:101E6C001841186118611861186110401040080081
:101E7C001041102020812061186118411041082068
:101E8C000000000000000020000000000000000026
:101E9C00000008201041188220A308000820080028
:101EAC000800000000000000084008201081080015
:101EBC00188220A218611020208128C2288128A114
:101ECC0041435A0649852880206028C22081186128
:101EDC00080020C32082102020812040286038C1B7
:101EEC0030A128603081390338E2412349644943E9
:101EFC004902490269A448C1308138E230A120204E
:101F0C0028A1412359A37A6671A36982720469C41A
:101F1C005962490140E15163410230802881180027
:101F2C00308140E240C151215942510140C05142DF
:101F3C004922514259427A4682667A2472037224AB
:101F4C0048E0514259844923308138E328A21020BB
:101F5C0008001861208231033923390240E2412301
:101F6C002860288130E3208220A11020186020C234
:101F7C0010411020186128A22081208110400800F7
:101F8C001881188128E3392430E328C23103312425
:101F9C0020C2102020C2188128C2290349C64164DE
:101FAC0020803923392330E2394439443102730A11
:101FBC0049C641A541A441635A266246622662463F
:101FCC006A67412351C549E54164394339433102BC
:101FDC0018403923310320A2186120C2188139A579
:101FEC0020C220A220C229031840396428E33103FF
:101FFC00394428C2186120A1188120E220C239641A
:10200C00188128E2188118A13985080008000800F9
:10201C0008201041186120A21840184128C228E25B
:10202C0030C239024123394339223943394328C25A
:10203C00184028C228A220A120C228C21861186109
:10204C0020A21861184118611841102010611882E3
:10205C0018821881206120611020100008200800CF
:10206C000000000000000000084100000000080013
:10207C000820188218810800082008200800104148
:10208C00082000000820106100001061082020C208
:10209C00290408001020186128E328E2184028A120
:1020AC0028A1288149A53903206118202081080026
:1020BC0018401841102018411820206041654144F7
:1020CC0030C230A138C2390338E249445164494323
:1020DC00306061A4490240C1494330C1286030A13D
:1020EC0030A159A4726669E371E371E469E4596340
:1020FC00490149225163490240C1308130A230A1CB
:10210C0038C238A1386059635942592150E069C32B
:10211C0069E369E37205828772256A0461C359A376
:10212C0038A0410240E338E32881208118400800A0
:10213C00102008201020206130E2410238C1516487
:10214C0038C138E328A21861102020A11861104072
:10215C001000186128A2392428C220A2186010404F
:10216C0010403124208241862082182020A239651B
:10217C001881188120A1208120A1394451E64164A5
:10218C005206416451E5390330E249A55A2762A948
:10219C00310249A562A849E5520651C55A065A06AC
:1021AC0072C94984414349A53943310241643944D8
:1021BC001820396431231040186120A2396431444D
:1021CC0018601881290328E228C249E6186028C241
:1021DC0039643123314420C22903396449C6398416
:1021EC00208120A220A120A1418518811861000026
:1021FC001862106118A2184028E318611861208138
:10220C003103184028A1392330E2310228C128A11A
:10221C002081184020A128E21040104018401020C6
:10222C001840186010400800102018611020082079
:10223C00106120C21861186110200820104108405C
:10224C0000000000002000000820000008411041A0
:10225C00104108201041082018A208201061080025
:10226C00000010411082082000000820104018A225
:10227C0010401861186128E31000188128C21861F9
:10228C001840080030E3416531031840080018205D
:10229C00100010002061182020812882206130C39A
:1022AC0028A230A2288128604143518538C138C109
:1022BC00516340C1492251644964286028813081AE
:1022CC0040E2598361C261817A4472455963492263
:1022DC0049434922490240E240E240E2308140E277
:1022EC0040E238A051425942618271E372037A2371
:1022FC008AA5828569E461C4598340C0308038C0A6
:10230C003081288118201000208118601881082045
:10231C000800106118A2182030C1390238C151636D
:10232C0038E230A128A2206128A220A21840100077
:10233C0018601860208120811020312318611861E9
:10234C0020C220C2102028C320A220A2312420A207
:10235C0018601881186028C228C1520749A4392373
:10236C0051E549C5624751C541644184628851E6D3
:10237C00310249A45206520649A449A451A4624709
:10238C0072E95206418449A449C5418428C220817E
:10239C0028E241A531441881186120A239651861E1
:1023AC00186031033944290331235A4839445A48B7
:1023BC00396428E241A51881312328E2394441646B
:1023CC002081310241A5394449E631032903080033
:1023DC00104008001020186128C320A21861208129
:1023EC0020A228C2208120A11020208141444164D8
:1023FC0030E2208110201860188128C220C2188178
:10240C0028E220A1188120C2312420811861188172
:10241C0020A220A1102010201020082010411041D3
:10242C0000000820000008200000082018A21061FD
:10243C001020082000000820186108001021080056
:10244C00082010410820000008200840188118A21C
:10245C0020C318821861104018811861102018814F
:10246C0018812082102020A231033923310228A1A7
:10247C0020601800180030C238E32061206128A2C7
:10248C0018201820180030C241033080282049221F
:10249C005984516338E238C2288139032881284095
:1024AC0040A169C469C282857A8659A340E240E2A0
:1024BC00306038C2518540E2410240C140C1516395
:1024CC004901512169E451007A6582858284720246
:1024DC0082A57A645100490140E030804102288095
:1024EC00182020611040104020E3106018A11060EB
:1024FC00080010401881184030E230A138C140E18A
:10250C0040E128602060206108002081208120812A
:10251C0020A1186030E228A23923310320811861F0
:10252C00290320C2208228C320A220A21841100017
:10253C0020E220A1186039433923416449C430E1B9
:10254C00498451E55A2651C551C55A2751C549A54B
:10255C005A2649C5520549A449A441635A0651C596
:10256C006AA849A451C54163418439441881184073
:10257C0039443965290320C218A220C23123102006
:10258C002903396431033964418549A56AC9522745
:10259C00392330E2396428C2310328E241643964BA
:1025AC0049C5312241645A4751E6310329030800D9
:1025BC00080008000800082028E328C2206120A297
:1025CC0020A11861104010201860206030C151C546
:1025DC004964416428C21861208128E239443923B6
:1025EC003123208128A1206120601860310220A1B4
:1025FC00184020A108000800080008000800082066
:10260C000000104110821061084110611061080037
:10261C0008201040188210610800102008000800E3
:10262C001061080010411081106118A218A218A2A4
:10263C000800188118A21881106108200820188140
:10264C00188208001020188118403944418549A58A
:10265C0051A5498449645185412330C230A228A236
:10266C0030C22861286139022860308041025163F0
:10267C005163412320202040414339033903284032
:10268C0059848AA7A3698AC66A05282038A22841DA
:10269C00286130C238E32020202040E259A4512286
:1026AC00510171E472047A457A4582A669C26A03C3
:1026BC00598161824901514248E1410238E220408E
:1026CC00206120A3104120C218A200000820104055
:1026DC001020102020A128E24164496438A038A0C1
:1026EC0038C1288020802060206128A220612081B0
:1026FC001840396349A5498528A128C228E21881C8
:10270C0018A220C220A21841102018811020188174
:10271C00186128E2312341A441434163416362467D
:10272C0051E5624659E5498451A5834B51E551C5A4
:10273C006AA849C4626741A451E530E1416352067D
:10274C006247416431023123394328E22081184029
:10275C0028E2394418A218A210402903290320A109
:10276C0028C230E330E35A27208139437B2B418444
:10277C00310230E228C2310331033123310249A442
:10278C005A2741643943730A72EA41A528C218607A
:10279C001040080000001040396528E3208110002B
:1027AC001861104010401861186018402040390220
:1027BC00390249844185392428C2184020602060A0
:1027CC0020812081310328A128A128C128C13902E8
:1027DC00414339230800080008000800080008419C
:1027EC0008200800102100000800102108001041EA
:1027FC0018A21861104008200800000010200800E2
:10280C00106110610840106110611061082008000F
:10281C00188118821020080008000820084108417F
:10282C0018A20820082018612081182028A130E265
:10283C0030A130A1492238A051644964414441245B
:10284C00390341234923308038C140E1620659C520
:10285C0049432860180030A238E2286039033881D7
:10286C0072068AA792C769C330A038C24103498552
:10287C004103204028C2182030C259C54902388073
:10288C00828782A759627A46720559625121388033
:10289C0040C05163720551023880490330A21820A0
:1028AC0018211021082108200800082010401020B1
:1028BC00186120A2186028C14143496438A038A08F
:1028CC0038E2390230C128A128C2206039433922AC
:1028DC00416451E649A528A128C228E241A5186007
:1028EC0020C220E3186118411861100018613103EF
:1028FC0020A1290249C5498441435A2651E55A264B
:10290C006A87622659E56247622672C95A0662478F
:10291C0049A449A4520639225A26392241844164D9
:10292C005A06626741643943310228A1186020A11C
:10293C0028C320C220C21040186120C239652081F2
:10294C0028C2208128C26AA930E249C5730A3943DA
:10295C0049A5310220A13985418528C130C1416387
:10296C0072C95A4739226247836B49A520A12903B2
:10297C00104008000800000020A23965416530E3D2
:10298C0018601860188128C2310331032860204078
:10299C00390230C1412339023923414330E228A1A5
:1029AC00288120402080416441433902414339232E
:1029BC0030A130C108000820080008000820106170
:1029CC001061080000000820106110210800188216
:1029DC001061082008200800102008200000186151
:1029EC0010611041082008201061082008201041B7
:1029FC0018821040104020E310610000106110405C
:102A0C0018821881290420E31040186028C228A1DC
:102A1C0028A14143410238A030602860308130A1A8
:102A2C0028605184490238C151437246726761E58E
:102A3C00410238C130A22861288130814964514358
:102A4C00720592E8720440C0308030C239034944A8
:102A5C0028403081206030C2498430A049227A87D6
:102A6C00722561A361C469C45122304040C15984AC
:102A7C005984598461835963490238C22841202101
:102A8C00180118211041080008201040188110204E
:102A9C00186128A220603102496430A1410238E15A
:102AAC004122412328A130E230C1390251C549C528
:102ABC00394349C528C2394428C220A131233124C5
:102ACC0029031882208228C320813103208128E227
:102ADC00394439234163418449A451E559E549837B
:102AEC005A066A8762466A8762676A8741435A2632
:102AFC00414251C451E55A265A26520551C5390254
:102B0C0051E66A88392349C5392320C218601861F7
:102B1C0020A220E320C2188120A220C241A520615E
:102B2C003103208130E26288418472EA5A273943AA
:102B3C00520649C541A549A551E64184414349A4E2
:102B4C0049A451C54163626772C94184396420A1AB
:102B5C0020C20800000008201040186128C228C2BA
:102B6C00208128C2312328E2310230E251C54122B2
:102B7C00412238E141224163390241434123390268
:102B8C0030E241843923390230C1288028A12880C1
:102B9C0030C230C108410841000008201041080033
:102BAC0008000800104120A210411021104108001B
:102BBC0010200820102008000800082010401041A8
:102BCC0010611061080008201061000008201041FD
:102BDC0020C320A210201040104110611040104161
:102BEC00102029032903104018612081208128A17D
:102BFC002060288130A138E230C128A120403081EA
:102C0C00410238C140C140C06A057226724740E19A
:102C1C002840286038C230A1286038C1494351830C
:102C2C0082A693077204306030C128A130C14122C2
:102C3C0038A0412241425A05284038C08B2961C432
:102C4C0049015183492240E138A0410259C4514302
:102C5C0048E1596369E448E1514328202841204167
:102C6C001821206208001041104010401020102044
:102C7C0028C31020204049854122288030A128609B
:102C8C004964412320203080496349836A67498421
:102C9C0030E228C228E2208120A11000186120A275
:102CAC0020A2186128C228E320A12081310331021F
:102CBC0030E251E64184414339226A87626751C44C
:102CCC0062255A05494351C57AE972C949835A2686
:102CDC0051E5416372E97B2A5A2662676A885A0673
:102CEC00310272EA418451E641A51881184018411D
:102CFC00188120C218A1082020A218A1310328E2B3
:102D0C0030E231034144414462476AA951E649C566
:102D1C0049C562886AEA418541855A2762885A26E4
:102D2C006267414251E57B2A414349C549C6188136
:102D3C0020811061000008200820102020A1310300
:102D4C00288130C130E2418451E5520662476A88DD
:102D5C0062265A0651C449C4418339223902394387
:102D6C0030E230E12080208030E23102206028C146
:102D7C0028A120810000000010610820000008003C
:102D8C00102018A220A21021080010411041102080
:102D9C00186108200800104008001061102008205D
:102DAC00186110411061080010401061082020A229
:102DBC0031241041082008000800104108000800C8
:102DCC0020A228C2102010201040080010202061E2
:102DDC002081208128A22081184028A228A12881A6
:102DEC003080306028004902722661E5490238A122
:102DFC0040E238E238E238E2410338C12840516100
:102E0C0093277A4459623020390230E238E151A3D9
:102E1C0061E449216A256A4551618B08724540C0BD
:102E2C0049013080284049434102492249423880B7
:102E3C0040A061A369E4492149222840200028824E
:102E4C002882182010201861100010401882186178
:102E5C001862100030C23902412238E14143496402
:102E6C00390330C2284038E15163410162054122E7
:102E7C00206120A22081104010201861188110615F
:102E8C0028E329032081312328E2310330E24984ED
:102E9C00416351E651E6310251E55A065A26622643
:102EAC0041424983498441227AE9624659E56A875D
:102EBC005A266AA8834A93CC6A8872E972C951C5AA
:102ECC0039237B4B51E6626849E6208120A220C25F
:102EDC0020C218611041106120A220C2394439640B
:102EEC004185418539435A075A065A275A06626862
:102EFC006247838C41A541642080390251C56267C9
:102F0C005A0551C45A266AA851C55226418420C27A
:102F1C0028E3104108200820000008001040396404
:102F2C0030C230C151C549A451C5416351C551A4EA
:102F3C0051A4412249A449A330E130E130E1208081
:102F4C00390230E228C1310228C128A128C128E267
:102F5C00208028C1080008201041084000000820EB
:102F6C00188220A2102010200800102010411040C0
:102F7C0010200800080008001020080010411882DA
:102F8C0020A2102010411041080010411041314581
:102F9C00290408001040080010611040080010407F
:102FAC0028C220A2184020611000186128E320617B
:102FBC0028C3290320A220A1182018201820204063
:102FCC00288030A1516472685163308038C230A2BD
:102FDC002040286138E230A1410338A149217245D3
:102FEC008AE769C348C049234144414449634100CD
:102FFC0051627A666A0440807A657A4561C3596287
:10300C0038C038C038C1286040E15984492148E0B3
:10301C005920720461A2516238A0284038C230C2D3
:10302C00182018401020184010001020184118616A
:10303C002082208139034102308038E151A5496456
:10304C0030C2412438C238C161E57266728730C122
:10305C00208128C31861104018611061186128C2C2
:10306C0020C2208128C228A13923310249A551C58B
:10307C00520641845A26310249A449A44963624646
:10308C0059E551A459C4414272A8626672A872A84B
:10309C0072C893EC93AC72E86A877B0A51E5416382
:1030AC006A88836B62477B4B628828C13964290329
:1030BC0020C220C320E320E328E31881396541A511
:1030CC0049C6418549A5416449A56247626872E9D0
:1030DC009C0E7B2B28C151E6416428C14143392207
:1030EC0051C541426A8851E562675A4739643103D8
:1030FC0020A120A21861106108001060106028E265
:10310C005A274984496338E1394228C030C049A460
:10311C0062474984496449A449A54984414330C163
:10312C0030E228C128C128A1310230E228A028A011
:10313C0030E128C1082008200000080008201040B9
:10314C001861080008001041186110410820104156
:10315C001040080010201041188218A21882312447
:10316C0020C208201041188110401061188228C319
:10317C00186120A220A21861102008001020290339
:10318C00310320A21860100028A2310328C2186154
:10319C0020A228C2310320A218401820182028A1F0
:1031AC00414459E662074123286030C230C21820DE
:1031BC00206128A2288138C230A1492361C47AA693
:1031CC0082A67204596359A559C64964494261E4FF
:1031DC00722572247A248265828569E3720469E41B
:1031EC0061C46A266205492238A0596269E47224D6
:1031FC007A247A03514038A038A038C130C220203C
:10320C0020401020184010401020186018412082D7
:10321C0028A230E230C138C138C159C549A530E2C5
:10322C0030E339032840412262057AA7728730C106
:10323C0020812082102020C21040186020C220A1C2
:10324C001861208128E228C1394339023923498485
:10325C0059E5392249A449A4392251C451C451E435
:10326C005A0559E559E47AE9728772C87AE97B09FB
:10327C008B8B93CC8329834A8B8B8B8B5A066267FF
:10328C0072E96A886A889C2E6AA8206020A220A213
:10329C0020A218A218822903314420C2418541A5DD
:1032AC00394428E24185394362476AA96A88836CAC
:1032BC009C0E7B2B520649C549A5416351C551C48F
:1032CC0051C4416372C849A43902624749C528E216
:1032DC0018603103290318A21040082020C228E2EC
:1032EC0030E249645A0641224162416228A0390108
:1032FC005A065A0630A138C2390349A551A6416471
:10330C003903394330E228C1390230C1208030C042
:10331C0039424183082008000820082010611881D8
:10332C0008000800082018811040080010201061C7
:10333C0008001041188218611861106120A220C386
:10334C0029041061080008200800106120C320C265
:10335C0028E3312410001840102020A22081208165
:10336C0018611020206128A228A2102010002061D2
:10337C0020A220611840206131033903412359E612
:10338C004985390330E2204018401841184110415A
:10339C0020A328C3206030C24124412340C07A8737
:1033AC007245598359A440C2492340C15183724686
:1033BC0069E461A269C28A858A8582857A237A4406
:1033CC007A85722472457A6582A68AC682857A23AA
:1033DC0082447A2361A24921490138A038C12020B6
:1033EC00184018401840100010202081206028A19F
:1033FC0028A128A14122496459E551C538E228A1E8
:10340C002060288130A1518449437AC859E528802D
:10341C00208118A2080018611881290328C228C22B
:10342C0028C228C128C131024184392330E24984A1
:10343C005A263943392251C5412251C46A87624602
:10344C006A46620562057AE972876A668B6B72A7B7
:10345C008B6A7B297B088B8A9C0D72A851E562676D
:10346C0093AC5A266AA8836B8BAC28E228E21040F6
:10347C0020C32903104139A639852903290339446E
:10348C0031033102310241645A4751E672E97B4BF8
:10349C007B2A7B0A5A0651E5624762476A67624695
:1034AC005A055A0562474143392249A451E628A1DD
:1034BC003103312328E2080028E3292410410800B5
:1034CC00186039035A06624751A451A3626649A495
:1034DC0030C14164412430A22882286130C2498520
:1034EC0030C23923416430E2310230E1392249A340
:1034FC004162416208000800082010411861104127
:10350C000800080018810800082010610800082035
:10351C000820082008000800104020A2186118821A
:10352C00104110201881290420C218A21881100003
:10353C0028C2206128C330E328E320A218412903C4
:10354C0028E318611820100020A11820208149853B
:10355C00390330E3414428A128A138E238E2414341
:10356C0030C220602081184010000800102010414B
:10357C001020186118202881286128405143724678
:10358C0082A7726648E151234902596349224921B5
:10359C005982618261608AA58AA471C169A159604E
:1035AC0069C269E272037A4482857A4382648A84AE
:1035BC008A8492E6720361C359A3492238C22860F7
:1035CC00202018201840186018612061288128815B
:1035DC0030A149635A0651A449844143288028806C
:1035EC0020403102412351C551837AE9496428C1F5
:1035FC0020A1186110402903314428C228C231028D
:10360C0028C13923310239433902414328C151C5FC
:10361C0049A5392228A0498451C459E56A875A051D
:10362C006A666A6659C48329622572A78B6A72A777
:10363C008B4A6A8683089BEC622551E462467B2A9E
:10364C00832B626751E5624793CD31023144188177
:10365C0028E320A2188149E7314420A220812903C4
:10366C00418541A5394341855A065A277B4B624710
:10367C006AA86A885A0651C56A677B09836B5A0522
:10368C00624662476267392249845A26416428C1DE
:10369C00310249A52081290329241020104108203A
:1036AC00104028E239236AA86226498351A4416359
:1036BC0028A030E23903392428A2180018202881C8
:1036CC0030E228A130C13923394330E13922392283
:1036DC0030E149830820104110401881186108001E
:1036EC001020082010611041104018811040082053
:1036FC00080010400800082028E318A21040080019
:10370C0008001041188118A2104010612082186125
:10371C00310328C23124184028A230E34185396591
:10372C001882184118812081208128C230E238E2A9
:10373C0030A1390328812081286030C230C238E2A0
:10374C0030C120401000208120A218611861208116
:10375C00186128C230E2310249A538C249226A05F3
:10376C0072254901388038A051416A046A256A05DE
:10377C005141618282849B0682437A43722269E2C0
:10378C00720271E272237A237A027A0271E18A64FC
:10379C00A327826471E369A3596340C128202000E8
:1037AC00286030C22060182028A22881200030C157
:1037BC0051A449833902498330A0288028603903F9
:1037CC0028C131023922394351A5622749A528A1C4
:1037DC00102020C1396531231881208128E2310362
:1037EC003923310249A549A5418439433923392369
:1037FC0041643922416351C449635A057AE959E459
:10380C0059E56225830883097AC88B298B6A7286ED
:10381C006A667AE8834993AB624672A8626772C89B
:10382C007AE95A0662465A4652054184394320A128
:10383C0020E3188228E341C6396528E328E220A159
:10384C0028C230E2418449A55A266AA96AA951C501
:10385C0049A56A88624762267AE972C87B09832A7D
:10386C0072E87B0972A85A0651C551C541843102D0
:10387C0041434164396439641840188208210000BE
:10388C001041104028E2498462466A8751A449835A
:10389C004183310228E128C1312328E2184010006D
:1038AC00184018402060206028C230E230C230C17D
:1038BC0038E230A1104008201861104108000800BF
:1038CC000800104008201061082008200800104053
:1038DC0008200820082018611882188110611861CE
:1038EC00184110200800102018611881102020A207
:1038FC002082100018202081310320A231031840AF
:10390C001000206130E328C228A1392328A1288186
:10391C0030A12881288128A2204030C230A120402B
:10392C0028812061184018411861104110200800AE
:10393C00184020A128C1392330E238C138A0618356
:10394C0059625141596161C37A8569E369E3514018
:10395C0069E37A649B2682637A229B268AE57A63E2
:10396C0072027A43720369A1616069A171A1822319
:10397C00826482446141618251013860388138A18E
:10398C0038C238E220603923390328814943620662
:10399C0061E551835A05496330C1414428A149640A
:1039AC00416449A4416330C15A27392341853944C4
:1039BC003123312328E3186028C228C228A13103FF
:1039CC0041644164390249A449A439633943310241
:1039DC0030E228A049A451E551C46A676A666A6658
:1039EC007AE87AA79BCBA3EC7AC78B6A72A74121A2
:1039FC0059C372868308A40C83297B097B29834ACB
:103A0C007B2A62476A87498449A4418428E228E2D8
:103A1C0020E320C228E3314439653944312328E2BC
:103A2C001860396349C5418441645A266AA96267A2
:103A3C006AA872C96A877B098B8B7AE97B098B6BC5
:103A4C007AE9834A7AE97AE96A67416351C5416444
:103A5C00392249A5310220A120A1184118821862EF
:103A6C0010610800104039435A065A067AE9498316
:103A7C0039224183310128A0312241A420C1208167
:103A8C0020C118601860102018202060208120812F
:103A9C00414430C2106110410820000000000800B1
:103AAC000800082010400840080008000820080002
:103ABC0008001041188118A21020188129031861E0
:103ACC00080008001861186120821861100020A2FB
:103ADC001881106120A220A21020208120A11000AA
:103AEC00310328A1288128A12881206128812881DF
:103AFC00208130E3288128A228A22881204028A2F6
:103B0C0030E31820102018611882188120A2102090
:103B1C00102028C2184028C128A028606A256A04F1
:103B2C007A447A448AA572037A4382647A4371E2B6
:103B3C0082A592E5A3468A838AC482637A437A2358
:103B4C0069C1720269A161815940616171E361814E
:103B5C008AA67203512059425101594259225102ED
:103B6C00598462064143414338E24943518462051A
:103B7C0040E1494251A441223903412338E251C565
:103B8C0051C56247414341646AA928E249E6396458
:103B9C001860104030E23102394320A128C13102B3
:103BAC003944416449A55A063923394330E228A1E6
:103BBC00392330E230E151E54143622659E583096E
:103BCC0083098B49A3ECBCAF93AB8B495A04288077
:103BDC0038E06A459BAB93AB9BEC7B299BEC7B0958
:103BEC0072C8626762676AA851E55206416439433C
:103BFC003964290328E320A23965418531233964CE
:103C0C0028C1396362686A8841645A0751C55A26CB
:103C1C008B8B7AE96225834972E86AA772A872A82D
:103C2C00832A8B6B6A467B096247418349C549C528
:103C3C003101392328C120A1206128C3188228E32F
:103C4C001861080008001040418539435A267AE96A
:103C5C004942518251A3498341633101394320C107
:103C6C0028E228E2188118401020206120A2394453
:103C7C001020186010611041104008200800082026
:103C8C0008201041082008000800080010411041CD
:103C9C0010201882188220A208201882208110007F
:103CAC00186120811841184128E328C320A231440F
:103CBC00104020C31061186110402081208130E237
:103CCC0030E328C239033903206028A130E328816E
:103CDC0030E328C2182020811820206130C2310323
:103CEC0020812081184010401861080020A2188102
:103CFC0010002060206030E151A4832A932982A611
:103D0C0082858AC58AA593068AC58AC58AA4A38793
:103D1C00ABC9A3479B058AA48AA48263828482844C
:103D2C007A237A0371E371C36182594159207A2451
:103D3C008AC659615921616269C3616261625942E3
:103D4C004902492238C138A0496359C559C5514364
:103D5C0040E0622541224123496430E230A14164B4
:103D6C00518451A530C149A53103208128C310606D
:103D7C002081208128E2394431232081208128C1EF
:103D8C0028C23103418449A54143390228A120802E
:103D9C003923392339024143416351C549A4624651
:103DAC0072A7726682E7938A726662046225622544
:103DBC006A467AE8938A938A93AB8B6A93CC834A4C
:103DCC008B8C5A2651C56A8862675A4751E64184E2
:103DDC003964396528C228C23124416541643944AB
:103DEC0049A5394351E649A5498549A541645A2657
:103DFC007B295A05830972C7624672E86A87498330
:103E0C006A4672A87AC872A8626728C049E552054A
:103E1C003902310228C220A130E328C2208220A21C
:103E2C0008001020080010401861310249A551A368
:103E3C006A6651A35182412149A3416328A0396389
:103E4C0020A1188128C228C22061184020C228E372
:103E5C0028E218401061000000000800080008006B
:103E6C00104010400800082010400800188228E379
:103E7C001861186120A2104118821020184120816D
:103E8C0028E328C3208228E3396510203144082018
:103E9C000800106120C2106120A2312428C32082A6
:103EAC00102028C3208220C2208128A228A128818A
:103EBC0030C22881206028812061390328A2288102
:103ECC0030A228A2206128C22081208118602060A5
:103EDC0018402860410238C159A46A056A05722548
:103EEC0061828265932793069B47930693069B46B4
:103EFC0092E59B268AA592C68A848AC58AC57202D7
:103F0C0071C271E37A046982616169A271C28A85A6
:103F1C007203616169A182857A446161510148E152
:103F2C005123304040E1492262265164494340E12B
:103F3C0061E56A4638E14143414330A130C151A5A6
:103F4C00498551C530C249A528A11840208220C2FC
:103F5C00188128C228A131023923310328C228C173
:103F6C0039433943414330E1390230C1496351E5AA
:103F7C0041644163496438E251E551C530E15A0569
:103F8C00620561E482C78B2859C362245A046A66AD
:103F9C00622659C4832982E87AE893CB93AB8B8B46
:103FAC006A8751A45A0551C5416449C5418549E602
:103FBC00312328E2312320A22081396449A65207FB
:103FCC00310231233923394372CA392330E251E5A6
:103FDC0072A872C8832972A772C85A2559E549423A
:103FEC0051A37287830972C849A3392249C441A4D9
:103FFC0031023923208128C220A128A218811861FE
:10400C0028E3106110200000188128C241844984E3
:10401C005A056A6659E45183416262675A2628A0A0
:10402C00394328E1208028A128A128C228E21000C9
:10403C00186120A108200820000000000800104191
:10404C0018810800082008000800104120A220A2B6
:10405C00186128E32082186108002082208220A2A7
:10406C00290320A228C320A21020290418610800CB
:10407C0010401861102020A239452082208218613E
:10408C0028A22081184118412061208130C23903B7
:10409C00286120402040206130C230C2100028A28C
:1040AC0038E338E238E32060206130E320A120813E
:1040BC0030C24123492369E56A2551225983514273
:1040CC005121598261C369E361C261C169C259401E
:1040DC0082A4828569C361A27A458285722469E3D0
:1040EC0069E369C369A351205961594061617A44FC
:1040FC007A44594071E27A4369A172037A4569C4E2
:10410C006184510251426A2659E538E220005184FB
:10411C008B097AA759E530C1414338E2390251E69F
:10412C00414459E63902418531231040188120C29F
:10413C00102028E23103394339443123392328A193
:10414C0041644164392249834963496349636A671D
:10415C0072A851E54964390241434183392249A48B
:10416C0049637266936A93497244620472867AE870
:10417C0059E538E18B498B498B499BCB93AB6A87CB
:10418C00624659E559E649A44164394349C549C5D4
:10419C0039443103394420C228E2100039245A48EA
:1041AC0020A130E2416441855A074164412349848E
:1041BC006A67834A6A666A46834A72A859E541224D
:1041CC0059C46A266A66624672C84162394351E52F
:1041DC0039233103392328C231233103208120C2F2
:1041EC0020A21040000008201040186028A15A4757
:1041FC0051C562465A0551C451A451A45A0572A81E
:10420C003922390141433922394349A528C120605B
:10421C00186128C2000000000800082008001041A6
:10422C001061082008201040104018A220E31861EB
:10423C0010201020184108001861186120A23104C8
:10424C0018811882186120C22904104108001861D5
:10425C0018810800186128C320A22061102020A218
:10426C00288128812881202030A238E22861204032
:10427C0030A128A2206118402061100028C34145BC
:10428C002061390330C2208130E328C2100028C2DB
:10429C002040308138E159A35982516259A361C43D
:1042AC0059A4598359C4518349414921596261A385
:1042BC008AE8596240E1304040A040C148E1516277
:1042CC0040E049004901490040A0598259817224BB
:1042DC0061A261817A248244616169C27A2469C3D2
:1042EC0061A369E472466A4638E130A130A17A884C
:1042FC00722669E562064943390230C14985414459
:10430C004144416430E249A620A2188128C21860B9
:10431C0020A128C141843943394330E230E228C11D
:10432C0041644163394251E451E46246622572A70B
:10433C008329832A622651A43101416249C44183F5
:10434C006A466A468B289348620361C27AE772A771
:10435C0051A441017286A40C938A9BEC8B4A7AE996
:10436C0051C4624651C551C551C5394328C1312389
:10437C00392428E23964310328E3184131233123ED
:10438C0020A128C251E6418549A539235A0651C5B9
:10439C0072A86A6672A772C87AE86A8751A341212B
:1043AC0062056A4672878329626639215A2649C694
:1043BC0049A63924206031023103392329023123E3
:1043CC0020E2106018810820080008001000394312
:1043DC0051E651E5624749835A05496351C46A67FE
:1043EC007AE959E4494259C459E4392239434184A0
:1043FC00394420A1002000000000000008001041FA
:10440C0010400820104008200800188220A210201C
:10441C00182020821020186120A2102028C320A26E
:10442C0020A2102008003985104010401040104187
:10443C001881208228C220612061186030E2390383
:10444C0039234123288038E251A5308130C2410301
:10445C0039032061208128A22082184030E328A251
:10446C002881414428A128A130C2288120402881DC
:10447C002040414372676A4559C449425143410146
:10448C004963494240E14922284040E140C061C4AF
:10449C00618349014902514340E238C138A040E0F0
:1044AC0049214921306038A061C36A0461C37A652F
:1044BC00514072248AC671E3618169C37A0469E34D
:1044CC00720469E361A3492238C130A059A482C89F
:1044DC005121722661E5518430A128A1416439240F
:1044EC00392430C2394441651841186120C2312346
:1044FC0028E228C13103498441643102312231025E
:10450C0028A039225A056246834A830872C78B8ACF
:10451C00938B83097AC872A849A33921498339211D
:10452C007AC79BCB724572446A0372647AC76A6617
:10453C00492251836A258B289BCBAC2D938B8329E5
:10454C005A05622662476A8851C549A528C141852A
:10455C00396420A1396441C61861184018403103F0
:10456C0028C220A13102310349A530C251C551A442
:10457C006A875A058B6A83095A056A8759E541216E
:10458C0051A483096A4672C75A255A2549C530E297
:10459C00416530E331233944310228E228A131232B
:1045AC0028E220A220E21040104008000800080079
:1045BC0041C649A551E64984498449634963622649
:1045CC006A4683297286412159C3498349A449C546
:1045DC0028C128C10841002008200000082018A28A
:1045EC001061080008001861188218811041102011
:1045FC0020612061186128C3102020A22082104065
:10460C0010611020290318A210201061188120813C
:10461C00186128C220A2182020402861390338C212
:10462C0038E241233080622749444123620738E253
:10463C0030C2288130C32882204120402881288123
:10464C00496530C22020286030C1286051A54963DB
:10465C00620672677AA859C4494340E240E151842A
:10466C004101492238C0490161C4514269C3618288
:10467C0059416183596259A351625142490061C346
:10468C007A65596069E272247A855941618248C021
:10469C0069C28285828569817A0469A261607A2304
:1046AC0072036162514340E238C249226A257A653D
:1046BC0051008AC77A8730A030C139022881394429
:1046CC00208130C231033124080010401861208150
:1046DC003123310330E230E249844164396349C506
:1046EC00392251E46A667AE893CB8B8A83297B085A
:1046FC008B497AE882E96A2659C451A359E4496284
:10470C006A25A3CB930859617A6572246A456A2598
:10471C0038A04101724582E78B699BEC93AB6A66CA
:10472C0062466A675A0551C551C53923394349C593
:10473C0020A120A1290331231861184010403123F6
:10474C0020A1186020A1310230E251E641434143DF
:10475C006A876A878329832962056A6759E5494212
:10476C006205728772C75A0451C4628751E5208072
:10477C00390441865A484184392328E228C128E269
:10478C0028E2396420C20800106118A20800080051
:10479C00104049E628C16AA828A14143412362463A
:1047AC00728762258B49832859E3624551C449833A
:1047BC0030E120600841000008200841188218826E
:1047CC00080008001061188118811041186128C375
:1047DC0028A21841102010411041186110201861B6
:1047EC00082020C218811040188128C2186128A204
:1047FC00208128A228A128A130C230C2494438E225
:10480C00412338E2496451A54143412330A12000A2
:10481C002861288120611000286138E3412338E2A7
:10482C0041232860200030A0492262057AA87267D3
:10483C0059C559C5412330A138C12860492338A135
:10484C0059C5492259A461E4598372247A4461817F
:10485C007A2471C369C261816A036A037A448285CE
:10486C0061A1828492E669C269C2616159417A444C
:10487C008AA669C27A4469A2616269C272027A64C8
:10488C00720361A348E238A149036A268B2861C2EE
:10489C0069E29B696A25410138E22881206139244B
:1048AC0020403944310310401881186120A11000B8
:1048BC002080418451C528C14184416341845A46BA
:1048CC0051E46A8793AB8B6AA40C9BCB8B6A8308ED
:1048DC007AC762057AC882E97AC859E46A45518276
:1048EC0059A29348AC0C61A351216A0461E459A309
:1048FC00492161C482E78B498B49938A832972A72A
:10490C006A67624651E54143390251C5390228A113
:10491C0039641860396420A128E33124104020A1A7
:10492C0018812081312320A13103626830E238E103
:10493C0072A86A6772C77AE872C7620562265184E8
:10494C00412259E5622651A359E45A0541633902C3
:10495C0041654985394449A5418420A1310331037E
:10496C003103396428C220C218811040080010405D
:10497C0008202903312331025A27206039024123B0
:10498C0059C57AE872A78B698B696A656245496279
:10499C005A0538E1082000000000082010611020A2
:1049AC000800082010411061188110611041188115
:1049BC002061186120C3082028E31041102000005A
:1049CC00104118A2186129031861186128A230E35C
:1049DC00202028613902288038E241234123390301
:1049EC0041234985412330C21800202028612860CA
:1049FC0030A130A2206028C138E24102410241229C
:104A0C00496449644963516351426A0569E55983B4
:104A1C00492338E22020284018003081412340E20D
:104A2C004923514361A369C369E37A64720269C281
:104A3C007A027A437A23720271E171E18AC58AA4FF
:104A4C0092E58AA5826479E2826479E28A648A6456
:104A5C0069617A2482445900614182657A43826497
:104A6C009307596240C140C269E67A666A037A6468
:104A7C009B277A8651223080286030C2208128A260
:104A8C0028A239242081186118411020188128E2AD
:104A9C0028C128A149A451C54163498351C551C4BA
:104AAC0062466A668B6AA40D83298B4A830882E965
:104ABC006A677AC88B4A83297AE97AC88B497285E6
:104ACC007AA582E7A3EB61C3308038E051A438E0CB
:104ADC00494172A67AC793699BAA93AA6A666A66C9
:104AEC0051E459E54983390251E5416328C14164D8
:104AFC005A4720A141C528E2310328E328C3186195
:104B0C0028E220813123208028E2390330E230C1B1
:104B1C00622659E56A467AE883296A467AC84102D0
:104B2C0030A14122518459E56246626641633922C3
:104B3C0030E22081414351C552063922288028C1D8
:104B4C0031033923396431231881184010611861FD
:104B5C000000106131441020416528E228C2182061
:104B6C0030E162466A66626572A77AE7834962251C
:104B7C0059C47287084000000000188210410800D8
:104B8C0010411041104110401861080010401020D5
:104B9C00184120A21041188210400800104110202A
:104BAC0020A2188120C220A21861206120402881F7
:104BBC00390338E230A1284030A1410341233903A5
:104BCC0030E228611000180030A2390338E330C2FB
:104BDC0041234964390330E238E151A4518359A48B
:104BEC0051846A88494340E159A3722561C4490143
:104BFC0038C130812020286130A251C638E238E219
:104C0C0049435142512161C261A169E271E2618063
:104C1C0069C17A438A8571E272028AA492C492C5F0
:104C2C0082437A028A6492A57A028A848A6469A190
:104C3C00698171C27A23618192C682648264A3A95C
:104C4C006A0340A0514361A461C45982A389A3891A
:104C5C0082A65942492238E130C12881206128C2FC
:104C6C0028C228E318401020186110201861312345
:104C7C003943416451E549A45A2659E551E55A0591
:104C8C00832993AB938B8329728672876A266A4633
:104C9C006226412251C43922498351A383298B288E
:104CAC009368A40BAC2C6A662880288038E230808C
:104CBC0051A37AC77AC793698B28832862256246E9
:104CCC0051E4412230E151C4392241433922626816
:104CDC005A273943418528E220A228C3188120A2F3
:104CEC00314439843123184031023923180030C142
:104CFC00498351E46A666A8672A7832972874102E6
:104D0C0038E2496451C5390251E46A8759E5622693
:104D1C004164520762475A066A88394330E241645B
:104D2C00392349A5416418602081208118401861FD
:104D3C001041080028C328E3104051E7208128C205
:104D4C00208030E249C4624651C4620472868308F2
:104D5C006A456A250000084110411041080018619D
:104D6C0008000800102010410800102018610800ED
:104D7C002082188110411041082010400820082082
:104D8C0020C220E3188128E31840180049644944E4
:104D9C0051A540E240E241025184496428602880D8
:104DAC001800286030A140E3410338C2410330A110
:104DBC002860390228A22881308138A1492351A4C6
:104DCC0030A1412230A0516361C482A740E038C0B9
:104DDC0030A02880180028A14985496430A1496376
:104DEC0061E56A0551416A0369E2724472237A44AF
:104DFC007A857A4472047A247A2471C269C26981F0
:104E0C00616071C282447A038AA592E67A0369A131
:104E1C0069C269C282648AC571E17A02930682858D
:104E2C00512159A35983596261A29307B40B9B2852
:104E3C00594259634922518430C228A12040310380
:104E4C00208128C220A218402081188120813102A3
:104E5C0039434984496349835A0549A35A0572A7C2
:104E6C008B6A936A938B83096A46516238A041021C
:104E7C004943414328A128C130C1412351A3830890
:104E8C008B48AC4CAC4D72A7288030C23903390228
:104E9C0051C483298B2883088B697B08622551E4D4
:104EAC0062464142390151A449835A2662476AA895
:104EBC0072E9396339643143186028E328C231231D
:104ECC0041A54185396320802080392330E2204080
:104EDC0051E551C45A25624672C77AC77AC84963EC
:104EEC004143498438E228606A6672A76AA759E58B
:104EFC0049A5624749C562675A277B0A626828C17F
:104F0C003903418441643944392328C218401020A4
:104F1C0010200820102020A20800314441A628E3CC
:104F2C00186028A128A04183626662256A666A25FA
:104F3C00728661E400001061104108201020188274
:104F4C0010201882102020A2102010201861188226
:104F5C0028C31020082010611061082018811861E6
:104F6C00316518811840206128813903518451849E
:104F7C0051646A476A4761E6518440E24102494301
:104F8C0051A44943492361E662065985492338C136
:104F9C00412338E230A128603081518440E130A0B7
:104FAC00410259E54942728782E869E46A0540E1A9
:104FBC00308038C138E1414351A538E24963494258
:104FCC004942598261C3722469C28AC68AC67A85EB
:104FDC0069E3598171E47A2559416161618161818B
:104FEC0069A182847A038A858AA57A4382448A8558
:104FFC0082438AC593068AA4720282A48AC6722549
:10500C00514240E1388072249B68BC2BA3897A24DE
:10501C00594261A551644123286030E3206128A2E4
:10502C00206128C2184020A220A120C228E23943C6
:10503C0049A4416330E151C451A459E459E47AC8FC
:10504C007AE8726672668B497AA761E459E549631E
:10505C0030A1414349C531022880288038E172864D
:10506C009BCA9B89B46D59E41800204049A551A5F1
:10507C007AE88B4983088328938A72C75A0572C8C9
:10508C006A8751E5416351E5624662676A8849C4A3
:10509C0049A449A520A120C2186120A22081208109
:1050AC0039445206522651E528A1392349C54144B9
:1050BC0049A5414349A47B097AC772A77AE86205DE
:1050CC00390238E2288138E272C88B8B83295A0561
:1050DC00498449C57B0A62675A067B4B72C93923DE
:1050EC00394328C1414449C528C2208120A1184117
:1050FC00102010411861188128E3186120C2186033
:10510C0020A220A120812060392351E562266A6605
:10511C006A2561E4082010610800082018611861F4
:10512C001861184128E318820820080010411881E2
:10513C00104120A21041104010201061186128E38A
:10514C00310318401820392351A551A559C5516375
:10515C00494359A4412330A141234923598461C5B2
:10516C0061C561A46A2662056A26494340E15184FF
:10517C0059A540E240E1518461E5412261C5728745
:10518C006205516272469B6A6A0461A340C049225F
:10519C004943620661E561E5598459C562054921B7
:1051AC00490061A269C369A169A1828482847A439E
:1051BC0082847A4469A269A26161616150E05920DC
:1051CC007A4393068A848A848244824469607A0290
:1051DC008AA5A347A3268AA47A4293067A653880C7
:1051EC002820386069C47224B40ABC4B69C15100D0
:1051FC00828651424922412330C2206028A220815C
:10520C00208128A120A128A2186120C2310328E204
:10521C0041645A0662465A266226498359C459C3C8
:10522C0082E882E89B8A728661C46A256A47414398
:10523C0051A551C551C55A26414351A4518372867B
:10524C009348A3CAA3EB7AA730A0180051A46A46CE
:10525C00726582E76A257B08834A62265A25624674
:10526C0041635205624759E551C46A876AA849846B
:10527C0051E5416328C1312320A120A228A220A1FD
:10528C003923396352066267418449C649C6418451
:10529C0028C149A451C5626759E472A7832959E40E
:1052AC0041424984288049648B6B834A72A86246C8
:1052BC0051E551E549A449636A886AA8730A51E625
:1052CC0030E239434164310230E241843944208177
:1052DC00104018611861082018A220C21840102034
:1052EC0028C228E318401840100030E259E559E56F
:1052FC0072A782E8082010410800080018821020CC
:10530C001020100031241020186120C220C310413D
:10531C00186120A2080018A220A218A21041312462
:10532C001000100030C230C2410351A5494349431B
:10533C0051634943390251A538C138C140E2494350
:10534C0049225163514341014102308038A0490246
:10535C0038A1492259C45983516359C5516340E15D
:10536C0038A072459B4969C359625142308038A0BC
:10537C005184492259A4490159A459A4514269E4C0
:10538C007A86828669E38285828492E5A3679B266E
:10539C008AA482647A2369A1720371E27A238A84D3
:1053AC009B05822282228A638A6479C171A18A84D4
:1053BC0092C4A32592A36980930661C23040304009
:1053CC00388169E672257A44CCAC9B4669C182640B
:1053DC00930851224943286020202040310328E2C1
:1053EC0030C228A1208128C228C220A128A128E2ED
:1053FC00414362476A676A88832A72C872877266F9
:10540C0082E79BAA8B088B288B09726659E551A4FD
:10541C00416441643923416349C56A886A878308BA
:10542C008B4882E78B079349494230804922726648
:10543C006A4583086A4551A3622551C451E549A4C4
:10544C004984414349A449A449A45A0672E959E53F
:10545C00622651E5418439642081186128C239647F
:10546C003943396331225A2662885A2749A5416447
:10547C003923418449C549A46A677B0862456A8619
:10548C0059E530C13902496462268B4A6A874983DF
:10549C003101390249645A266AA9626851E64164AD
:1054AC0030E241844164394331032080392439444A
:1054BC001881188120A218821861104018401840D9
:1054CC002081310331030800184010004143498406
:1054DC0062267AE810400820104110201861100054
:1054EC00186128E318821020102010411041102060
:1054FC0020A21020188120C31040080028E310407F
:10550C00100028C2206028A151C55184496338E19C
:10551C00282038A0308130C228602880412330A157
:10552C0030814123494340E138A14943490240E1DC
:10553C005122516351425163410230C138C2308013
:10554C0040A093298AC740C0516251434122410275
:10555C0038A15184492259A36A2659A46A46726714
:10556C0061C3598269E382A592E59B068AA48243B2
:10557C0071E17A02720372027A027A437A228A8386
:10558C0092C48A839AE59AE4928392A3AB469AC416
:10559C0092A39AC482229AC5826440C038A040E289
:1055AC005164724769C3A389BC2A7A6282A482A51A
:1055BC00828640A0306030812861206130E3310365
:1055CC0028C2392328C228A120A1206120A13102A0
:1055DC0049A572C96A676246622659C46A257AC7A8
:1055EC0082E79B698B288B2893697AC759E55A0601
:1055FC0030E2184028C218411840188139225A2527
:10560C007AE882E859C482E8516341026246620535
:10561C006205622562056205518441434143418420
:10562C0039023902414351C541225A0572C96226D9
:10563C006A6762475A4728C110201840310349A5B0
:10564C0028A039433101392251E649A531023923C9
:10565C0028C228C2392341646A87622572A76A86E8
:10566C0062464163392249648B4B938B834A6A8728
:10567C004163416351A4498430C1416449A54184CB
:10568C00186028C249A5392349C54164312328C271
:10569C0020A120A118821041188128E22060184016
:1056AC00184039444165206110001820180030E280
:1056BC00412251C410611061102018611041186111
:1056CC00314518820800104008000800188218A202
:1056DC001020104010200800104028C318612081B1
:1056EC00392430E230E249A54985498430A128604B
:1056FC0038C1308030A1410330A12040204030C15E
:10570C0051A54143496430A1516459A449025984BB
:10571C004922490249024943308030A130A138C1A5
:10572C0061C4A3CB69E4618349224102494341230B
:10573C00412349434943412238C151A459C540E151
:10574C0051426A048AC68AA58A8471E17A027A2255
:10575C008A8382637A0282437A0271E171E1824226
:10576C009AE58A428A4392A49B05A32592C39AC3C5
:10577C00A3049AE49AE682446161512159A35163CE
:10578C005984618369C3A3689B2692E48AC58AE61F
:10579C005982490138C14103412328A23944394473
:1057AC0028C228E2206028C228E228C230E239430D
:1057BC004184414351C459C559C461E5494261E42E
:1057CC007AC7934982C77266726672A7414320A05A
:1057DC0020810800080008000800000008001020C4
:1057EC004163626751C449A45A0649636A4662061A
:1057FC00414341224142496338E230C131024164A4
:10580C0030E239224184498451A46247624751C530
:10581C0051C55A2641A439641840186028C230E298
:10582C0041A45A063922390249A43922206028C2DF
:10583C00312320A1208130E249646A676A6651E411
:10584C006A6649A351C572E9834B8B6B7B09836BE9
:10585C006AC949C55A276247520628A028C15A4727
:10586C0049C52080392339433943394330E220A1DB
:10587C0028E23123188110401040290320A12081F7
:10588C0020A128E228E328E3184120411820182001
:10589C0030E130E118610800082020A220C23165F7
:1058AC001861080018610800102010611020080011
:1058BC00080010611040104028C2184120613103CB
:1058CC0030C2390341434985390330A230A130A19C
:1058DC00390238E2204038E238E238E2494459E6ED
:1058EC0038C1306038A0410238C141026A4759E5DD
:1058FC004943494338C238C1410240E140E14901C2
:10590C009B499329598248E040A04943412259C5FB
:10591C004103494430C22040392251A4410149413C
:10592C0061E37A648AC582638AA48AA48AA48AC43D
:10593C00722169E172227A437A2282648A6379E164
:10594C0079E179E18A848A438A6392C492A3A3257C
:10595C009AE49AE4826469A2618269C469E461830D
:10596C0061A469C47A2482649B26BC2A93076A04C6
:10597C00492240E2410238C13902390230E2310396
:10598C0028E228E2312420A12081310339434984C3
:10599C0051E45A256A6659E462057A888B0A728743
:1059AC0072866204620562056226414408000800A2
:1059BC0008000800080010600840082008000800D3
:1059CC00080020A1290228E249A459C459C459A4A9
:1059DC0038E230E228A128A1184028A2312428C29C
:1059EC0031024143498449845A056226624649631F
:1059FC0062475A06394339642081206028E23964B1
:105A0C0049A549A5418351C451C439223923208168
:105A1C00310328E218603103310251C559E549843C
:105A2C00518330A05A056A8762476A886A67624761
:105A3C003123292339855A4851C5622649A428C0E7
:105A4C0051E528C139443944416449A53902312210
:105A5C00418431432081186120821040104018404D
:105A6C0020811840312439242061206020601800E6
:105A7C00206041630800080008001882314510407E
:105A8C0008201040104008000800080008001861A9
:105A9C00186120C30800186018411000184128A292
:105AAC0030E33923390330A12861288128A22881C9
:105ABC00414320602860286049445185728859848C
:105ACC003080518459A5518451644964410230801D
