:020000040800F2
:1000000000500020DD2200087D220008892200081F
:100010008F220008952200089B22000800000000A3
:10002000000000000000000000000000A122000805
:10003000AD22000800000000B9220008C522000817
:100040002523000825230008252300082523000870
:100050002523000825230008252300082523000860
:100060002523000825230008252300082523000850
:100070002523000825230008252300082523000840
:100080002523000825230008252300082523000830
:100090002523000825230008252300082523000820
:1000A0002523000825230008252300082523000810
:1000B0002523000825230008252300082523000800
:1000C00025230008252300082523000825230008F0
:1000D00025230008252300082523000825230008E0
:1000E0002523000825230008252300080000000020
:1000F0000000000000000000000000000000000000
:0C01000000000000000000005FF808F1A3
:10010C0010B5054C237833B9044B13B10448AFF345
:10011C0000800123237010BD480100200000000066
:10012C008023000808B5034B1BB103490348AFF308
:10013C00008008BD000000004C0100208023000856
:10014C004FF0FF0C1CEAD0521EBF1CEAD15392EAAE
:10015C000C0F93EA0C0F6FD01A4480EA010C40028A
:10016C0018BF5FEA41211ED04FF0006343EA5010E4
:10017C0043EA5111A0FB01310CF00040B1F5000F26
:10018C003EBF490041EAD3715B0040EA010062F1D5
:10019C007F02FD2A1DD8B3F1004F40EBC25008BFBF
:1001AC0020F00100704790F0000F0CF0004C08BFDD
:1001BC0049024CEA502040EA51207F3AC2BFD2F1AA
:1001CC00FF0340EAC250704740F400004FF00003B8
:1001DC00013A5DDC12F1190FDCBF00F000407047F2
:1001EC00C2F10002410021FA02F1C2F1200200FA30
:1001FC0002FC5FEA310040F1000053EA4C0308BFF7
:10020C0020EADC70704792F0000F00F0004C02BF47
:10021C00400010F4000F013AF9D040EA0C0093F0C2
:10022C00000F01F0004C02BF490011F4000F013B1C
:10023C00F9D041EA0C018FE70CEAD15392EA0C0F8A
:10024C0018BF93EA0C0F0AD030F0004C18BF31F0F5
:10025C00004CD8D180EA010000F00040704790F0CB
:10026C00000F17BF90F0004F084691F0000F91F06F
:10027C00004F14D092EA0C0F01D142020FD193EA35
:10028C000C0F03D14B0218BF084608D180EA0100BD
:10029C0000F0004040F0FE4040F40000704740F099
:1002AC00FE4040F44000704780F0004002E000BF88
:1002BC0081F0004142001FBF5FEA410392EA030F45
:1002CC007FEA226C7FEA236C6AD04FEA1262D2EB8F
:1002DC001363C1BFD218414048404140B8BF5B4294
:1002EC00192B88BF704710F0004F40F4000020F02D
:1002FC007F4018BF404211F0004F41F4000121F043
:10030C007F4118BF494292EA030F3FD0A2F101028C
:10031C0041FA03FC10EB0C00C3F1200301FA03F1CA
:10032C0000F0004302D5494260EB4000B0F5000FED
:10033C0013D3B0F1807F06D340084FEA310102F1AC
:10034C000102FE2A51D2B1F1004F40EBC25008BF5E
:10035C0020F0010040EA03007047490040EB000028
:10036C00013A28BFB0F5000FEDD2B0FA80FCACF129
:10037C00080CB2EB0C0200FA0CF0AABF00EBC25056
:10038C0052421843BCBFD0401843704792F0000F44
:10039C0081F4000106BF80F400000132013BB5E797
:1003AC004FEA41037FEA226C18BF7FEA236C21D00D
:1003BC0092EA030F04D092F0000F08BF0846704772
:1003CC0090EA010F1CBF0020704712F07F4F04D140
:1003DC00400028BF40F00040704712F100723CBF53
:1003EC0000F50000704700F0004343F0FE4040F47D
:1003FC00000070477FEA226216BF08467FEA23633B
:10040C000146420206BF5FEA412390EA010F40F425
:10041C00800070474FF0000304E000BF10F0004371
:10042C0048BF40425FEA000C08BF704743F0964358
:10043C0001464FF000001CE050EA010208BF704773
:10044C004FF000030AE000BF50EA010208BF7047FA
:10045C0011F0004302D5404261EB41015FEA010C0F
:10046C0002BF84460146002043F0B64308BFA3F107
:10047C008053A3F50003BCFA8CF2083AA3EBC253E9
:10048C0010DB01FA02FC634400FA02FCC2F1200208
:10049C00BCF1004F20FA02F243EB020008BF20F03F
:1004AC000100704702F1200201FA02FCC2F12002A5
:1004BC0050EA4C0021FA02F243EB020008BF20EA9A
:1004CC00DC7070474FF0FF3C06E000BF4FF0010CB2
:1004DC0002E000BF4FF0010C4DF804CD4FEA400292
:1004EC004FEA41037FEA226C18BF7FEA236C11D0DC
:1004FC0001B052EA530C18BF90EA010F58BFB2EB8F
:10050C00030088BFC81738BF6FEAE17018BF40F00E
:10051C00010070477FEA226C02D15FEA402C05D1C2
:10052C007FEA236CE4D15FEA412CE1D05DF8040B47
:10053C00704700BF844608466146FFE70FB5FFF7DA
:10054C00C9FF002848BF10F1000F0FBD4DF808ED92
:10055C00FFF7F4FF0CBF012000205DF808FB00BF83
:10056C004DF808EDFFF7EAFF34BF012000205DF8DD
:10057C0008FB00BF4DF808EDFFF7E0FF94BF01202A
:10058C0000205DF808FB00BF4DF808EDFFF7D2FF27
:10059C0094BF012000205DF808FB00BF4DF808ED6A
:1005AC00FFF7C8FF34BF012000205DF808FB00BF37
:1005BC004FEA4002B2F1FE4F0FD34FF09E03B3EB64
:1005CC0012620DD94FEA002343F0004310F0004FA4
:1005DC0023FA02F018BF404270474FF000007047FA
:1005EC0012F1610F01D1420205D110F0004008BF99
:1005FC006FF0004070474FF00000704742000ED281
:10060C00B2F1FE4F0BD34FF09E03B3EB126209D441
:10061C004FEA002343F0004323FA02F070474FF0F7
:10062C000000704712F1610F01D1420202D14FF06C
:10063C00FF3070474FF00000704700BF80B500AF2F
:10064C00084B1B68074A43F010031360032000F0AB
:10065C002BF9002000F008F801F06AFD0023184681
:10066C0080BD00BF0020024080B582B000AF786032
:10067C00124B1A68124B1B7819464FF47A73B3FB62
:10068C00F1F3B2FBF3F3184600F035F90346002BF7
:10069C0001D001230EE07B680F2B0AD80022796869
:1006AC004FF0FF3000F00BF9064A7B681360002313
:1006BC0000E0012318460837BD4680BD44010020E8
:1006CC00040000200000002080B400AF054B1B7814
:1006DC001A46054B1B681344034A136000BFBD4602
:1006EC0080BC7047040000206401002080B400AF7F
:1006FC00024B1B681846BD4680BC70476401002045
:10070C0080B584B000AF7860FFF7F0FFB8607B680D
:10071C00FB60FB68B3F1FF3F05D00A4B1B781A4610
:10072C00FB681344FB6000BFFFF7E0FF0246BB68A9
:10073C00D31AFA689A42F7D800BF00BF1037BD46EB
:10074C0080BD00BF0400002080B485B000AF78608D
:10075C007B6803F00703FB600C4BDB68BB60BA687B
:10076C004FF6FF031340BB60FB681A02BB681343D0
:10077C0043F0BF6343F40033BB60044ABB68D360EF
:10078C0000BF1437BD4680BC704700BF00ED00E0D1
:10079C0080B400AF044BDB681B0A03F00703184658
:1007AC00BD4680BC704700BF00ED00E080B483B054
:1007BC0000AF03463960FB7197F90730002B0ADB59
:1007CC003B68DAB20C4997F907301201D2B20B44EC
:1007DC0083F800230AE03B68DAB20849FB7903F09E
:1007EC000F03043B1201D2B20B441A7600BF0C3734
:1007FC00BD4680BC704700BF00E100E000ED00E0AA
:10080C0080B489B000AFF860B9607A60FB6803F01F
:10081C000703FB61FB69C3F10703042B28BF042307
:10082C00BB61FB690433062B02D9FB69033B00E077
:10083C0000237B614FF0FF32BB6902FA03F3DA430A
:10084C00BB681A407B699A404FF0FF317B6901FA13
:10085C0003F3D9437B680B40134318462437BD463A
:10086C0080BC704780B582B000AF78607B68013B7C
:10087C00B3F1807F01D301230FE00A4A7B68013B6F
:10088C0053600F214FF0FF30FFF790FF054B002214
:10089C009A60044B07221A60002318460837BD469D
:1008AC0080BD00BF10E000E080B582B000AF786082
:1008BC007868FFF749FF00BF0837BD4680BD80B59B
:1008CC0086B000AF0346B9607A60FB7300237B618E
:1008DC00FFF75EFF78617A68B9687869FFF790FF77
:1008EC00024697F90F3011461846FFF75FFF00BF1D
:1008FC001837BD4680BD80B582B000AF786078688F
:10090C00FFF7B0FF034618460837BD4680BD000010
:10091C0080B48BB000AF7860396000237B62002319
:10092C003B6269E101227B6A02FA03F3FB613B68DB
:10093C001B68FA691340BB61BA69FB699A4240F0C3
:10094C0058813B685B689A4A93425ED0984A9342BE
:10095C0075D8984A934258D0964A93426FD8964A83
:10096C00934252D0944A934269D8944A93424CD0C1
:10097C00924A934263D8924A934246D0904A934209
:10098C005DD8122B2AD8122B59D801A252F823F079
:10099C00170A0008F1090008030A0008450A0008B4
:1009AC004B0A00084B0A00084B0A00084B0A0008C7
:1009BC004B0A00084B0A00084B0A00084B0A0008B7
:1009CC004B0A00084B0A00084B0A00084B0A0008A7
:1009DC004B0A0008F90900080D0A0008794A9342ED
:1009EC0013D02CE03B68DB683B6229E03B68DB689A
:1009FC0004333B6224E03B68DB6808333B621FE056
:100A0C003B68DB680C333B621AE03B689B68002B4D
:100A1C0002D104233B6213E03B689B68012B05D198
:100A2C0008233B627B68FA691A6109E008233B6280
:100A3C007B68FA695A6103E000233B6200E000BF67
:100A4C00BB69FF2B01D87B6801E07B6804337B61B9
:100A5C00BB69FF2B02D87B6A9B0002E07B6A083BD8
:100A6C009B003B617B691A680F213B6901FA03F318
:100A7C00DB431A40396A3B6901FA03F31A437B6979
:100A8C001A603B685B6803F08053002B00F0B18068
:100A9C004D4B9B694C4A43F0010393614A4B9B6954
:100AAC0003F00103BB60BB68484A7B6A9B080233B6
:100ABC0052F82330FB607B6A03F003039B000F2288
:100ACC0002FA03F3DB43FA681340FB607B68404A8D
:100ADC00934213D07B683F4A93420DD07B683E4AC9
:100AEC00934207D07B683D4A934201D1032306E031
:100AFC00042304E0022302E0012300E000237A6ACD
:100B0C0002F0030292009340FA681343FB602F49F2
:100B1C007B6A9B080233FA6841F823203B685B68C8
:100B2C0003F48033002B06D02D4B1A682C49BB697B
:100B3C0013430B6006E02A4B1A68BB69DB43284958
:100B4C0013400B603B685B6803F40033002B06D04A
:100B5C00234B5A682249BB6913434B6006E0204B78
:100B6C005A68BB69DB431E4913404B603B685B68AA
:100B7C0003F48013002B06D0194B9A681849BB69F3
:100B8C0013438B6006E0164B9A68BB69DB43144930
:100B9C0013408B603B685B6803F40013002B21D07F
:100BAC000F4BDA680E49BB691343CB6021E000BFE1
:100BBC000000321000003110000022100000211043
:100BCC000000121000001110001002400000014043
:100BDC0000080140000C01400010014000140140CD
:100BEC00000401400B4BDA68BB69DB430949134035
:100BFC00CB607B6A01337B623B681A687B6A22FAA2
:100C0C0003F3002B7FF48EAE00BF00BF2C37BD4624
:100C1C0080BC70470004014080B485B000AF7860A0
:100C2C000B467B807B689A687B881340002B02D034
:100C3C000123FB7301E00023FB73FB7B1846143785
:100C4C00BD4680BC704780B483B000AF78600B4663
:100C5C007B8013467B707B78002B03D07A887B6873
:100C6C001A6103E07B881A047B681A6100BF0C3799
:100C7C00BD4680BC7047000080B586B000AF786080
:100C8C007B68002B01D1012372E27B681B6803F0A7
:100C9C000103002B00F08780924B5B6803F00C0380
:100CAC00042B0CD08F4B5B6803F00C03082B12D178
:100CBC008C4B5B6803F48033B3F5803F0BD1894BCD
:100CCC001B6803F40033002B6CD07B685B68002B33
:100CDC0068D101234CE27B685B68B3F5803F06D199
:100CEC00804B1B687F4A43F4803313602EE07B6893
:100CFC005B68002B0CD17B4B1B687A4A23F4803346
:100D0C001360784B1B68774A23F4802313601DE033
:100D1C007B685B68B3F5A02F0CD1724B1B68714AD2
:100D2C0043F4802313606F4B1B686E4A43F480338B
:100D3C0013600BE06B4B1B686A4A23F4803313601F
:100D4C00684B1B68674A23F4802313607B685B68DD
:100D5C00002B13D0FFF7CAFC386108E0FFF7C6FC84
:100D6C0002463B69D31A642B01D9032300E25D4B85
:100D7C001B6803F40033002BF0D014E0FFF7B6FC33
:100D8C00386108E0FFF7B2FC02463B69D31A642BCA
:100D9C0001D90323ECE1534B1B6803F40033002B04
:100DAC00F0D100E000BF7B681B6803F00203002B4E
:100DBC0063D04C4B5B6803F00C03002B0BD0494BFE
:100DCC005B6803F00C03082B1CD1464B5B6803F4E7
:100DDC008033002B16D1434B1B6803F00203002B0E
:100DEC0005D07B681B69012B01D00123C0E13D4B71
:100DFC001B6823F0F8027B685B69DB0039491343FD
:100E0C000B603AE07B681B69002B20D0364B01222B
:100E1C001A60FFF76BFC386108E0FFF767FC0246CD
:100E2C003B69D31A022B01D90323A1E12D4B1B687B
:100E3C0003F00203002BF0D02A4B1B6823F0F802BE
:100E4C007B685B69DB00274913430B6015E0264B7D
:100E5C0000221A60FFF74AFC386108E0FFF746FCF5
:100E6C0002463B69D31A022B01D9032380E11D4BA7
:100E7C001B6803F00203002BF0D17B681B6803F0A6
:100E8C000803002B3AD07B689B69002B19D0174BB9
:100E9C0001221A60FFF72AFC386108E0FFF726FCF4
:100EAC0002463B69D31A022B01D9032360E10D4B97
:100EBC005B6A03F00203002BF0D0012000F0A6FACD
:100ECC001CE00A4B00221A60FFF710FC38610FE09F
:100EDC00FFF70CFC02463B69D31A022B08D90323FB
:100EEC0046E100BF00100240000042428004424232
:100EFC00924B5B6A03F00203002BE9D17B681B6801
:100F0C0003F00403002B00F0A6800023FB758B4B31
:100F1C00DB6903F08053002B0DD1884BDB69874ACA
:100F2C0043F08053D361854BDB6903F08053BB6086
:100F3C00BB680123FB75824B1B6803F48073002B89
:100F4C0018D17F4B1B687E4A43F480731360FFF704
:100F5C00CDFB386108E0FFF7C9FB02463B69D31AA9
:100F6C00642B01D9032303E1754B1B6803F48073D5
:100F7C00002BF0D07B68DB68012B06D16F4B1B6A12
:100F8C006E4A43F0010313622DE07B68DB68002B93
:100F9C000CD16A4B1B6A694A23F001031362674B3D
:100FAC001B6A664A23F0040313621CE07B68DB684F
:100FBC00052B0CD1614B1B6A604A43F0040313628E
:100FCC005E4B1B6A5D4A43F0010313620BE05B4B03
:100FDC001B6A5A4A23F001031362584B1B6A574A87
:100FEC0023F0040313627B68DB68002B15D0FFF73A
:100FFC007DFB38610AE0FFF779FB02463B69D31AA7
:10100C0041F28832934201D90323B1E04B4B1B6A66
:10101C0003F00203002BEED014E0FFF767FB3861FE
:10102C000AE0FFF763FB02463B69D31A41F28832B0
:10103C00934201D903239BE0404B1B6A03F002034C
:10104C00002BEED1FB7D012B05D13C4BDB693B4AE0
:10105C0023F08053D3617B68DB69002B00F0878021
:10106C00364B5B6803F00C03082B61D07B68DB69A3
:10107C00022B46D1334B00221A60FFF737FB386145
:10108C0008E0FFF733FB02463B69D31A022B01D968
:10109C0003236DE0294B1B6803F00073002BF0D188
:1010AC007B681B6AB3F5803F08D1244B5B6823F443
:1010BC0000327B689B68214913434B601F4B5B6874
:1010CC0023F474127B68196A7B685B6A0B431B49B7
:1010DC0013434B601B4B01221A60FFF707FB38616F
:1010EC0008E0FFF703FB02463B69D31A022B01D938
:1010FC0003233DE0114B1B6803F00073002BF0D071
:10110C0035E0104B00221A60FFF7F0FA386108E066
:10111C00FFF7ECFA02463B69D31A022B01D90323E1
:10112C0026E0064B1B6803F00073002BF0D11EE089
:10113C007B68DB69012B07D1012319E00010024009
:10114C0000700040600042420B4B5B68FB60FB6828
:10115C0003F480327B681B6A9A4206D1FB6803F465
:10116C0070127B685B6A9A4201D0012300E0002375
:10117C0018461837BD4680BD0010024080B584B0BB
:10118C0000AF786039607B68002B01D10123D0E07F
:10119C006A4B1B6803F007033A689A4210D9674BF5
:1011AC001B6823F0070265493B6813430B60634BD4
:1011BC001B6803F007033A689A4201D00123B8E098
:1011CC007B681B6803F00203002B20D07B681B6834
:1011DC0003F00403002B05D0594B5B68584A43F4C9
:1011EC00E06353607B681B6803F00803002B05D099
:1011FC00534B5B68524A43F460535360504B5B68EB
:10120C0023F0F0027B689B684D4913434B607B686D
:10121C001B6803F00103002B40D07B685B68012B3B
:10122C0007D1474B1B6803F40033002B15D1012366
:10123C007FE07B685B68022B07D1414B1B6803F096
:10124C000073002B09D1012373E03D4B1B6803F0A5
:10125C000203002B01D101236BE0394B5B6823F0B7
:10126C0003027B685B68364913434B60FFF73EFA19
:10127C00F8600AE0FFF73AFA0246FB68D31A41F22B
:10128C008832934201D9032353E02D4B5B6803F062
:10129C000C027B685B689B009A42EBD1274B1B6866
:1012AC0003F007033A689A4210D2244B1B6823F0D0
:1012BC00070222493B6813430B60204B1B6803F069
:1012CC0007033A689A4201D0012332E07B681B681D
:1012DC0003F00403002B08D0194B5B6823F4E06285
:1012EC007B68DB68164913434B607B681B6803F013
:1012FC000803002B09D0124B5B6823F460527B6807
:10130C001B69DB000E4913434B6000F021F80246C9
:10131C000B4B5B681B0903F00F030A49CB5C22FAE9
:10132C0003F3094A1360094B1B681846FFF79CF935
:10133C00002318461037BD4680BD00BF0020024078
:10134C0000100240A82300084401002000000020E7
:10135C0090B48AB000AF294B3C1D0FCB84E80F0032
:10136C0040F201233B800023FB610023BB6100237F
:10137C007B6200237B6100233B62214B5B68FB613A
:10138C00FB6903F00C03042B02D0082B03D02BE0D9
:10139C001C4B3B622BE0FB699B0C03F00F032833C7
:1013AC003B4413F8243C7B61FB6903F48033002B32
:1013BC0012D0134B5B685B0C03F0010328333B44E6
:1013CC0013F8283CBB617B690E4A03FB02F2BB6934
:1013DC00B2FBF3F37B6204E07B690B4A02FB03F381
:1013EC007B627B6A3B6202E0064B3B6200BF3B6A5E
:1013FC0018462837BD4690BC704700BF982300089C
:10140C000010024000127A0000093D0080B485B043
:10141C0000AF78600A4B1B680A4AA2FB03235B0AE5
:10142C007A6802FB03F3FB6000BFFB685A1EFA608C
:10143C00002BF9D100BF00BF1437BD4680BC7047EC
:10144C0044010020D34D621080B582B000AF7860AB
:10145C007B68002B01D1012376E07B685B6A002B53
:10146C0008D17B685B68B3F5827F09D07B6800226A
:10147C00DA6105E07B6800221A617B6800225A6100
:10148C007B6800229A627B6893F85130DBB2002BA8
:10149C0006D17B68002283F85020786800F07AFE31
:1014AC007B68022283F851207B681B681A687B6872
:1014BC001B6822F040021A607B685B6803F482723E
:1014CC007B689B6803F404431A437B68DB6803F472
:1014DC0000631A437B681B6903F002031A437B68A1
:1014EC005B6903F001031A437B689B6903F4007387
:1014FC001A437B68DB6903F038031A437B681B6A69
:10150C0003F0800342EA03017B689B6A03F40052F8
:10151C007B681B680A431A607B689B691A0C7B68A2
:10152C001B6802F004025A607B681B68DA697B68EE
:10153C001B6822F40062DA617B6800225A657B68C2
:10154C00012283F85120002318460837BD4680BD80
:10155C0080B588B000AFF860B9603B601346FB8083
:10156C000023FB77FB6893F85030012B01D1022349
:10157C0026E1FB68012283F85020FFF7B7F8B86129
:10158C00FB88FB82FB6893F85130DBB2012B02D055
:10159C000223FB770BE1BB68002B02D0FB88002BEE
:1015AC0002D10123FB7702E1FB68032283F851206F
:1015BC00FB6800225A65FB68BA681A63FB68FA88F4
:1015CC009A86FB68FA88DA86FB6800229A63FB68C5
:1015DC0000229A87FB680022DA87FB6800225A6493
:1015EC00FB6800221A64FB689B68B3F5004F0FD1AF
:1015FC00FB681B681A68FB681B6822F040021A60C3
:10160C00FB681B681A68FB681B6842F480421A600E
:10161C00FB681B681B6803F04003402B07D0FB687A
:10162C001B681A68FB681B6842F040021A60FB6872
:10163C00DB68B3F5006F4BD1FB685B68002B02D005
:10164C00FB8A012B3ED1FB681B6B1A88FB681B685D
:10165C00DA60FB681B6B9A1CFB681A63FB68DB8EF9
:10166C009BB2013B9AB2FB68DA862BE0FB681B68E5
:10167C009B6803F00203022B12D1FB681B6B1A88C8
:10168C00FB681B68DA60FB681B6B9A1CFB681A63AF
:10169C00FB68DB8E9BB2013B9AB2FB68DA8611E0E9
:1016AC00FFF724F80246BB69D31A3A689A4203D86A
:1016BC003B68B3F1FF3F02D13B68002B02D10323FF
:1016CC00FB7774E0FB68DB8E9BB2002BCED14CE039
:1016DC00FB685B68002B02D0FB8A012B40D1FB68B6
:1016EC001A6BFB681B680C3312781A70FB681B6B47
:1016FC005A1CFB681A63FB68DB8E9BB2013B9AB2E7
:10170C00FB68DA862CE0FB681B689B6803F002031D
:10171C00022B13D1FB681A6BFB681B680C33127815
:10172C001A70FB681B6B5A1CFB681A63FB68DB8E18
:10173C009BB2013B9AB2FB68DA8611E0FEF7D6FF4A
:10174C000246BB69D31A3A689A4203D83B68B3F194
:10175C00FF3F02D13B68002B02D10323FB7726E02D
:10176C00FB68DB8E9BB2002BCDD1BA693968F86867
:10177C0000F0B2F80346002B02D0FB6820225A6519
:10178C00FB689B68002B0AD100233B61FB681B683C
:10179C00DB683B61FB681B689B683B613B69FB68D2
:1017AC005B6D002B02D00123FB7700E000BFFB68D0
:1017BC00012283F85120FB68002283F85020FB7F24
:1017CC0018462037BD4680BD80B588B000AFF860A4
:1017DC00B9603B601346FB71FEF788FF0246BB6A9B
:1017EC009B1A3A681344FB61FEF780FFB861394BD2
:1017FC001B685B011B0DFA6902FB03F37B6154E070
:10180C003B68B3F1FF3F50D0FEF770FF0246BB6957
:10181C00D31AFA699A4202D9FB69002B3DD1FB68B5
:10182C001B685A68FB681B6822F0E0025A60FB6870
:10183C005B68B3F5827F11D1FB689B68B3F5004FF1
:10184C0004D0FB689B68B3F5806F07D1FB681B68FD
:10185C001A68FB681B6822F040021A60FB689B6ADE
:10186C00B3F5005F0FD1FB681B681A68FB681B6837
:10187C0022F400521A60FB681B681A68FB681B682C
:10188C0042F400521A60FB68012283F85120FB6875
:10189C00002283F85020032317E07B69002B01D131
:1018AC000023FB617B69013B7B61FB681B689A68C9
:1018BC00BB681340BA689A420CBF01230023DBB209
:1018CC001A46FB799A429BD1002318462037BD4615
:1018DC0080BD00BF4401002080B586B002AFF86027
:1018EC00B9607A607B680093BB6800228021F8683D
:1018FC00FFF76AFF0346002B07D0FB685B6D43F0D4
:10190C002002FB685A65032300E0002318461037B9
:10191C00BD4680BD80B582B000AF0346FB7100F0C0
:10192C006DF807210B2000F041F8FB79184600F008
:10193C0006F800F017F800BF0837BD4680BD80B52B
:10194C0082B000AF0346FB71FB790F2B05D8FB79F6
:10195C0019460A2000F02AF800E000BF0837BD46FF
:10196C0080BD000080B582B000AF0023FB710E4B30
:10197C001B78FF2B01D10F23FB7100233B600BE085
:10198C003B68DBB20133DBB2FA791146184600F042
:10199C000DF83B6801333B603B68072BF0DD00BF63
:1019AC0000BF0837BD4680BD6801002080B582B0FD
:1019BC0000AF03460A46FB711346BB71002210218F
:1019CC000C48FFF740F9F91D4FF0FF3301220A488C
:1019DC00FFF7BEFDB91D4FF0FF3301220648FFF79C
:1019EC00B7FD012210210348FFF72DF900BF08377E
:1019FC00BD4680BD000801406C01002080B500AFE1
:101A0C0001210C20FFF7D2FF00BF80BD80B500AFD5
:101A1C00054BFF221A70044B1B7819460920FFF75F
:101A2C00C5FF00BF80BD00BF6801002080B582B03B
:101A3C0000AF0346FB710B46BB7113467B71FB7900
:101A4C00082B44D87B79002B20D0234B1B78002B00
:101A5C000ED1BB79184600F077F90346DBB263F080
:101A6C007F03DAB2FB7911461846FFF79FFF2FE090
:101A7C00194B1B78FF2B2BD1BB7963F07F03DAB2A8
:101A8C00FB7911461846FFF791FF21E0124B1B78AA
:101A9C00002B0ED1BB79184600F056F90346DBB289
:101AAC0003F07F03DAB2FB7911461846FFF77EFF8D
:101ABC000EE0094B1B78FF2B0AD1BB7903F07F0397
:101ACC00DAB2FB7911461846FFF770FF00E000BF51
:101ADC000837BD4680BD00BF6801002080B584B0CA
:101AEC0000AF03463960FB71FF210920FFF75EFF51
:101AFC003B68002B0DDAFB79002B07D0FB790A2110
:101B0C001846FFF753FFFB79013BFB713B685B42C7
:101B1C003B600123FB6005E0FA6813469B0013440D
:101B2C005B00FB603A68FB6892FBF3F3092BF3DC78
:101B3C00FB79002B0CD03A68FB6892FBF3F3DAB21A
:101B4C00FB7911461846FFF731FFFB79013BFB711E
:101B5C00FB681C4A82FB03129210DB17D31AFB6042
:101B6C0022E0FB79002B17D0FA6813469B00134434
:101B7C005B001A463B6893FBF2F101FB02F29A1AE6
:101B8C00FB6892FBF3F3DAB2FB7911461846FFF7C8
:101B9C000DFFFB79013BFB71FB680A4A82FB0312C8
:101BAC009210DB17D31AFB60FB68002BD9DC064BB9
:101BBC001B7819460920FFF7F9FEFB7918461037F8
:101BCC00BD4680BD676666666801002080B584B03E
:101BDC0000AF03463960FB711346BB71FF2109202E
:101BEC00FFF7E4FEBB79002B29D0BB79013BDBB2BC
:101BFC00184600F0B9F8F8601EE0FB79002B15D000
:101C0C003A68FB68B2FBF3F1124BA3FB0123DA0831
:101C1C0013469B0013445B00CA1AD2B2FB791146DF
:101C2C001846FFF7C3FEFB79013BFB71FB68094AC1
:101C3C00A2FB0323DB08FB60FB68002BDDD1064B0A
:101C4C001B7819460920FFF7B1FEFB7918461037AF
:101C5C00BD4680BDCDCCCCCC6801002090B583B006
:101C6C0000AF03463960FB711346BB71BB79042B83
:101C7C0001D90423BB71FF210920FFF797FE4FF018
:101C8C0000013868FEF76CFC0346002B0ED0FB7984
:101C9C00002B07D0FB790A211846FFF787FEFB794A
:101CAC00013BFB713B6883F000433B603868FEF7F7
:101CBC007FFC0246FB7911461846FFF70FFF0346DF
:101CCC00FB71BB79002B30D0FB790133DCB2386867
:101CDC00FEF76EFC02461A4B83FB02139910D317C6
:101CEC00C91A0B469B000B445B00D11ACBB20122E4
:101CFC0019462046FFF79AFEBB79184600F034F8D7
:101D0C0003461846FEF786FB034639681846FEF76D
:101D1C0017FA03461846FEF771FC0146BA79FB79AF
:101D2C001846FFF753FF0346FB71064B1B78194609
:101D3C000920FFF73BFEFB7918460C37BD4690BDDA
:101D4C00676666666801002080B483B000AF034606
:101D5C00FB71FB79034AD35C9BB218460C37BD462A
:101D6C0080BC70470800002080B485B000AF0346EB
:101D7C00FB710123FB6008E0FA6813469B001344D7
:101D8C005B00FB60FB79013BFB71FB79002BF3D112
:101D9C00FB6818461437BD4680BC704780B584B0CC
:101DAC0000AF03460A46FB711346BB71FB793B73CC
:101DBC00BB797B7300224FF480510A48FEF743FF36
:101DCC0007F10C01642302220748FFF7C1FB012233
:101DDC004FF480510348FEF736FF00BF1037BD4665
:101DEC0080BD00BF000C0140C401002080B500AFD5
:101DFC0000210920FFF7D2FF03210A20FFF7CEFFB5
:101E0C0007210B20FFF7CAFF01210C20FFF7C6FFAB
:101E1C0000210F20FFF7C2FF00BF80BD80B582B04C
:101E2C0000AFFEF70BFC00F075F800F01BF900F0AA
:101E3C00ADF800F0E1F8FFF7D9FF0A20FEF760FCDF
:101E4C000720FFF767FDFFF7E1FD01212D48FEF7A5
:101E5C00E3FE0346002B2FD0012BF6D12A49082094
:101E6C00FFF73CFE4FF4FA60FEF74AFCFFF77AFDF1
:101E7C00022226490820FFF7F1FE4FF4FA60FEF724
:101E8C003FFCFFF76FFD042242F20F710820FFF7B1
:101E9C009DFE4FF4FA60FEF733FCFFF763FD08225A
:101EAC0042F20F710820FFF791FE4FF4FA60FEF733
:101EBC0027FCFFF757FD23E000237B601CE0012388
:101ECC003B600FE03B68D8B23B68013B10497A6835
:101EDC00D2000A4413441B781946FFF75FFF3B6896
:101EEC0001333B603B68082BECDD4FF42F70FEF7A1
:101EFC0007FC7B6801337B607B68252BDFDD00BF33
:101F0C00A3E700BF000C0140B17F3905713D6AC0E9
:101F1C001400002080B590B000AF07F11803282200
:101F2C000021184600F01EFA3B1D00221A605A6070
:101F3C009A60DA601A610223BB610123BB62102331
:101F4C00FB6200237B6307F118031846FEF794FE2F
:101F5C000346002B01D000F0E5F80F237B60002333
:101F6C00BB600023FB6000233B6100237B613B1DB6
:101F7C0000211846FFF702F90346002B01D000F0B0
:101F8C00D1F800BF4037BD4680BD000080B500AF22
:101F9C00174B184A1A60164B4FF482725A60144B46
:101FAC0000229A60124B0022DA60114B00221A6157
:101FBC000F4B00225A610E4B4FF400729A610C4B7E
:101FCC000022DA610A4B00221A62094B00225A6283
:101FDC00074B00229A62064B0A22DA620448FFF78A
:101FEC0033FA0346002B01D000F09CF800BF80BDF3
:101FFC006C0100200030014080B500AF174B184A2F
:10200C001A60164B4FF482725A60144B00229A607D
:10201C00124B0022DA60114B00221A610F4B002286
:10202C005A610E4B4FF400729A610C4B0022DA612C
:10203C000A4B00221A62094B00225A62074B0022FB
:10204C009A62064B0A22DA620448FFF7FDF903464E
:10205C00002B01D000F066F800BF80BDC401002049
:10206C000038004080B586B000AF07F108030022AD
:10207C001A605A609A60DA60274B9B69264A43F0D3
:10208C0004039361244B9B6903F004037B607B681E
:10209C00214B9B69204A43F0080393611E4B9B69BB
:1020AC0003F008033B603B68002210211B48FEF73D
:1020BC00CAFD00224FF480511948FEF7C4FD1023CD
:1020CC00BB600123FB6000233B6102237B6107F1B2
:1020DC00080319461148FEF71BFC0123BB600023C3
:1020EC00FB6000233B6107F1080319460C48FEF71F
:1020FC000FFC4FF48053BB600123FB6000233B615A
:10210C0002237B6107F1080319460548FEF700FC22
:10211C0000BF1837BD4680BD0010024000080140CA
:10212C00000C014080B400AF00BFBD4680BC7047BE
:10213C0080B485B000AF154B9B69144A43F0010382
:10214C009361124B9B6903F00103BB60BB680F4B9F
:10215C00DB690E4A43F08053D3610C4BDB6903F00F
:10216C0080537B607B680A4B5B68FB60FB6823F0E9
:10217C00E063FB60FB6843F08063FB60044AFB6830
:10218C00536000BF1437BD4680BC7047001002403E
:10219C000000014080B58AB000AF786007F11803E9
:1021AC0000221A605A609A60DA607B681B682B4ABE
:1021BC00934224D12A4B9B69294A43F4805393615F
:1021CC00274B9B6903F480537B617B69244B9B6990
:1021DC00234A43F004039361214B9B6903F00403EE
:1021EC003B613B69A023BB610223FB6103237B6240
:1021FC0007F1180319461B48FEF78AFB29E07B6898
:10220C001B68194A934224D1154BDB69144A43F4D9
:10221C008043D361124BDB6903F48043FB60FB68A2
:10222C000F4B9B690E4A43F0080393610C4B9B695F
:10223C0003F00803BB60BB684FF42043BB6102236F
:10224C00FB6103237B6207F1180319460748FEF76D
:10225C005FFB00BF2837BD4680BD00BF003001408A
:10226C00001002400008014000380040000C014002
:10227C0080B400AF00BFBD4680BC704780B400AFD7
:10228C00FEE780B400AFFEE780B400AFFEE780B499
:10229C0000AFFEE780B400AF00BFBD4680BC704706
:1022AC0080B400AF00BFBD4680BC704780B400AFA7
:1022BC0000BFBD4680BC704780B500AFFEF704FA86
:1022CC0000BF80BD80B400AF00BFBD4680BC70476E
:1022DC000C480D490D4A002302E0D458C450043375
:1022EC00C4188C42F9D30A4A0A4C002301E013604B
:1022FC000432A242FBD3FFF7E5FF00F00FF8FFF723
:10230C008DFD70470000002048010020C02300080C
:10231C00480100201C020020FEE7000070B50026DA
:10232C000C4D0D4C641BA410A64209D100F022F8F0
:10233C0000260A4D0A4C641BA410A64205D170BDA0
:10234C0055F8043B98470136EEE755F8043B98479F
:10235C000136F2E7B8230008B8230008B8230008B8
:10236C00BC23000803460244934200D1704703F893
:10237C00011BF9E7F8B500BFF8BC08BC9E467047D6
:0C238C00F8B500BFF8BC08BC9E467047C6
:1023980002030405060708090A0B0C0D0E0F10109E
:1023A80000000000000000000102030406070809FD
:0423B80031010008E7
:0423BC000D01000807
:1023C00010000000010000007E306D79335B5F700B
:1023D0007F7B01003C4242424242423C103050105E
:1023E0001010107C7E02027E4040407E3E02023E83
:1023F00002023E0008182848FE0808083C20203C3D
:1024000004043C003C20203C24243C003E220408E0
:1024100008080808003E22223E22223E3E22223E9A
:102420000202023E182442427E4242423C22223CA8
:1024300022223C003C4040404040403C7C22222242
:102440002222227C7C40407C4040407C7C40407C7E
:10245000404040403C4040404C44443C4444447C28
:10246000444444447C1010101010107C3C080808B0
:1024700008084830002428302030282440404040BC
:102480004040407C81C3A599818181810042625294
:102490004A4642003C4242424242423C3C222222C4
:1024A0003C2020201C2222222226221D3C222222E5
:1024B0003C242221001E20203E02023C003E08084F
:1024C00008080808424242424242221C424242421A
:1024D0004242241800494949492A1C00004122145B
:1024E000081422414122140808080808007F020449
:1024F0000810207F00000000000000000000000025
:08250000000000000024F400BB
:04000005080022DDF0
:00000001FF
