:020000040800F2
:1000000000280020993D0008D13C0008DD3C000894
:10001000E33C0008E93C0008EF3C00080000000059
:10002000000000000000000000000000F53C000897
:10003000013D0008000000000D3D0008193D0008CA
:10004000E13D0008E13D0008E13D0008E13D000818
:10005000E13D0008E13D0008E13D0008E13D000808
:10006000E13D0008E13D0008E13D0008E13D0008F8
:10007000253D0008E13D0008E13D0008E13D0008A4
:10008000E13D0008E13D0008E13D0008E13D0008D8
:10009000E13D0008E13D0008E13D0008E13D0008C8
:1000A000E13D0008E13D0008E13D0008E13D0008B8
:1000B000E13D0008E13D000800000000E13D0008CE
:1000C000E13D00080000000000000000553D000870
:1000D00000000000E13D0008E13D000800000000D4
:1000E000E13D0008E13D0008E13D0008000000009E
:1000F0000000000000000000000000000000000000
:0C01000000000000000000005FF808F1A3
:10010C0010B5054C237833B9044B13B10448AFF345
:10011C0000800123237010BD0C00002000000000A3
:10012C003C3E000808B5034B1BB103490348AFF331
:10013C00008008BD00000000100000203C3E0008BC
:10014C00034613F8012B002AFBD1181A013870470B
:10015C0080B500AF084B1B68074A43F010031360CF
:10016C00032000F047F9002000F008F803F0FCFC35
:10017C000023184680BD00BF0020024080B582B02D
:10018C0000AF7860124B1A68124B1B7819464FF46B
:10019C007A73B3FBF1F3B2FBF3F3184600F05FF99B
:1001AC000346002B01D001230EE07B680F2B0AD8ED
:1001BC00002279684FF0FF3000F027F9064A7B687F
:1001CC001360002300E0012318460837BD4680BDAC
:1001DC0008000020040000200000002080B400AFC4
:1001EC00054B1B781A46054B1B681344034A1360D6
:1001FC0000BFBD4680BC70470400002028000020D2
:10020C0080B400AF024B1B681846BD4680BC7047DB
:10021C002800002080B584B000AF7860FFF7F0FFB5
:10022C00B8607B68FB60FB68B3F1FF3F05D00A4BFD
:10023C001B781A46FB681344FB6000BFFFF7E0FF16
:10024C000246BB68D31AFA689A42F7D800BF00BFBF
:10025C001037BD4680BD00BF0400002080B485B0BF
:10026C0000AF78607B6803F00703FB600C4BDB6826
:10027C00BB60BA684FF6FF031340BB60FB681A0201
:10028C00BB68134343F0BF6343F40033BB60044AC1
:10029C00BB68D36000BF1437BD4680BC704700BF3D
:1002AC0000ED00E080B400AF044BDB681B0A03F0E8
:1002BC0007031846BD4680BC704700BF00ED00E048
:1002CC0080B483B000AF0346FB7197F90730002B65
:1002DC000BDBFB7903F01F02064997F907305B092A
:1002EC00012000FA02F241F8232000BF0C37BD4672
:1002FC0080BC704700E100E080B483B000AF0346DF
:10030C003960FB7197F90730002B0ADB3B68DAB2D6
:10031C000C4997F907301201D2B20B4483F8002331
:10032C000AE03B68DAB20849FB7903F00F03043B9F
:10033C001201D2B20B441A7600BF0C37BD4680BCFA
:10034C00704700BF00E100E000ED00E080B489B030
:10035C0000AFF860B9607A60FB6803F00703FB61DB
:10036C00FB69C3F10703042B28BF0423BB61FB69A2
:10037C000433062B02D9FB69033B00E000237B61AD
:10038C004FF0FF32BB6902FA03F3DA43BB681A4041
:10039C007B699A404FF0FF317B6901FA03F3D94333
:1003AC007B680B40134318462437BD4680BC70470E
:1003BC0080B582B000AF78607B68013BB3F1807F81
:1003CC0001D301230FE00A4A7B68013B53600F21E4
:1003DC004FF0FF30FFF790FF054B00229A60044B63
:1003EC0007221A60002318460837BD4680BD00BF9F
:1003FC0010E000E080B582B000AF78607868FFF75D
:10040C002DFF00BF0837BD4680BD80B586B000AF5C
:10041C000346B9607A60FB7300237B61FFF742FFF0
:10042C0078617A68B9687869FFF790FF024697F9A6
:10043C000F3011461846FFF75FFF00BF1837BD4657
:10044C0080BD80B582B000AF0346FB7197F90730D1
:10045C001846FFF735FF00BF0837BD4680BD80B595
:10046C0082B000AF78607868FFF7A2FF03461846A9
:10047C000837BD4680BD000080B485B000AF786001
:10048C000023FB607B68002B01D1012343E07B68D8
:10049C001B681A46224B1344224AA2FB03231B0956
:1004AC009A007B681A647B681F4ADA637B680222B5
:1004BC0083F821207B681B681B68FB60FB6823F4B6
:1004CC007F5323F03003FB607B685A687B689B6822
:1004DC001A437B68DB681A437B681B691A437B6889
:1004EC005B691A437B689B691A437B68DB6913431E
:1004FC00FA681343FB607B681B68FA681A607B68B8
:10050C0000229A637B68012283F821207B680022F9
:10051C0083F82020002318461437BD4680BC704752
:10052C00F8FFFDBFCDCCCCCC0000024080B586B02E
:10053C0000AFF860B9607A603B600023FB75FB6824
:10054C0093F82030012B01D102234AE0FB680122F1
:10055C0083F82020FB6893F82130012B3AD1FB68FB
:10056C00022283F82120FB6800229A63FB681B6837
:10057C001A68FB681B6822F001021A603B687A68F3
:10058C00B968F86800F0E8F9FB68DB6A002B08D062
:10059C00FB681B681A68FB681B6842F00E021A6045
:1005AC000FE0FB681B681A68FB681B6822F00402EA
:1005BC001A60FB681B681A68FB681B6842F00A0229
:1005CC001A60FB681B681A68FB681B6842F0010222
:1005DC001A6005E0FB68002283F820200223FB75DB
:1005EC00FB7D18461837BD4680BD80B485B000AF82
:1005FC0078600023FB737B6893F82130022B08D0C2
:10060C007B6804229A637B68002283F820200123F4
:10061C0020E07B681B681A687B681B6822F00E025E
:10062C001A607B681B681A687B681B6822F00102E1
:10063C001A607B681A6C7B68DB6B012101FA02F291
:10064C005A607B68012283F821207B68002283F8A2
:10065C002020FB7B18461437BD4680BC7047000039
:10066C0080B584B000AF78600023FB737B6893F88F
:10067C002130022B05D07B6804229A630123FB7383
:10068C0051E07B681B681A687B681B6822F00E02BD
:10069C001A607B681B681A687B681B6822F0010271
:1006AC001A607B681B68224A934229D07B681B68BE
:1006BC00204A934222D07B681B681F4A93421AD06F
:1006CC007B681B681D4A934212D07B681B681C4ACE
:1006DC0093420AD07B681B681A4A934202D14FF4AA
:1006EC0080130EE04FF080730BE04FF4803308E082
:1006FC004FF4805305E04FF4807302E0102300E0C8
:10070C000123114A53607B68012283F821207B6806
:10071C00002283F820207B685B6B002B03D07B6866
:10072C005B6B78689847FB7B18461037BD4680BDDD
:10073C00080002401C00024030000240440002400D
:10074C00580002406C0002400000024080B584B0AA
:10075C0000AF78607B68DB6B1B68FB607B681B6899
:10076C001B68BB607B681B6C04229A40FB681340BF
:10077C00002B4FD0BB6803F00403002B4AD07B68DE
:10078C001B681B6803F02003002B07D17B681B68D8
:10079C001A687B681B6822F004021A607B681B686D
:1007AC00664A934229D07B681B68654A934222D0E3
:1007BC007B681B68634A93421AD07B681B68624A49
:1007CC00934212D07B681B68604A93420AD07B68C4
:1007DC001B685F4A934202D14FF480030EE04FF046
:1007EC0080630BE04FF4802308E04FF4804305E076
:1007FC004FF4806302E0402300E00423554A536029
:10080C007B68DB6A002B00F094807B68DB6A78687D
:10081C0098478EE07B681B6C02229A40FB68134061
:10082C00002B56D0BB6803F00203002B51D07B6821
:10083C001B681B6803F02003002B0BD17B681B6823
:10084C001A687B681B6822F00A021A607B68012216
:10085C0083F821207B681B68384A934229D07B6837
:10086C001B68374A934222D07B681B68354A9342F7
:10087C001AD07B681B68344A934212D07B681B6881
:10088C00324A93420AD07B681B68314A934202D1A8
:10089C004FF400130EE04FF000730BE04FF40033F5
:1008AC0008E04FF4005305E04FF4007302E02023FE
:1008BC0000E00223274A53607B68002283F8202043
:1008CC007B689B6A002B34D07B689B6A786898475E
:1008DC002FE07B681B6C08229A40FB681340002BAE
:1008EC0028D0BB6803F00803002B23D07B681B685F
:1008FC001A687B681B6822F00E021A607B681A6CFF
:10090C007B68DB6B012101FA02F25A607B680122E1
:10091C009A637B68012283F821207B68002283F88C
:10092C0020207B681B6B002B04D07B681B6B7868CA
:10093C00984700BF00BF1037BD4680BD080002407D
:10094C001C000240300002404400024058000240AB
:10095C006C0002400000024080B485B000AFF8602B
:10096C00B9607A603B60FB681A6CFB68DB6B012139
:10097C0001FA02F25A60FB681B683A685A60FB681D
:10098C005B68102B08D1FB681B687A689A60FB685F
:10099C001B68BA68DA6007E0FB681B68BA689A6083
:1009AC00FB681B687A68DA6000BF1437BD4680BCF0
:1009BC007047000080B48BB000AF786039600023C2
:1009CC007B6200233B6261E101227B6A02FA03F342
:1009DC00FB613B681B68FA691340BB61BA69FB6930
:1009EC009A4240F050813B685B68974A93425ED0D4
:1009FC00954A934275D8954A934258D0934A93425C
:100A0C006FD8934A934252D0914A934269D8914AF3
:100A1C0093424CD08F4A934263D88F4A934246D02C
:100A2C008D4A93425DD8122B2AD8122B59D801A289
:100A3C0052F823F0BB0A0008950A0008A70A000820
:100A4C00E90A0008EF0A0008EF0A0008EF0A00089C
:100A5C00EF0A0008EF0A0008EF0A0008EF0A000886
:100A6C00EF0A0008EF0A0008EF0A0008EF0A000876
:100A7C00EF0A0008EF0A00089D0A0008B10A0008F6
:100A8C00764A934213D02CE03B68DB683B6229E04A
:100A9C003B68DB6804333B6224E03B68DB6808336B
:100AAC003B621FE03B68DB680C333B621AE03B683F
:100ABC009B68002B02D104233B6213E03B689B68CC
:100ACC00012B05D108233B627B68FA691A6109E0A6
:100ADC0008233B627B68FA695A6103E000233B629E
:100AEC0000E000BFBB69FF2B01D87B6801E07B688D
:100AFC0004337B61BB69FF2B02D87B6A9B0002E04D
:100B0C007B6A083B9B003B617B691A680F213B6940
:100B1C0001FA03F3DB431A40396A3B6901FA03F328
:100B2C001A437B691A603B685B6803F08053002BA7
:100B3C0000F0A9804A4B9B69494A43F00103936139
:100B4C00474B9B6903F00103BB60BB68454A7B6A5A
:100B5C009B08023352F82330FB607B6A03F00303DB
:100B6C009B000F2202FA03F3DB43FA681340FB608D
:100B7C007B683D4A93420DD07B683C4A934207D038
:100B8C007B683B4A934201D1022304E0032302E039
:100B9C00012300E000237A6A02F0030292009340E2
:100BAC00FA681343FB602F497B6A9B080233FA688F
:100BBC0041F823203B685B6803F48033002B06D09C
:100BCC002C4B1A682B49BB6913430B6006E0294B6D
:100BDC001A68BB69DB43274913400B603B685B68B1
:100BEC0003F40033002B06D0224B5A682149BB6911
:100BFC0013434B6006E01F4B5A68BB69DB431D492E
:100C0C0013404B603B685B6803F48013002B06D0E9
:100C1C00184B9A681749BB6913438B6006E0154B58
:100C2C009A68BB69DB43134913408B603B685B6874
:100C3C0003F40013002B1FD00E4BDA680D49BB696F
:100C4C001343CB601FE000BF0000321000003110D6
:100C5C0000002210000021100000121000001110E2
:100C6C00001002400000014000080140000C01404F
:100C7C0000100140000401400B4BDA68BB69DB43F8
:100C8C0009491340CB607B6A01337B623B681A686D
:100C9C007B6A22FA03F3002B7FF496AE00BF00BFF1
:100CAC002C37BD4680BC70470004014080B485B031
:100CBC0000AF78600B467B807B689A687B8813401A
:100CCC00002B02D00123FB7301E00023FB73FB7BA1
:100CDC0018461437BD4680BC704780B483B000AF53
:100CEC0078600B467B8013467B707B78002B03D09F
:100CFC007A887B681A6103E07B881A047B681A6126
:100D0C0000BF0C37BD4680BC7047000080B586B074
:100D1C0000AF78607B68002B01D1012372E27B6805
:100D2C001B6803F00103002B00F08780924B5B687B
:100D3C0003F00C03042B0CD08F4B5B6803F00C03FB
:100D4C00082B12D18C4B5B6803F48033B3F5803FD6
:100D5C000BD1894B1B6803F40033002B6CD07B68E0
:100D6C005B68002B68D101234CE27B685B68B3F5B0
:100D7C00803F06D1804B1B687F4A43F4803313605D
:100D8C002EE07B685B68002B0CD17B4B1B687A4A8E
:100D9C0023F480331360784B1B68774A23F4802349
:100DAC0013601DE07B685B68B3F5A02F0CD1724B10
:100DBC001B68714A43F4802313606F4B1B686E4AA7
:100DCC0043F4803313600BE06B4B1B686A4A23F4CB
:100DDC0080331360684B1B68674A23F480231360CD
:100DEC007B685B68002B13D0FFF70AFA386108E0C8
:100DFC00FFF706FA02463B69D31A642B01D9032389
:100E0C0000E25D4B1B6803F40033002BF0D014E0C0
:100E1C00FFF7F6F9386108E0FFF7F2F902463B6993
:100E2C00D31A642B01D90323ECE1534B1B6803F455
:100E3C000033002BF0D100E000BF7B681B6803F08F
:100E4C000203002B63D04C4B5B6803F00C03002BAC
:100E5C000BD0494B5B6803F00C03082B1CD1464BA1
:100E6C005B6803F48033002B16D1434B1B6803F0F3
:100E7C000203002B05D07B681B69012B01D00123D9
:100E8C00C0E13D4B1B6823F0F8027B685B69DB001B
:100E9C00394913430B603AE07B681B69002B20D067
:100EAC00364B01221A60FFF7ABF9386108E0FFF707
:100EBC00A7F902463B69D31A022B01D90323A1E1FE
:100ECC002D4B1B6803F00203002BF0D02A4B1B6840
:100EDC0023F0F8027B685B69DB00274913430B6046
:100EEC0015E0264B00221A60FFF78AF9386108E0FA
:100EFC00FFF786F902463B69D31A022B01D903236B
:100F0C0080E11D4B1B6803F00203002BF0D17B68C2
:100F1C001B6803F00803002B3AD07B689B69002BFD
:100F2C0019D0174B01221A60FFF76AF9386108E0F3
:100F3C00FFF766F902463B69D31A022B01D903234A
:100F4C0060E10D4B5B6A03F00203002BF0D0012033
:100F5C0000F0A6FA1CE00A4B00221A60FFF750F9C9
:100F6C0038610FE0FFF74CF902463B69D31A022BAC
:100F7C0008D9032346E100BF0010024000004242A2
:100F8C0080044242924B5B6A03F00203002BE9D1CE
:100F9C007B681B6803F00403002B00F0A680002381
:100FAC00FB758B4BDB6903F08053002B0DD1884B09
:100FBC00DB69874A43F08053D361854BDB6903F0CF
:100FCC008053BB60BB680123FB75824B1B6803F429
:100FDC008073002B18D17F4B1B687E4A43F48073BF
:100FEC001360FFF70DF9386108E0FFF709F90246C5
:100FFC003B69D31A642B01D9032303E1754B1B689E
:10100C0003F48073002BF0D07B68DB68012B06D1D6
:10101C006F4B1B6A6E4A43F0010313622DE07B6831
:10102C00DB68002B0CD16A4B1B6A694A23F0010365
:10103C001362674B1B6A664A23F0040313621CE0BD
:10104C007B68DB68052B0CD1614B1B6A604A43F053
:10105C00040313625E4B1B6A5D4A43F00103136287
:10106C000BE05B4B1B6A5A4A23F001031362584B8B
:10107C001B6A574A23F0040313627B68DB68002B5E
:10108C0015D0FFF7BDF838610AE0FFF7B9F8024652
:10109C003B69D31A41F28832934201D90323B1E060
:1010AC004B4B1B6A03F00203002BEED014E0FFF74E
:1010BC00A7F838610AE0FFF7A3F802463B69D31A98
:1010CC0041F28832934201D903239BE0404B1B6AC7
:1010DC0003F00203002BEED1FB7D012B05D13C4B21
:1010EC00DB693B4A23F08053D3617B68DB69002BBF
:1010FC0000F08780364B5B6803F00C03082B61D043
:10110C007B68DB69022B46D1334B00221A60FFF758
:10111C0077F8386108E0FFF773F802463B69D31A99
:10112C00022B01D903236DE0294B1B6803F00073DC
:10113C00002BF0D17B681B6AB3F5803F08D1244BA0
:10114C005B6823F400327B689B68214913434B6036
:10115C001F4B5B6823F474127B68196A7B685B6AAB
:10116C000B431B4913434B601B4B01221A60FFF7C7
:10117C0047F8386108E0FFF743F802463B69D31A99
:10118C00022B01D903233DE0114B1B6803F00073C4
:10119C00002BF0D035E0104B00221A60FFF730F82E
:1011AC00386108E0FFF72CF802463B69D31A022B92
:1011BC0001D9032326E0064B1B6803F00073002BB8
:1011CC00F0D11EE07B68DB69012B07D1012319E00C
:1011DC000010024000700040600042420B4B5B6804
:1011EC00FB60FB6803F480327B681B6A9A4206D171
:1011FC00FB6803F470127B685B6A9A4201D001238E
:10120C0000E0002318461837BD4680BD0010024090
:10121C0080B584B000AF786039607B68002B01D159
:10122C000123D0E06A4B1B6803F007033A689A422B
:10123C0010D9674B1B6823F0070265493B681343C1
:10124C000B60634B1B6803F007033A689A4201D0AA
:10125C000123B8E07B681B6803F00203002B20D04D
:10126C007B681B6803F00403002B05D0594B5B68AB
:10127C00584A43F4E06353607B681B6803F008032F
:10128C00002B05D0534B5B68524A43F460535360B8
:10129C00504B5B6823F0F0027B689B684D4913430D
:1012AC004B607B681B6803F00103002B40D07B680C
:1012BC005B68012B07D1474B1B6803F40033002BF1
:1012CC0015D101237FE07B685B68022B07D1414B72
:1012DC001B6803F00073002B09D1012373E03D4B15
:1012EC001B6803F00203002B01D101236BE0394B87
:1012FC005B6823F003027B685B68364913434B60E1
:10130C00FEF77EFFF8600AE0FEF77AFF0246FB6804
:10131C00D31A41F28832934201D9032353E02D4B67
:10132C005B6803F00C027B685B689B009A42EBD114
:10133C00274B1B6803F007033A689A4210D2244BE0
:10134C001B6823F0070222493B6813430B60204BB8
:10135C001B6803F007033A689A4201D0012332E07C
:10136C007B681B6803F00403002B08D0194B5B68E7
:10137C0023F4E0627B68DB68164913434B607B689F
:10138C001B6803F00803002B09D0124B5B6823F495
:10139C0060527B681B69DB000E4913434B6000F005
:1013AC0021F802460B4B5B681B0903F00F030A493B
:1013BC00CB5C22FA03F3094A1360094B1B681846ED
:1013CC00FEF7DCFE002318461037BD4680BD00BF7B
:1013DC000020024000100240AC3E00080800002033
:1013EC000000002090B48AB000AF294B3C1D0FCBFD
:1013FC0084E80F0040F201233B800023FB610023B3
:10140C00BB6100237B6200237B6100233B62214B89
:10141C005B68FB61FB6903F00C03042B02D0082B07
:10142C0003D02BE01C4B3B622BE0FB699B0C03F0C5
:10143C000F0328333B4413F8243C7B61FB6903F412
:10144C008033002B12D0134B5B685B0C03F0010351
:10145C0028333B4413F8283CBB617B690E4A03FBE1
:10146C0002F2BB69B2FBF3F37B6204E07B690B4ACB
:10147C0002FB03F37B627B6A3B6202E0064B3B623E
:10148C0000BF3B6A18462837BD4690BC704700BF6A
:10149C00543E00080010024000127A0000093D0082
:1014AC0080B485B000AF78600A4B1B680A4AA2FB77
:1014BC0003235B0A7A6802FB03F3FB6000BFFB6843
:1014CC005A1EFA60002BF9D100BF00BF1437BD467D
:1014DC0080BC704708000020D34D621080B582B0EC
:1014EC0000AF78607B68002B01D1012376E07B682C
:1014FC005B6A002B08D17B685B68B3F5827F09D0EF
:10150C007B680022DA6105E07B6800221A617B6847
:10151C0000225A617B6800229A627B6893F85130F2
:10152C00DBB2002B06D17B68002283F85020786850
:10153C0002F04CFB7B68022283F851207B681B680D
:10154C001A687B681B6822F040021A607B685B6833
:10155C0003F482727B689B6803F404431A437B6830
:10156C00DB6803F400631A437B681B6903F0020316
:10157C001A437B685B6903F001031A437B689B6920
:10158C0003F400731A437B68DB6903F038031A43D6
:10159C007B681B6A03F0800342EA03017B689B6A49
:1015AC0003F400527B681B680A431A607B689B69D2
:1015BC001A0C7B681B6802F004025A607B681B687B
:1015CC00DA697B681B6822F40062DA617B680022AE
:1015DC005A657B68012283F851200023184608378E
:1015EC00BD4680BD80B588B002AFF860B9603B6085
:1015FC001346FB800023FB75FB685B68B3F5827FA9
:10160C0012D1FB689B68002B0ED1FB68042283F877
:10161C005120FA883B6800931346BA68B968F86899
:10162C0000F0F1F80346EAE0FB6893F85030012B28
:10163C0001D10223E3E0FB68012283F85020FEF77E
:10164C00DFFD3861FB6893F85130DBB2012B02D01F
:10165C000223FB75CAE0BB68002B02D0FB88002B71
:10166C0002D10123FB75C1E0FB68042283F85120F1
:10167C00FB6800225A65FB68BA689A63FB68FA88B3
:10168C009A87FB68FA88DA87FB6800221A63FB6882
:10169C0000229A86FB680022DA86FB6800221A6414
:1016AC00FB6800225A64FB689B68B3F5004F0FD1AE
:1016BC00FB681B681A68FB681B6822F040021A6002
:1016CC00FB681B681A68FB681B6822F480421A606E
:1016DC00FB681B681B6803F04003402B07D0FB68BA
:1016EC001B681A68FB681B6842F040021A60FB68B2
:1016FC00DB68002B62D12EE0FB681B689B6803F053
:10170C000103012B15D1FB681B6803F10C02FB686C
:10171C009B6B1278D2B21A70FB689B6B5A1CFB68DD
:10172C009A63FB68DB8F9BB2013B9AB2FB68DA874A
:10173C0011E0FEF765FD02463B69D31A3A689A42FE
:10174C0003D83B68B3F1FF3F02D13B68002B02D1B9
:10175C000323FB754AE0FB68DB8F9BB2002BCBD1DC
:10176C0031E0FB681B689B6803F00103012B13D16C
:10177C00FB681B68DA68FB689B6B92B21A80FB688B
:10178C009B6B9A1CFB689A63FB68DB8F9BB2013BDB
:10179C009AB2FB68DA8711E0FEF732FD02463B692C
:1017AC00D31A3A689A4203D83B68B3F1FF3F02D18F
:1017BC003B68002B02D10323FB7517E0FB68DB8F22
:1017CC009BB2002BCDD13A693968F86801F022FB45
:1017DC000346002B02D0FB6820225A65FB685B6D28
:1017EC00002B02D00123FB7500E000BFFB68012237
:1017FC0083F85120FB68002283F85020FB7D1846AB
:10180C001837BD4680BD80B58CB000AFF860B960AC
:10181C007A607B800123FB62002387F82B30FB6806
:10182C0093F85030012B01D102238AE1FB6801228D
:10183C0083F85020FEF7E4FC7862FB6893F8513093
:10184C0087F82330FB685B68FB617B887B8397F8A8
:10185C002330012B0FD0FB69B3F5827F07D1FB68D6
:10186C009B68002B03D197F82330042B03D0022361
:10187C0087F82B305BE1BB68002B05D07B68002B15
:10188C0002D07B88002B03D1012387F82B304EE14B
:10189C00FB6893F85130DBB2042B03D0FB680522B4
:1018AC0083F85120FB6800225A65FB687A689A63BA
:1018BC00FB687A88DA87FB687A889A87FB68BA684B
:1018CC001A63FB687A88DA86FB687A889A86FB68E2
:1018DC0000221A64FB6800225A64FB681B681B68B0
:1018EC0003F04003402B07D0FB681B681A68FB68A9
:1018FC001B6842F040021A60FB68DB68B3F5006FAE
:10190C0078D1FB685B68002B02D07B8B012B66D1F6
:10191C00FB681B6B1A88FB681B68DA60FB681B6B27
:10192C009A1CFB681A63FB68DB8E9BB2013B9AB274
:10193C00FB68DA8653E0FB681B689B6803F00203C4
:10194C00022B1BD1FB68DB8E9BB2002B16D0FB6AE3
:10195C00012B13D1FB681B6B1A88FB681B68DA60C0
:10196C00FB681B6B9A1CFB681A63FB68DB8E9BB2D3
:10197C00013B9AB2FB68DA860023FB62FB681B68AA
:10198C009B6803F00103012B19D1FB68DB8F9BB221
:10199C00002B14D0FB681B68DA68FB689B6B92B257
:1019AC001A80FB689B6B9A1CFB689A63FB68DB8F45
:1019BC009BB2013B9AB2FB68DA870123FB62FEF70C
:1019CC001FFC02467B6AD31ABA6B9A4207D8BB6BD0
:1019DC00B3F1FF3F03D0032387F82B30A7E0FB685C
:1019EC00DB8E9BB2002BA6D1FB68DB8F9BB2002B4E
:1019FC00A1D17CE0FB685B68002B02D07B8B012BB8
:101A0C006BD1FB681A6BFB681B680C3312781A706D
:101A1C00FB681B6B5A1CFB681A63FB68DB8E9BB262
:101A2C00013B9AB2FB68DA8657E0FB681B689B683F
:101A3C0003F00203022B1CD1FB68DB8E9BB2002B44
:101A4C0017D0FB6A012B14D1FB681A6BFB681B685F
:101A5C000C3312781A70FB681B6B5A1CFB681A63E8
:101A6C00FB68DB8E9BB2013B9AB2FB68DA860023E3
:101A7C00FB62FB681B689B6803F00103012B19D107
:101A8C00FB68DB8F9BB2002B14D0FB681B68DA68F9
:101A9C00FB689B6BD2B21A70FB689B6B5A1CFB6881
:101AAC009A63FB68DB8F9BB2013B9AB2FB68DA87C7
:101ABC000123FB62FEF7A4FB02467B6AD31ABA6BC6
:101ACC009A4203D8BB6BB3F1FF3F02D1BB6B002B27
:101ADC0003D1032387F82B3029E0FB68DB8E9BB204
:101AEC00002BA2D1FB68DB8F9BB2002B9DD17A6AB5
:101AFC00B96BF86801F0E0F90346002B06D001231E
:101B0C0087F82B30FB6820225A6510E0FB689B6835
:101B1C00002B0BD100237B61FB681B68DB687B61AE
:101B2C00FB681B689B687B617B6900E000BFFB68FE
:101B3C00012283F85120FB68002283F8502097F88B
:101B4C002B3018463037BD4680BD000080B586B0BE
:101B5C0000AFF860B9601346FB800023FB75FB688F
:101B6C009B68002B10D1FB685B68B3F5827F0BD1AF
:101B7C00FB68042283F85120FB88BA68B968F868BE
:101B8C0000F082F8034676E0FB6893F85030012BA6
:101B9C0001D102236FE0FB68012283F85020FB681F
:101BAC0093F85130DBB2012B02D00223FB755DE0C0
:101BBC00BB68002B02D0FB88002B02D10123FB75E4
:101BCC0054E0FB68042283F85120FB6800225A651C
:101BDC00FB68BA689A63FB68FA889A87FB68FA888C
:101BEC00DA87FB6800221A63FB6800229A86FB687E
:101BFC000022DA86FB6800225A64FB68DB68002B43
:101C0C0003D0FB681E4A1A6402E0FB681D4A1A6482
:101C1C00FB689B68B3F5004F0FD1FB681B681A6813
:101C2C00FB681B6822F040021A60FB681B681A688C
:101C3C00FB681B6822F480421A60FB681B685A68B8
:101C4C00FB681B6842F060025A60FB681B681B68EB
:101C5C0003F04003402B08D0FB681B681A68FB6834
:101C6C001B6842F040021A6000E000BFFB680022D3
:101C7C0083F85020FB7D18461837BD4680BD00BF49
:101C8C00CB2C0008812C000880B487B000AFF86022
:101C9C00B9607A607B800023FB75FB6893F8503049
:101CAC00012B01D1022375E0FB68012283F850203F
:101CBC00FB6893F85130BB75FB685B683B61BB7D7F
:101CCC00012B0DD03B69B3F5827F06D1FB689B6875
:101CDC00002B02D1BB7D042B02D00223FB7554E0F8
:101CEC00BB68002B05D07B68002B02D07B88002BB7
:101CFC0002D10123FB7548E0FB6893F85130DBB24D
:101D0C00042B03D0FB68052283F85120FB680022CA
:101D1C005A65FB68BA681A63FB687A889A86FB680E
:101D2C007A88DA86FB687A689A63FB687A889A877D
:101D3C00FB687A88DA87FB68DB68002B06D0FB68C7
:101D4C00174A1A64FB68174A5A6405E0FB68164A7E
:101D5C001A64FB68154A5A64FB681B685A68FB686E
:101D6C001B6842F0E0025A60FB681B681B6803F0BA
:101D7C004003402B08D0FB681B681A68FB681B6883
:101D8C0042F040021A6000E000BFFB68002283F8BA
:101D9C005020FB7D18461C37BD4680BC704700BFE9
:101DAC00C32B0008232C0008FF2A0008632B000813
:101DBC0080B586B000AFF860B9601346FB80002395
:101DCC00FB75FB689B68002B10D1FB685B68B3F557
:101DDC00827F0BD1FB68042283F85120FB88BA6800
:101DEC00B968F86800F0ACF803469FE0FB6893F81C
:101DFC005030012B01D1022398E0FB68012283F8BB
:101E0C005020FB6893F85130DBB2012B02D0022337
:101E1C00FB7586E0BB68002B02D0FB88002B02D13F
:101E2C000123FB757DE0FB68042283F85120FB68DD
:101E3C0000225A65FB68BA689A63FB68FA889A872D
:101E4C00FB68FA88DA87FB6800221A64FB680022B8
:101E5C005A64FB6800229A86FB680022DA86FB68CB
:101E6C009B68B3F5004F0FD1FB681B681A68FB68C1
:101E7C001B6822F040021A60FB681B681A68FB683A
:101E8C001B6822F480421A60FB68DB6C294ADA6218
:101E9C00FB68DB6C284A9A62FB68DB6C274A1A6386
:101EAC00FB68DB6C00225A63FB68D86CFB681B6810
:101EBC000C331946FB689B6B1A46FB68DB8F9BB295
:101ECC00FEF734FB0346002B0CD0FB685B6D43F034
:101EDC001002FB685A650123FB75FB68012283F82D
:101EEC0051201EE0FB681B681B6803F04003402B6D
:101EFC0007D0FB681B681A68FB681B6842F040023D
:101F0C001A60FB681B685A68FB681B6842F0200269
:101F1C005A60FB681B685A68FB681B6842F0010238
:101F2C005A60FB68002283F85020FB7D1846183756
:101F3C00BD4680BDE9280008B52700082129000806
:101F4C0080B586B000AFF860B9607A607B80002302
:101F5C00FB75FB6893F85030012B01D10223E3E0B1
:101F6C00FB68012283F85020FB6893F85130BB7555
:101F7C00FB685B683B61BB7D012B0DD03B69B3F506
:101F8C00827F06D1FB689B68002B02D1BB7D042BA2
:101F9C0002D00223FB75C2E0BB68002B05D07B6826
:101FAC00002B02D07B88002B02D10123FB75B6E0FD
:101FBC00FB6893F85130DBB2042B03D0FB6805228D
:101FCC0083F85120FB6800225A65FB68BA681A63D3
:101FDC00FB687A889A86FB687A88DA86FB687A6866
:101FEC009A63FB687A889A87FB687A88DA87FB6839
:101FFC0000221A64FB6800225A64FB6893F8513083
:10200C00DBB2042B08D1FB68DB6C494ADA62FB6853
:10201C00DB6C484A9A6207E0FB68DB6C464ADA6282
:10202C00FB68DB6C454A9A62FB68DB6C444A1A63BA
:10203C00FB68DB6C00225A63FB68D86CFB681B687E
:10204C000C331946FB689B6B1A46FB68DB8F9BB203
:10205C00FEF76CFA0346002B0CD0FB685B6D43F06B
:10206C001002FB685A650123FB75FB68012283F89B
:10207C00512054E0FB681B685A68FB681B6842F0EF
:10208C0001025A60FB689B6C0022DA62FB689B6C55
:10209C0000229A62FB689B6C00221A63FB689B6CA3
:1020AC0000225A63FB68986CFB681B6B1946FB6833
:1020BC001B680C331A46FB68DB8E9BB2FEF736FAB4
:1020CC000346002B0CD0FB685B6D43F01002FB68E1
:1020DC005A650123FB75FB68012283F851201EE031
:1020EC00FB681B681B6803F04003402B07D0FB68A0
:1020FC001B681A68FB681B6842F040021A60FB6898
:10210C001B685A68FB681B6842F020025A60FB6827
:10211C001B685A68FB681B6842F002025A60FB6835
:10212C00002283F85020FB7D18461837BD4680BD31
:10213C00E9280008B5270008052900085B280008D5
:10214C002129000880B586B000AF78600023FB75AC
:10215C006A4B1B686A4AA2FB03235B0A642202FBDC
:10216C0003F3FB60FB683B617B681B685A687B6808
:10217C001B6822F020025A607B681B685B6803F0C6
:10218C008003002B17D07B685E4A5A643B69002B96
:10219C0006D17B685B6D43F040027B685A6508E0B2
:1021AC003B69013B3B617B6893F85130DBB2072BF9
:1021BC00ECD1FB683B617B681B685B6803F04003F8
:1021CC00002B17D07B68504A1A643B69002B06D150
:1021DC007B685B6D43F040027B685A6508E03B69A5
:1021EC00013B3B617B6893F85130DBB2072BECD1A0
:1021FC00FB683B617B681B685B6803F00203002B88
:10220C002ED07B689B6C002B2AD07B689B6C0022A9
:10221C005A637B689B6C1846FEF7E7F90346002B64
:10222C0002D07B6840225A657B681B685A687B68C1
:10223C001B6822F002025A603B69002B06D17B68B6
:10224C005B6D43F040027B685A6509E03B69013BDA
:10225C003B617B681B689B6803F00203002BEBD08F
:10226C007B681B685B6803F00103002B22D07B6842
:10227C00DB6C002B1ED07B68DB6C00225A637B6806
:10228C00DB6C1846FEF7B1F90346002B02D07B68D5
:10229C0040225A657B681B681A687B681B6822F0B1
:1022AC0040021A607B681B685A687B681B6822F0C6
:1022BC0001025A607B680022DA877B680022DA868A
:1022CC007B685B6D402B02D10123FB7502E07B68C0
:1022DC0000225A650023BB607B681B68DB68BB600F
:1022EC007B681B689B68BB60BB687B68012283F8BA
:1022FC005120FB7D18461837BD4680BD08000020D4
:10230C00F1197605F53000086930000880B588B001
:10231C0000AF78600023FB770123BB616E4B1B6819
:10232C006E4AA2FB03235B0A642202FB03F33B61AC
:10233C003B697B617B681B685A687B681B6822F071
:10234C0020025A607B681B685B6803F08003002BDB
:10235C0017D07B68624A5A647B69002B06D17B6874
:10236C005B6D43F040027B685A6508E07B69013B7A
:10237C007B617B6893F85130DBB2072BECD13B6966
:10238C007B617B681B685B6803F04003002B17D0F4
:10239C007B68544A1A647B69002B06D17B685B6DA1
:1023AC0043F040027B685A6508E07B69013B7B6126
:1023BC007B6893F85130DBB2072BECD13B697B6126
:1023CC007B689B6C002B0FD07B681B685B6803F0F1
:1023DC000203002B04D07B689B6C434A5A6303E0D6
:1023EC007B689B6C00225A637B68DB6C002B0FD0E4
:1023FC007B681B685B6803F00103002B04D07B68CF
:10240C00DB6C3A4A5A6303E07B68DB6C00225A634C
:10241C007B681B685B6803F00203002B15D07B689C
:10242C009B6C002B11D07B689B6C1846FEF718F93F
:10243C000346002B07D07B689B6C00225A637B6899
:10244C0040225A6501E00023BB617B681B685B6816
:10245C0003F00103002B15D07B68DB6C002B11D033
:10246C007B68DB6C1846FEF7FBF80346002B07D0A5
:10247C007B68DB6C00225A637B6840225A6501E062
:10248C000023BB61BB69012B21D17B680022DA8759
:10249C007B680022DA867B685B6D402B02D10123BE
:1024AC00FB7702E07B6800225A650023FB607B68A7
:1024BC001B68DB68FB607B681B689B68FB60FB68C8
:1024CC007B68012283F85120786800F064F9FB7F67
:1024DC0018462037BD4680BD08000020F11976054E
:1024EC00F530000869300008892900084D2A0008D9
:1024FC0080B584B000AF78600023FB737B689B6C65
:10250C00002B0FD07B689B6C1846FEF76EF80346C9
:10251C00002B07D07B685B6D43F010027B685A651B
:10252C000123FB737B68DB6C002B0FD07B68DB6CAF
:10253C001846FEF75AF80346002B07D07B685B6DF4
:10254C0043F010027B685A650123FB737B681B68A0
:10255C005A687B681B6822F003025A607B68012270
:10256C0083F85120FB7B18461037BD4680BD000018
:10257C0080B588B000AF78607B681B685B68FB61D6
:10258C007B681B689B68BB61BB699B0903F00103FB
:10259C00002B0FD1BB6903F00103002B0AD0FB69A0
:1025AC009B0903F00103002B04D07B681B6C78683B
:1025BC009847BEE0BB695B0803F00103002B0AD00F
:1025CC00FB69DB0903F00103002B04D07B685B6C17
:1025DC0078689847ADE0BB695B0903F00103002BF9
:1025EC0006D1BB699B0903F00103002B00F0A1800D
:1025FC00FB695B0903F00103002B00F09A80BB69B7
:10260C009B0903F00103002B23D07B6893F8513016
:10261C00DBB2032B11D07B685B6D43F004027B684B
:10262C005A6500237B617B681B68DB687B617B6878
:10263C001B689B687B617B690BE000233B617B68BB
:10264C001B68DB683B617B681B689B683B613B6973
:10265C006FE0BB695B0903F00103002B14D07B68AE
:10266C005B6D43F001027B685A650023FB607B685D
:10267C001B689B68FB607B681B681A687B681B681F
:10268C0022F040021A60FB687B685B6D002B4FD018
:10269C007B681B685A687B681B6822F0E0025A60F2
:1026AC007B68012283F85120FB6903F00203002BA5
:1026BC0004D1FB6903F00103002B34D07B681B6849
:1026CC005A687B681B6822F003025A607B68DB6CDB
:1026DC00002B11D07B68DB6C174A5A637B68DB6C70
:1026EC001846FDF7BDFF0346002B05D07B685B6DDC
:1026FC0043F040027B685A657B689B6C002B16D0BC
:10270C007B689B6C0C4A5A637B689B6C1846FDF784
:10271C00A7FF0346002B0AD07B685B6D43F0400299
:10272C007B685A6503E0786800F02CF800E000BF85
:10273C0000BF2037BD4680BD6129000880B483B03E
:10274C0000AF786000BF0C37BD4680BC704780B4CA
:10275C0083B000AF786000BF0C37BD4680BC7047BB
:10276C0080B483B000AF786000BF0C37BD4680BC2E
:10277C00704780B483B000AF786000BF0C37BD46A3
:10278C0080BC704780B483B000AF786000BF0C375A
:10279C00BD4680BC704780B483B000AF786000BF8A
:1027AC000C37BD4680BC704780B584B000AF7860F4
:1027BC007B685B6AFB60FDF723FDB8607B681B6878
:1027CC001B6803F02003202B3BD0FB681B685A6866
:1027DC00FB681B6822F020025A60FB689B68002B88
:1027EC000DD1FB685B68B3F5827F08D1FB681B6871
:1027FC005A68FB681B6822F003025A6007E0FB680A
:10280C001B685A68FB681B6822F001025A60BA68A0
:10281C006421F86800F0FEFA0346002B02D0FB6836
:10282C0020225A65FB680022DA87FB68012283F8B4
:10283C005120FB685B6D002B03D0F868FFF7A2FFFB
:10284C0002E0F868FFF77AFF1037BD4680BD80B50F
:10285C0084B000AF78607B685B6AFB60FDF7D0FCEE
:10286C00B8607B681B681B6803F02003202B2FD0FB
:10287C00FB681B685A68FB681B6822F020025A60D0
:10288C00BA686421F86800F017FB0346002B05D0EA
:10289C00FB685B6D43F02002FB685A65FB681B68A4
:1028AC005A68FB681B6822F003025A60FB6800221E
:1028BC00DA86FB680022DA87FB68012283F8512054
:1028CC00FB685B6D002B03D0F868FFF75BFF02E041
:1028DC00F868FFF73CFF1037BD4680BD80B584B06B
:1028EC0000AF78607B685B6AFB60F868FFF738FFC5
:1028FC0000BF1037BD4680BD80B584B000AF786096
:10290C007B685B6AFB60F868FFF733FF00BF10372A
:10291C00BD4680BD80B584B000AF78607B685B6AD3
:10292C00FB60FB681B685A68FB681B6822F003029B
:10293C005A60FB685B6D43F01002FB685A65FB68DC
:10294C00012283F85120F868FFF71CFF00BF1037F5
:10295C00BD4680BD80B584B000AF78607B685B6A93
:10296C00FB60FB680022DA87FB680022DA86F868D5
:10297C00FFF708FF00BF1037BD4680BD80B586B09D
:10298C0000AF78607B685B6A7B617B699B6C002223
:10299C005A63294B1B68294AA2FB03235B0A642256
:1029AC0002FB03F33B617B691B685A687B691B68FC
:1029BC0022F002025A603B69002B06D17B695B6DE9
:1029CC0043F040027B695A6509E03B69013B3B617E
:1029DC007B691B689B6803F00203002BEBD07B69BF
:1029EC00DB6C002B04D07B69DB6C5B6B002B1FD189
:1029FC007B690022DA877B690022DA867B695B6D52
:102A0C00402B02D07B6900225A650023FB607B6956
:102A1C001B68DB68FB607B691B689B68FB60FB6861
:102A2C007B69012283F851207869FFF7B4FE00E03E
:102A3C0000BF1837BD4680BD08000020F11976058F
:102A4C0080B584B000AF78607B685B6AFB60FB6824
:102A5C001B681A68FB681B6822F040021A60FB684E
:102A6C00DB6C00225A63FB681B685A68FB681B68A6
:102A7C0022F001025A60FDF7C3FB03461A4664219B
:102A8C00F86800F019FA0346002B05D0FB685B6D63
:102A9C0043F04002FB685A65FB689B6C002B04D02A
:102AAC00FB689B6C5B6B002B1FD1FB680022DA87E9
:102ABC00FB680022DA86FB685B6D402B02D0FB685A
:102ACC0000225A650023BB60FB681B68DB68BB6097
:102ADC00FB681B689B68BB60BB68FB68012283F8C2
:102AEC005120F868FFF757FE00E000BF1037BD46D5
:102AFC0080BD80B582B000AF78607B681B6803F145
:102B0C000C027B689B6B1278D2B21A707B689B6B41
:102B1C005A1C7B689A637B68DB8F9BB2013B9AB231
:102B2C007B68DA877B68DB8F9BB2002B0FD17B68CD
:102B3C001B685A687B681B6822F060025A607B68CD
:102B4C00DB8E9BB2002B02D1786800F0D3F900BF6A
:102B5C000837BD4680BD80B582B000AF78607B6819
:102B6C001A6B7B681B680C3312781A707B681B6BB2
:102B7C005A1C7B681A637B68DB8E9BB2013B9AB252
:102B8C007B68DA867B68DB8E9BB2002B0FD17B686F
:102B9C001B685A687B681B6822F080025A607B684D
:102BAC00DB8F9BB2002B02D1786800F0A3F900BF39
:102BBC000837BD4680BD80B582B000AF78607B68B9
:102BCC001B68DA687B689B6B92B21A807B689B6B84
:102BDC009A1C7B689A637B68DB8F9BB2013B9AB231
:102BEC007B68DA877B68DB8F9BB2002B0FD17B680D
:102BFC001B685A687B681B6822F040025A607B682D
:102C0C00DB8E9BB2002B02D1786800F073F900BF09
:102C1C000837BD4680BD80B582B000AF78607B6858
:102C2C001B6B1A887B681B68DA607B681B6B9A1CB1
:102C3C007B681A637B68DB8E9BB2013B9AB27B6824
:102C4C00DA867B68DB8E9BB2002B0FD17B681B680E
:102C5C005A687B681B6822F080025A607B68DB8FA5
:102C6C009BB2002B02D1786800F044F900BF083702
:102C7C00BD4680BD80B582B000AF78607B681B68B4
:102C8C0003F10C027B689B6B1278D2B21A707B68D2
:102C9C009B6B5A1C7B689A637B68DB8F9BB2013BF6
:102CAC009AB27B68DA877B68DB8F9BB2002B02D1F0
:102CBC00786800F093F900BF0837BD4680BD80B539
:102CCC0082B000AF78607B681B68DA687B689B6BAE
:102CDC0092B21A807B689B6B9A1C7B689A637B68A8
:102CEC00DB8F9BB2013B9AB27B68DA877B68DB8F08
:102CFC009BB2002B02D1786800F070F900BF083746
:102D0C00BD4680BD80B588B000AFF860B9603B604F
:102D1C001346FB71FDF774FA0246BB6A9B1A3A68BC
:102D2C001344FB61FDF76CFAB861394B1B685B010E
:102D3C001B0DFA6902FB03F37B6154E03B68B3F1B2
:102D4C00FF3F50D0FDF75CFA0246BB69D31AFA6913
:102D5C009A4202D9FB69002B3DD1FB681B685A686B
:102D6C00FB681B6822F0E0025A60FB685B68B3F5F5
:102D7C00827F11D1FB689B68B3F5004F04D0FB68D0
:102D8C009B68B3F5806F07D1FB681B681A68FB68FA
:102D9C001B6822F040021A60FB689B6AB3F5005F67
:102DAC000FD1FB681B681A68FB681B6822F4005281
:102DBC001A60FB681B681A68FB681B6842F40052B7
:102DCC001A60FB68012283F85120FB68002283F80B
:102DDC005020032317E07B69002B01D10023FB61FA
:102DEC007B69013B7B61FB681B689A68BB6813407D
:102DFC00BA689A420CBF01230023DBB21A46FB7956
:102E0C009A429BD1002318462037BD4680BD00BF97
:102E1C000800002080B586B002AFF860B9607A6017
:102E2C00FB685B68B3F5827F11D1FB689B68B3F5D7
:102E3C00004F04D0FB689B68B3F5806F07D1FB682B
:102E4C001B681A68FB681B6822F040021A60FB685A
:102E5C005B68B3F5827F17D1FB689B68B3F5806F15
:102E6C0012D17B680093BB6800220121F868FFF740
:102E7C0049FF0346002B1AD0FB685B6D43F0200220
:102E8C00FB685A65032313E07B680093BB68002240
:102E9C008021F868FFF736FF0346002B07D0FB684C
:102EAC005B6D43F02002FB685A65032300E00023AE
:102EBC0018461037BD4680BD80B586B002AFF860AD
:102ECC00B9607A607B680093BB6800228021F86847
:102EDC00FFF718FF0346002B07D0FB685B6D43F030
:102EEC002002FB685A65032300E0002318461037C4
:102EFC00BD4680BD80B586B000AF7860354B1B6891
:102F0C00354AA2FB03235B0A642202FB03F33B61F9
:102F1C00FDF776F978617B681B685A687B681B68DB
:102F2C0022F020025A603B69002B06D17B685B6D56
:102F3C0043F020027B685A6509E03B69013B3B6129
:102F4C007B681B689B6803F00203002BEBD07A694B
:102F5C0064217868FFF7B0FF0346002B05D07B682F
:102F6C005B6D43F020027B685A657B689B68002B85
:102F7C000AD10023FB607B681B68DB68FB607B6805
:102F8C001B689B68FB60FB687B685B6D002B15D135
:102F9C007B6893F85130DBB2042B07D17B6801229C
:102FAC0083F851207868FFF7C9FB0EE07B6801229B
:102FBC0083F851207868FFF7CAFB06E07B68012292
:102FCC0083F851207868FFF7DDFB00BF1837BD464A
:102FDC0080BD00BF08000020F119760580B584B0D3
:102FEC0000AF78607B681B685A687B681B6822F0AE
:102FFC0060025A60FDF704F903461A4664217868AA
:10300C00FFF708FF0346002B05D07B685B6D43F090
:10301C0020027B685A657B689B68002B0AD10023D1
:10302C00FB607B681B68DB68FB607B681B689B68CC
:10303C00FB60FB687B68012283F851207B685B6D29
:10304C00002B03D17868FFF779FB02E07868FFF773
:10305C0099FB00BF1037BD4680BD000080B485B021
:10306C0000AF78600023FB601D4B1B681D4AA2FB60
:10307C0003235B0A642202FB03F3BB60BB68002BD7
:10308C0006D17B685B6D43F040027B685A6509E0B2
:10309C00BB68013BBB607B681B689B6803F0020349
:1030AC00002BEBD07B681B681A687B681B6822F0CE
:1030BC0040021A607B681B685A687B681B6822F0A8
:1030CC00E0025A607B681B68DB68FB60FB687B680E
:1030DC00072283F8512000BF1437BD4680BC7047CF
:1030EC0008000020F119760580B483B000AF786039
:1030FC007B681B685A687B681B6822F080025A60E8
:10310C007B681B681A687B681B6822F040021A6097
:10311C007B68072283F8512000BF0C37BD4680BC6A
:10312C007047000080B58EB00AAFF86008461146B3
:10313C001A4603467B810B463B811346FB801D4B95
:10314C001B78002B19D039897A8900230893002326
:10315C0007930023069300230593BB8C04933B8CAD
:10316C000393BB8B02933B8B0193FB8800930B4621
:10317C00F968012000F020F818E039897A890023D9
:10318C000893002307930023069300230593BB8C1D
:10319C0004933B8C0393BB8B02933B8B0193FB8877
:1031AC0000930B46F968002000F006F800BF1037BA
:1031BC00BD4680BD0500002080B485B000AFB9606D
:1031CC0011461A460346FB730B46BB811346FB8024
:1031DC00194ABB891380194AFB881380184A3B8B08
:1031EC001380184ABB681360174ABB8B1380164AAE
:1031FC003B8C5380144ABB8C9380134A3B8DD380F9
:10320C00114ABB8D1381104A3B8E53810E4ABB8EE3
:10321C0093810D4A3B8FD381FB7B002B03D00B4B4F
:10322C0000221A7002E0094B10221A7000BF1437EA
:10323C00BD4680BC704700BF2E000020300000202F
:10324C003200002044000020340000204800002000
:10325C0080B586B000AF03460A46FB711346BB71BE
:10326C00BB79012B06D9774B1B7843F00803DAB2F4
:10327C00744B1A70744ABB791370FA79FB7940332A
:10328C004021002000F062F9704B1B78002B09D014
:10329C00BB79012B06D16B4B1B7843F00403DAB2DC
:1032AC00684B1A7000F0E4F803237B610123FB6088
:1032BC00674B1B78002B1BD0664B1A88664B1B8800
:1032CC0013439AB2654B1B8813439AB2644B1B8809
:1032DC0013439AB2624B5B8813439AB2604B9B8840
:1032EC0013439AB25E4BDB8813439BB2BB602AE05C
:1032FC00584B1A88584B1B8813439AB2574B1B8850
:10330C0013439AB2564B1B8813439AB2544B5B88A7
:10331C0013439AB2524B9B8813439AB2504BDB889F
:10332C0013439AB24E4B1B8913439AB24C4B5B8995
:10333C0013439AB24A4B9B8913439AB2484BDB898D
:10334C0013439BB2BB60474B1B6807F10802114645
:10335C001846FDF72FFB3220FCF75CFF414B1B6836
:10336C003C4A118800221846FDF7B7FC3D4B1B6800
:10337C003A4A118800221846FDF7AFFC364B1B88E1
:10338C00FF2B07D0374B1B68334A11880022184695
:10339C00FDF7A3FC2B4B1B7803F01003002B15D16E
:1033AC00032000F0F3F90520FCF734FF032000F0B4
:1033BC00EDF90520FCF72EFF032000F0E7F90120C2
:1033CC00FCF728FF022000F0E1F91DE01D4B1B78F3
:1033DC0043F02003DBB2184600F053F90520FCF74C
:1033EC0019FF184B1B7843F02003DBB2184600F092
:1033FC0048F90120FCF70EFF124B1B7843F0200319
:10340C00DBB2184600F03DF90E4B1B7843F020035D
:10341C00DBB2184600F035F9134B04221A7000F099
:10342C00EFF800F0B1F8114B02221A700F4B1B7819
:10343C0043F00403DBB2184600F023F900BF183741
:10344C00BD4680BD480000204B0000202C00002011
:10345C00050000202E00002030000020320000204B
:10346C003400002044000020490000204A000020C5
:10347C0080B487B000AF2F4B1B682F4A93420CD1FE
:10348C002E4B9B692D4A43F0040393612B4B9B6994
:10349C0003F004037B617B6946E0264B1B68284ADA
:1034AC0093420CD1254B9B69244A43F0080393614A
:1034BC00224B9B6903F008033B613B6934E01D4BD5
:1034CC001B681F4A93420CD11C4B9B691B4A43F04F
:1034DC0008039361194B9B6903F00803FB60FB68BD
:1034EC0022E0144B1B68174A93420CD1134B9B6977
:1034FC00124A43F010039361104B9B6903F01003C5
:10350C00BB60BB6810E00B4B1B680F4A93420BD19E
:10351C000A4B9B69094A43F020039361074B9B6953
:10352C0003F020037B607B6800BF1C37BD4680BC6A
:10353C00704700BF4400002000080140001002400A
:10354C00000C0140001001400014014080B485B013
:10355C0000AFF860B9607A603B60FB68DAB2094B87
:10356C001A70BB68DAB2074B5A707B68DAB2054B3B
:10357C009A703B68DAB2034BDA7000BF1437BD4661
:10358C0080BC70474C00002080B500AF012000F0DB
:10359C0078F80220FCF73EFE00BF80BD80B584B0F9
:1035AC0000AF03460A46FB711346BB710423FB6054
:1035BC00BB79FA689A4203D8FB68DBB2013BBB715A
:1035CC000D4B1B78BA799A4203D30B4B1B78013BFA
:1035DC00BB71BB79094AD25CFB791344DBB25BB299
:1035EC0063F07F035BB2DBB2184600F04AF800BF11
:1035FC001037BD4680BD00BF4B0000204C000020A2
:10360C0080B500AF084B1B7843F00403DAB2064BCD
:10361C001A70054B1B7843F00803DBB2184600F018
:10362C0030F800BF80BD00BF4900002080B586B0D7
:10363C0000AF78607B68002B01D100231DE07B6814
:10364C007B617868FCF77CFD38610023FB600CE043
:10365C007B695A1C7A611B78184600F020F80346E7
:10366C00002B08D0FB680133FB603B695A1E3A61A2
:10367C00002BEDD100E000BFFB6818461837BD46A3
:10368C0080BD80B582B000AF0346FB71FB79002191
:10369C00184600F013F800BF0837BD4680BD80B552
:1036AC0082B000AF0346FB71FB790121184600F094
:1036BC0005F8012318460837BD4680BD80B582B099
:1036CC0000AF03460A46FB711346BB71164B1B68D1
:1036DC00164A1188BA791846FDF7FFFA144B1B8865
:1036EC00FF2B07D0104B1B68114A1188002218467B
:1036FC00FDF7F3FA0F4B1B7803F01003002B04D0EB
:10370C00FB79184600F06CF809E0FB791B09DBB279
:10371C00184600F03BF8FB79184600F037F800BF6C
:10372C000837BD4680BD00BF440000202E0000209D
:10373C00300000204800002080B500AF114B1B6802
:10374C00114A118800221846FDF7C7FA0120FCF730
:10375C0061FD0C4B1B680C4A118801221846FDF7C1
:10376C00BCFA0120FCF756FD064B1B68064A118873
:10377C0000221846FDF7B1FA0120FCF74BFD00BF03
:10378C0080BD00BF440000203200002080B584B012
:10379C0000AF0346FB710023FB6013E00E4B18686F
:1037AC000E4AFB6832F81310FA79FB6842FA03F3FD
:1037BC00DBB203F00103DBB21A46FDF78EFAFB68AD
:1037CC000133FB60FB68032BE8DDFFF7B5FF00BF9F
:1037DC001037BD4680BD00BF4400002034000020DF
:1037EC0080B584B000AF0346FB710023FB6013E08F
:1037FC000E4B18680E4AFB6832F81310FA79FB6806
:10380C0042FA03F3DBB203F00103DBB21A46FDF715
:10381C0064FAFB680133FB60FB68072BE8DDFFF7FC
:10382C008BFF00BF1037BD4680BD00BF4400002099
:10383C003400002080B584B004AFFCF789FC00F0A4
:10384C00AFF800F03FF900F01FF900F0E9F84FF481
:10385C00004303934FF4804302934FF400530193BE
:10386C004FF4805300934FF400634FF480624FF495
:10387C0000714148FFF756FC02211020FFF7E8FCCD
:10388C0020213D48FDF712FA0346012B1BD141F2D2
:10389C008833142239493A48FDF7A4FE0021002050
:1038AC00FFF77CFE3748FFF7C1FE01210020FFF730
:1038BC0075FE3248FFF7BAFE4FF47A70FCF7AAFC9B
:1038CC00FFF762FEDCE740212B48FDF7EFF90346DA
:1038DC00012B12D101222C492948FEF737F900217E
:1038EC000020FFF75BFE2948FFF7A0FE4FF47A702B
:1038FC00FCF790FCFFF748FEC2E780211E48FDF75D
:10390C00D5F90346012B19D1142221491C48FEF785
:10391C004FFA00210020FFF741FE1E48FFF786FEFC
:10392C0001210020FFF73AFE1948FFF77FFE4FF404
:10393C007A70FCF76FFCFFF727FEA1E7002100204F
:10394C00FFF72CFE1448FFF771FE01210020FFF752
:10395C0025FE1248FFF76AFE0948FEF7F3FB0848FC
:10396C00FEF7D4FC0648FEF7C3FD4FF47A70FCF763
:10397C0051FCFFF709FE83E7000C0140F00000202A
:10398C0050000020643E0008EC000020783E000847
:10399C0004010020843E0008943E0008A03E00086C
:1039AC0080B590B000AF07F118032822002118460B
:1039BC0000F036FA3B1D00221A605A609A60DA60F9
:1039CC001A610223BB610123BB621023FB62022339
:1039DC007B630023BB634FF40023FB6307F11803E5
:1039EC001846FDF793F90346002B01D000F0B6F80A
:1039FC000F237B600223BB600023FB6000233B6131
:103A0C0000237B613B1D00211846FDF701FC03469A
:103A1C00002B01D000F0A2F800BF4037BD4680BD9E
:103A2C0080B500AF164B174A1A60154B00225A602E
:103A3C00134B00229A60124B0022DA60104B0022CA
:103A4C001A610F4B00225A610D4B00229A610C4BEC
:103A5C000022DA610A4B00221A62094B00225A62D8
:103A6C00074B00229A62064B0A22DA620448FDF7E1
:103A7C0035FD0346002B01D000F070F800BF80BD6F
:103A8C00500000200030014080B582B000AF0C4BDC
:103A9C005B690B4A43F001035361094B5B6903F00B
:103AAC0001037B607B68002200210C20FCF7ADFC3D
:103ABC000C20FCF7C6FC00BF0837BD4680BD00BF1C
:103ACC000010024080B586B000AF07F10803002259
:103ADC001A605A609A60DA601E4B9B691D4A43F06B
:103AEC00040393611B4B9B6903F004037B607B68AD
:103AFC00184B9B69174A43F008039361154B9B695C
:103B0C0003F008033B603B6800224FF60361124848
:103B1C00FDF7E3F84FF60363BB600123FB60002362
:103B2C003B6102237B6107F1080319460A48FCF745
:103B3C0041FFE023BB600023FB6000233B6107F1E6
:103B4C00080319460448FCF735FF00BF1837BD467B
:103B5C0080BD00BF00100240000C014080B400AFDB
:103B6C0000BFBD4680BC704780B485B000AF154B1C
:103B7C009B69144A43F001039361124B9B6903F058
:103B8C000103BB60BB680F4BDB690E4A43F08053EB
:103B9C00D3610C4BDB6903F080537B607B680A4B71
:103BAC005B68FB60FB6823F0E063FB60FB6843F041
:103BBC008063FB60044AFB68536000BF1437BD464A
:103BCC0080BC7047001002400000014080B588B0F6
:103BDC0000AF786007F1100300221A605A609A60F7
:103BEC00DA607B681B68324A93425DD1314B9B692A
:103BFC00304A43F4805393612E4B9B6903F48053FA
:103C0C00FB60FB682B4B9B692A4A43F004039361CE
:103C1C00284B9B6903F00403BB60BB68B0233B617A
:103C2C0000237B610023BB6107F110031946224876
:103C3C00FCF7C0FE40233B6102237B610323FB6145
:103C4C0007F1100319461C48FCF7B4FE1B4B1C4A29
:103C5C001A601A4B00225A60184B00229A60174BBC
:103C6C008022DA60154B00221A61144B00225A6133
:103C7C00124B00229A61114B0022DA610F48FCF7BB
:103C8C00FBFB0346002B01D0FFF768FF7B680B4A58
:103C9C00DA640A4A7B685362002200212320FCF775
:103CAC00B4FB2320FCF7CDFB00BF2037BD4680BD05
:103CBC00003001400010024000080140A800002024
:103CCC001C00024080B400AF00BFBD4680BC7047F2
:103CDC0080B400AFFEE780B400AFFEE780B400AF65
:103CEC00FEE780B400AFFEE780B400AF00BFBD4676
:103CFC0080BC704780B400AF00BFBD4680BC70472D
:103D0C0080B400AF00BFBD4680BC704780B500AF2B
:103D1C00FCF764FA00BF80BD80B500AF8021084875
:103D2C00FCF7C4FF0346012B04D1012202210448F5
:103D3C00FCF7D3FF0348FCF709FD00BF80BD00BFB3
:103D4C00000C0140A800002080B500AF40210948BC
:103D5C00FCF7ACFF0346012B06D1074B1B781A4628
:103D6C0001210448FCF7B9FF0448FEF701FC00BF31
:103D7C0080BD00BF000C0140EC0000205000002072
:103D8C0080B400AF00BFBD4680BC70470C480D49E5
:103D9C000D4A002302E0D458C4500433C4188C429A
:103DAC00F9D30A4A0A4C002301E013600432A24200
:103DBC00FBD3FFF7E5FF00F00FF8FFF73BFD704773
:103DCC00000000200C000020C43E00080C00002065
:103DDC0018010020FEE7000070B500260C4D0D4CBC
:103DEC00641BA410A64209D100F022F800260A4D4B
:103DFC000A4C641BA410A64205D170BD55F8043BB7
:103E0C0098470136EEE755F8043B98470136F2E740
:103E1C00BC3E0008BC3E0008BC3E0008C03E00088A
:103E2C0003460244934200D1704703F8011BF9E7A3
:103E3C00F8B500BFF8BC08BC9E467047F8B500BF8B
:083E4C00F8BC08BC9E4670475B
:103E540002030405060708090A0B0C0D0E0F1010C7
:103E640053504920506F6C6C696E67204D6F6465C8
:103E740000000000535049204954204D6F646500F0
:103E840053504920444D41204D6F646500000000AB
:103E9400534C41564520526561647900544F205279
:103EA400656365697665000000000000000000009D
:083EB4000102030406070809DE
:043EBC0031010008C8
:043EC0000D010008E8
:0C3EC40010000000010100000024F400C8
:0400000508003D9919
:00000001FF
