:020000040800F2
:100000000028002085310008A5300008B130000824
:10001000B7300008BD300008C33000080000000001
:10002000000000000000000000000000C9300008CF
:10003000D530000800000000E1300008ED30000875
:10004000CD310008CD310008CD310008CD31000898
:10005000CD310008CD310008CD310008CD31000888
:10006000CD310008CD310008CD310008CD31000878
:10007000CD310008CD310008CD310008CD31000868
:10008000CD310008CD310008F9300008CD3100082D
:10009000CD310008CD310008CD310008CD31000848
:1000A000CD310008CD310008CD310008CD31000838
:1000B000CD310008CD31000800000000CD3100082E
:1000C000CD3100080000000000000000CD31000824
:1000D000000000000D310008CD31000800000000D4
:1000E000CD310008CD310008CD31000800000000FE
:1000F0000000000000000000000000000000000000
:0C01000000000000000000005FF808F1A3
:10010C0010B5054C237833B9044B13B10448AFF345
:10011C0000800123237010BD70000020000000003F
:10012C00283B000808B5034B1BB103490348AFF348
:10013C00008008BD0000000074000020283B00086F
:10014C0080B500AF084B1B68074A43F010031360DF
:10015C00032000F049FD002000F008F802F0A6FE94
:10016C000023184680BD00BF0020024080B582B03D
:10017C0000AF7860124B1A68124B1B7819464FF47B
:10018C007A73B3FBF1F3B2FBF3F3184600F061FDA5
:10019C000346002B01D001230EE07B680F2B0AD8FD
:1001AC00002279684FF0FF3000F029FD064A7B6889
:1001BC001360002300E0012318460837BD4680BDBC
:1001CC0008000020040000200000002080B400AFD4
:1001DC00054B1B781A46054B1B681344034A1360E6
:1001EC0000BFBD4680BC7047040000208C0000207E
:1001FC0080B400AF024B1B681846BD4680BC7047EC
:10020C008C00002080B584B000AF7860FFF7F0FF61
:10021C00B8607B68FB60FB68B3F1FF3F05D00A4B0D
:10022C001B781A46FB681344FB6000BFFFF7E0FF26
:10023C000246BB68D31AFA689A42F7D800BF00BFCF
:10024C001037BD4680BD00BF0400002080B586B0CD
:10025C0000AF78600023FB7500233B610023BB607B
:10026C000023FB607B68002B01D10123BEE07B687F
:10027C009B68002B7B689B6A002B09D17B68002252
:10028C00DA627B68002283F82420786802F040FE52
:10029C00786800F093FB0346FB757B689B6A03F060
:1002AC001003002B40F09980FB7D002B40F09580D3
:1002BC007B689B6A23F4885323F0020343F0020209
:1002CC007B689A627B685A687B68DB691A437B6837
:1002DC001B7B5B001343BA681343BB607B689B6852
:1002EC00B3F5807F03D07B689B68012B02D14FF460
:1002FC00807300E000233A6913433B617B681B7DEC
:10030C00012B19D17B681B7B002B09D17B689B6966
:10031C00013B5A033B69134343F400633B610BE01D
:10032C007B689B6A43F020027B689A627B68DB6A7D
:10033C0043F001027B68DA627B681B685B6823F41C
:10034C0069417B681B683A690A435A607B681B6881
:10035C009A68284B13407A681268B9680B4393600B
:10036C007B689B68B3F5807F03D07B689B68012B0F
:10037C0004D17B681B69013B1B05FB607B681B6818
:10038C00DB6A23F470017B681B68FA680A43DA6243
:10039C007B681B689A68184B1340BA689A420BD159
:1003AC007B680022DA627B689B6A23F0030343F0CC
:1003BC0001027B689A6218E07B689B6A23F0120347
:1003CC0043F010027B689A627B68DB6A43F001029F
:1003DC007B68DA620123FB7507E07B689B6A43F05C
:1003EC0010027B689A620123FB75FB7D1846183757
:1003FC00BD4680BDFDF7E1FFFE0E1FFF80B584B04A
:10040C0000AF78600023FB737B6893F82430012BDA
:10041C0001D10223A0E07B68012283F824207868B4
:10042C0000F072FA0346FB73FB7B002B40F08F80CD
:10043C007B689B6A23F4706323F0010343F480729E
:10044C007B689A627B681B68454A934205D1454B91
:10045C005B6803F47023002B15D17B689B6A23F433
:10046C0080127B689A627B681B685B6803F480630C
:10047C00002B26D07B689B6A23F4405343F48052B4
:10048C007B689A621DE07B689B6A43F480127B68F0
:10049C009A627B681B68334A934204D07B681B6862
:1004AC002F4A93420DD12F4B5B6803F48063002BD2
:1004BC0007D07B689B6A23F4405343F480527B68DB
:1004CC009A627B689B6A03F48053002B06D07B688E
:1004DC00DB6A23F006027B68DA6202E07B680022AA
:1004EC00DA627B68002283F824207B681B686FF03B
:1004FC0002021A607B681B685A687B681B6842F0B2
:10050C0020025A607B681B689B6803F46023B3F578
:10051C00602F13D17B681B68114A934205D1114B94
:10052C005B6803F47023002B08D17B681B689A6806
:10053C007B681B6842F4A0029A600CE07B681B6825
:10054C009A687B681B6842F480129A6003E07B68AF
:10055C00002283F82420FB7B18461037BD4680BD53
:10056C00002801400024014080B483B000AF7860C3
:10057C007B681B68DB6C18460C37BD4680BC70472B
:10058C0080B582B000AF78607B681B685B6803F055
:10059C002003202B40D17B681B681B6803F00203EF
:1005AC00022B39D17B689B6A03F01003002B05D119
:1005BC007B689B6A43F400727B689A627B681B6859
:1005CC009B6803F46023B3F5602F1DD17B681B7B04
:1005DC00002B19D17B681B685A687B681B6822F05A
:1005EC0020025A607B689B6A23F480727B689A6253
:1005FC007B689B6A03F48053002B05D17B689B6A54
:10060C0043F001027B689A62786802F0A3FA7B6877
:10061C001B686FF012021A607B681B685B6803F042
:10062C008003802B4FD17B681B681B6803F004038D
:10063C00042B48D17B689B6A03F01003002B05D177
:10064C007B689B6A43F400527B689A627B681B68E8
:10065C009B6803F4E043B3F5E04F12D07B681B6852
:10066C005B6803F48063002B25D17B681B689B6857
:10067C0003F46023B3F5602F1DD17B681B7B002B2B
:10068C0019D17B681B685A687B681B6822F0800252
:10069C005A607B689B6A23F480527B689A627B6801
:1006AC009B6A03F48073002B05D17B689B6A43F033
:1006BC0001027B689A62786800F0C1F97B681B685C
:1006CC006FF00C021A607B681B685B6803F04003D8
:1006DC00402B14D17B681B681B6803F00103012BB2
:1006EC000DD17B689B6A43F480327B689A62786890
:1006FC0000F009F87B681B686FF001021A6000BFFC
:10070C000837BD4680BD80B483B000AF786000BFB1
:10071C000C37BD4680BC704780B485B000AF7860A4
:10072C0039600023FB730023BB607B6893F8243093
:10073C00012B01D10223DCE07B68012283F8242009
:10074C003B685B68062B1CD87B681B68596B3B6845
:10075C005A6813469B001344053B1F2202FA03F30D
:10076C00DB4319403B6818683B685A6813469B008A
:10077C001344053B00FA03F27B681B680A435A6377
:10078C003CE03B685B680C2B1CD87B681B68196BC6
:10079C003B685A6813469B001344233B1F2202FA02
:1007AC0003F3DB4319403B6818683B685A681346EF
:1007BC009B001344233B00FA03F27B681B680A433B
:1007CC001A631BE07B681B68D96A3B685A6813463E
:1007DC009B001344413B1F2202FA03F3DB431940F5
:1007EC003B6818683B685A6813469B001344413BAE
:1007FC0000FA03F27B681B680A43DA623B681B68E9
:10080C00092B1CD97B681B68D9683B681A6813468E
:10081C005B0013441E3B072202FA03F3DB4319402F
:10082C003B6898683B681A6813465B0013441E3B90
:10083C0000FA03F27B681B680A43DA6019E07B68F4
:10084C001B6819693B681A6813465B00134407223E
:10085C0002FA03F3DB4319403B6898683B681A685B
:10086C0013465B00134400FA03F27B681B680A43CF
:10087C001A613B681B68102B03D03B681B68112B5B
:10088C0032D17B681B681D4A934225D17B681B685B
:10089C009B6803F40003002B26D17B681B689A68C5
:1008AC007B681B6842F400029A603B681B68102B43
:1008BC001AD1134B1B68134AA2FB03239A0C134641
:1008CC009B0013445B00BB6002E0BB68013BBB6058
:1008DC00BB68002BF9D107E07B689B6A43F02002D0
:1008EC007B689A620123FB737B68002283F82420C7
:1008FC00FB7B18461437BD4680BC70470024014072
:10090C000800002083DE1B4380B584B000AF786004
:10091C000023FB600023BB607B681B689B6803F0B3
:10092C000103012B40D07B681B689A687B681B68AD
:10093C0042F001029A601F4B1B681F4AA2FB032363
:10094C009B0CBB6002E0BB68013BBB60BB68002B2F
:10095C00F9D1FFF74DFCF8601FE0FFF749FC0246A8
:10096C00FB68D31A022B18D97B681B689B6803F0B1
:10097C000103012B11D07B689B6A43F010027B684A
:10098C009A627B68DB6A43F001027B68DA627B68FF
:10099C00002283F82420012307E07B681B689B68F6
:1009AC0003F00103012BD8D1002318461037BD46A4
:1009BC0080BD00BF0800002083DE1B4380B584B0DF
:1009CC0000AF78600023FB607B681B689B6803F0BA
:1009DC000103012B2ED17B681B689A687B681B680E
:1009EC0022F001029A60FFF703FCF8601BE0FFF7AE
:1009FC00FFFB0246FB68D31A022B14D97B681B68D9
:100A0C009B6803F00103012B0DD17B689B6A43F0BB
:100A1C0010027B689A627B68DB6A43F001027B6898
:100A2C00DA62012307E07B681B689B6803F0010313
:100A3C00012BDCD0002318461037BD4680BD80B496
:100A4C0083B000AF786000BF0C37BD4680BC7047E8
:100A5C0080B485B000AF78607B6803F00703FB605F
:100A6C000C4BDB68BB60BA684FF6FF031340BB60EE
:100A7C00FB681A02BB68134343F0BF6343F40033B3
:100A8C00BB60044ABB68D36000BF1437BD4680BC52
:100A9C00704700BF00ED00E080B400AF044BDB6892
:100AAC001B0A03F007031846BD4680BC704700BF05
:100ABC0000ED00E080B483B000AF0346FB7197F902
:100ACC000730002B0BDBFB7903F01F02064997F96B
:100ADC0007305B09012000FA02F241F8232000BF25
:100AEC000C37BD4680BC704700E100E080B483B099
:100AFC0000AF03463960FB7197F90730002B0ADB16
:100B0C003B68DAB20C4997F907301201D2B20B44A8
:100B1C0083F800230AE03B68DAB20849FB7903F05A
:100B2C000F03043B1201D2B20B441A7600BF0C37F0
:100B3C00BD4680BC704700BF00E100E000ED00E066
:100B4C0080B489B000AFF860B9607A60FB6803F0DC
:100B5C000703FB61FB69C3F10703042B28BF0423C4
:100B6C00BB61FB690433062B02D9FB69033B00E034
:100B7C0000237B614FF0FF32BB6902FA03F3DA43C7
:100B8C00BB681A407B699A404FF0FF317B6901FAD0
:100B9C0003F3D9437B680B40134318462437BD46F7
:100BAC0080BC704780B582B000AF78607B68013B39
:100BBC00B3F1807F01D301230FE00A4A7B68013B2C
:100BCC0053600F214FF0FF30FFF790FF054B0022D1
:100BDC009A60044B07221A60002318460837BD465A
:100BEC0080BD00BF10E000E080B582B000AF78603F
:100BFC007868FFF72DFF00BF0837BD4680BD80B574
:100C0C0086B000AF0346B9607A60FB7300237B614A
:100C1C00FFF742FF78617A68B9687869FFF790FF4F
:100C2C00024697F90F3011461846FFF75FFF00BFD9
:100C3C001837BD4680BD80B582B000AF0346FB714E
:100C4C0097F907301846FFF735FF00BF0837BD4648
:100C5C0080BD80B582B000AF78607868FFF7A2FFE6
:100C6C00034618460837BD4680BD80B485B000AF3A
:100C7C0078600023FB737B6893F82130022B08D03B
:100C8C007B6804229A637B68002283F8202001236E
:100C9C0020E07B681B681A687B681B6822F00E02D8
:100CAC001A607B681B681A687B681B6822F001025B
:100CBC001A607B681A6C7B68DB6B012101FA02F20B
:100CCC005A607B68012283F821207B68002283F81C
:100CDC002020FB7B18461437BD4680BC70470000B3
:100CEC0080B584B000AF78600023FB737B6893F809
:100CFC002130022B05D07B6804229A630123FB73FD
:100D0C0051E07B681B681A687B681B6822F00E0236
:100D1C001A607B681B681A687B681B6822F00102EA
:100D2C001A607B681B68224A934229D07B681B6837
:100D3C00204A934222D07B681B681F4A93421AD0E8
:100D4C007B681B681D4A934212D07B681B681C4A47
:100D5C0093420AD07B681B681A4A934202D14FF423
:100D6C0080130EE04FF080730BE04FF4803308E0FB
:100D7C004FF4805305E04FF4807302E0102300E041
:100D8C000123114A53607B68012283F821207B6880
:100D9C00002283F820207B685B6B002B03D07B68E0
:100DAC005B6B78689847FB7B18461037BD4680BD57
:100DBC00080002401C000240300002404400024087
:100DCC00580002406C0002400000024080B48BB01E
:100DDC0000AF7860396000237B6200233B6261E1E5
:100DEC0001227B6A02FA03F3FB613B681B68FA6918
:100DFC001340BB61BA69FB699A4240F050813B6871
:100E0C005B68974A93425ED0954A934275D8954A4F
:100E1C00934258D0934A93426FD8934A934252D0FC
:100E2C00914A934269D8914A93424CD08F4A93424B
:100E3C0063D88F4A934246D08D4A93425DD8122B89
:100E4C002AD8122B59D801A252F823F0D30E00083D
:100E5C00AD0E0008BF0E0008010F0008070F0008B8
:100E6C00070F0008070F0008070F0008070F0008FE
:100E7C00070F0008070F0008070F0008070F0008EE
:100E8C00070F0008070F0008070F0008070F0008DE
:100E9C00B50E0008C90E0008764A934213D02CE018
:100EAC003B68DB683B6229E03B68DB6804333B62F0
:100EBC0024E03B68DB6808333B621FE03B68DB687F
:100ECC000C333B621AE03B689B68002B02D1042375
:100EDC003B6213E03B689B68012B05D108233B6206
:100EEC007B68FA691A6109E008233B627B68FA693E
:100EFC005A6103E000233B6200E000BFBB69FF2B9B
:100F0C0001D87B6801E07B6804337B61BB69FF2BF4
:100F1C0002D87B6A9B0002E07B6A083B9B003B612A
:100F2C007B691A680F213B6901FA03F3DB431A4012
:100F3C00396A3B6901FA03F31A437B691A603B680F
:100F4C005B6803F08053002B00F0A9804A4B9B692F
:100F5C00494A43F001039361474B9B6903F001033A
:100F6C00BB60BB68454A7B6A9B08023352F823304E
:100F7C00FB607B6A03F003039B000F2202FA03F36E
:100F8C00DB43FA681340FB607B683D4A93420DD00B
:100F9C007B683C4A934207D07B683B4A934201D121
:100FAC00022304E0032302E0012300E000237A6A19
:100FBC0002F0030292009340FA681343FB602F493E
:100FCC007B6A9B080233FA6841F823203B685B6814
:100FDC0003F48033002B06D02C4B1A682B49BB69C9
:100FEC0013430B6006E0294B1A68BB69DB432749A6
:100FFC0013400B603B685B6803F40033002B06D096
:10100C00224B5A682149BB6913434B6006E01F4BC6
:10101C005A68BB69DB431D4913404B603B685B68F6
:10102C0003F48013002B06D0184B9A681749BB6940
:10103C0013438B6006E0154B9A68BB69DB4313497D
:10104C0013408B603B685B6803F40013002B1FD0CC
:10105C000E4BDA680D49BB691343CB601FE000BF30
:10106C00000032100000311000002210000021108E
:10107C00000012100000111000100240000001408E
:10108C0000080140000C0140001001400004014028
:10109C000B4BDA68BB69DB4309491340CB607B6AB5
:1010AC0001337B623B681A687B6A22FA03F3002BDC
:1010BC007FF496AE00BF00BF2C37BD4680BC704796
:1010CC000004014080B483B000AF78600B467B8095
:1010DC0013467B707B78002B03D07A887B681A616F
:1010EC0003E07B881A047B681A6100BF0C37BD468D
:1010FC0080BC704780B485B000AF78600B467B80B5
:10110C007B68DB68FB607A88FB6813401A04FB6819
:10111C00D9437B880B401A437B681A6100BF143794
:10112C00BD4680BC7047000080B586B000AF7860CB
:10113C007B68002B01D1012372E27B681B6803F0F2
:10114C000103002B00F08780924B5B6803F00C03CB
:10115C00042B0CD08F4B5B6803F00C03082B12D1C3
:10116C008C4B5B6803F48033B3F5803F0BD1894B18
:10117C001B6803F40033002B6CD07B685B68002B7E
:10118C0068D101234CE27B685B68B3F5803F06D1E4
:10119C00804B1B687F4A43F4803313602EE07B68DE
:1011AC005B68002B0CD17B4B1B687A4A23F4803391
:1011BC001360784B1B68774A23F4802313601DE07F
:1011CC007B685B68B3F5A02F0CD1724B1B68714A1E
:1011DC0043F4802313606F4B1B686E4A43F48033D7
:1011EC0013600BE06B4B1B686A4A23F4803313606B
:1011FC00684B1B68674A23F4802313607B685B6829
:10120C00002B13D0FEF7F4FF386108E0FEF7F0FF77
:10121C0002463B69D31A642B01D9032300E25D4BD0
:10122C001B6803F40033002BF0D014E0FEF7E0FF52
:10123C00386108E0FEF7DCFF02463B69D31A642BE9
:10124C0001D90323ECE1534B1B6803F40033002B4F
:10125C00F0D100E000BF7B681B6803F00203002B99
:10126C0063D04C4B5B6803F00C03002B0BD0494B49
:10127C005B6803F00C03082B1CD1464B5B6803F432
:10128C008033002B16D1434B1B6803F00203002B59
:10129C0005D07B681B69012B01D00123C0E13D4BBC
:1012AC001B6823F0F8027B685B69DB003949134348
:1012BC000B603AE07B681B69002B20D0364B012277
:1012CC001A60FEF795FF386108E0FEF791FF0246C1
:1012DC003B69D31A022B01D90323A1E12D4B1B68C7
:1012EC0003F00203002BF0D02A4B1B6823F0F8020A
:1012FC007B685B69DB00274913430B6015E0264BC9
:10130C0000221A60FEF774FF386108E0FEF770FFE8
:10131C0002463B69D31A022B01D9032380E11D4BF2
:10132C001B6803F00203002BF0D17B681B6803F0F1
:10133C000803002B3AD07B689B69002B19D0174B04
:10134C0001221A60FEF754FF386108E0FEF750FFE7
:10135C0002463B69D31A022B01D9032360E10D4BE2
:10136C005B6A03F00203002BF0D0012000F0D8FAE6
:10137C001CE00A4B00221A60FEF73AFF38610FE0BE
:10138C00FEF736FF02463B69D31A022B08D903231A
:10139C0046E100BF0010024000004242800442427D
:1013AC00924B5B6A03F00203002BE9D17B681B684C
:1013BC0003F00403002B00F0A6800023FB758B4B7D
:1013CC00DB6903F08053002B0DD1884BDB69874A16
:1013DC0043F08053D361854BDB6903F08053BB60D2
:1013EC00BB680123FB75824B1B6803F48073002BD5
:1013FC0018D17F4B1B687E4A43F480731360FEF751
:10140C00F7FE386108E0FEF7F3FE02463B69D31A9B
:10141C00642B01D9032303E1754B1B6803F4807320
:10142C00002BF0D07B68DB68012B06D16F4B1B6A5D
:10143C006E4A43F0010313622DE07B68DB68002BDE
:10144C000CD16A4B1B6A694A23F001031362674B88
:10145C001B6A664A23F0040313621CE07B68DB689A
:10146C00052B0CD1614B1B6A604A43F004031362D9
:10147C005E4B1B6A5D4A43F0010313620BE05B4B4E
:10148C001B6A5A4A23F001031362584B1B6A574AD2
:10149C0023F0040313627B68DB68002B15D0FEF786
:1014AC00A7FE38610AE0FEF7A3FE02463B69D31A99
:1014BC0041F28832934201D90323B1E04B4B1B6AB2
:1014CC0003F00203002BEED014E0FEF791FE38611E
:1014DC000AE0FEF78DFE02463B69D31A41F28832D0
:1014EC00934201D903239BE0404B1B6A03F0020398
:1014FC00002BEED1FB7D012B05D13C4BDB693B4A2C
:10150C0023F08053D3617B68DB69002B00F087806C
:10151C00364B5B6803F00C03082B61D07B68DB69EE
:10152C00022B46D1334B00221A60FEF761FE386164
:10153C0008E0FEF75DFE02463B69D31A022B01D987
:10154C0003236DE0294B1B6803F00073002BF0D1D3
:10155C007B681B6AB3F5803F08D1244B5B6823F48E
:10156C0000327B689B68214913434B601F4B5B68BF
:10157C0023F474127B68196A7B685B6A0B431B4902
:10158C0013434B601B4B01221A60FEF731FE38618E
:10159C0008E0FEF72DFE02463B69D31A022B01D957
:1015AC0003233DE0114B1B6803F00073002BF0D0BC
:1015BC0035E0104B00221A60FEF71AFE386108E085
:1015CC00FEF716FE02463B69D31A022B01D9032300
:1015DC0026E0064B1B6803F00073002BF0D11EE0D5
:1015EC007B68DB69012B07D1012319E00010024055
:1015FC0000700040600042420B4B5B68FB60FB6874
:10160C0003F480327B681B6A9A4206D1FB6803F4B0
:10161C0070127B685B6A9A4201D0012300E00023C0
:10162C0018461837BD4680BD0010024080B584B006
:10163C0000AF786039607B68002B01D10123D0E0CA
:10164C006A4B1B6803F007033A689A4210D9674B40
:10165C001B6823F0070265493B6813430B60634B1F
:10166C001B6803F007033A689A4201D00123B8E0E3
:10167C007B681B6803F00203002B20D07B681B687F
:10168C0003F00403002B05D0594B5B68584A43F414
:10169C00E06353607B681B6803F00803002B05D0E4
:1016AC00534B5B68524A43F460535360504B5B6836
:1016BC0023F0F0027B689B684D4913434B607B68B9
:1016CC001B6803F00103002B40D07B685B68012B87
:1016DC0007D1474B1B6803F40033002B15D10123B2
:1016EC007FE07B685B68022B07D1414B1B6803F0E2
:1016FC000073002B09D1012373E03D4B1B6803F0F1
:10170C000203002B01D101236BE0394B5B6823F002
:10171C0003027B685B68364913434B60FEF768FD38
:10172C00F8600AE0FEF764FD0246FB68D31A41F24A
:10173C008832934201D9032353E02D4B5B6803F0AD
:10174C000C027B685B689B009A42EBD1274B1B68B1
:10175C0003F007033A689A4210D2244B1B6823F01B
:10176C00070222493B6813430B60204B1B6803F0B4
:10177C0007033A689A4201D0012332E07B681B6868
:10178C0003F00403002B08D0194B5B6823F4E062D0
:10179C007B68DB68164913434B607B681B6803F05E
:1017AC000803002B09D0124B5B6823F460527B6852
:1017BC001B69DB000E4913434B6000F021F8024615
:1017CC000B4B5B681B0903F00F030A49CB5C22FA35
:1017DC0003F3094A1360094B1B681846FEF7C6FC55
:1017EC00002318461037BD4680BD00BF00200240C4
:1017FC0000100240603B00080800002000000020A0
:10180C0090B48AB000AF294B3C1D0FCB84E80F007D
:10181C0040F201233B800023FB610023BB610023CA
:10182C007B6200237B6100233B62214B5B68FB6185
:10183C00FB6903F00C03042B02D0082B03D02BE024
:10184C001C4B3B622BE0FB699B0C03F00F03283312
:10185C003B4413F8243C7B61FB6903F48033002B7D
:10186C0012D0134B5B685B0C03F0010328333B4431
:10187C0013F8283CBB617B690E4A03FB02F2BB697F
:10188C00B2FBF3F37B6204E07B690B4A02FB03F3CC
:10189C007B627B6A3B6202E0064B3B6200BF3B6AA9
:1018AC0018462837BD4690BC704700BF403B000827
:1018BC000010024000127A0000093D0080B400AF15
:1018CC00024B1B681846BD4680BC704708000020C0
:1018DC0080B500AFFFF7F2FF0246054B5B681B0AB1
:1018EC0003F007030349CB5C22FA03F3184680BDCF
:1018FC0000100240703B000880B500AFFFF7DEFF20
:10190C000246054B5B68DB0A03F007030349CB5C1B
:10191C0022FA03F3184680BD00100240703B000809
:10192C0080B485B000AF78600A4B1B680A4AA2FBF2
:10193C0003235B0A7A6802FB03F3FB6000BFFB68BE
:10194C005A1EFA60002BF9D100BF00BF1437BD46F8
:10195C0080BC704708000020D34D621080B586B063
:10196C0000AF786000233B610023FB607B681B6841
:10197C0003F00103002B7DD00023FB754F4BDB697B
:10198C0003F08053002B0DD14C4BDB694B4A43F0D9
:10199C008053D361494BDB6903F08053BB60BB6858
:1019AC000123FB75464B1B6803F48073002B18D185
:1019BC00434B1B68424A43F480731360FEF718FCD8
:1019CC00386108E0FEF714FC02463B69D31A642B1D
:1019DC0001D903236DE03A4B1B6803F48073002B91
:1019EC00F0D0364B1B6A03F44073FB60FB68002B92
:1019FC002ED07B685B6803F44073FA689A4227D058
:101A0C002E4B1B6A23F44073FB602E4B01221A6091
:101A1C002C4B00221A60294AFB681362FB6803F006
:101A2C000103002B14D0FEF7E3FB38610AE0FEF74C
:101A3C00DFFB02463B69D31A41F28832934201D94B
:101A4C00032336E01D4B1B6A03F00203002BEED080
:101A5C001A4B1B6A23F440727B685B68174913436B
:101A6C000B62FB7D012B05D1144BDB69134A23F070
:101A7C008053D3617B681B6803F00203002B08D0F2
:101A8C000E4B5B6823F440427B689B680B49134305
:101A9C004B607B681B6803F01003002B08D0074BCE
:101AAC005B6823F480027B68DB68044913434B605A
:101ABC00002318461837BD4680BD00BF00100240F9
:101ACC00007000404004424280B582B000AF7860A4
:101ADC007B68002B01D1012341E07B6893F83D30FA
:101AEC00DBB2002B06D17B68002283F83C2078689F
:101AFC0001F052FA7B68022283F83D207B681A6859
:101B0C007B6804331946104600F088F97B68012283
:101B1C0083F846207B68012283F83E207B680122F3
:101B2C0083F83F207B68012283F840207B680122E8
:101B3C0083F841207B68012283F842207B680122D4
:101B4C0083F843207B68012283F844207B680122C0
:101B5C0083F845207B68012283F83D20002318463A
:101B6C000837BD4680BD000080B584B000AF7860FA
:101B7C0039603B68002B09D17B6893F83E30DBB2AF
:101B8C00012B14BF01230023DBB222E03B68042BA2
:101B9C0009D17B6893F83F30DBB2012B14BF0123D2
:101BAC000023DBB215E03B68082B09D17B6893F866
:101BBC004030DBB2012B14BF01230023DBB208E061
:101BCC007B6893F84130DBB2012B14BF0123002357
:101BDC00DBB2002B01D0012359E03B68002B04D170
:101BEC007B68022283F83E2013E03B68042B04D16F
:101BFC007B68022283F83F200BE03B68082B04D162
:101C0C007B68022283F8402003E07B68022283F881
:101C1C0041207B681B6801223968184600F0DEFA07
:101C2C007B681B681C4A934207D17B681B685A6C03
:101C3C007B681B6842F400425A647B681B68164A36
:101C4C00934209D07B681B68B3F1804F04D07B684A
:101C5C001B68124A934211D17B681B689B6803F086
:101C6C000703FB60FB68062B10D07B681B681A68A7
:101C7C007B681B6842F001021A6007E07B681B68F6
:101C8C001A687B681B6842F001021A600023184630
:101C9C001037BD4680BD00BF002C01400004004041
:101CAC0080B584B000AFF860B9607A60FB6893F8D7
:101CBC003C30012B01D10223ACE0FB68012283F8FC
:101CCC003C207B680C2B00F29F8001A252F823F081
:101CDC00111D0008151E0008151E0008151E000811
:101CEC00511D0008151E0008151E0008151E0008C1
:101CFC00931D0008151E0008151E0008151E00086F
:101D0C00D31D0008FB681B68B968184600F0DEF8A4
:101D1C00FB681B689A69FB681B6842F008029A61B1
:101D2C00FB681B689A69FB681B6822F004029A61C5
:101D3C00FB681B689969BB681A69FB681B680A43D6
:101D4C009A6162E0FB681B68B968184600F024F9D8
:101D5C00FB681B689A69FB681B6842F400629A6115
:101D6C00FB681B689A69FB681B6822F480629A61A5
:101D7C00FB681B689969BB681B691A02FB681B68C6
:101D8C000A439A6141E0FB681B68B968184600F089
:101D9C006DF9FB681B68DA69FB681B6842F0080286
:101DAC00DA61FB681B68DA69FB681B6822F00402C5
:101DBC00DA61FB681B68D969BB681A69FB681B6828
:101DCC000A43DA6121E0FB681B68B968184600F029
:101DDC00B7F9FB681B68DA69FB681B6842F40062A0
:101DEC00DA61FB681B68DA69FB681B6822F48062A5
:101DFC00DA61FB681B68D969BB681B691A02FB684E
:101E0C001B680A43DA6100E000BFFB68002283F81C
:101E1C003C20002318461037BD4680BD80B485B0E9
:101E2C0000AF786039607B681B68FB607B68254A73
:101E3C00934207D07B68B3F1804F03D07B68224A72
:101E4C00934208D1FB6823F07003FB603B685B682E
:101E5C00FA681343FB607B681A4A934207D07B688D
:101E6C00B3F1804F03D07B68174A934208D1FB68CB
:101E7C0023F44073FB603B68DB68FA681343FB6038
:101E8C00FB6823F080023B685B691343FB607B6853
:101E9C00FA681A603B689A687B68DA623B681A6871
:101EAC007B689A627B68074A934203D13B681A6944
:101EBC007B681A637B6801225A6100BF1437BD46E8
:101ECC0080BC7047002C01400004004080B487B0F7
:101EDC0000AF786039607B681B6A23F001027B6875
:101EEC001A627B681B6A7B617B685B683B617B6801
:101EFC009B69FB60FB6823F07003FB60FB6823F0BD
:101F0C000303FB603B681B68FA681343FB607B6947
:101F1C0023F002037B613B689B687A6913437B6106
:101F2C007B681C4A93420CD17B6923F008037B61CC
:101F3C003B68DB687A6913437B617B6923F004039C
:101F4C007B617B68134A934211D13B6923F4807304
:101F5C003B613B6923F400733B613B685B693A6905
:101F6C0013433B613B689B693A6913433B617B6854
:101F7C003A695A607B68FA689A613B685A687B6870
:101F8C005A637B687A691A6200BF1C37BD4680BCF5
:101F9C00704700BF002C014080B487B000AF786060
:101FAC0039607B681B6A23F010027B681A627B68BD
:101FBC001B6A7B617B685B683B617B689B69FB6030
:101FCC00FB6823F4E043FB60FB6823F44073FB6085
:101FDC003B681B681B02FA681343FB607B6923F0A8
:101FEC0020037B613B689B681B017A6913437B610F
:101FFC007B681D4A93420DD17B6923F080037B6182
:10200C003B68DB681B017A6913437B617B6923F0B6
:10201C0040037B617B68144A934213D13B6923F4E0
:10202C0080633B613B6923F400633B613B685B6904
:10203C009B003A6913433B613B689B699B003A697F
:10204C0013433B617B683A695A607B68FA689A6112
:10205C003B685A687B689A637B687A691A6200BF2E
:10206C001C37BD4680BC7047002C014080B487B043
:10207C0000AF786039607B681B6A23F480727B68E0
:10208C001A627B681B6A7B617B685B683B617B685F
:10209C00DB69FB60FB6823F07003FB60FB6823F0DB
:1020AC000303FB603B681B68FA681343FB607B69A6
:1020BC0023F400737B613B689B681B027A691343B2
:1020CC007B617B681D4A93420DD17B6923F40063CD
:1020DC007B613B68DB681B027A6913437B617B691C
:1020EC0023F480637B617B68144A934213D13B6970
:1020FC0023F480533B613B6923F400533B613B6801
:10210C005B691B013A6913433B613B689B691B018B
:10211C003A6913433B617B683A695A607B68FA6899
:10212C00DA613B685A687B68DA637B687A691A62A1
:10213C0000BF1C37BD4680BC704700BF002C01405F
:10214C0080B487B000AF786039607B681B6A23F479
:10215C0080527B681A627B681B6A3B617B685B6898
:10216C007B617B68DB69FB60FB6823F4E043FB600D
:10217C00FB6823F44073FB603B681B681B02FA6826
:10218C001343FB603B6923F400533B613B689B6842
:10219C001B033A6913433B617B680F4A934209D195
:1021AC007B6923F480437B613B685B699B017A69A3
:1021BC0013437B617B687A695A607B68FA68DA61E1
:1021CC003B685A687B681A647B683A691A6200BF7C
:1021DC001C37BD4680BC7047002C014080B487B0D2
:1021EC0000AFF860B9607A60BB6803F01F0301228E
:1021FC0002FA03F37B61FB681A6A7B69DB431A40C2
:10220C00FB681A62FB681A6ABB6803F01F037968E3
:10221C0001FA03F31A43FB681A6200BF1C37BD4670
:10222C0080BC704780B485B000AF786039607B6843
:10223C0093F83C30012B01D1022341E07B68012251
:10224C0083F83C207B68022283F83D207B681B6866
:10225C005B68FB607B681B689B68BB60FB6823F05A
:10226C007003FB603B681B68FA681343FB607B6878
:10227C001B68FA685A607B681B68144A934209D041
:10228C007B681B68B3F1804F04D07B681B68104AD5
:10229C0093420CD1BB6823F08003BB603B685B6846
:1022AC00BA681343BB607B681B68BA689A607B682A
:1022BC00012283F83D207B68002283F83C20002318
:1022CC0018461437BD4680BC704700BF002C014037
:1022DC000004004080B582B000AF78607B68002BB2
:1022EC0001D101233FE07B6893F83D30DBB2002B3A
:1022FC0006D17B68002283F83C20786800F06AFEE7
:10230C007B68242283F83D207B681B68DA687B6835
:10231C001B6822F40052DA60786800F08DFB7B6851
:10232C001B681A697B681B6822F490421A617B68EF
:10233C001B685A697B681B6822F02A025A617B6809
:10234C001B68DA687B681B6842F40052DA607B68B1
:10235C0000221A647B68202283F83D207B682022AF
:10236C0083F83E20002318460837BD4680BD80B454
:10237C0085B000AFF860B9601346FB80FB6893F83A
:10238C003D30DBB2202B30D1BB68002B02D0FB8858
:10239C00002B01D1012329E0FB6893F83C30012B81
:1023AC0001D1022322E0FB68012283F83C20FB6868
:1023BC00BA681A62FB68FA889A84FB68FA88DA842D
:1023CC00FB6800221A64FB68212283F83D20FB681D
:1023DC00002283F83C20FB681B68DA68FB681B68EA
:1023EC0042F08002DA60002300E002231846143722
:1023FC00BD4680BC7047000080B58AB000AF7860E5
:10240C007B681B681B687B627B681B68DB683B62B4
:10241C007B681B685B69FB610023BB6100237B61EC
:10242C007B6A03F00F03BB61BB69002B0DD17B6A88
:10243C0003F02003002B08D03B6A03F02003002B91
:10244C0003D0786800F04FFA7BE1BB69002B00F0F9
:10245C00B180FB6903F00103002B05D13B6A03F447
:10246C009073002B00F0A6807B6A03F00103002B15
:10247C000AD03B6A03F48073002B05D07B681B6C7D
:10248C0043F001027B681A647B6A03F00403002B9F
:10249C000AD0FB6903F00103002B05D07B681B6C91
:1024AC0043F002027B681A647B6A03F00203002B80
:1024BC000AD0FB6903F00103002B05D07B681B6C71
:1024CC0043F004027B681A647B6A03F00803002B58
:1024DC000FD03B6A03F02003002B04D1FB6903F0FF
:1024EC000103002B05D07B681B6C43F008027B6852
:1024FC001A647B681B6C002B00F01E817B6A03F056
:10250C002003002B07D03B6A03F02003002B02D0E2
:10251C00786800F0E8F97B681B685B6903F040039E
:10252C00002B14BF01230023DBB27B617B681B6C87
:10253C0003F00803002B02D17B69002B31D07868A3
:10254C0000F02AF97B681B685B6903F04003002BE1
:10255C0023D07B681B685A697B681B6822F0400299
:10256C005A617B689B6B002B13D07B689B6B764A04
:10257C005A637B689B6B1846FEF7B2FB0346002B35
:10258C0016D07B689B6B5B6B7A68926B1046984796
:10259C000EE0786800F0ECF80AE0786800F0E8F8F3
:1025AC0006E0786800F0E4F87B6800221A64C3E067
:1025BC0000BFC1E07B681B6B012B40F0A1807B6AE4
:1025CC0003F01003002B00F09B803B6A03F0100318
:1025DC00002B00F095800023FB607B681B681B6858
:1025EC00FB607B681B685B68FB60FB687B681B6837
:1025FC005B6903F04003002B4ED07B689B6B1B6820
:10260C005B683B823B8A002B00F098807B689B8D3B
:10261C003A8A9A4280F092807B683A8ADA857B68A3
:10262C009B6B9B69202B2BD07B681B68DA687B68C3
:10263C001B6822F48072DA607B681B685A697B68BD
:10264C001B6822F001025A617B681B685A697B681F
:10265C001B6822F040025A617B68202283F83E20DE
:10266C007B6800221A637B681B68DA687B681B68CE
:10267C0022F01002DA607B689B6B1846FEF7F5FAC5
:10268C007B689A8D7B68DB8D9BB2D31A9BB2194603
:10269C00786800F076F851E07B689A8D7B68DB8D6A
:1026AC009BB2D31A7B827B68DB8D9BB2002B47D00D
:1026BC007B8A002B44D07B681B68DA687B681B68BC
:1026CC0022F49072DA607B681B685A697B681B681D
:1026DC0022F001025A617B68202283F83E207B683D
:1026EC0000221A637B681B68DA687B681B6822F01F
:1026FC001002DA607B8A1946786800F042F81FE015
:10270C007B6A03F08003002B08D03B6A03F0800344
:10271C00002B03D0786800F07FF812E07B6A03F09E
:10272C004003002B0DD03B6A03F04003002B08D074
:10273C00786800F0C0F804E000BF02E000BF00E0E1
:10274C0000BF2837BD4680BDFD27000880B483B08C
:10275C0000AF786000BF0C37BD4680BC704780B4BA
:10276C0083B000AF786000BF0C37BD4680BC7047AB
:10277C0080B483B000AF786000BF0C37BD4680BC1E
:10278C00704780B483B000AF78600B467B8000BF8D
:10279C000C37BD4680BC704780B483B000AF786006
:1027AC007B681B68DA687B681B6822F49072DA60BD
:1027BC007B681B685A697B681B6822F001025A61AE
:1027CC007B681B6B012B07D17B681B68DA687B6805
:1027DC001B6822F01002DA607B68202283F83E200E
:1027EC007B6800221A6300BF0C37BD4680BC704763
:1027FC0080B584B000AF78607B685B6AFB60FB6877
:10280C000022DA85FB680022DA84F868FFF7B0FF53
:10281C0000BF1037BD4680BD80B485B000AF786076
:10282C007B6893F83D30DBB2212B3ED17B689B68F3
:10283C00B3F5805F14D17B681B69002B10D17B68CA
:10284C001B6AFB60FB681B881A467B681B68C2F31B
:10285C0008025A607B681B6A9A1C7B681A6208E043
:10286C007B681B6A591C7A6811621A787B681B6832
:10287C005A607B68DB8C9BB2013B9BB27A68194631
:10288C00D184002B0FD17B681B68DA687B681B68CE
:10289C0022F08002DA607B681B68DA687B681B6850
:1028AC0042F04002DA60002300E00223184614379D
:1028BC00BD4680BC704780B582B000AF78607B6845
:1028CC001B68DA687B681B6822F04002DA607B6860
:1028DC00202283F83D207868FFF738FF0023184644
:1028EC000837BD4680BD80B586B000AF78607B6888
:1028FC0093F83E30DBB2222B40F099807B689B68CA
:10290C00B3F5805F17D17B681B69002B13D10023B3
:10291C007B617B689B6A3B617B681B685B689BB2D5
:10292C00C3F308039AB23B691A807B689B6A9A1CB2
:10293C007B689A6226E07B689B6A7B6100233B6123
:10294C007B689B68B3F5805F07D07B689B68002B26
:10295C000AD17B681B69002B06D17B681B685B68FE
:10296C00DAB27B691A7008E07B681B685B68DBB2C3
:10297C0003F07F03DAB27B691A707B689B6A5A1C7E
:10298C007B689A627B68DB8D9BB2013B9BB27A6859
:10299C001946D185002B48D17B681B68DA687B68A7
:1029AC001B6822F02002DA607B681B68DA687B689F
:1029BC001B6822F48072DA607B681B685A697B683A
:1029CC001B6822F001025A617B68202283F83E20AA
:1029DC007B681B6B012B23D17B6800221A637B68FD
:1029EC001B68DA687B681B6822F01002DA607B686F
:1029FC001B681B6803F01003102B0AD10023FB602B
:102A0C007B681B681B68FB607B681B685B68FB60F2
:102A1C00FB687B689B8D19467868FFF7B2FE02E075
:102A2C007868FFF79CFE002302E0002300E00223FD
:102A3C0018461837BD4680BD80B584B000AF7860AD
:102A4C007B681B681B6923F440517B68DA687B68E0
:102A5C001B680A431A617B689A687B681B691A4376
:102A6C007B685B691343BB607B681B68DB6823F482
:102A7C00B05323F00C037A681268B9680B43D36027
:102A8C007B681B685B6923F440717B689A697B687F
:102A9C001B680A435A617B681B682C4A934203D11A
:102AAC00FEF72AFFF86002E0FEF712FFF860FA6802
:102ABC0013469B0013449A001A447B685B689B0086
:102ACC00B2FBF3F3224AA2FB03235B091901FA6858
:102ADC0013469B0013449A001A447B685B689B0066
:102AEC00B2FBF3F21A4BA3FB02035B09642000FB5D
:102AFC0003F3D31A1B013233154AA2FB03235B09E0
:102B0C0003F0F0031944FA6813469B0013449A002F
:102B1C001A447B685B689B00B2FBF3F20C4BA3FB83
:102B2C0002035B09642000FB03F3D31A1B0132334D
:102B3C00074AA2FB03235B0903F00F027B681B68A7
:102B4C000A449A6000BF1037BD4680BD0038014072
:102B5C001F85EB5180B582B000AF78600C48FDF753
:102B6C0003FD03460B4A13600A4B1B681A460A49BD
:102B7C000A4800F059FB322208490948FFF7F7FBD5
:102B8C0002210848FEF7B6FA00BF0837BD4680BDE3
:102B9C009000002080010020503B00084C010020D8
:102BAC00080100200008014080B500AFFDF7C8FA0D
:102BBC0000F028F800F036F900F074F800F0B0F8E6
:102BCC0000F006F90C48FDF719FC0346002B01D068
:102BDC0000F066F900210948FEF7C6FF0346002BFA
:102BEC0001D000F05DF9002202210548FEF76AFAD7
:102BFC006420FDF707FBF6E790000020C0000020E2
:102C0C000008014080B594B000AF07F128032822DA
:102C1C000021184600F000FB07F1140300221A6093
:102C2C005A609A60DA601A613B1D00221A605A6081
:102C3C009A60DA600223BB620123BB631023FB633F
:102C4C0000237B6407F128031846FEF76DFA034650
:102C5C00002B01D000F024F90F237B610023BB6112
:102C6C000023FB6100233B6200237B6207F114030A
:102C7C0000211846FEF7DAFC0346002B01D000F0C9
:102C8C000FF902237B600023FB603B1D1846FEF707
:102C9C0065FE0346002B01D000F002F900BF50374F
:102CAC00BD4680BD80B584B000AF3B1D00221A60CC
:102CBC005A609A60184B194A1A60174B00229A6096
:102CCC00154B00221A73144B00221A75124B4FF439
:102CDC000022DA61104B00225A600F4B01221A615C
:102CEC000D48FDF7B3FA0346002B01D000F0D8F8DD
:102CFC0007237B600123BB600023FB603B1D19464F
:102D0C000548FDF709FD0346002B01D000F0C8F87B
:102D1C0000BF1037BD4680BD90000020002401404C
:102D2C0080B58AB000AF07F1200300221A605A6008
:102D3C003B1D00221A605A609A60DA601A615A616F
:102D4C009A61214B214A1A601F4B42F210725A6051
:102D5C001D4B00229A601C4B4FF4FA52DA601A4B4E
:102D6C0000221A61184B00229A611748FEF7ACFE3C
:102D7C000346002B01D000F093F820233B62002384
:102D8C007B6207F1200319460F48FFF74BFA034605
:102D9C00002B01D000F084F860237B600023BB6023
:102DAC000023FB6000237B613B1D00221946064873
:102DBC00FEF776FF0346002B01D000F071F800BF40
:102DCC002837BD4680BD00BFC00000200004004075
:102DDC0080B500AF114B124A1A60104B4FF4E13220
:102DEC005A600E4B00229A600C4B0022DA600B4B9F
:102DFC0000221A61094B0C225A61084B00229A617D
:102E0C00064B0022DA610548FFF764FA0346002BF3
:102E1C0001D000F045F800BF80BD00BF08010020C4
:102E2C000038014080B586B000AF07F108030022DE
:102E3C001A605A609A60DA60174B9B69164A43F025
:102E4C0004039361144B9B6903F004037B607B6860
:102E5C00114B9B69104A43F0080393610E4B9B691D
:102E6C0003F008033B603B68002202210B48FEF78D
:102E7C0029F90223BB600123FB6000233B61022381
:102E8C007B6107F1080319460448FDF79FFF00BF5B
:102E9C001837BD4680BD00BF00100240000801403D
:102EAC0080B400AF00BFBD4680BC704780B485B015
:102EBC0000AF154B9B69144A43F001039361124B0D
:102ECC009B6903F00103BB60BB680F4BDB690E4AC7
:102EDC0043F08053D3610C4BDB6903F080537B6070
:102EEC007B680A4B5B68FB60FB6823F0E063FB606C
:102EFC00FB6843F08063FB60044AFB68536000BFCF
:102F0C001437BD4680BC70470010024000000140E1
:102F1C0080B588B000AF786007F1100300221A600A
:102F2C005A609A60DA607B681B68184A934229D110
:102F3C00174B9B69164A43F400739361144B9B69BE
:102F4C0003F40073FB60FB68114B9B69104A43F060
:102F5C00040393610E4B9B6903F00403BB60BB68D5
:102F6C0080233B6103237B6107F110031946094859
:102F7C00FDF72CFF002200211220FDF740FE12204D
:102F8C00FDF759FE00BF2037BD4680BD002401402F
:102F9C00001002400008014080B485B000AF78609A
:102FAC007B681B68094A93420BD1094BDB69084AC1
:102FBC0043F00203D361064BDB6903F00203FB60B1
:102FCC00FB6800BF1437BD4680BC7047000400404E
:102FDC000010024080B58AB000AF786007F114038E
:102FEC0000221A605A609A60DA607B681B68264A75
:102FFC00934245D1254B9B69244A43F4804393610A
:10300C00224B9B6903F480433B613B691F4B9B69DB
:10301C001E4A43F0080393611C4B9B6903F00803A1
:10302C00FB60FB6840237B610223BB6103233B6293
:10303C0007F1140319461648FDF7C8FE80237B617F
:10304C000023BB610023FB6107F1140319461048F0
:10305C00FDF7BCFE0F4B5B687B627B6A43F0E06361
:10306C007B627B6A43F004037B620A4A7B6A53608F
:10307C00002200212520FDF7C2FD2520FDF7DBFDF8
:10308C0000BF2837BD4680BD00380140001002400B
:10309C00000C01400000014080B400AF00BFBD46F1
:1030AC0080BC704780B400AFFEE780B400AFFEE791
:1030BC0080B400AFFEE780B400AFFEE780B400AF91
:1030CC0000BFBD4680BC704780B400AF00BFBD469A
:1030DC0080BC704780B400AF00BFBD4680BC704759
:1030EC0080B500AFFDF772F800BF80BD80B500AFB2
:1030FC000248FDF745FA00BF80BD00BF90000020DC
:10310C0080B500AF0248FFF777F900BF80BD00BF64
:10311C000801002080B584B000AF7860114B1B68AB
:10312C00002B02D10F4B104A1A600E4B1B68FB6030
:10313C000C4B1A687B6813446A46934207D900F01B
:10314C0041F803460C221A604FF0FF3306E0054BA2
:10315C001A687B681344034A1360FB6818461037DF
:10316C00BD4680BD840100209801002080B400AFD2
:10317C0000BFBD4680BC70470C480D490D4A00236A
:10318C0002E0D458C4500433C4188C42F9D30A4A10
:10319C000A4C002301E013600432A242FBD3FFF778
:1031AC00E5FF00F015F8FFF7FFFC7047000000206A
:1031BC0070000020B43B0008700000209801002033
:1031CC00FEE70000014B1868704700BF0C000020A0
:1031DC0070B500260C4D0D4C641BA410A64209D1F1
:1031EC0000F09CFC00260A4D0A4C641BA410A6425D
:1031FC0005D170BD55F8043B98470136EEE755F8FC
:10320C00043B98470136F2E7AC3B0008AC3B0008A6
:10321C00AC3B0008B03B000803460244934200D18B
:10322C00704703F8011BF9E70EB46FF0004100B5CD
:10323C009CB01DAB02900690079104910848094977
:10324C0053F8042B0591006802A9019300F068F86B
:10325C000022029B1A701CB05DF804EB03B070479F
:10326C000C0000200802FFFF2DE9F0478E68824613
:10327C009E420C4690461F4638D88A8912F4906FAD
:10328C0032D0256809690133A5EB010965694B4406
:10329C0005EB450505EBD5756D109D4238BF1D46F8
:1032AC00530531D5294600F06FFB064650B90C2367
:1032BC004FF0FF30CAF80030A38943F04003A381DC
:1032CC00BDE8F0874A46216900F0CEFAA38923F4C1
:1032DC00906343F08003A38126614E4426603E46F2
:1032EC006561A5EB0905A560BE4200D93E46324694
:1032FC004146206800F0C6FAA36800209B1BA3601F
:10330C00236833442360DBE72A4600F0B1FB064612
:10331C000028E1D15046216900F0CEFAC7E7000041
:10332C002DE9F04F98468B8907461B060D4614462F
:10333C009DB00ED50B6963B9402100F025FB2860C8
:10334C00286120B90C233B604FF0FF30D1E04023C3
:10335C006B610023099320238DF8293030234FF023
:10336C000109CDF80C80DFF8A4818DF82A302346B2
:10337C009A4613F8012B0AB1252AF9D1BAEB040BA2
:10338C000BD05B46224629463846FFF76DFF0130CD
:10339C0000F0AA80099A5A4409929AF80030002B3E
:1033AC0000F0A28000234FF0FF32CDE905230AF193
:1033BC00010A049307938DF853301A93544605224F
:1033CC0014F8011B514800F041FA049AD8B9D00600
:1033DC0044BF20238DF85330110744BF2B238DF8A5
:1033EC0053309AF800302A2B15D0544600204FF059
:1033FC000A0C079A214611F8013B303B092B4ED998
:10340C00B0B1079214E0A0EB080309FA03F31343DD
:10341C00A2460493D2E7039B191D1B680391002B52
:10342C00BBBF5B4242F0020207930793B8BF049202
:10343C0023782E2B0CD163782A2B35D1039B0234A5
:10344C001A1D1B680392002BB8BF4FF0FF33059376
:10345C00DFF8BCA003225046217800F0F7F940B108
:10346C004023A0EB0A0003FA00F0049B0134034351
:10347C00049314F8011B062226488DF8281000F03E
:10348C00E5F9002838D0244B1BBB039B073323F0F2
:10349C00070308330393099B3344099367E70C46EE
:1034AC0001200CFB0232A5E700234FF00A0C194651
:1034BC0001340593204610F8012B303A092A03D920
:1034CC00002BC5D00591C3E7044601230CFB012159
:1034DC00F0E703AB00932A463846104B04A9AFF330
:1034EC000080421C0646D6D1AB895B063FF52CAF5B
:1034FC0009981DB0BDE8F08F03AB00932A463846FF
:10350C00064B04A900F07CF8EBE700BF783B000801
:10351C007E3B0008823B000800000000753200086A
:10352C002DE9F047164699468A680B69074693427F
:10353C00B8BF1346336091F843200C46DDF8208069
:10354C000AB1013333602368990642BF33680233F2
:10355C003360256815F0060506D104F1190AE368F5
:10356C0032689B1AAB4228DC94F84320131E226865
:10357C0018BF012392062DD44946384604F1430264
:10358C00C047013020D02368E56803F00603042B04
:10359C0018BF002532684FF00006A36808BFAD1AAB
:1035AC00226908BF25EAE5759342C4BF9B1AED1842
:1035BC001A34B5421AD1002008E00123524649467C
:1035CC003846C047013003D14FF0FF30BDE8F087DB
:1035DC000135C4E73020E11881F843005A1C94F8F7
:1035EC0045102244023382F84310C5E701232246DA
:1035FC0049463846C0470130E6D00136D9E70000CD
:10360C002DE9FF470F7E9146782F80460C469A464F
:10361C000C9D01F1430207D8622F0AD8002F00F04D
:10362C00D980582F00F0A48004F1420584F8427030
:10363C003AE0A7F16303152BF6D801A151F823F05A
:10364C00A5360008B93600083536000835360008AE
:10365C003536000835360008B9360008353600080E
:10366C00353600083536000835360008C7370008EF
:10367C00E9360008A9370008353600083536000849
:10368C00E937000835360008E936000835360008F9
:10369C0035360008B13700082B681A1D1B682A60E4
:1036AC0004F1420584F842300123A4E02068296823
:1036BC00060601F104030AD50E682B60002E03DA0E
:1036CC002D23764284F843300A235E4819E00E68B5
:1036DC0010F0400F2B6018BF36B2EFE72B68206854
:1036EC00191D2960010601D51E6802E04606FBD5AE
:1036FC001E886F2F0CBF08230A235248002184F820
:10370C0043106568002DA8BF2168A560A4BF21F0F7
:10371C00040121600EB9002D4DD01546B6FBF3F116
:10372C0003FB1167C75D05F8017D3746BB420E46AA
:10373C00F4D9082B0BD12368DE0708D523696168FF
:10374C009942DEBF302305F8013C05F1FF35521BD1
:10375C0022614B4621464046CDF800A003AAFFF754
:10376C00DFFE01304CD14FF0FF3004B0BDE8F087E4
:10377C00344881F845702968236851F8046B296036
:10378C001D0614D5DF0744BF43F0200323601EB988
:10379C00236823F0200323601023AFE7236843F052
:1037AC00200323607823284884F84530E3E7590642
:1037BC0048BFB6B2E6E71546BBE72B682668181D6E
:1037CC006169286035061B6801D5196002E0700636
:1037DC00FBD51980002315462361BAE72B6800211D
:1037EC001A1D2A601D686268284600F02FF808B17F
:1037FC00401B606063682361002384F84330A8E7B2
:10380C002A46494640462369D0470130ABD023684D
:10381C009B0713D4E068039B9842B8BF1846A4E7F3
:10382C000123324649464046D04701309BD00135F2
:10383C00E36803995B1AAB42F2DCEBE7002504F179
:10384C001906F5E7893B00089A3B0008034610B5BA
:10385C00C9B202449342184601D1002003E0047817
:10386C0001338C42F6D110BD0A44914200F1FF3372
:10387C0000D1704710B511F8014B914203F8014F7C
:10388C00F9D110BD884210B501EB020402D9844273
:10389C00234607D8431EA14208D011F8012B03F888
:1038AC00012FF8E7014602448A4200D110BD13F8FB
:1038BC00014D02F8014DF7E738B50546002940D017
:1038CC0051F8043C0C1F002BB8BFE41800F010F9A1
:1038DC001C4A136833B9636014602846BDE838404D
:1038EC0000F00CB9A34208D9206821188B4201BF03
:1038FC0019685B6809182160EDE71A465B680BB123
:10390C00A342FAD911685018A0420BD12068014487
:10391C00501883421160E0D118685B680144116053
:10392C005360DAE702D90C232B60D6E72068211804
:10393C008B4201BF19685B68091821606360546091
:10394C00CBE738BD8801002070B50E4E0C463168AF
:10395C00054611B900F0BCF830602146284600F04D
:10396C00B7F8431C0AD0C41C24F00304A04207D0AF
:10397C00211A284600F0ACF8013001D14FF0FF3489
:10398C00204670BD8C0100202DE9F041CD1C25F0A6
:10399C00030508350C2D38BF0C25002D074601DB1F
:1039AC00A94205D90C2300263B603046BDE8F081C6
:1039BC002E4E00F09DF833681C4634BB2946384621
:1039CC00FFF7C2FF431C04464DD134682646002E37
:1039DC0040D123683146384604EB030800F078F8F0
:1039EC0080453AD1216803356D1A25F00305083559
:1039FC000C2D38BF0C2538462946FFF7A5FF0130A2
:103A0C002BD023682B4423600EE02268521B1ED45B
:103A1C000B2A16D96119A342256018BF5960636837
:103A2C0008BF316062514B60384604F10B0600F060
:103A3C0065F826F00706231DF21AB6D09B1BA3507F
:103A4C00B3E76268A3420CBF32605A60ECE72346CE
:103A5C006468B2E734467668B9E70C2338463B60B5
:103A6C0000F04CF8A1E72560DEE700BF88010020DC
:103A7C002DE9F041804614460E4621B91146BDE8A9
:103A8C00F041FFF781BF2AB9FFF716FF25462846FC
:103A9C00BDE8F08100F038F88442074602D8B4EB58
:103AAC00500F12D821464046FFF76EFF05460028FE
:103ABC00EDD0BC422246314628BF3A46FFF7D4FE31
:103ACC0031464046FFF7F8FEE1E73546DFE70000F8
:103ADC0038B50023054D044608462B60FFF71AFB4A
:103AEC00431C02D12B6803B1236038BD9001002028
:103AFC00014800F011B800BF94010020014800F00B
:103B0C000CB800BF9401002051F8043C181F002B86
:103B1C00BCBF0B58C018704770477047F8B500BF52
:103B2C00F8BC08BC9E467047F8B500BFF8BC08BC92
:043B3C009E467047EA
:103B400002030405060708090A0B0C0D0E0F1010DE
:103B50004144432056414C202564200A0D000000BA
:103B6000000000000000000001020304060708092D
:103B70000000000001020304232D302B2000686C9C
:103B80004C00656667454647003031323334353680
:103B900037383941424344454600303132333435B9
:0C3BA000363738396162636465660000E6
:043BAC0031010008DB
:043BB0000D010008FB
:103BB40010000000010000000024F40010000020A8
:103BC40000000000000000000000000000000000F1
:103BD40000000000000000000000000000000000E1
:103BE40000000000000000000000000000000000D1
:103BF40000000000000000000000000000000000C1
:103C040000000000000000000000000000000000B0
:103C140000000000000000000000000000000000A0
:040000050800318539
:00000001FF
