:020000040800F2
:100000000028002031290008D1280008DD28000838
:10001000E3280008E9280008EF2800080000000095
:10002000000000000000000000000000F5280008AB
:1000300001290008000000000D2900081929000806
:100040007929000879290008792900087929000808
:1000500079290008792900087929000879290008F8
:1000600079290008792900087929000879290008E8
:1000700079290008792900087929000879290008D8
:1000800079290008792900087929000879290008C8
:1000900079290008792900087929000879290008B8
:1000A00079290008792900087929000879290008A8
:1000B0007929000879290008000000007929000842
:1000C00079290008000000000000000079290008DC
:1000D00000000000792900087929000800000000CC
:1000E0007929000879290008792900080000000012
:1000F0000000000000000000000000000000000000
:0C01000000000000000000005FF808F1A3
:10010C0010B5054C237833B9044B13B10448AFF345
:10011C0000800123237010BD30000020000000007F
:10012C00D429000808B5034B1BB103490348AFF3AE
:10013C00008008BD0000000034000020D429000815
:10014C0080B500AF084B1B68074A43F010031360DF
:10015C00032000F02BF9002000F008F802F042FB1D
:10016C000023184680BD00BF0020024080B582B03D
:10017C0000AF7860124B1A68124B1B7819464FF47B
:10018C007A73B3FBF1F3B2FBF3F3184600F035F9D5
:10019C000346002B01D001230EE07B680F2B0AD8FD
:1001AC00002279684FF0FF3000F00BF9064A7B68AB
:1001BC001360002300E0012318460837BD4680BDBC
:1001CC002C000020040000200000002080B400AFB0
:1001DC00054B1B781A46054B1B681344034A1360E6
:1001EC0000BFBD4680BC7047040000204C000020BE
:1001FC0080B400AF024B1B681846BD4680BC7047EC
:10020C004C00002080B584B000AF7860FFF7F0FFA1
:10021C00B8607B68FB60FB68B3F1FF3F05D00A4B0D
:10022C001B781A46FB681344FB6000BFFFF7E0FF26
:10023C000246BB68D31AFA689A42F7D800BF00BFCF
:10024C001037BD4680BD00BF0400002080B485B0CF
:10025C0000AF78607B6803F00703FB600C4BDB6836
:10026C00BB60BA684FF6FF031340BB60FB681A0211
:10027C00BB68134343F0BF6343F40033BB60044AD1
:10028C00BB68D36000BF1437BD4680BC704700BF4D
:10029C0000ED00E080B400AF044BDB681B0A03F0F8
:1002AC0007031846BD4680BC704700BF00ED00E058
:1002BC0080B483B000AF03463960FB7197F9073007
:1002CC00002B0ADB3B68DAB20C4997F907301201B4
:1002DC00D2B20B4483F800230AE03B68DAB2084937
:1002EC00FB7903F00F03043B1201D2B20B441A76D4
:1002FC0000BF0C37BD4680BC704700BF00E100E07A
:10030C0000ED00E080B489B000AFF860B9607A60AD
:10031C00FB6803F00703FB61FB69C3F10703042BC4
:10032C0028BF0423BB61FB690433062B02D9FB698C
:10033C00033B00E000237B614FF0FF32BB6902FA04
:10034C0003F3DA43BB681A407B699A404FF0FF31E4
:10035C007B6901FA03F3D9437B680B4013431846BE
:10036C002437BD4680BC704780B582B000AF786042
:10037C007B68013BB3F1807F01D301230FE00A4A74
:10038C007B68013B53600F214FF0FF30FFF790FF6C
:10039C00054B00229A60044B07221A600023184672
:1003AC000837BD4680BD00BF10E000E080B582B0CC
:1003BC0000AF78607868FFF749FF00BF0837BD468B
:1003CC0080BD80B586B000AF0346B9607A60FB7320
:1003DC0000237B61FFF75EFF78617A68B968786902
:1003EC00FFF790FF024697F90F3011461846FFF7BA
:1003FC005FFF00BF1837BD4680BD80B582B000AF2F
:10040C0078607868FFF7B0FF034618460837BD469A
:10041C0080BD000080B48BB000AF786039600023E1
:10042C007B6200233B6261E101227B6A02FA03F3E7
:10043C00FB613B681B68FA691340BB61BA69FB69D5
:10044C009A4240F050813B685B68974A93425ED079
:10045C00954A934275D8954A934258D0934A934201
:10046C006FD8934A934252D0914A934269D8914A99
:10047C0093424CD08F4A934263D88F4A934246D0D2
:10048C008D4A93425DD8122B2AD8122B59D801A22F
:10049C0052F823F01B050008F504000807050008B6
:1004AC00490500084F0500084F0500084F050008D6
:1004BC004F0500084F0500084F0500084F050008C0
:1004CC004F0500084F0500084F0500084F050008B0
:1004DC004F0500084F050008FD0400081105000831
:1004EC00764A934213D02CE03B68DB683B6229E0F0
:1004FC003B68DB6804333B6224E03B68DB68083311
:10050C003B621FE03B68DB680C333B621AE03B68E4
:10051C009B68002B02D104233B6213E03B689B6871
:10052C00012B05D108233B627B68FA691A6109E04B
:10053C0008233B627B68FA695A6103E000233B6243
:10054C0000E000BFBB69FF2B01D87B6801E07B6832
:10055C0004337B61BB69FF2B02D87B6A9B0002E0F2
:10056C007B6A083B9B003B617B691A680F213B69E6
:10057C0001FA03F3DB431A40396A3B6901FA03F3CE
:10058C001A437B691A603B685B6803F08053002B4D
:10059C0000F0A9804A4B9B69494A43F001039361DF
:1005AC00474B9B6903F00103BB60BB68454A7B6A00
:1005BC009B08023352F82330FB607B6A03F0030381
:1005CC009B000F2202FA03F3DB43FA681340FB6033
:1005DC007B683D4A93420DD07B683C4A934207D0DE
:1005EC007B683B4A934201D1022304E0032302E0DF
:1005FC00012300E000237A6A02F003029200934088
:10060C00FA681343FB602F497B6A9B080233FA6834
:10061C0041F823203B685B6803F48033002B06D041
:10062C002C4B1A682B49BB6913430B6006E0294B12
:10063C001A68BB69DB43274913400B603B685B6856
:10064C0003F40033002B06D0224B5A682149BB69B6
:10065C0013434B6006E01F4B5A68BB69DB431D49D3
:10066C0013404B603B685B6803F48013002B06D08F
:10067C00184B9A681749BB6913438B6006E0154BFE
:10068C009A68BB69DB43134913408B603B685B681A
:10069C0003F40013002B1FD00E4BDA680D49BB6915
:1006AC001343CB601FE000BF00003210000031107C
:1006BC000000221000002110000012100000111088
:1006CC00001002400000014000080140000C0140F5
:1006DC0000100140000401400B4BDA68BB69DB439E
:1006EC0009491340CB607B6A01337B623B681A6813
:1006FC007B6A22FA03F3002B7FF496AE00BF00BF97
:10070C002C37BD4680BC70470004014080B483B0D8
:10071C0000AF78600B467B8013467B707B78002B98
:10072C0003D07A887B681A6103E07B881A047B68A3
:10073C001A6100BF0C37BD4680BC704780B586B0CF
:10074C0000AF78607B68002B01D1012372E27B68DB
:10075C001B6803F00103002B00F08780924B5B6851
:10076C0003F00C03042B0CD08F4B5B6803F00C03D1
:10077C00082B12D18C4B5B6803F48033B3F5803FAC
:10078C000BD1894B1B6803F40033002B6CD07B68B6
:10079C005B68002B68D101234CE27B685B68B3F586
:1007AC00803F06D1804B1B687F4A43F48033136033
:1007BC002EE07B685B68002B0CD17B4B1B687A4A64
:1007CC0023F480331360784B1B68774A23F480231F
:1007DC0013601DE07B685B68B3F5A02F0CD1724BE6
:1007EC001B68714A43F4802313606F4B1B686E4A7D
:1007FC0043F4803313600BE06B4B1B686A4A23F4A1
:10080C0080331360684B1B68674A23F480231360A2
:10081C007B685B68002B13D0FFF7EAFC386108E0BB
:10082C00FFF7E6FC02463B69D31A642B01D903237C
:10083C0000E25D4B1B6803F40033002BF0D014E096
:10084C00FFF7D6FC386108E0FFF7D2FC02463B69A3
:10085C00D31A642B01D90323ECE1534B1B6803F42B
:10086C000033002BF0D100E000BF7B681B6803F065
:10087C000203002B63D04C4B5B6803F00C03002B82
:10088C000BD0494B5B6803F00C03082B1CD1464B77
:10089C005B6803F48033002B16D1434B1B6803F0C9
:1008AC000203002B05D07B681B69012B01D00123AF
:1008BC00C0E13D4B1B6823F0F8027B685B69DB00F1
:1008CC00394913430B603AE07B681B69002B20D03D
:1008DC00364B01221A60FFF78BFC386108E0FFF7FA
:1008EC0087FC02463B69D31A022B01D90323A1E1F1
:1008FC002D4B1B6803F00203002BF0D02A4B1B6816
:10090C0023F0F8027B685B69DB00274913430B601B
:10091C0015E0264B00221A60FFF76AFC386108E0EC
:10092C00FFF766FC02463B69D31A022B01D903235D
:10093C0080E11D4B1B6803F00203002BF0D17B6898
:10094C001B6803F00803002B3AD07B689B69002BD3
:10095C0019D0174B01221A60FFF74AFC386108E0E6
:10096C00FFF746FC02463B69D31A022B01D903233D
:10097C0060E10D4B5B6A03F00203002BF0D0012009
:10098C0000F0A6FA1CE00A4B00221A60FFF730FCBC
:10099C0038610FE0FFF72CFC02463B69D31A022B9F
:1009AC0008D9032346E100BF001002400000424278
:1009BC0080044242924B5B6A03F00203002BE9D1A4
:1009CC007B681B6803F00403002B00F0A680002357
:1009DC00FB758B4BDB6903F08053002B0DD1884BDF
:1009EC00DB69874A43F08053D361854BDB6903F0A5
:1009FC008053BB60BB680123FB75824B1B6803F4FF
:100A0C008073002B18D17F4B1B687E4A43F4807394
:100A1C001360FFF7EDFB386108E0FFF7E9FB0246D6
:100A2C003B69D31A642B01D9032303E1754B1B6873
:100A3C0003F48073002BF0D07B68DB68012B06D1AC
:100A4C006F4B1B6A6E4A43F0010313622DE07B6807
:100A5C00DB68002B0CD16A4B1B6A694A23F001033B
:100A6C001362674B1B6A664A23F0040313621CE093
:100A7C007B68DB68052B0CD1614B1B6A604A43F029
:100A8C00040313625E4B1B6A5D4A43F0010313625D
:100A9C000BE05B4B1B6A5A4A23F001031362584B61
:100AAC001B6A574A23F0040313627B68DB68002B34
:100ABC0015D0FFF79DFB38610AE0FFF799FB024662
:100ACC003B69D31A41F28832934201D90323B1E036
:100ADC004B4B1B6A03F00203002BEED014E0FFF724
:100AEC0087FB38610AE0FFF783FB02463B69D31AA8
:100AFC0041F28832934201D903239BE0404B1B6A9D
:100B0C0003F00203002BEED1FB7D012B05D13C4BF6
:100B1C00DB693B4A23F08053D3617B68DB69002B94
:100B2C0000F08780364B5B6803F00C03082B61D018
:100B3C007B68DB69022B46D1334B00221A60FFF72E
:100B4C0057FB386108E0FFF753FB02463B69D31AA9
:100B5C00022B01D903236DE0294B1B6803F00073B2
:100B6C00002BF0D17B681B6AB3F5803F08D1244B76
:100B7C005B6823F400327B689B68214913434B600C
:100B8C001F4B5B6823F474127B68196A7B685B6A81
:100B9C000B431B4913434B601B4B01221A60FFF79D
:100BAC0027FB386108E0FFF723FB02463B69D31AA9
:100BBC00022B01D903233DE0114B1B6803F000739A
:100BCC00002BF0D035E0104B00221A60FFF710FB21
:100BDC00386108E0FFF70CFB02463B69D31A022B85
:100BEC0001D9032326E0064B1B6803F00073002B8E
:100BFC00F0D11EE07B68DB69012B07D1012319E0E2
:100C0C000010024000700040600042420B4B5B68D9
:100C1C00FB60FB6803F480327B681B6A9A4206D146
:100C2C00FB6803F470127B685B6A9A4201D0012363
:100C3C0000E0002318461837BD4680BD0010024066
:100C4C0080B584B000AF786039607B68002B01D12F
:100C5C000123D0E06A4B1B6803F007033A689A4201
:100C6C0010D9674B1B6823F0070265493B68134397
:100C7C000B60634B1B6803F007033A689A4201D080
:100C8C000123B8E07B681B6803F00203002B20D023
:100C9C007B681B6803F00403002B05D0594B5B6881
:100CAC00584A43F4E06353607B681B6803F0080305
:100CBC00002B05D0534B5B68524A43F4605353608E
:100CCC00504B5B6823F0F0027B689B684D491343E3
:100CDC004B607B681B6803F00103002B40D07B68E2
:100CEC005B68012B07D1474B1B6803F40033002BC7
:100CFC0015D101237FE07B685B68022B07D1414B48
:100D0C001B6803F00073002B09D1012373E03D4BEA
:100D1C001B6803F00203002B01D101236BE0394B5C
:100D2C005B6823F003027B685B68364913434B60B6
:100D3C00FFF75EFAF8600AE0FFF75AFA0246FB6822
:100D4C00D31A41F28832934201D9032353E02D4B3D
:100D5C005B6803F00C027B685B689B009A42EBD1EA
:100D6C00274B1B6803F007033A689A4210D2244BB6
:100D7C001B6823F0070222493B6813430B60204B8E
:100D8C001B6803F007033A689A4201D0012332E052
:100D9C007B681B6803F00403002B08D0194B5B68BD
:100DAC0023F4E0627B68DB68164913434B607B6875
:100DBC001B6803F00803002B09D0124B5B6823F46B
:100DCC0060527B681B69DB000E4913434B6000F0DB
:100DDC0021F802460B4B5B681B0903F00F030A4911
:100DEC00CB5C22FA03F3094A1360094B1B681846C3
:100DFC00FFF7BCF9002318461037BD4680BD00BF75
:100E0C0000200240001002400C5300082C0000206F
:100E1C000000002090B48AB000AF294B3C1D0FCBD2
:100E2C0084E80F0040F201233B800023FB61002388
:100E3C00BB6100237B6200237B6100233B62214B5F
:100E4C005B68FB61FB6903F00C03042B02D0082BDD
:100E5C0003D02BE01C4B3B622BE0FB699B0C03F09B
:100E6C000F0328333B4413F8243C7B61FB6903F4E8
:100E7C008033002B12D0134B5B685B0C03F0010327
:100E8C0028333B4413F8283CBB617B690E4A03FBB7
:100E9C0002F2BB69B2FBF3F37B6204E07B690B4AA1
:100EAC0002FB03F37B627B6A3B6202E0064B3B6214
:100EBC0000BF3B6A18462837BD4690BC704700BF40
:100ECC00EC2900080010024000127A0000093D00D5
:100EDC0080B485B000AF78600A4B1B680A4AA2FB4D
:100EEC0003235B0A7A6802FB03F3FB6000BFFB6819
:100EFC005A1EFA60002BF9D100BF00BF1437BD4653
:100F0C0080BC70472C000020D34D621080B582B09D
:100F1C0000AF78607B68002B01D1012376E07B6801
:100F2C005B6A002B08D17B685B68B3F5827F09D0C4
:100F3C007B680022DA6105E07B6800221A617B681D
:100F4C0000225A617B6800229A627B6893F85130C8
:100F5C00DBB2002B06D17B68002283F85020786826
:100F6C0001F072FC7B68022283F851207B681B68BD
:100F7C001A687B681B6822F040021A607B685B6809
:100F8C0003F482727B689B6803F404431A437B6806
:100F9C00DB6803F400631A437B681B6903F00203EC
:100FAC001A437B685B6903F001031A437B689B69F6
:100FBC0003F400731A437B68DB6903F038031A43AC
:100FCC007B681B6A03F0800342EA03017B689B6A1F
:100FDC0003F400527B681B680A431A607B689B69A8
:100FEC001A0C7B681B6802F004025A607B681B6851
:100FFC00DA697B681B6822F40062DA617B68002284
:10100C005A657B68012283F8512000231846083763
:10101C00BD4680BD80B588B000AFF860B9603B605C
:10102C001346FB800023FB77FB6893F85030012BB1
:10103C0001D1022326E1FB68012283F85020FFF73F
:10104C00D7F8B861FB88FB82FB6893F85130DBB2B0
:10105C00012B02D00223FB770BE1BB68002B02D0E3
:10106C00FB88002B02D10123FB7702E1FB680322F2
:10107C0083F85120FB6800225A65FB68BA681A6332
:10108C00FB68FA889A86FB68FA88DA86FB68002285
:10109C009A63FB6800229A87FB680022DA87FB6858
:1010AC0000225A64FB6800221A64FB689B68B3F543
:1010BC00004F0FD1FB681B681A68FB681B6822F095
:1010CC0040021A60FB681B681A68FB681B6842F4D4
:1010DC0080421A60FB681B681B6803F04003402BBE
:1010EC0007D0FB681B681A68FB681B6842F040025B
:1010FC001A60FB68DB68B3F5006F4BD1FB685B686B
:10110C00002B02D0FB8A012B3ED1FB681B6B1A888B
:10111C00FB681B68DA60FB681B6B9A1CFB681A6324
:10112C00FB68DB8E9BB2013B9AB2FB68DA862BE044
:10113C00FB681B689B6803F00203022B12D1FB684F
:10114C001B6B1A88FB681B68DA60FB681B6B9A1CAC
:10115C00FB681A63FB68DB8E9BB2013B9AB2FB689F
:10116C00DA8611E0FFF744F80246BB69D31A3A68F5
:10117C009A4203D83B68B3F1FF3F02D13B68002B86
:10118C0002D10323FB7774E0FB68DB8E9BB2002B50
:10119C00CED14CE0FB685B68002B02D0FB8A012BA4
:1011AC0040D1FB681A6BFB681B680C3312781A7001
:1011BC00FB681B6B5A1CFB681A63FB68DB8E9BB2CB
:1011CC00013B9AB2FB68DA862CE0FB681B689B68D3
:1011DC0003F00203022B13D1FB681A6BFB681B682C
:1011EC000C3312781A70FB681B6B5A1CFB681A6361
:1011FC00FB68DB8E9BB2013B9AB2FB68DA8611E08E
:10120C00FEF7F6FF0246BB69D31A3A689A4203D836
:10121C003B68B3F1FF3F02D13B68002B02D10323A3
:10122C00FB7726E0FB68DB8E9BB2002BCDD1BA6935
:10123C003968F86800F0B2F80346002B02D0FB685E
:10124C0020225A65FB689B68002B0AD100233B6166
:10125C00FB681B68DB683B61FB681B689B683B6138
:10126C003B69FB685B6D002B02D00123FB7700E030
:10127C0000BFFB68012283F85120FB68002283F831
:10128C005020FB7F18462037BD4680BD80B588B006
:10129C0000AFF860B9603B601346FB71FEF7A8FF26
:1012AC000246BB6A9B1A3A681344FB61FEF7A0FF27
:1012BC00B861394B1B685B011B0DFA6902FB03F328
:1012CC007B6154E03B68B3F1FF3F50D0FEF790FFD9
:1012DC000246BB69D31AFA699A4202D9FB69002B00
:1012EC003DD1FB681B685A68FB681B6822F0E00262
:1012FC005A60FB685B68B3F5827F11D1FB689B6811
:10130C00B3F5004F04D0FB689B68B3F5806F07D131
:10131C00FB681B681A68FB681B6822F040021A60A5
:10132C00FB689B6AB3F5005F0FD1FB681B681A68FA
:10133C00FB681B6822F400521A60FB681B681A6871
:10134C00FB681B6842F400521A60FB68012283F8A8
:10135C005120FB68002283F85020032317E07B699F
:10136C00002B01D10023FB617B69013B7B61FB6896
:10137C001B689A68BB681340BA689A420CBF012379
:10138C000023DBB21A46FB799A429BD10023184604
:10139C002037BD4680BD00BF2C00002080B586B034
:1013AC0002AFF860B9607A607B680093BB6800227A
:1013BC008021F868FFF76AFF0346002B07D0FB6813
:1013CC005B6D43F02002FB685A65032300E00023A9
:1013DC0018461037BD4680BD80B400AF00BFBD4677
:1013EC0080BC704780B500AF00224FF48051074895
:1013FC00FFF78CF91420FEF705FF01224FF4805102
:10140C000248FFF783F900BF80BD00BF000C01400C
:10141C0080B582B000AF0346FB7100224FF400513F
:10142C000648FFF773F9F91D4FF0FF33012204480A
:10143C00FFF7F0FD00BF0837BD4680BD000C014032
:10144C005400002080B582B000AF78603960012272
:10145C004FF400510748FFF759F93B689AB24FF027
:10146C00FF3379680448FFF7D5FD00BF0837BD4648
:10147C0080BD00BF000C01405400002080B584B03A
:10148C0000AF78607B685A1C7A601B78FB7334E081
:10149C007B685A1C7A601B78FB72FB7A1846FFF744
:1014AC00B7FF7B685A1C7A601B78BB72BB7A9BB205
:1014BC0003F08003BB81BB7A03F07F03BB72BB7A62
:1014CC00002B08D0BB7A19467868FFF7BBFFBB7AB4
:1014DC007A6813447B60BB89002B0ED07B685A1C46
:1014EC007A601B78BB81BB89FF2B02D14FF4FA7356
:1014FC00BB81BB891846FEF785FEFB7B5A1EFA732F
:10150C00002BC5D100BF00BF1037BD4680BD000009
:10151C0090B585B000AF0446084611461A462346DE
:10152C00FB710346BB710B467B7113463B712A2042
:10153C00FFF76EFF00233B73174B1A78FB791344AC
:10154C00DBB27B730023BB73134B1A787B79134488
:10155C00DBB2FB7307F10C0304211846FFF772FF93
:10156C002B20FFF755FF0D4B1A78BB791344DBB2D8
:10157C007B730A4B1A783B791344DBB2FB7307F18C
:10158C000C0304211846FFF75DFF2C20FFF740FFEA
:10159C0000BF1437BD4690BD100000201100002084
:1015AC0082B090B589B000AF7B630346FB800B46DD
:1015BC00BB801346FB70FB88D8B2BB88D9B2FB88C2
:1015CC00DAB297F834301344DBB2013BDCB2BB889F
:1015DC00DAB297F835301344DBB2013BDBB222466A
:1015EC00FFF796FF0023FB6143E0BA6BFB78203BCF
:1015FC0097F8351001FB03F31946FB690B445B00AC
:10160C0013441B887B610023BB6129E07A69BB69A9
:10161C0002FA03F303F40043002B0ED0BB8F1B0A1A
:10162C009BB2DBB23B74BB8FDBB27B7407F1100354
:10163C0002211846FFF706FF0FE0B7F840301B0AEF
:10164C009BB2DBB23B73B7F84030DBB27B7307F174
:10165C000C0302211846FFF7F5FEBB690133BB6191
:10166C0097F834301A46BB699342CFD3FB690133E8
:10167C00FB6197F835301A46FB699342B5D300BF2E
:10168C0000BF2437BD46BDE8904002B07047000053
:10169C0080B500AFFFF7A0FE00224FF480410B484D
:1016AC00FFF734F8FFF79EFE0948FFF7E7FE0948FD
:1016BC00FFF7E4FE0848FFF7E1FE01224FF48041FA
:1016CC000248FFF723F800BF80BD00BF000C0140AB
:1016DC00802A0008BC2A0008CC2A000880B584B0F7
:1016EC0000AF0346FB800B46BB8013467B80FB8818
:1016FC001B4AB2F9002093422EDABB88194AB2F980
:10170C000020934228DA00224FF480411648FEF75D
:10171C00FDFFFB88D8B2BB88D9B2FB88DBB20133A2
:10172C00DAB2BB88DBB20133DBB2FFF7F1FE7B88A8
:10173C001B0A9BB2DBB23B737B88DBB27B7307F17A
:10174C000C0302211846FFF77DFE01224FF4804165
:10175C000548FEF7DBFF00E000BF1037BD4680BD3B
:10176C000E0000200C000020000C014082B080B55F
:10177C0086B004AF3A607B610346FB800B46BB80AE
:10178C0000224FF480412548FEF7C0FF33E0FB8870
:10179C003A7D1344224AB2F90020934216DB00230F
:1017AC00FB807B7D9AB2BB881344BB80BB887A7D5F
:1017BC0013441C4AB2F90020934221DA3B681B788F
:1017CC00202B03D13B6801333B6014E03B681A7853
:1017DC00B988F8883B8C0293BB8B0193BB6900934F
:1017EC007B69FFF7DDFE3B7D9AB2FB881344FB80DF
:1017FC003B6801333B603B681B78002BC7D100E092
:10180C0000BF01224FF480410448FEF77FFF00BF68
:10181C000837BD46BDE8804002B07047000C01405F
:10182C000E0000200C00002090B585B000AF0446DF
:10183C00084611461A462346FB800346BB800B46DE
:10184C007B8013463B80FB883C4AB2F900209342D4
:10185C006FDABB883A4AB2F90020934269DAFA8807
:10186C007B881344354AB2F90020934206DD334B92
:10187C00B3F900309AB2FB88D31A7B80BA883B88C4
:10188C0013442F4AB2F90020934206DD2C4BB3F9D6
:10189C0000309AB2BB88D31A3B8000224FF48041AF
:1018AC002848FEF733FFFB88D8B2BB88D9B2FB8837
:1018BC00DAB27B88DBB21344DBB2013BDCB2BB880F
:1018CC00DAB23B88DBB21344DBB2013BDBB222461B
:1018DC00FFF71EFE3B8C1B0A9BB2DBB23B733B8CAF
:1018EC00DBB27B7301224FF400511648FEF70EFF5A
:1018FC003B88BB8013E07B88FB800AE007F10C017E
:10190C004FF0FF3302221048FFF784FBFB88013BAA
:10191C00FB80FB88002BF1D1BB88013BBB80BB88D3
:10192C00002BE8D101224FF480410648FEF7EEFE71
:10193C0000E000BF1437BD4690BD00BF0E00002074
:10194C000C000020000C01405400002080B584B035
:10195C0002AF0346FB80094BB3F900309AB2084B37
:10196C00B3F9003099B2FB8800930B46002100209C
:10197C00FFF75AFF00BF0837BD4680BD0E000020A0
:10198C000C00002080B500AF01224FF4004102484A
:10199C00FEF7BCFE00BF80BD000C014090B585B0C9
:1019AC0000AF0446084611461A462346FB80034600
:1019BC00BB800B467B8013463B807B88C3F10103C5
:1019CC009BB2FB810123BB817B885B429AB27B88F3
:1019DC00D31A9BB27B8100233B81FA887B8813440A
:1019EC009BB2B9883A881846FFF778FEFA887B884C
:1019FC00D31A9BB2B9883A881846FFF76FFEF8885D
:101A0C00BA887B88D31A9BB23A881946FFF766FED0
:101A1C00F888BA887B8813449BB23A881946FFF73A
:101A2C005DFE81E0B7F90E30002B0EDBB7F902300A
:101A3C009BB2013B9BB27B807B8902339BB27B8147
:101A4C00FA897B8913449BB2FB81B7F908309BB2AE
:101A5C0001339BB23B81BB8902339BB2BB81FA89B8
:101A6C00BB8913449BB2FB81FA883B89134498B21F
:101A7C00BA887B8813449BB23A881946FFF72EFE2E
:101A8C00FA883B89D31A98B2BA887B8813449BB2E4
:101A9C003A881946FFF722FEFA883B89D31A98B286
:101AAC00BA887B88D31A9BB23A881946FFF716FE80
:101ABC00FA883B89134498B2BA887B88D31A9BB2B4
:101ACC003A881946FFF70AFEFA887B88134498B2C5
:101ADC00BA883B8913449BB23A881946FFF7FEFD3E
:101AEC00FA887B88D31A98B2BA883B8913449BB284
:101AFC003A881946FFF7F2FDFA887B88D31A98B218
:101B0C00BA883B89D31A9BB23A881946FFF7E6FD8F
:101B1C00FA887B88134498B2BA883B89D31A9BB253
:101B2C003A881946FFF7DAFDB7F90820B7F9023001
:101B3C009A42FFF677AF00BF00BF1437BD4690BD89
:101B4C0090B58DB000AF0446084611461A462346A0
:101B5C00FB800346BB800B467B8013463B80B7F96A
:101B6C000420B7F900309A420BDDBB887B843B889C
:101B7C00BB807B8C3B80FB883B847B88FB803B8CD5
:101B8C007B80B7F90020B7F944309A420FDDB7F8E3
:101B9C004430FB833B88A7F84430FB8B3B80B7F881
:101BAC004030BB837B88A7F84030BB8B7B80B7F978
:101BBC000420B7F900309A420BDDBB887B833B884D
:101BCC00BB807B8B3B80FB883B837B88FB803B8B88
:101BDC007B80B7F90420B7F944309A4237D1FB889F
:101BEC00BB85BB8DFB85B7F90220B7F92E309A4225
:101BFC0002DA7B88FB8507E0B7F90220B7F92C30B5
:101C0C009A4201DD7B88BB85B7F94020B7F92E30AD
:101C1C009A4203DAB7F84030FB8508E0B7F9402068
:101C2C00B7F92C309A4202DDB7F84030BB85BA8D3B
:101C3C00FB8DD31A9BB201339BB21AB2B7F8483062
:101C4C00B7F90410B7F92E0000F0C8F9DAE07A8879
:101C5C00FB88D31A9BB2FB823A88BB88D31A9BB2FF
:101C6C00BB82B7F84020FB88D31A9BB27B82B7F8B3
:101C7C004420BB88D31A9BB23B82B7F840207B88A8
:101C8C00D31A9BB2FB81B7F844203B88D31A9BB282
:101C9C00BB810023FB840023BB84B7F90020B7F978
:101CAC0044309A4202D13B883B8503E03B88013BA0
:101CBC009BB23B85BB887B8540E0B7F92620B7F902
:101CCC00143092FBF3F39AB2FB8813449BB2FB855E
:101CDC00B7F92420B7F9103092FBF3F39AB2FB88D2
:101CEC0013449BB2BB85FA8CFB8A13449BB2FB84D6
:101CFC00BA8C7B8A13449BB2BB84B7F92E20B7F9FC
:101D0C002C309A4205DDFB8D3B81BB8DFB853B89DD
:101D1C00BB85BA8DFB8DD31A9BB201339BB21AB221
:101D2C00B7F84830B7F92A10B7F92E0000F056F979
:101D3C00B7F92A309BB201339BB27B85B7F92A20C5
:101D4C00B7F928309A42B8DDB7F92A20B7F9003034
:101D5C00D31A9BB2FA8902FB03F39BB2FB84B7F94B
:101D6C002A20B7F90430D31A9BB27A8A02FB03F308
:101D7C009BB2BB8440E0B7F92620B7F90C3092FB3C
:101D8C00F3F39AB27B8813449BB2FB85B7F92420FA
:101D9C00B7F9103092FBF3F39AB2FB8813449BB261
:101DAC00BB85FA8CFB8913449BB2FB84BA8C7B8A6F
:101DBC0013449BB2BB84B7F92E20B7F92C309A424E
:101DCC0005DDFB8D7B81BB8DFB857B89BB85BA8D4E
:101DDC00FB8DD31A9BB201339BB21AB2B7F84830C1
:101DEC00B7F92A10B7F92E0000F0F8F8B7F92A3035
:101DFC009BB201339BB27B85B7F92A20B7F94430EB
:101E0C009A42B8DD3437BD4690BD90B589B000AF6D
:101E1C000446084611461A462346FB800346BB80FF
:101E2C000B467B8013463B80B7F90020B7F9043092
:101E3C00D31A83EAE372A2EBE372B7F90210B7F993
:101E4C000630CB1A002BB8BF5B429A42CCBF0123A1
:101E5C000023DBB27B83B7F91A30002B0BD0FB8845
:101E6C003B83BB88FB803B8BBB807B88FB823B88A6
:101E7C007B80FB8A3B80B7F90620B7F902309A4287
:101E8C000BDDFB88BB827B88FB80BB8A7B80BB889D
:101E9C007B823B88BB807B8A3B807A88FB88D31A09
:101EAC009BB23B82B7F90020B7F90430D31A002B50
:101EBC00B8BF5B42FB81B7F91030DA0F13445B10EB
:101ECC00FB83B7F90420B7F900309A4202DA0123F8
:101EDC00BB832DE04FF6FF73BB8329E0B7F91A30B3
:101EEC00002B06D0BB88F9883A8E1846FFF7F6FB14
:101EFC0005E0FB88B9883A8E1846FFF7EFFBFA8BA2
:101F0C00FB89D31A9BB2FB83B7F91E30002B09DA7D
:101F1C00BA88BB8B13449BB2BB80FA8B3B8A1344AD
:101F2C009BB2FB83B7F906309BB201339BB2FB80AB
:101F3C00B7F90620B7F902309A42CFDD00BF00BFD7
:101F4C002437BD4690BD000090B585B002AF044665
:101F5C00084611461A462346FB800346BB800B46B7
:101F6C007B8013463B801B4BB3F90030B7F906203E
:101F7C009A422BDA184BB3F90030B7F904209A4285
:101F8C0024DAB7F90420B7F902301344124AB2F933
:101F9C000020934207DD104BB3F900309AB2BB8896
:101FAC00D31A9BB27B80BA887B8813449BB2013BCB
:101FBC009BB21CB2B7F90620B7F90410B7F90600AA
:101FCC003B8800932346FFF720FF00E000BF0C374F
:101FDC00BD4690BD0E0000200C00002090B585B0D1
:101FEC0002AF0446084611461A462346FB800346B8
:101FFC00BB800B467B8013463B801B4BB3F90030F8
:10200C00B7F906209A422BDA184BB3F90030B7F91E
:10201C0004209A4224DAB7F90620B7F902301344A7
:10202C00114AB2F90020934207DD0F4BB3F900308F
:10203C009AB2FB88D31A9BB27B80FA887B881344B4
:10204C009BB2013B9BB21AB2B7F90440B7F904102A
:10205C00B7F906003B8800932346FFF7D6FE00E055
:10206C0000BF0C37BD4690BD0E0000200C000020B8
:10207C0080B584B000AF0346FB71FB7903F003031A
:10208C00DAB24A4B1A7000224FF480414848FEF7EE
:10209C003DFB3620FFF7BCF9444B1B78032B7BD858
:1020AC0001A252F823F000BFC5200008012100084E
:1020BC003D210008692100083E4B1A783D4B5B78A6
:1020CC001343DAB23B4BDB781343DBB2FB7307F100
:1020DC000F0301211846FFF7B5F9374B80221A8000
:1020EC00364BA0221A80364B02221A70354B012235
:1020FC001A7051E02F4B5A782E4B9B781343DAB25F
:10210C002C4BDB781343DBB2BB7307F10E030121BD
:10211C001846FFF797F9284BA0221A80274B8022EC
:10212C001A80274B01221A70264B02221A7033E0B8
:10213C00204BDB787B7307F10D0301211846FFF769
:10214C0081F91D4B80221A801C4BA0221A801C4B3B
:10215C0002221A701B4B01221A701DE0154B1A78C3
:10216C00144B9B781343DAB2124BDB781343DBB27C
:10217C003B7307F10C0301211846FFF763F90E4B73
:10218C00A0221A800D4B80221A800D4B01221A704E
:10219C000C4B02221A7000BF01224FF480410448FC
:1021AC00FEF7B4FA00BF1037BD4680BD50000020CA
:1021BC00000C0140080000200E0000200C00002044
:1021CC00100000201100002080B400AF034BB3F9C5
:1021DC0000301846BD4680BC704700BF0C00002084
:1021EC0080B400AF034BB3F900301846BD4680BC39
:1021FC00704700BF0E000020B0B58AB004AF4A4B48
:10220C001B781846FFF734FF0020FFF79FFB0023D5
:10221C007B6118E07B699BB24FF6FF720021184678
:10222C00FFF75CFA7B699CB2FFF7CEFF03469BB2CB
:10223C00013B9BB24FF6FF7219462046FFF74EFA50
:10224C007B6901337B61FFF7CBFF03461A467B6941
:10225C009342DFDB00233B6117E03B699BB24FF6F7
:10226C00FF7219460020FFF739FAFFF7B9FF034652
:10227C009BB2013B9BB23A6991B24FF6FF72184682
:10228C00FFF72CFA3B6901333B61FFF79DFF0346D7
:10229C001A463B699342E0DBFFF7A2FF03461C465C
:1022AC00FFF792FF03461A464FF6FF73009313464F
:1022BC00224600210020FFF7A8FDFFF791FF0346FF
:1022CC001C46FFF781FF03461A464FF6FF73009337
:1022DC001346002200212046FFF797FD4FF4FA60C9
:1022EC00FDF790FF0020FFF731FB0023FB6011E0AE
:1022FC00FB681CB2FFF774FF03469BB2013B9BB219
:10230C001AB24FF6FF7321460020FFF767FEFB68F9
:10231C000433FB60FFF758FF03461A46FB689342F1
:10232C00E6DB0023BB6013E0AC000020BB681CB2F2
:10233C00FFF74AFF03469BB2013B9BB21AB24FF622
:10234C00FF7300212046FFF7FFFDBB680433BB6021
:10235C00FFF746FF03461A46BB689342E6DB4FF491
:10236C00FA60FDF74FFF0020FFF7F0FA994B0022BF
:10237C0002924FF4784201925A6800921B68964A76
:10238C0000210020FFF7F2F9944B002202924FF447
:10239C00FC6201925A6800921B68914A1E2100202F
:1023AC00FFF7E4F98F4B002202921F2201925A6828
:1023BC0000921B688C4A54210020FFF7D7F94FF488
:1023CC00FA60FDF71FFF0020FFF7C0FA834B0022D5
:1023DC0002924FF6FF7201925A6800921B68834A70
:1023EC0000210020FFF7C2F94FF4FA70FDF70AFF45
:1023FC001F20FFF7ABFA794B1F22029200220192A9
:10240C005A6800921B687A4A00210020FFF7AEF947
:10241C004FF4FA70FDF7F6FE4FF47840FFF796FA9A
:10242C006E4B4FF478420292002201925A6800924D
:10243C001B68704A00210020FFF798F94FF4FA70DE
:10244C00FDF7E0FE4FF4FC60FFF780FA634B4FF4AE
:10245C00FC620292002201925A6800921B68664A42
:10246C0000210020FFF782F94FF4FA70FDF7CAFE45
:10247C0040F2FF70FFF76AFA584B40F2FF7202927B
:10248C00002201925A6800921B685C4A00210020CD
:10249C00FFF76CF94FF4FA70FDF7B4FE4FF61F001E
:1024AC00FFF754FA4D4B4FF61F0202920022019295
:1024BC005A6800921B68524A00210020FFF756F917
:1024CC004FF4FA70FDF79EFE4FF6E070FFF73EFA00
:1024DC00424B4FF6E0720292002201925A6800922F
:1024EC001B68484A00210020FFF740F94FF4FA70AE
:1024FC00FDF788FE4FF6FF70FFF728FA374B4FF6C3
:10250C00FF720292002201925A6800921B683E4AA6
:10251C0000210020FFF72AF94FF4FA70FDF772FE44
:10252C000020FFF713FA00237B6017E0FFF758FE3B
:10253C000346DA0F13445B101CB2FFF745FE03464B
:10254C00DA0F13445B1019B27B681AB24FF6E073C2
:10255C002046FFF723FA7B6802337B60FFF734FEDB
:10256C000346DA0F13445B101BB21A467B68934286
:10257C00DCDB4FF47A70FDF745FE0020FFF7E6F93F
:10258C00FFF72EFE0346DA0F13445B101CB2FFF765
:10259C001BFE03461D46FFF723FE03461A464FF467
:1025AC00784302930023019300922B46224600218C
:1025BC000020FFF7C5FA4FF47A70FDF723FE134B9A
:1025CC001B780133DAB2114B1A7000BF1837BD46B5
:1025DC00B0BD00BF14000020FC2900081C00002026
:1025EC001C2A000824000020342A0008442A000871
:1025FC004C2A0008542A0008582A0008602A0008AF
:10260C00682A0008702A0008782A0008AC0000200C
:10261C0080B500AFFDF794FD00F00BF800F084F8E6
:10262C0000F04CF8FFF734F8FFF7ACF9FFF7E4FDD6
:10263C00FCE780B590B000AF07F118032822002109
:10264C00184600F0B9F93B1D00221A605A609A60D6
:10265C00DA601A610123BB614FF48033FB61002304
:10266C003B620123BB6202237B634FF48033BB6369
:10267C004FF4E013FB6307F118031846FEF75EF8FE
:10268C000346002B01D000F0A7F80F237B60022338
:10269C00BB600023FB604FF480633B6100237B61D4
:1026AC003B1D02211846FEF7CBFA0346002B01D046
:1026BC0000F092F800BF4037BD4680BD80B500AF3A
:1026CC00174B184A1A60164B4FF482725A60144B0F
:1026DC0000229A60124B0022DA60114B00221A6120
:1026EC000F4B00225A610E4B4FF400729A610C4B47
:1026FC001822DA610A4B00221A62094B00225A6234
:10270C00074B00229A62064B0A22DA620448FEF753
:10271C00FDFB0346002B01D000F05EF800BF80BD2E
:10272C00540000200030014080B588B000AF07F1A4
:10273C00100300221A605A609A60DA60244B9B697D
:10274C00234A43F020039361214B9B6903F0200340
:10275C00FB60FB681E4B9B691D4A43F004039361AD
:10276C001B4B9B6903F00403BB60BB68184B9B6954
:10277C00174A43F008039361154B9B6903F0080358
:10278C007B607B6800224FF430411248FDF7BEFF9E
:10279C004FF430433B6101237B610023BB61022377
:1027AC00FB6107F1100319460A48FDF733FE4FF49D
:1027BC0080433B6100237B610023BB6107F1100365
:1027CC0019460448FDF726FE00BF2037BD4680BDE4
:1027DC0000100240000C014080B400AF00BFBD46A9
:1027EC0080BC704780B485B000AF154B9B69144A10
:1027FC0043F001039361124B9B6903F00103BB602F
:10280C00BB680F4BDB690E4A43F08053D3610C4B12
:10281C00DB6903F080537B607B680A4B5B68FB6071
:10282C00FB6823F0E063FB60FB6843F08063FB60B4
:10283C00044AFB68536000BF1437BD4680BC704728
:10284C00001002400000014080B588B000AF7860F5
:10285C0007F1100300221A605A609A60DA607B68F4
:10286C001B68154A934223D1144B9B69134A43F4BA
:10287C0080539361114B9B6903F48053FB60FB689D
:10288C000E4B9B690D4A43F0040393610B4B9B6900
:10289C0003F00403BB60BB68A0233B6102237B6194
:1028AC000323FB6107F1100319460548FDF7B2FD40
:1028BC0000BF2037BD4680BD0030014000100240F3
:1028CC000008014080B400AF00BFBD4680BC70471B
:1028DC0080B400AFFEE780B400AFFEE780B400AF79
:1028EC00FEE780B400AFFEE780B400AF00BFBD468A
:1028FC0080BC704780B400AF00BFBD4680BC704741
:10290C0080B400AF00BFBD4680BC704780B500AF3F
:10291C00FDF75CFC00BF80BD80B400AF00BFBD46BE
:10292C0080BC70470C480D490D4A002302E0D45876
:10293C00C4500433C4188C42F9D30A4A0A4C0023FD
:10294C0001E013600432A242FBD3FFF7E5FF00F075
:10295C000FF8FFF75DFE70470000002030000020EC
:10296C002453000830000020B0000020FEE70000D7
:10297C0070B500260C4D0D4C641BA410A64209D159
:10298C0000F022F800260A4D0A4C641BA410A64243
:10299C0005D170BD55F8043B98470136EEE755F864
:1029AC00043B98470136F2E71C5300081C530008FF
:1029BC001C5300082053000803460244934200D1E4
:1029CC00704703F8011BF9E7F8B500BFF8BC08BC69
:1029DC009E467047F8B500BFF8BC08BC9E467047D1
:1029EC0002030405060708090A0B0C0D0E0F101044
:1029FC00466F6E745F377831302C20726564206FAF
:102A0C006E20626C61636B2C20414243444546004E
:102A1C00466F6E745F31317831382C206772656582
:102A2C006E2C204142434400466F6E745F31367801
:102A3C003236202C41420000424C41434B000000F6
:102A4C00424C554500000000524544004752454554
:102A5C004E0000004359414E000000004D414745D7
:102A6C004E54410059454C4C4F570000574849545F
:102A7C00450000000F0180961180FFB103012C2D41
:102A8C00B203012C2DB306012C2D012C2DB4010702
:102A9C00C003A20284C101C5C2020A00C3028A2A71
:102AAC00C4028AEEC5010E20003601C03A010500B1
:102ABC00022A040000007F2B040000007F000000AD
:102ACC0004E010021C07123732292D29252B39005E
:102ADC00010310E110031D07062E2C292D2E2E3775
:102AEC003F0000021013800A2980640000000000DF
:102AFC0000000000000000000000000000000000CA
:102B0C000010001000100010001000100000001049
:102B1C000000000000280028002800000000000031
:102B2C00000000000000000000240024007C0024B1
:102B3C000048007C004800480000000000380054A9
:102B4C0000500038001400540054003800100000ED
:102B5C0000200054005800300028005400140008D5
:102B6C00000000000010002800280010003400486D
:102B7C00004800340000000000100010001000009D
:102B8C000000000000000000000000000008001021
:102B9C000020002000200020002000200010000851
:102BAC0000200010000800080008000800080008B9
:102BBC000010002000100038001000280000000059
:102BCC0000000000000000000000000000100010D9
:102BDC00007C00100010000000000000000000004D
:102BEC0000000000000000000000001000100010A9
:102BFC000000000000000000000000380000000091
:102C0C0000000000000000000000000000000000B8
:102C1C000000001000000000000800080010001068
:102C2C0000100010002000200000000000380044BC
:102C3C0000440054004400440044003800000000EC
:102C4C000010003000500010001000100010001098
:102C5C00000000000038004400440004000800108C
:102C6C000020007C00000000003800440004001824
:102C7C0000040004004400380000000000080018A4
:102C8C00002800280048007C000800080000000014
:102C9C00007C004000400078000400040044003830
:102CAC00000000000038004400400078004400445C
:102CBC000044003800000000007C000400080010F4
:102CCC00001000200020002000000000003800440C
:102CDC000044003800440044004400380000000068
:102CEC000038004400440044003C00040044003818
:102CFC0000000000000000000010000000000000B8
:102D0C000000001000000000000000000000001097
:102D1C000000000000000010001000100000000077
:102D2C00000C003000400030000C000000000000DF
:102D3C00000000000000007C0000007C000000008F
:102D4C0000000000000000000060001800040018E3
:102D5C00006000000000000000380044000400087F
:102D6C0000100010000000100000000000380044AB
:102D7C00004C0054005C0040004000380000000093
:102D8C0000100028002800280028007C0044004483
:102D9C000000000000780044004400780044004427
:102DAC00004400780000000000380044004000405F
:102DBC000040004000440038000000000070004853
:102DCC00004400440044004400480070000000002F
:102DDC00007C00400040007C004000400040007C33
:102DEC0000000000007C00400040007800400040E3
:102DFC00004000400000000000380044004000404B
:102E0C00005C004400440038000000000044004412
:102E1C000044007C004400440044004400000000D6
:102E2C0000380010001000100010001000100038C6
:102E3C00000000000004000400040004000400046E
:102E4C0000440038000000000044004800500060BE
:102E5C0000500048004800440000000000400040C2
:102E6C0000400040004000400040007C000000009A
:102E7C000044006C006C00540044004400440044C6
:102E8C000000000000440064006400540054004C36
:102E9C00004C004400000000003800440044004492
:102EAC000044004400440038000000000078004456
:102EBC000044004400780040004000400000000046
:102ECC0000380044004400440044004400540038DE
:102EDC0000040000007800440044004400780048DE
:102EEC00004800440000000000380044004000305E
:102EFC00000800040044003800000000007C0010B2
:102F0C000010001000100010001000100000000055
:102F1C000044004400440044004400440044003891
:102F2C000000000000440044004400280028002851
:102F3C000010001000000000004400440054005435
:102F4C000054006C002800280000000000440028F9
:102F5C000028001000100028002800440000000089
:102F6C00004400440028002800100010001000103D
:102F7C0000000000007C000400080010001000207D
:102F8C000040007C00000000001800100010001031
:102F9C00001000100010001000100018002000207D
:102FAC0000100010001000100008000800000000C5
:102FBC000030001000100010001000100010001065
:102FCC000010003000100028002800440000000011
:102FDC0000000000000000000000000000000000E5
:102FEC000000000000000000000000FE00200010A7
:102FFC0000000000000000000000000000000000C5
:10300C000000000000380044003C0044004C003438
:10301C0000000000004000400058006400440044E0
:10302C00006400580000000000000000003800445C
:10303C000040004000440038000000000004000480
:10304C000034004C00440044004C003400000000EC
:10305C000000000000380044007C004000440038B0
:10306C0000000000000C0010007C0010001000108C
:10307C000010001000000000000000000034004CA4
:10308C0000440044004C0034000400780040004030
:10309C000058006400440044004400440000000058
:1030AC000010000000700010001000100010001044
:1030BC000000000000100000007000100010001054
:1030CC0000100010001000E00040004000480050CC
:1030DC000060005000480044000000000070001028
:1030EC000010001000100010001000100000000074
:1030FC0000000000007800540054005400540054A8
:10310C00000000000000000000580064004400446F
:10311C00004400440000000000000000003800449F
:10312C00004400440044003800000000000000008F
:10313C000058006400440044006400580040004003
:10314C00000000000034004C00440044004C0034EB
:10315C00000400040000000000580064004000401F
:10316C000040004000000000000000000038004457
:10317C00003000080044003800000000002000204F
:10318C000078002000200020002000180000000023
:10319C00000000000044004400440044004C003493
:1031AC00000000000000000000440044002800283B
:1031BC000028001000000000000000000054005423
:1031CC000054006C002800280000000000000000E3
:1031DC0000440028001000100028004400000000EB
:1031EC0000000000004400440028002800100010DB
:1031FC000010006000000000007C0008001000209F
:10320C000040007C000000000018001000100010AE
:10321C0000200020001000100010001800100010FA
:10322C000010001000100010001000100010001012
:10323C0000300010001000100008000800100010F2
:10324C00001000300000000000000074004C000072
:10325C000000000000000000000000000000000062
:10326C000000000000000000000000000000000052
:10327C000000000000000000000000000000000C36
:10328C00000C000C000C000C000C000C000C000CD2
:10329C00000C000C0000000C000C000000000000F2
:1032AC000000001B001B001B001B001B000000008B
:1032BC000000000000000000000000000000000002
:1032CC000000000000008019801980198019C07F4F
:1032DC00C07F80190033C07FC07F003300330033C0
:1032EC0000330000000000000000001E003F80754D
:1032FC0080650074003C001E0007800580658065B9
:10330C008075003F001E00040004000000000070E7
:10331C0000D840D8C0D880D900730006000C801BA0
:10332C00C036C066C046C006800300000000000026
:10333C000000001E003F003300330033001E000C61
:10334C00C03CC066806380618063C03E801C00000E
:10335C00000000000000000C000C000C000C000C25
:10336C000000000000000000000000000000000051
:10337C0000000000000000008000000100030006B7
:10338C0000060004000C000C000C000C000C000CDF
:10339C00000400060006000300018000002000105D
:1033AC000018000C000C00040006000600060006C5
:1033BC00000600060004000C000C00180010002091
:1033CC000000000C002D003F001E00330000000028
:1033DC0000000000000000000000000000000000E1
:1033EC0000000000000000000000000C000C000CAD
:1033FC00000CC0FFC0FF000C000C000C000C000007
:10340C0000000000000000000000000000000000B0
:10341C0000000000000000000000000000000000A0
:10342C000000000C000C0004000400080000000068
:10343C000000000000000000000000000000001E62
:10344C00001E000000000000000000000000000052
:10345C000000000000000000000000000000000060
:10346C0000000000000000000000000C000C000038
:10347C00000000000000000300030003000600062B
:10348C0000060006000C000C000C000C00180018C4
:10349C0000180000000000000000001E003F003378
:1034AC00806180618061806D806D806180618061F0
:1034BC000033003F001E000000000000000000066A
:1034CC00000E001E00360026000600060006000650
:1034DC0000060006000600060006000000000000C2
:1034EC000000001E003F807380618061800100033A
:1034FC000006000C001800300060807F807F000008
:10350C00000000000000001C003E0063006300038C
:10351C00000E000E00038001800180618073003F6B
:10352C00001E00000000000000000006000E000E4F
:10353C00001E001E0016003600360066807F807F5D
:10354C000006000600060000000000000000007FDE
:10355C00007F006000600060006E007F806380016F
:10356C00800180618073003F001E0000000000009D
:10357C000000001E003F803380610060006E007F01
:10358C0080738061806180618033003F001E000089
:10359C00000000000000807F807F8001000300039A
:1035AC0000060006000C000C000C000800180018A7
:1035BC0000180000000000000000001E003F8063A7
:1035CC00806180610021001E003F8061806180610C
:1035DC008061003F001E0000000000000000001E83
:1035EC00003F00738061806180618073803F801D2B
:1035FC00800180610073003F001E0000000000008D
:10360C0000000000000000000000000C000C000096
:10361C0000000000000000000000000C000C000086
:10362C00000000000000000000000000000000008E
:10363C00000C000C00000000000000000000000C5A
:10364C00000C000400040008000000000000000052
:10365C0080008003000E003800600038000E8003EC
:10366C0080000000000000000000000000000000CE
:10367C00000000000000807F807F00000000807F41
:10368C00807F00000000000000000000000000002F
:10369C00000000000000000000400070001C00074B
:1036AC0080010007001C00700040000000000000BA
:1036BC00000000000000001F803FC071C060C0000F
:1036CC00C00180030007000E000C000C0000000C71
:1036DC00000C0000000000000000001E003F8031C4
:1036EC0080718063806F806D806D806F80670060FB
:1036FC000032003E001C0000000000000000000E24
:10370C00000E001B001B001B001B80318031803F12
:10371C00803F8031C060C060C060000000000000CD
:10372C000000007C007E0063006300630063007E89
:10373C00007E0063806180618063007F007E0000FA
:10374C00000000000000001E003F8031806100601E
:10375C000060006000600060006080618031003FAC
:10376C00001E0000000000000000007C007F0063D1
:10377C0080638061806180618061806180610063B1
:10378C000063007E007C0000000000000000807FD1
:10379C00807F0060006000600060007F007F006040
:1037AC00006000600060807F807F000000000000EF
:1037BC000000807F807F0060006000600060007F00
:1037CC00007F00600060006000600060006000002E
:1037DC00000000000000001E003F8031806100608E
:1037EC000060006080638063806180618031803F15
:1037FC00001E0000000000000000806180618061FC
:10380C00806180618061807F807F80618061806168
:10381C008061806180610000000000000000003FBA
:10382C00003F000C000C000C000C000C000C000CF9
:10383C00000C000C000C003F003F000000000000DA
:10384C0000008001800180018001800180018001E5
:10385C0080018001806180618073003F001E000048
:10386C00000000000000C06080610063006600661C
:10387C00006C0078007C00660066006380618061EB
:10388C00C0600000000000000000006000600060EC
:10389C00006000600060006000600060006000601C
:1038AC000060807F807F0000000000000000C0717D
:1038BC00C071C07BC07AC06AC06AC06EC064C06090
:1038CC00C060C060C060C060C0600000000000004C
:1038DC00000080718071807980798079806D806D35
:1038EC00806D80658067806780678063806300007F
:1038FC00000000000000001E003F0033806180616A
:10390C008061806180618061806180610033003FF3
:10391C00001E0000000000000000007E007F80639D
:10392C008061806180618063007F007E0060006048
:10393C000060006000600000000000000000001E3D
:10394C00003F0033806180618061806180618061B3
:10395C00806580670033803F401E0000000000003F
:10396C000000007E007F8063806180618063007F47
:10397C00007E00660063006380618061C0600000AF
:10398C00000000000000000E001F8031803100306C
:10399C000038001E00078003806180618031003F89
:1039AC00001E0000000000000000C0FFC0FF000C63
:1039BC00000C000C000C000C000C000C000C000C9B
:1039CC00000C000C000C00000000000000008061E6
:1039DC0080618061806180618061806180618061D3
:1039EC00806180618073003F001E000000000000B9
:1039FC000000C060C060C060803180318031001B2D
:103A0C00001B001B001B000E000E000E000400002B
:103A1C00000000000000C0C0C0C0C0C0C0C0C0C01A
:103A2C00C0CC804C804C805E805280528073806110
:103A3C0080610000000000000000C0C08060806158
:103A4C000033003B001E000C000C001E001F003B4E
:103A5C0080718061C0C00000000000000000C0C088
:103A6C008061806100330033001E001E000C000CCE
:103A7C00000C000C000C000C000C000000000000FE
:103A8C000000803F803F8001000300030006000C13
:103A9C00000C0018001800300060807F807F000050
:103AAC0000000000000F000F000C000C000C000CBC
:103ABC00000C000C000C000C000C000C000C000C9A
:103ACC00000C000C000F000F00000018001800186C
:103ADC00000C000C000C000C000600060006000692
:103AEC00000300030003000000000000001E001E85
:103AFC00000600060006000600060006000600068A
:103B0C00000600060006000600060006001E001E49
:103B1C000000000C000C001E00120033003380610A
:103B2C0080610000000000000000000000000000A8
:103B3C000000000000000000000000000000000079
:103B4C000000000000000000000000000000000069
:103B5C0000000000E0FF0000000000380018000C1E
:103B6C000000000000000000000000000000000049
:103B7C000000000000000000000000000000000039
:103B8C00000000000000001F803F80618001801F4A
:103B9C00803F80618063807FC0380000000000009F
:103BAC0000000060006000600060006E007F8073A9
:103BBC0080618061806180618073007F006E000095
:103BCC000000000000000000000000000000001ECB
:103BDC00003F807380610060006080618073003FF3
:103BEC00001E000000000000000080018001800128
:103BFC008001801D803F8073806180618061806165
:103C0C008073803F801D0000000000000000000059
:103C1C00000000000000001E003F00738061807FE8
:103C2C00807F00608071003F001E000000000000DB
:103C3C000000C007C00F000C000C807F807F000CC0
:103C4C00000C000C000C000C000C000C000C000014
:103C5C00000000000000000000000000801D803FFC
:103C6C00807380618061806180618073803F801D82
:103C7C0080018063007F003E0000006000600060F7
:103C8C000060006F807F80718061806180618061E5
:103C9C00806180618061000000000000000000066F
:103CAC00000600000000003E003E00060006000674
:103CBC0000060006000600060006000000000000DA
:103CCC000006000600000000003E003E0006000654
:103CDC000006000600060006000600060006004668
:103CEC00007E003C000000600060006000608061AD
:103CFC0000630066006C007C0076006300638061EA
:103D0C00C0600000000000000000003E003E000605
:103D1C000006000600060006000600060006000667
:103D2C000006000600060000000000000000000075
:103D3C0000000000000080DDC0FFC0CEC0CCC0CCB5
:103D4C00C0CCC0CCC0CCC0CCC0CC000000000000AB
:103D5C0000000000000000000000006F807F8071F8
:103D6C008061806180618061806180618061000020
:103D7C000000000000000000000000000000001E19
:103D8C00003F807380618061806180618073003F3F
:103D9C00001E0000000000000000000000000000F9
:103DAC00006E007F807380618061806180618073B0
:103DBC00007F006E0060006000600060000000008A
:103DCC0000000000801D803F8073806180618061F5
:103DDC0080618073803F801D8001800180018001A3
:103DEC00000000000000000000000067803F003968
:103DFC000030003000300030003000300030000067
:103E0C000000000000000000000000000000001E88
:103E1C00803F80610060007F803F80018061007F77
:103E2C00001E000000000000000000000008001848
:103E3C000018007F007F00180018001800180018E8
:103E4C000018801F800F0000000000000000000020
:103E5C0000000000000080618061806180618061F1
:103E6C00806180618063807F803D000000000000E5
:103E7C0000000000000000000000C06080318031B4
:103E8C008031001B001B001B000E000E0006000002
:103E9C00000000000000000000000000000080DDB9
:103EAC0080DD80DD0055005500550077007700223D
:103EBC0000220000000000000000000000000000D4
:103ECC000000806100330033001E000C000C001E4B
:103EDC00003300338061000000000000000000008F
:103EEC000000000080618061803100330033001BD2
:103EFC00001B001B000E000E000E001C007C00704E
:103F0C0000000000000000000000C07FC07F8001A6
:103F1C0000030006000C00180030C07FC07F0000BA
:103F2C000000000080038007000600060006000663
:103F3C000006000E001C001C000E00060006000609
:103F4C000006000680078003000600060006000637
:103F5C000006000600060006000600060006000625
:103F6C000006000600060006000600060038003CAD
:103F7C00000C000C000C000C000C000E00070007DD
:103F8C00000E000C000C000C000C000C003C003867
:103F9C00000000000000000000000000000080385D
:103FAC00807F0047000000000000000000000000BF
:103FBC0000000000000000000000000000000000F5
:103FCC0000000000000000000000000000000000E5
:103FDC0000000000000000000000000000000000D5
:103FEC000000000000000000E003E003E003E00339
:103FFC00E003E003E003E003C003C003C001C00121
:10400C00C001C001C001000000000000E003E0039B
:10401C00E003000000000000000000003C1E3C1EFD
:10402C003C1E3C1E3C1E3C1E3C1E000000000000C2
:10403C000000000000000000000000000000000074
:10404C000000000000000000000000000000000064
:10405C00CE01CE03DE039E039C039C07FF3FFF7F34
:10406C003807380F780F780F780EFFFFFFFFF01E20
:10407C00F01CE01CE03CE03DE039000000000000DA
:10408C0000000000FC03FE0FEE1FE01EE01EE01E11
:10409C00E01EE01FE00FE007F003FC01FE01FE0153
:1040AC00FE01FE01FE01FE01FE3DFC3FF00FE001B2
:1040BC00E001000000000000033E07F78FE78EE7E9
:1040CC009EE3BCE3B8E7F8E7F0F7E03FC001FF037D
:1040DC00FF07F307F30FF31EF33CF338F3787FF08D
:1040EC003FE000000000000000000000E007F80FB7
:1040FC00780F781F781F781F780FF00FE00F801F54
:10410C00C37FC3FBE7F3F7F1F7F0FFF07FF03EF866
:10411C007F7CFF3FEF1F000000000000000000004C
:10412C00E003E003E003E003E003C003C001000090
:10413C000000000000000000000000000000000073
:10414C000000000000000000000000000000000063
:10415C00000000003F007C00F001E001C003C0073C
:10416C0080078007800F000F000F000F000F000F5B
:10417C00000F800F80078007C007C003E001F0012B
:10418C007C003F000F000000007E001FC007C00332
:10419C00E001F001F000F000F80078007800780001
:1041AC00780078007800F800F000F000F001E001F1
:1041BC00C003C007001F007E00780000E003C003AE
:1041CC00C001CE39FF3F7F3F20037003F807780F03
:1041DC003C1F38060000000000000000000000003A
:1041EC0000000000000000000000000000000000C3
:1041FC00000000000000000000000000C001C00131
:10420C00C001C001C001C001C001FFFFFFFFC00120
:10421C00C001C001C001C001C001000000000000CD
:10422C000000000000000000000000000000000082
:10423C000000000000000000000000000000000072
:10424C00000000000000E003E003E003E003E001F5
:10425C00E001E001C001800300000000000000004C
:10426C000000000000000000000000000000FE3F05
:10427C00FE3F0000000000000000000000000000F5
:10428C000000000000000000000000000000000022
:10429C000000000000000000000000000000000012
:1042AC000000000000000000000000000000E0031F
:1042BC00E003E003E0030000000000000000000049
:1042CC000F000F001E001E003C003C007800780020
:1042DC00F000F000E001E001C003C003800780079C
:1042EC00000F000F001E001E003C003C0078007800
:1042FC0000F00000F007F80F7C1F3E3E1E3C1F7CB8
:10430C001F7C0F780F780F780F780F780F780F7855
:10431C001F7C1F7C1E3C3E3E7C1FF80FF0070000EC
:10432C000000000000000000F000F007F03FF03F3C
:10433C00F001F001F001F001F001F001F001F001E9
:10434C00F001F001F001F001F001F001F001FF3F8C
:10435C00FF3F00000000000000000000E00FF83FED
:10436C007C3C3C003E003E003E003C003C007C009F
:10437C00F800F001E003C0078007000F001E003EAC
:10438C00003CFE3FFE3F000000000000000000006B
:10439C00F00FF81F7C1C3E003E003E003C003C0031
:1043AC00F800F00FF80F7C003E001E001E001E00EF
:1043BC001E003E007C1CF81FE01F000000000000E7
:1043CC00000000007800F800F800F801F803F80786
:1043DC00F807780F781E781E783C78787878FFFF8D
:1043EC00FFFF7800780078007800780078000000F3
:1043FC000000000000000000FC1FFC1FFC1F001E42
:10440C00001E001E001E001EE01FF81FFC007C009A
:10441C003E003E001E003E003E003C007C1CF81F8F
:10442C00E01F00000000000000000000FC01FE077F
:10443C008E0F001F001E003E003C003CF83DFC3F70
:10444C003E7F1F7E0F3C0F3C0F3C0F3C0F3E1F1E50
:10445C003E1FFC0FF00300000000000000000000F5
:10446C00FF3FFF3FFF3F0F001E001E003C003800C7
:10447C007800F000F000E001E001C003C003800709
:10448C00800F800F000F001F001F000000000000B5
:10449C0000000000F807FC0F3E1F1E1E1E3E1E3EB5
:1044AC001E1E3C1FF80FF007F80FFC1E3E3E1F3C73
:1044BC001F7C0F7C0F7C1F3C3E3FFC1FF007000055
:1044CC000000000000000000F007F80F7C1E3E3CCE
:1044DC001E3C1F7C1F7C1F7C1F7C1F3C3F3EFF1F14
:1044EC00EF071F001E001E003E003C00F838F03F96
:1044FC00E01F0000000000000000000000000000B1
:10450C000000000000000000E003E003E003E00313
:10451C000000000000000000000000000000E003AC
:10452C00E003E003E00300000000000000000000D6
:10453C00000000000000000000000000E003E003A9
:10454C00E003E00300000000000000000000000099
:10455C000000E003E003E003E003E001E001E00120
:10456C00C0038003000000000000000000000000F9
:10457C0003000F003F00FC00F003C00F003F00FEE3
:10458C00003FC00FF003FC003F000F0003000000D1
:10459C00000000000000000000000000000000000F
:1045AC00000000000000000000000000FFFFFFFF03
:1045BC00000000000000FFFFFFFF000000000000F3
:1045CC0000000000000000000000000000000000DF
:1045DC00000000000000000000E000F8007E801FDA
:1045EC00E007F8017E001F007E00F801E007801F45
:1045FC00007E00F800E00000000000000000000059
:10460C00F01FFC3F3E381F381F381E001E003C00B8
:10461C007800F000E001C003C003C007C007000031
:10462C0000000000C007C007C00700000000000029
:10463C0000000000F803FE0F1E1F0F3E7F3CFF78AA
:10464C00EF79C773C7F38FF38FF38FF39FF39FF358
:10465C00FF73FF7BF779003C1C1FFC0FF803000075
:10466C000000000000000000000000000000E0035B
:10467C00E003F007F007F007780F780F7C0E3C1E74
:10468C003C1E3E3CFE3FFF3F1F780F780FF007F0BB
:10469C0007F0000000000000000000000000000017
:1046AC000000F83FFC3F3E3C1E3C1E3C1E3C3E3C8A
:1046BC007C3CF03FF83F7E3C1F3C1F3C0F3C0F3CCA
:1046CC001F3CFE3FF83F000000000000000000000F
:1046DC00000000000000FF01FF07871F003E003CA8
:1046EC00007C00780078007800780078007C007CF2
:1046FC00003E003F831FFF07FF0100000000000089
:10470C0000000000000000000000F07FFC7F7E78BD
:10471C001F781F780F780F780F780F780F780F7835
:10472C000F780F781F781E787E78F87FE07F000076
:10473C000000000000000000000000000000FF3F2F
:10474C00FF3F003E003E003E003E003E003EFE3F6E
:10475C00FE3F003E003E003E003E003E003EFF3F5E
:10476C00FF3F0000000000000000000000000000FF
:10477C000000FF1FFF1F001E001E001E001E001E5B
:10478C00001EFF1FFF1F001E001E001E001E001E2D
:10479C00001E001E001E00000000000000000000B3
:1047AC00000000000000FE03FF0F871F003E007C8E
:1047BC00007C007800F800F87FF87FF80F780F7C09
:1047CC000F7C0F3E8F1FFF0FFE0300000000000048
:1047DC00000000000000000000001F7C1F7C1F7CFC
:1047EC001F7C1F7C1F7C1F7C1F7CFF7FFF7F1F7C1F
:1047FC001F7C1F7C1F7C1F7C1F7C1F7C1F7C000070
:10480C000000000000000000000000000000FF3F5E
:10481C00FF3FE003E003E003E003E003E003E00319
:10482C00E003E003E003E003E003E003E003FF3F09
:10483C00FF3F00000000000000000000000000002E
:10484C000000FC1FFC1F7C007C007C007C007C00BA
:10485C007C007C007C007C007C007C007800780074
:10486C00F838F03FC03F00000000000000000000DE
:10487C000000000000001F3C1E3C3C3C783CF03C1F
:10488C00E03DE03FC03F803FC03FE03FF03DF03CAB
:10489C00783C7C3C3E3C1F3C0F3C00000000000080
:1048AC0000000000000000000000003E003E003E42
:1048BC00003E003E003E003E003E003E003E003EFC
:1048CC00003E003E003E003E003EFF3FFF3F00002A
:1048DC0000000000000000000000000000001FF8B5
:1048EC001FFC1FFC3FFE3FFE3FFE7FFF77FF77FF65
:1048FC00F7F7E7F7E7F3E7F3C7F307F007F007F08D
:10490C0007F00000000000000000000000000000A4
:10491C0000000F7C0F7C0F7E0F7F0F7F8F7F8F7FB0
:10492C00CF7FEF7BEF79FF79FF78FF787F783F7847
:10493C003F781F781F780000000000000000000086
:10494C00000000000000F007FC1F3E3E1F7C0F78AB
:10495C000F780FF80FF80FF80FF80FF80FF80F7813
:10496C000F781F7C3E3EFC1FF0070000000000008B
:10497C0000000000000000000000FC3FFF3F1F3E55
:10498C000F3E0F3E0F3E0F3E1F3E3F3EFC3FF03FA3
:10499C00003E003E003E003E003E003E003E000059
:1049AC000000000000000000000000000000F00704
:1049BC00FC1F3E3E1F7C0F780F780FF80FF80FF896
:1049CC000FF80FF80FF80F780F781F7C3E3EFC1F86
:1049DC00F8077C003F000F000300000000000000FF
:1049EC000000F03FFC3F7E3C3E3C1E3C1E3C3E3CEF
:1049FC003C3CFC3CF03FE03FF03DF83C7C3C3E3C1A
:104A0C001E3C1F3C0F3C000000000000000000009A
:104A1C00000000000000FC07FE1F0E3E003C003CA6
:104A2C00003C003EC01FF80FFE037F001F000F006C
:104A3C000F001F203E3CFC3FF01F00000000000058
:104A4C0000000000000000000000FFFFFFFFE0037B
:104A5C00E003E003E003E003E003E003E003E00332
:104A6C00E003E003E003E003E003E003E003000005
:104A7C0000000000000000000000000000000F7C9F
:104A8C000F7C0F7C0F7C0F7C0F7C0F7C0F7C0F7CC2
:104A9C000F7C0F7C0F7C0F7C1E3C1E3C3E3EFC1F93
:104AAC00F007000000000000000000000000000003
:104ABC00000007F007F007F80F780F7C1E3C1E3C37
:104ACC001E3E3C1E3C1F781F780FF80FF007F007B6
:104ADC00F007E003E003000000000000000000000D
:104AEC0000000000000003E003F003F007F0E7F320
:104AFC00E7F3E7F3E773F77BF77FFF7F7F7F7F7F3A
:104B0C007E7F7E3F3E3E3E3E3E3E0000000000006B
:104B1C000000000000000000000007F80F7C1E3EA3
:104B2C003E3E3C1FF80FF007E007E003E003F00700
:104B3C00F80F7C0F7C1E3E3C1F780F780FF00000A6
:104B4C00000000000000000000000000000007F85A
:104B5C0007780F7C1E3C1E3E3C1F780FF80FF007A9
:104B6C00E003E003E003E003E003E003E003E00321
:104B7C00E003000000000000000000000000000046
:104B8C000000FF7FFF7F0F001F003E007C00F8003D
:104B9C00F000E001E003C007800F000F001E003E94
:104BAC00007CFF7FFF7F0000000000000000000081
:104BBC00FF07800780078007800780078007800732
:104BCC0080078007800780078007800780078007A1
:104BDC008007800780078007800780078007FF0712
:104BEC00FF07000000780078003C003C001E001E0F
:104BFC00000F000F80078007C003C003E001E00135
:104C0C00F000F000780078003C003C001E001E0014
:104C1C000F000F0007000000F07FF000F000F00024
:104C2C00F000F000F000F000F000F000F000F000F8
:104C3C00F000F000F000F000F000F000F000F000E8
:104C4C00F000F000F000F07FF07F0000C000C00129
:104C5C00C001E003E003F007F0077807780F380F86
:104C6C003C1E3C1E1E3C1E3C0F380F780778000083
:104C7C000000000000000000000000000000000028
:104C8C000000000000000000000000000000000018
:104C9C000000000000000000000000000000000008
:104CAC0000000000000000000000FFFFFFFF0000FC
:104CBC0000000000F00000000000000000000000F8
:104CCC0000000000000000000000000000000000D8
:104CDC0000000000000000000000000000000000C8
:104CEC0000000000000000000000000000000000B8
:104CFC0000000000F80FFC3F7C3C3E003E003E00F4
:104D0C00FE07FE1F3E3E3E7C3E783E7C7E7CFF3F97
:104D1C00CF1F00000000000000000000003C003C21
:104D2C00003C003C003C003CF83DFE3F3E3F1F3E3B
:104D3C000F3C0F3C0F3C0F3C0F3C0F3C1F3C1E3CF0
:104D4C003E3FFC3FF03B0000000000000000000074
:104D5C00000000000000000000000000FE03FF0F38
:104D6C00871F003E003E003C007C007C007C003C29
:104D7C00003E003E871FFF0FFE03000000000000F6
:104D8C00000000001F001F001F001F001F001F005D
:104D9C00FF07FF1F3F3E1F3C1F7C1F7C1F7C1F78A3
:104DAC001F781F7C1F7C3F3C7F3EFF1FDF0F0000E6
:104DBC0000000000000000000000000000000000E7
:104DCC0000000000F803FC0F3E1F1E3E1F3C1F7C22
:104DDC00FF7FFF7F007C007C003C003E071FFF0F25
:104DEC00FE0300000000000000000000FF01E103D2
:104DFC00C003C007C007C007FF7FFF7FC007C00705
:104E0C00C007C007C007C007C007C007C007C0075E
:104E1C00C007C007C0070000000000000000000031
:104E2C00000000000000000000000000EF07FF1F62
:104E3C007F3E1F3C1F7C1F7C1F781F781F781F7CB8
:104E4C001F7C3F3C7F3EFF1FDF0F1E001E001E001D
:104E5C007C38F83F003C003C003C003C003C003CF3
:104E6C00FC3DFE3F9E3F1F3F1F3E1F3C1F3C1F3C17
:104E7C001F3C1F3C1F3C1F3C1F3C1F3C1F3C0000A9
:104E8C000000000000000000F001F0010000000034
:104E9C0000000000E07FE07FE001E001E001E001C4
:104EAC00E001E001E001E001E001E001E001E001EE
:104EBC00E00100000000000000000000F800F80015
:104ECC000000000000000000F83FF83FF800F80078
:104EDC00F800F800F800F800F800F800F800F80006
:104EEC00F800F800F800F800F800F000F071E07F2E
:104EFC00003C003C003C003C003C003C1F3C3E3C69
:104F0C007C3CF83CF03DE03DC03FC03FE03FF03D15
:104F1C00F83C7C3C3E3C1F3C1F3C00000000000069
:104F2C0000000000F07FF001F001F001F001F00151
:104F3C00F001F001F001F001F001F001F001F001DD
:104F4C00F001F001F001F001F001F001F0010000BE
:104F5C000000000000000000000000000000000045
:104F6C00000000009EF7FFFFFFFFFFFFE7FBE7F9E4
:104F7C00C7F1C7F1C7F1C7F1C7F1C7F1C7F1C7F165
:104F8C00C7F100000000000000000000000000005D
:104F9C000000000000000000FC3DFE3F9E3F1F3F54
:104FAC001F3E1F3C1F3C1F3C1F3C1F3C1F3C1F3C1B
:104FBC001F3C1F3C1F3C00000000000000000000D4
:104FCC00000000000000000000000000F007FC1FC3
:104FDC003E3E1F3C1F7C0F780F780F780F780F78B0
:104FEC001F7C1F3C3E3EFC1FF00700000000000031
:104FFC0000000000000000000000000000000000A5
:10500C00F83DFE3F3E3F1F3E0F3C0F3C0F3C0F3C1C
:10501C000F3C0F3C1F3C1E3E3E3FFC3FF83F003C0C
:10502C00003C003C003C003C000000000000000084
:10503C0000000000EE07FE1F7E3E1E3C1E7C1E780C
:10504C001E781E781E781E781E7C3E7C7E3EFE1FCF
:10505C00DE0F1E001E001E001E001E0000000000C1
:10506C0000000000000000007F1FFF1FE71FC71F8C
:10507C00871F001F001F001F001F001F001F001FA5
:10508C00001F001F001F00000000000000000000B7
:10509C00000000000000000000000000FC07FE1FE4
:1050AC000E1E003E003E003FE01FFC07FE003E00CF
:1050BC001E001E003E3CFC3FF01F000000000000E4
:1050CC00000000000000000000008007800780073F
:1050DC00FF7FFF7F8007800780078007800780079E
:1050EC008007800780078007C007FF03FF010000CF
:1050FC0000000000000000000000000000000000A4
:10510C00000000001E3C1E3C1E3C1E3C1E3C1E3C77
:10511C001E3C1E3C1E3C1E3C3E3C7E3CFE3EFE1F8E
:10512C00DE0F000000000000000000000000000086
:10513C00000000000000000007F00F780F781E3C04
:10514C001E3C1E3E3C1E3C1E780F780FF00FF007E5
:10515C00F007E003E0030000000000000000000086
:10516C0000000000000000000000000003F0E3F16C
:10517C00E3F3E7F3F7F3F7F3F77F777F7F7F7F7F37
:10518C007F7F3E3E3E3E3E3E3E3E00000000000025
:10519C000000000000000000000000000000000003
:1051AC000F7C1E3E3C3E3C1FF80FF007F007E0035F
:1051BC00F007F807F80F7C1E3E3E1F3C1F780000DE
:1051CC0000000000000000000000000000000000D3
:1051DC000000000007F80F780F7C1E3C1E3C3C1EA4
:1051EC003C1E3C1F780FF80FF007F007E003E003BC
:1051FC00C003C003C0038007800F007F00000000C5
:10520C000000000000000000FF3FFF3F1F003E00B9
:10521C007C00F800F001E003C007800F001F001EA7
:10522C00003CFF7FFF7F000000000000000000003A
:10523C00FE01E003C003C003C003C003E001E001B2
:10524C00E001C001C003803F803FC003C001E0010A
:10525C00E001E001C003C003C003C003E003FE0192
:10526C007E000000C001C001C001C001C001C0012E
:10527C00C001C001C001C001C001C001C001C0011A
:10528C00C001C001C001C001C001C001C001C0010A
:10529C00C001C001C0010000C03FE003E001E0011B
:1052AC00E001E001C001C003C003C001E001FE0049
:1052BC00FE00E001C001C003C003C001E001E00139
:1052CC00E001E001E003C03F003F000000000000EF
:1052DC0000000000000000000000000000000000C2
:1052EC000000073FC77FE773FFF17EF0000000006E
:1052FC0000000000000000000000000000000000A2
:10530C000000000000000000010203040607080969
:04531C003101000853
:045320000D01000873
:10532400100000000100000040802000A000800068
:1053340002010000070A0000F82A00080B1200000E
:1053440064320008101A0000C03F00080024F40072
:040000050800293195
:00000001FF
