:020000040800F2
:100000000028002089390008A9380008B538000800
:10001000BB380008C1380008C738000800000000DD
:10002000000000000000000000000000CD380008C3
:10003000D938000800000000E5380008F138000851
:10004000D1390008D1390008D1390008D139000868
:10005000D1390008D1390008D1390008D139000858
:10006000D1390008D1390008D1390008D139000848
:10007000D1390008D1390008D1390008D139000838
:10008000D1390008D1390008D1390008D139000828
:10009000D1390008D1390008D1390008D139000818
:1000A000D1390008D1390008D1390008FD380008DD
:1000B000D13900081139000800000000D1390008CA
:1000C000D13900080000000000000000D13900080C
:1000D00000000000D1390008D139000800000000FC
:1000E000D1390008D1390008D139000800000000DA
:1000F0000000000000000000000000000000000000
:0C01000000000000000000005FF808F1A3
:10010C0010B5054C237833B9044B13B10448AFF345
:10011C0000800123237010BD70000020000000003F
:10012C002C43000808B5034B1BB103490348AFF33C
:10013C00008008BD00000000740000202C43000863
:10014C0080F0004002E000BF81F0004142001FBF80
:10015C005FEA410392EA030F7FEA226C7FEA236C89
:10016C006AD04FEA1262D2EB1363C1BFD21841407E
:10017C0048404140B8BF5B42192B88BF704710F014
:10018C00004F40F4000020F07F4018BF404211F0B7
:10019C00004F41F4000121F07F4118BF494292EA1F
:1001AC00030F3FD0A2F1010241FA03FC10EB0C004B
:1001BC00C3F1200301FA03F100F0004302D54942D8
:1001CC0060EB4000B0F5000F13D3B0F1807F06D385
:1001DC0040084FEA310102F10102FE2A51D2B1F17D
:1001EC00004F40EBC25008BF20F0010040EA030072
:1001FC007047490040EB0000013A28BFB0F5000FF2
:10020C00EDD2B0FA80FCACF1080CB2EB0C0200FAA7
:10021C000CF0AABF00EBC25052421843BCBFD040F6
:10022C001843704792F0000F81F4000106BF80F470
:10023C0000000132013BB5E74FEA41037FEA226C33
:10024C0018BF7FEA236C21D092EA030F04D092F0FE
:10025C00000F08BF0846704790EA010F1CBF002032
:10026C00704712F07F4F04D1400028BF40F000408F
:10027C00704712F100723CBF00F50000704700F0AF
:10028C00004343F0FE4040F4000070477FEA2262D6
:10029C0016BF08467FEA23630146420206BF5FEAA7
:1002AC00412390EA010F40F4800070474FF00003A7
:1002BC0004E000BF10F0004348BF40425FEA000C6E
:1002CC0008BF704743F0964301464FF000001CE016
:1002DC0050EA010208BF70474FF000030AE000BF6C
:1002EC0050EA010208BF704711F0004302D54042AA
:1002FC0061EB41015FEA010C02BF8446014600201C
:10030C0043F0B64308BFA3F18053A3F50003BCFA36
:10031C008CF2083AA3EBC25310DB01FA02FC6344E3
:10032C0000FA02FCC2F12002BCF1004F20FA02F2EA
:10033C0043EB020008BF20F00100704702F12002DD
:10034C0001FA02FCC2F1200250EA4C0021FA02F23E
:10035C0043EB020008BF20EADC7070474FF0FF0C43
:10036C001CEAD0521EBF1CEAD15392EA0C0F93EA3E
:10037C000C0F6FD01A4480EA010C400218BF5FEAE0
:10038C0041211ED04FF0006343EA501043EA511153
:10039C00A0FB01310CF00040B1F5000F3EBF49004D
:1003AC0041EAD3715B0040EA010062F17F02FD2A51
:1003BC001DD8B3F1004F40EBC25008BF20F0010034
:1003CC00704790F0000F0CF0004C08BF49024CEA4B
:1003DC00502040EA51207F3AC2BFD2F1FF0340EADD
:1003EC00C250704740F400004FF00003013A5DDC4E
:1003FC0012F1190FDCBF00F000407047C2F100028F
:10040C00410021FA02F1C2F1200200FA02FC5FEA7B
:10041C00310040F1000053EA4C0308BF20EADC70C5
:10042C00704792F0000F00F0004C02BF400010F437
:10043C00000F013AF9D040EA0C0093F0000F01F0E4
:10044C00004C02BF490011F4000F013BF9D041EA06
:10045C000C018FE70CEAD15392EA0C0F18BF93EA08
:10046C000C0F0AD030F0004C18BF31F0004CD8D132
:10047C0080EA010000F00040704790F0000F17BFB9
:10048C0090F0004F084691F0000F91F0004F14D0FF
:10049C0092EA0C0F01D142020FD193EA0C0F03D157
:1004AC004B0218BF084608D180EA010000F000405A
:1004BC0040F0FE4040F40000704740F0FE4040F435
:1004CC00400070474FF0FF0C1CEAD0521EBF1CEAD4
:1004DC00D15392EA0C0F93EA0C0F69D0A2EB0302F2
:1004EC0080EA010C49024FEA402037D04FF080538C
:1004FC0043EA111143EA10130CF000408B4238BF51
:10050C005B0042F17D024FF4000C8B4224BF5B1A5E
:10051C0040EA0C00B3EB510F24BFA3EB510340EAAC
:10052C005C00B3EB910F24BFA3EB910340EA9C005A
:10053C00B3EBD10F24BFA3EBD10340EADC001B01CA
:10054C0018BF5FEA1C1CE0D1FD2A3FF650AF8B426E
:10055C0040EBC25008BF20F0010070470CF0004C7B
:10056C004CEA50207F32C2BFD2F1FF0340EAC250A6
:10057C00704740F400004FF00003013A37E792F067
:10058C00000F00F0004C02BF400010F4000F013AC5
:10059C00F9D040EA0C0093F0000F01F0004C02BFC0
:1005AC00490011F4000F013BF9D041EA0C0195E729
:1005BC000CEAD15392EA0C0F08D142027FF47DAFC2
:1005CC0093EA0C0F7FF470AF084676E793EA0C0FB2
:1005DC0004D14B023FF44CAF08466EE730F0004CB0
:1005EC0018BF31F0004CCAD130F000427FF45CAF40
:1005FC0031F000437FF43CAF5FE700BF4FEA4002AD
:10060C00B2F1FE4F0FD34FF09E03B3EB12620DD934
:10061C004FEA002343F0004310F0004F23FA02F09E
:10062C0018BF404270474FF00000704712F1610F45
:10063C0001D1420205D110F0004008BF6FF000401C
:10064C0070474FF00000704780B500AF084B1B6837
:10065C00074A43F010031360032000F047F9002011
:10066C0000F008F802F0C6FF0023184680BD00BF5A
:10067C000020024080B582B000AF7860124B1A683F
:10068C00124B1B7819464FF47A73B3FBF1F3B2FBA0
:10069C00F3F3184600F05FF90346002B01D0012359
:1006AC000EE07B680F2B0AD8002279684FF0FF30E0
:1006BC0000F027F9064A7B681360002300E0012351
:1006CC0018460837BD4680BD0800002004000020F5
:1006DC000000002080B400AF054B1B781A46054B78
:1006EC001B681344034A136000BFBD4680BC7047AF
:1006FC00040000208C00002080B400AF024B1B686B
:10070C001846BD4680BC70478C00002080B584B074
:10071C0000AF7860FFF7F0FFB8607B68FB60FB68A8
:10072C00B3F1FF3F05D00A4B1B781A46FB68134404
:10073C00FB6000BFFFF7E0FF0246BB68D31AFA6804
:10074C009A42F7D800BF00BF1037BD4680BD00BF2E
:10075C000400002080B485B000AF78607B6803F0A3
:10076C000703FB600C4BDB68BB60BA684FF6FF03FA
:10077C001340BB60FB681A02BB68134343F0BF63B2
:10078C0043F40033BB60044ABB68D36000BF14372A
:10079C00BD4680BC704700BF00ED00E080B400AFE8
:1007AC00044BDB681B0A03F007031846BD4680BCEC
:1007BC00704700BF00ED00E080B483B000AF03468B
:1007CC00FB7197F90730002B0BDBFB7903F01F0251
:1007DC00064997F907305B09012000FA02F241F84B
:1007EC00232000BF0C37BD4680BC704700E100E001
:1007FC0080B483B000AF03463960FB7197F90730C2
:10080C00002B0ADB3B68DAB20C4997F9073012016E
:10081C00D2B20B4483F800230AE03B68DAB20849F1
:10082C00FB7903F00F03043B1201D2B20B441A768E
:10083C0000BF0C37BD4680BC704700BF00E100E034
:10084C0000ED00E080B489B000AFF860B9607A6068
:10085C00FB6803F00703FB61FB69C3F10703042B7F
:10086C0028BF0423BB61FB690433062B02D9FB6947
:10087C00033B00E000237B614FF0FF32BB6902FABF
:10088C0003F3DA43BB681A407B699A404FF0FF319F
:10089C007B6901FA03F3D9437B680B401343184679
:1008AC002437BD4680BC704780B582B000AF7860FD
:1008BC007B68013BB3F1807F01D301230FE00A4A2F
:1008CC007B68013B53600F214FF0FF30FFF790FF27
:1008DC00054B00229A60044B07221A60002318462D
:1008EC000837BD4680BD00BF10E000E080B582B087
:1008FC0000AF78607868FFF72DFF00BF0837BD4662
:10090C0080BD80B586B000AF0346B9607A60FB73DA
:10091C0000237B61FFF742FF78617A68B9687869D8
:10092C00FFF790FF024697F90F3011461846FFF774
:10093C005FFF00BF1837BD4680BD80B582B000AFE9
:10094C000346FB7197F907301846FFF735FF00BFD8
:10095C000837BD4680BD80B582B000AF786078683E
:10096C00FFF7A2FF034618460837BD4680BD0000BE
:10097C0080B48BB000AF7860396000237B620023B9
:10098C003B6261E101227B6A02FA03F3FB613B6883
:10099C001B68FA691340BB61BA69FB699A4240F063
:1009AC0050813B685B68974A93425ED0954A93426C
:1009BC0075D8954A934258D0934A93426FD8934A2C
:1009CC00934252D0914A934269D8914A93424CD067
:1009DC008F4A934263D88F4A934246D08D4A9342B2
:1009EC005DD8122B2AD8122B59D801A252F823F019
:1009FC00770A0008510A0008630A0008A50A0008D3
:100A0C00AB0A0008AB0A0008AB0A0008AB0A0008E6
:100A1C00AB0A0008AB0A0008AB0A0008AB0A0008D6
:100A2C00AB0A0008AB0A0008AB0A0008AB0A0008C6
:100A3C00AB0A0008590A00086D0A0008764A93426E
:100A4C0013D02CE03B68DB683B6229E03B68DB6839
:100A5C0004333B6224E03B68DB6808333B621FE0F5
:100A6C003B68DB680C333B621AE03B689B68002BED
:100A7C0002D104233B6213E03B689B68012B05D138
:100A8C0008233B627B68FA691A6109E008233B6220
:100A9C007B68FA695A6103E000233B6200E000BF07
:100AAC00BB69FF2B01D87B6801E07B6804337B6159
:100ABC00BB69FF2B02D87B6A9B0002E07B6A083B78
:100ACC009B003B617B691A680F213B6901FA03F3B8
:100ADC00DB431A40396A3B6901FA03F31A437B6919
:100AEC001A603B685B6803F08053002B00F0A98010
:100AFC004A4B9B69494A43F001039361474B9B69FD
:100B0C0003F00103BB60BB68454A7B6A9B08023358
:100B1C0052F82330FB607B6A03F003039B000F2227
:100B2C0002FA03F3DB43FA681340FB607B683D4A2F
:100B3C0093420DD07B683C4A934207D07B683B4A7A
:100B4C00934201D1022304E0032302E0012300E0DD
:100B5C0000237A6A02F0030292009340FA6813436E
:100B6C00FB602F497B6A9B080233FA6841F823200B
:100B7C003B685B6803F48033002B06D02C4B1A685F
:100B8C002B49BB6913430B6006E0294B1A68BB6900
:100B9C00DB43274913400B603B685B6803F400336D
:100BAC00002B06D0224B5A682149BB6913434B607A
:100BBC0006E01F4B5A68BB69DB431D4913404B6071
:100BCC003B685B6803F48013002B06D0184B9A68C3
:100BDC001749BB6913438B6006E0154B9A68BB69D8
:100BEC00DB43134913408B603B685B6803F40013D1
:100BFC00002B1FD00E4BDA680D49BB691343CB6039
:100C0C001FE000BF00003210000031100000221065
:100C1C000000211000001210000011100010024002
:100C2C000000014000080140000C01400010014090
:100C3C00000401400B4BDA68BB69DB4309491340E4
:100C4C00CB607B6A01337B623B681A687B6A22FA51
:100C5C0003F3002B7FF496AE00BF00BF2C37BD46CC
:100C6C0080BC70470004014080B485B000AF786050
:100C7C000B467B807B689A687B881340002B02D0E4
:100C8C000123FB7301E00023FB73FB7B1846143735
:100C9C00BD4680BC7047000080B586B000AF786060
:100CAC007B68002B01D1012372E27B681B6803F087
:100CBC000103002B00F08780924B5B6803F00C0360
:100CCC00042B0CD08F4B5B6803F00C03082B12D158
:100CDC008C4B5B6803F48033B3F5803F0BD1894BAD
:100CEC001B6803F40033002B6CD07B685B68002B13
:100CFC0068D101234CE27B685B68B3F5803F06D179
:100D0C00804B1B687F4A43F4803313602EE07B6872
:100D1C005B68002B0CD17B4B1B687A4A23F4803325
:100D2C001360784B1B68774A23F4802313601DE013
:100D3C007B685B68B3F5A02F0CD1724B1B68714AB2
:100D4C0043F4802313606F4B1B686E4A43F480336B
:100D5C0013600BE06B4B1B686A4A23F480331360FF
:100D6C00684B1B68674A23F4802313607B685B68BD
:100D7C00002B13D0FFF7C0FC386108E0FFF7BCFC78
:100D8C0002463B69D31A642B01D9032300E25D4B65
:100D9C001B6803F40033002BF0D014E0FFF7ACFC1D
:100DAC00386108E0FFF7A8FC02463B69D31A642BB4
:100DBC0001D90323ECE1534B1B6803F40033002BE4
:100DCC00F0D100E000BF7B681B6803F00203002B2E
:100DDC0063D04C4B5B6803F00C03002B0BD0494BDE
:100DEC005B6803F00C03082B1CD1464B5B6803F4C7
:100DFC008033002B16D1434B1B6803F00203002BEE
:100E0C0005D07B681B69012B01D00123C0E13D4B50
:100E1C001B6823F0F8027B685B69DB0039491343DC
:100E2C000B603AE07B681B69002B20D0364B01220B
:100E3C001A60FFF761FC386108E0FFF75DFC0246C1
:100E4C003B69D31A022B01D90323A1E12D4B1B685B
:100E5C0003F00203002BF0D02A4B1B6823F0F8029E
:100E6C007B685B69DB00274913430B6015E0264B5D
:100E7C0000221A60FFF740FC386108E0FFF73CFCE9
:100E8C0002463B69D31A022B01D9032380E11D4B87
:100E9C001B6803F00203002BF0D17B681B6803F086
:100EAC000803002B3AD07B689B69002B19D0174B99
:100EBC0001221A60FFF720FC386108E0FFF71CFCE8
:100ECC0002463B69D31A022B01D9032360E10D4B77
:100EDC005B6A03F00203002BF0D0012000F0D8FA7B
:100EEC001CE00A4B00221A60FFF706FC38610FE089
:100EFC00FFF702FC02463B69D31A022B08D90323E5
:100F0C0046E100BF00100240000042428004424211
:100F1C00924B5B6A03F00203002BE9D17B681B68E0
:100F2C0003F00403002B00F0A6800023FB758B4B11
:100F3C00DB6903F08053002B0DD1884BDB69874AAA
:100F4C0043F08053D361854BDB6903F08053BB6066
:100F5C00BB680123FB75824B1B6803F48073002B69
:100F6C0018D17F4B1B687E4A43F480731360FFF7E4
:100F7C00C3FB386108E0FFF7BFFB02463B69D31A9D
:100F8C00642B01D9032303E1754B1B6803F48073B5
:100F9C00002BF0D07B68DB68012B06D16F4B1B6AF2
:100FAC006E4A43F0010313622DE07B68DB68002B73
:100FBC000CD16A4B1B6A694A23F001031362674B1D
:100FCC001B6A664A23F0040313621CE07B68DB682F
:100FDC00052B0CD1614B1B6A604A43F0040313626E
:100FEC005E4B1B6A5D4A43F0010313620BE05B4BE3
:100FFC001B6A5A4A23F001031362584B1B6A574A67
:10100C0023F0040313627B68DB68002B15D0FFF719
:10101C0073FB38610AE0FFF76FFB02463B69D31A9A
:10102C0041F28832934201D90323B1E04B4B1B6A46
:10103C0003F00203002BEED014E0FFF75DFB3861E8
:10104C000AE0FFF759FB02463B69D31A41F288329A
:10105C00934201D903239BE0404B1B6A03F002032C
:10106C00002BEED1FB7D012B05D13C4BDB693B4AC0
:10107C0023F08053D3617B68DB69002B00F0878001
:10108C00364B5B6803F00C03082B61D07B68DB6983
:10109C00022B46D1334B00221A60FFF72DFB38612F
:1010AC0008E0FFF729FB02463B69D31A022B01D952
:1010BC0003236DE0294B1B6803F00073002BF0D168
:1010CC007B681B6AB3F5803F08D1244B5B6823F423
:1010DC0000327B689B68214913434B601F4B5B6854
:1010EC0023F474127B68196A7B685B6A0B431B4997
:1010FC0013434B601B4B01221A60FFF7FDFA38615A
:10110C0008E0FFF7F9FA02463B69D31A022B01D922
:10111C0003233DE0114B1B6803F00073002BF0D050
:10112C0035E0104B00221A60FFF7E6FA386108E050
:10113C00FFF7E2FA02463B69D31A022B01D90323CB
:10114C0026E0064B1B6803F00073002BF0D11EE069
:10115C007B68DB69012B07D1012319E000100240E9
:10116C0000700040600042420B4B5B68FB60FB6808
:10117C0003F480327B681B6A9A4206D1FB6803F445
:10118C0070127B685B6A9A4201D0012300E0002355
:10119C0018461837BD4680BD0010024080B584B09B
:1011AC0000AF786039607B68002B01D10123D0E05F
:1011BC006A4B1B6803F007033A689A4210D9674BD5
:1011CC001B6823F0070265493B6813430B60634BB4
:1011DC001B6803F007033A689A4201D00123B8E078
:1011EC007B681B6803F00203002B20D07B681B6814
:1011FC0003F00403002B05D0594B5B68584A43F4A9
:10120C00E06353607B681B6803F00803002B05D078
:10121C00534B5B68524A43F460535360504B5B68CA
:10122C0023F0F0027B689B684D4913434B607B684D
:10123C001B6803F00103002B40D07B685B68012B1B
:10124C0007D1474B1B6803F40033002B15D1012346
:10125C007FE07B685B68022B07D1414B1B6803F076
:10126C000073002B09D1012373E03D4B1B6803F085
:10127C000203002B01D101236BE0394B5B6823F097
:10128C0003027B685B68364913434B60FFF734FA03
:10129C00F8600AE0FFF730FA0246FB68D31A41F215
:1012AC008832934201D9032353E02D4B5B6803F042
:1012BC000C027B685B689B009A42EBD1274B1B6846
:1012CC0003F007033A689A4210D2244B1B6823F0B0
:1012DC00070222493B6813430B60204B1B6803F049
:1012EC0007033A689A4201D0012332E07B681B68FD
:1012FC0003F00403002B08D0194B5B6823F4E06265
:10130C007B68DB68164913434B607B681B6803F0F2
:10131C000803002B09D0124B5B6823F460527B68E6
:10132C001B69DB000E4913434B6000F021F80246A9
:10133C000B4B5B681B0903F00F030A49CB5C22FAC9
:10134C0003F3094A1360094B1B681846FFF792F91F
:10135C00002318461037BD4680BD00BF0020024058
:10136C000010024064430008080000200000002028
:10137C0090B48AB000AF294B3C1D0FCB84E80F0012
:10138C0040F201233B800023FB610023BB6100235F
:10139C007B6200237B6100233B62214B5B68FB611A
:1013AC00FB6903F00C03042B02D0082B03D02BE0B9
:1013BC001C4B3B622BE0FB699B0C03F00F032833A7
:1013CC003B4413F8243C7B61FB6903F48033002B12
:1013DC0012D0134B5B685B0C03F0010328333B44C6
:1013EC0013F8283CBB617B690E4A03FB02F2BB6914
:1013FC00B2FBF3F37B6204E07B690B4A02FB03F361
:10140C007B627B6A3B6202E0064B3B6200BF3B6A3D
:10141C0018462837BD4690BC704700BF44430008AF
:10142C000010024000127A0000093D0080B400AFA9
:10143C00024B1B681846BD4680BC70470800002054
:10144C0080B500AFFFF7F2FF0246054B5B681B0A45
:10145C0003F007030349CB5C22FA03F3184680BD63
:10146C00001002407443000880B500AFFFF7DEFFA8
:10147C000246054B5B68DB0A03F007030349CB5CB0
:10148C0022FA03F3184680BD001002407443000892
:10149C0080B485B000AF78600A4B1B680A4AA2FB87
:1014AC0003235B0A7A6802FB03F3FB6000BFFB6853
:1014BC005A1EFA60002BF9D100BF00BF1437BD468D
:1014CC0080BC704708000020D34D621080B582B0FC
:1014DC0000AF78607B68002B01D1012341E07B6871
:1014EC0093F83D30DBB2002B06D17B68002283F8E9
:1014FC003C20786802F0B0F87B68022283F83D202B
:10150C007B681A687B6804331946104600F05CFF50
:10151C007B68012283F846207B68012283F83E20F9
:10152C007B68012283F83F207B68012283F84020EE
:10153C007B68012283F841207B68012283F84220DA
:10154C007B68012283F843207B68012283F84420C6
:10155C007B68012283F845207B68012283F83D20BB
:10156C00002318460837BD4680BD80B582B000AF59
:10157C0078607B68002B01D1012341E07B6893F8F4
:10158C003D30DBB2002B06D17B68002283F83C2077
:10159C00786800F039F87B68022283F83D207B687C
:1015AC001A687B6804331946104600F00DFF7B68FF
:1015BC00012283F846207B68012283F83E207B6859
:1015CC00012283F83F207B68012283F840207B684E
:1015DC00012283F841207B68012283F842207B683A
:1015EC00012283F843207B68012283F844207B6826
:1015FC00012283F845207B68012283F83D200023DB
:10160C0018460837BD4680BD80B483B000AF786003
:10161C0000BF0C37BD4680BC7047000080B584B05D
:10162C0000AF786039603B68002B09D17B6893F878
:10163C003E30DBB2012B14BF01230023DBB222E0CE
:10164C003B68042B09D17B6893F83F30DBB2012B4C
:10165C0014BF01230023DBB215E03B68082B09D132
:10166C007B6893F84030DBB2012B14BF01230023BD
:10167C00DBB208E07B6893F84130DBB2012B14BF7E
:10168C0001230023DBB2002B01D0012359E03B687E
:10169C00002B04D17B68022283F83E2013E03B68C8
:1016AC00042B04D17B68022283F83F200BE03B68BB
:1016BC00082B04D17B68022283F8402003E07B686E
:1016CC00022283F841207B681B6801223968184686
:1016DC0001F0F7F97B681B681C4A934207D17B68C1
:1016EC001B685A6C7B681B6842F400425A647B6826
:1016FC001B68164A934209D07B681B68B3F1804F74
:10170C0004D07B681B68124A934211D17B681B681A
:10171C009B6803F00703FB60FB68062B10D07B680B
:10172C001B681A687B681B6842F001021A6007E0AC
:10173C007B681B681A687B681B6842F001021A60A0
:10174C00002318461037BD4680BD00BF002C014059
:10175C000004004080B582B000AF786039607B68CF
:10176C001B6800223968184601F0ABF97B681B68CE
:10177C00294A934217D17B681B681A6A41F21113EC
:10178C001340002B0FD17B681B681A6A40F244434C
:10179C001340002B07D17B681B685A6C7B681B6855
:1017AC0022F400425A647B681B681A6A41F21113D6
:1017BC001340002B0FD17B681B681A6A40F244431C
:1017CC001340002B07D17B681B681A687B681B6869
:1017DC0022F001021A603B68002B04D17B680122C5
:1017EC0083F83E2013E03B68042B04D17B68012274
:1017FC0083F83F200BE03B68082B04D17B68012267
:10180C0083F8402003E07B68012283F84120002309
:10181C0018460837BD4680BD002C014080B582B00B
:10182C0000AF78607B68002B01D1012341E07B681D
:10183C0093F83D30DBB2002B06D17B68002283F895
:10184C003C20786800F039F87B68022283F83D2050
:10185C007B681A687B6804331946104600F0B4FDA7
:10186C007B68012283F846207B68012283F83E20A6
:10187C007B68012283F83F207B68012283F840209B
:10188C007B68012283F841207B68012283F8422087
:10189C007B68012283F843207B68012283F8442073
:1018AC007B68012283F845207B68012283F83D2068
:1018BC00002318460837BD4680BD80B483B000AF06
:1018CC00786000BF0C37BD4680BC704780B584B0D3
:1018DC0000AF786039603B68002B04D17B6893F8CB
:1018EC003E30DBB213E03B68042B04D17B6893F8E9
:1018FC003F30DBB20BE03B68082B04D17B6893F8DC
:10190C004030DBB203E07B6893F84130DBB2FB7311
:10191C003B68002B04D17B6893F84230DBB213E0B8
:10192C003B68042B04D17B6893F84330DBB20BE0AB
:10193C003B68082B04D17B6893F84430DBB203E09E
:10194C007B6893F84530DBB2BB73FB7B012B02D178
:10195C00BB7B012B01D00123AEE03B68002B04D1F3
:10196C007B68022283F83E2013E03B68042B04D1F1
:10197C007B68022283F83F200BE03B68082B04D1E4
:10198C007B68022283F8402003E07B68022283F804
:10199C0041203B68002B04D17B68022283F8422053
:1019AC0013E03B68042B04D17B68022283F84320AC
:1019BC000BE03B68082B04D17B68022283F844209F
:1019CC0003E07B68022283F845203B680C2B41D84E
:1019DC0001A252F823F000BF191A0008611A00087E
:1019EC00611A0008611A00082B1A0008611A000815
:1019FC00611A0008611A00083D1A0008611A0008F3
:101A0C00611A0008611A00084F1A00087B681B68ED
:101A1C00DA687B681B6842F00202DA601BE07B68C4
:101A2C001B68DA687B681B6842F00402DA6012E01B
:101A3C007B681B68DA687B681B6842F00802DA6016
:101A4C0009E07B681B68DA687B681B6842F010024F
:101A5C00DA6000E000BF7B681B6801223968184619
:101A6C0001F02FF87B681B68154A934209D07B68FC
:101A7C001B68B3F1804F04D07B681B68114A9342FA
:101A8C0011D17B681B689B6803F00703BB60BB68C4
:101A9C00062B10D07B681B681A687B681B6842F0A9
:101AAC0001021A6007E07B681B681A687B681B6878
:101ABC0042F001021A60002318461037BD4680BD63
:101ACC00002C01400004004080B582B000AF78606B
:101ADC0039603B680C2B41D801A252F823F000BFAF
:101AEC00211B0008691B0008691B0008691B000802
:101AFC00331B0008691B0008691B0008691B0008E0
:101B0C00451B0008691B0008691B0008691B0008BD
:101B1C00571B00087B681B68DA687B681B6822F01F
:101B2C000202DA601BE07B681B68DA687B681B6862
:101B3C0022F00402DA6012E07B681B68DA687B68CA
:101B4C001B6822F00802DA6009E07B681B68DA681F
:101B5C007B681B6822F01002DA6000E000BF7B6833
:101B6C001B6800223968184600F0ABFF7B681B68C5
:101B7C001A6A41F211131340002B0FD17B681B68BA
:101B8C001A6A40F244431340002B07D17B681B6850
:101B9C001A687B681B6822F001021A603B68002BF4
:101BAC0004D17B68012283F83E2013E03B68042BB0
:101BBC0004D17B68012283F83F200BE03B68082BA3
:101BCC0004D17B68012283F8402003E07B6801226A
:101BDC0083F841203B68002B04D17B68012283F8F9
:101BEC00422013E03B68042B04D17B68012283F86C
:101BFC0043200BE03B68082B04D17B68012283F85F
:101C0C00442003E07B68012283F84520002318461A
:101C1C000837BD4680BD00BF80B582B000AF78608C
:101C2C0039607B68002B01D1012341E07B6893F87C
:101C3C003D30DBB2002B06D17B68002283F83C20C0
:101C4C00786800F039F87B68022283F83D207B68C5
:101C5C001A687B6804331946104600F0B5FB7B68A4
:101C6C001B681A687B681B6822F008021A607B6884
:101C7C001B6819687B681B683A680A431A607B68A2
:101C8C00012283F846207B68012283F83E207B6882
:101C9C00012283F83F207B68012283F842207B6875
:101CAC00012283F843207B68012283F83D20002326
:101CBC0018460837BD4680BD80B483B000AF78604D
:101CCC0000BF0C37BD4680BC704780B582B000AFFA
:101CDC0078607B681B681B6903F00203022B22D11E
:101CEC007B681B68DB6803F00203022B1BD17B684B
:101CFC001B686FF002021A617B6801221A777B68FD
:101D0C001B689B6903F00303002B03D0786801F078
:101D1C0033F905E0786800F03BFB786800F041FB94
:101D2C007B6800221A777B681B681B6903F004032D
:101D3C00042B22D17B681B68DB6803F00403042BA3
:101D4C001BD17B681B686FF004021A617B6802224E
:101D5C001A777B681B689B6903F44073002B03D0D4
:101D6C00786801F009F905E0786800F011FB7868F3
:101D7C0000F017FB7B6800221A777B681B681B69D5
:101D8C0003F00803082B22D17B681B68DB6803F087
:101D9C000803082B1BD17B681B686FF008021A61C3
:101DAC007B6804221A777B681B68DB6903F00303EA
:101DBC00002B03D0786801F0DFF805E0786800F0BC
:101DCC00E7FA786800F0EDFA7B6800221A777B68F6
:101DDC001B681B6903F01003102B22D17B681B6856
:101DEC00DB6803F01003102B1BD17B681B686FF0B2
:101DFC0010021A617B6808221A777B681B68DB6902
:101E0C0003F44073002B03D0786801F0B5F805E0BB
:101E1C00786800F0BDFA786800F0C3FA7B6800229D
:101E2C001A777B681B681B6903F00103012B0ED129
:101E3C007B681B68DB6803F00103012B07D17B680F
:101E4C001B686FF001021A61786801F081F87B68F9
:101E5C001B681B6903F08003802B0ED17B681B6809
:101E6C00DB6803F08003802B07D17B681B686FF065
:101E7C0080021A61786800F0AAFE7B681B681B69F7
:101E8C0003F04003402B0ED17B681B68DB6803F02A
:101E9C004003402B07D17B681B686FF040021A612E
:101EAC00786800F087FA7B681B681B6903F02003D5
:101EBC00202B0ED17B681B68DB6803F02003202BE2
:101ECC0007D17B681B686FF020021A61786800F0FC
:101EDC0075FE00BF0837BD4680BD80B584B000AF2D
:101EEC00F860B9607A60FB6893F83C30012B01D143
:101EFC00022382E0FB68012283F83C207B68002BE4
:101F0C001BD1FB681868BB681968BB685A68BB684A
:101F1C00DB6800F039FCFB681B689A69FB681B687E
:101F2C0022F00C029A61FB681B689969BB689A687D
:101F3C00FB681B680A439A615AE07B68042B1CD12E
:101F4C00FB681868BB681968BB685A68BB68DB68B3
:101F5C0000F09CFCFB681B689A69FB681B6822F408
:101F6C0040629A61FB681B689969BB689B681A029E
:101F7C00FB681B680A439A613AE07B68082B1BD10B
:101F8C00FB681868BB681968BB685A68BB68DB6873
:101F9C0000F0E7FCFB681B68DA69FB681B6822F041
:101FAC000C02DA61FB681B68D969BB689A68FB682C
:101FBC001B680A43DA611BE0FB681868BB68196888
:101FCC00BB685A68BB68DB6800F006FDFB681B68E1
:101FDC00DA69FB681B6822F44062DA61FB681B68F3
:101FEC00D969BB689B681A02FB681B680A43DA61F3
:101FFC00FB68002283F83C20002318461037BD46AE
:10200C0080BD000080B584B000AFF860B9607A6024
:10201C00FB6893F83C30012B01D10223ACE0FB6848
:10202C00012283F83C207B680C2B00F29F8001A2DC
:10203C0052F823F075200008792100087921000856
:10204C0079210008B52000087921000879210008C1
:10205C0079210008F720000879210008792100086F
:10206C007921000837210008FB681B68B9681846FD
:10207C0000F002FAFB681B689A69FB681B6842F067
:10208C0008029A61FB681B689A69FB681B6822F05E
:10209C0004029A61FB681B689969BB681A69FB6842
:1020AC001B680A439A6162E0FB681B68B9681846B2
:1020BC0000F048FAFB681B689A69FB681B6842F4DD
:1020CC0000629A61FB681B689A69FB681B6822F4C2
:1020DC0080629A61FB681B689969BB681B691A026C
:1020EC00FB681B680A439A6141E0FB681B68B9688E
:1020FC00184600F091FAFB681B68DA69FB681B68EC
:10210C0042F00802DA61FB681B68DA69FB681B683D
:10211C0022F00402DA61FB681B68D969BB681A6992
:10212C00FB681B680A43DA6121E0FB681B68B9682D
:10213C00184600F0DBFAFB681B68DA69FB681B6861
:10214C0042F40062DA61FB681B68DA69FB681B68A1
:10215C0022F48062DA61FB681B68D969BB681B6971
:10216C001A02FB681B680A43DA6100E000BFFB68D7
:10217C00002283F83C20002318461037BD4680BD52
:10218C0080B584B000AF786039607B6893F83C30E0
:10219C00012B01D10223B3E07B68012283F83C20A0
:1021AC007B68022283F83D207B681B689B68FB6080
:1021BC00FB6823F07703FB60FB6823F47F43FB6031
:1021CC007B681B68FA689A603B681B68B3F5005F14
:1021DC003ED0B3F5005F00F28780B3F5805F00F06E
:1021EC008580B3F5805F7FD8702B1AD0702B7BD88D
:1021FC00602B50D0602B77D8502B3CD0502B73D801
:10220C00402B58D0402B6FD8302B64D0302B6BD850
:10221C00202B60D0202B67D8002B5CD0102B5AD0F1
:10222C0062E07B6818683B6899683B685A683B6851
:10223C00DB6800F027FC7B681B689B68FB60FB6815
:10224C0043F07703FB607B681B68FA689A604EE08A
:10225C007B6818683B6899683B685A683B68DB6820
:10226C0000F010FC7B681B689A687B681B6842F462
:10227C0080429A603BE07B6818683B6859683B6811
:10228C00DB681A4600F0D4FA7B681B6850211846AC
:10229C0000F0DEFB2BE07B6818683B6859683B68F4
:1022AC00DB681A4600F02EFB7B681B686021184621
:1022BC0000F0CEFB1BE07B6818683B6859683B68F4
:1022CC00DB681A4600F0B4FA7B681B68402118469C
:1022DC0000F0BEFB0BE07B681A683B681B68194674
:1022EC00104600F0B5FB02E000BF00E000BF7B68C9
:1022FC00012283F83D207B68002283F83C200023D8
:10230C0018461037BD4680BD80B485B000AF7860EC
:10231C0039600023FB603B680C2B31D801A252F8CA
:10232C0023F000BF652300088D2300088D230008CF
:10233C008D2300086F2300088D2300088D230008CF
:10234C008D230008792300088D2300088D230008B5
:10235C008D230008832300087B681B685B6BFB6084
:10236C000FE07B681B689B6BFB600AE07B681B685B
:10237C00DB6BFB6005E07B681B681B6CFB6000E0A3
:10238C0000BFFB6818461437BD4680BC704700BFC1
:10239C0080B483B000AF786000BF0C37BD4680BC02
:1023AC00704780B483B000AF786000BF0C37BD4677
:1023BC0080BC704780B483B000AF786000BF0C372E
:1023CC00BD4680BC7047000080B485B000AF78601B
:1023DC0039607B681B68FB607B68254A934207D099
:1023EC007B68B3F1804F03D07B68224A934208D1BB
:1023FC00FB6823F07003FB603B685B68FA6813436F
:10240C00FB607B681A4A934207D07B68B3F1804F1C
:10241C0003D07B68174A934208D1FB6823F44073BE
:10242C00FB603B68DB68FA681343FB60FB6823F0D6
:10243C0080023B685B691343FB607B68FA681A6037
:10244C003B689A687B68DA623B681A687B689A62B8
:10245C007B68074A934203D13B681A697B681A630D
:10246C007B6801225A6100BF1437BD4680BC70479F
:10247C00002C01400004004080B487B000AF7860AD
:10248C0039607B681B6A23F001027B681A627B68E7
:10249C001B6A7B617B685B683B617B689B69FB604B
:1024AC00FB6823F07003FB60FB6823F00303FB6005
:1024BC003B681B68FA681343FB607B6923F00203DB
:1024CC007B613B689B687A6913437B617B681C4A20
:1024DC0093420CD17B6923F008037B613B68DB687A
:1024EC007A6913437B617B6923F004037B617B680E
:1024FC00134A934211D13B6923F480733B613B69CE
:10250C0023F400733B613B685B693A6913433B619D
:10251C003B689B693A6913433B617B683A695A6033
:10252C007B68FA689A613B685A687B685A637B6877
:10253C007A691A6200BF1C37BD4680BC704700BF69
:10254C00002C014080B487B000AF786039607B68A4
:10255C001B6A23F010027B681A627B681B6A7B6122
:10256C007B685B683B617B689B69FB60FB6823F461
:10257C00E043FB60FB6823F44073FB603B681B6823
:10258C001B02FA681343FB607B6923F020037B6119
:10259C003B689B681B017A6913437B617B681D4A0E
:1025AC0093420DD17B6923F080037B613B68DB6830
:1025BC001B017A6913437B617B6923F040037B61C8
:1025CC007B68144A934213D13B6923F480633B61CB
:1025DC003B6923F400633B613B685B699B003A6990
:1025EC0013433B613B689B699B003A6913433B6116
:1025FC007B683A695A607B68FA689A613B685A68EA
:10260C007B689A637B687A691A6200BF1C37BD4687
:10261C0080BC7047002C014080B487B000AF78605C
:10262C0039607B681B6A23F480727B681A627B6852
:10263C001B6A7B617B685B683B617B68DB69FB6069
:10264C00FB6823F07003FB60FB6823F00303FB6063
:10265C003B681B68FA681343FB607B6923F40073C7
:10266C007B613B689B681B027A6913437B617B68C7
:10267C001D4A93420DD17B6923F400637B613B6857
:10268C00DB681B027A6913437B617B6923F48063EB
:10269C007B617B68144A934213D13B6923F48053CA
:1026AC003B613B6923F400533B613B685B691B0155
:1026BC003A6913433B613B689B691B013A691343BD
:1026CC003B617B683A695A607B68FA68DA613B68FF
:1026DC005A687B68DA637B687A691A6200BF1C37B8
:1026EC00BD4680BC704700BF002C014080B487B051
:1026FC0000AF786039607B681B6A23F480527B687A
:10270C001A627B681B6A3B617B685B687B617B68D8
:10271C00DB69FB60FB6823F4E043FB60FB6823F49C
:10272C004073FB603B681B681B02FA681343FB6039
:10273C003B6923F400533B613B689B681B033A697C
:10274C0013433B617B680F4A934209D17B6923F4A5
:10275C0080437B613B685B699B017A6913437B61B6
:10276C007B687A695A607B68FA68DA613B685A68F8
:10277C007B681A647B683A691A6200BF1C37BD46D5
:10278C0080BC7047002C014080B487B000AFF8606B
:10279C00B9607A603B60FB681B6A23F00102FB683E
:1027AC001A62FB689B697B61FB681B6A3B61FB6877
:1027BC001D4A934207D0FB68B3F1804F03D0FB68EE
:1027CC001A4A934201D1012300E00023002B08D0C8
:1027DC007B6923F003037B617A697B6813437B611C
:1027EC0003E07B6943F001037B617B6923F0F00319
:1027FC007B613B681B01DBB27A6913437B613B69EC
:10280C0023F00A033B61BB6803F00A033A691343E4
:10281C003B61FB687A699A61FB683A691A6200BF8E
:10282C001C37BD4680BC7047002C014000040040A2
:10283C0080B487B000AFF860B9607A60FB681B6A3F
:10284C007B61FB681B6A23F00102FB681A62FB6860
:10285C009B693B613B6923F0F0033B617B681B0187
:10286C003A6913433B617B6923F00A037B617A6904
:10287C00BB6813437B61FB683A699A61FB687A69B0
:10288C001A6200BF1C37BD4680BC704780B487B04D
:10289C0000AFF860B9607A603B60FB681B6A23F09C
:1028AC001002FB681A62FB689B697B61FB681B6A00
:1028BC003B617B6923F440737B617B681B027A6903
:1028CC0013437B617B6923F470437B613B681B037F
:1028DC009BB27A6913437B613B6923F0A0033B6194
:1028EC00BB681B0103F0A0033A6913433B61FB680F
:1028FC007A699A61FB683A691A6200BF1C37BD4657
:10290C0080BC704780B487B000AFF860B9607A6063
:10291C00FB681B6A23F01002FB681A62FB689B6958
:10292C007B61FB681B6A3B617B6923F470437B61B1
:10293C007B681B037A6913437B613B6923F0A0031B
:10294C003B61BB681B013A6913433B61FB687A69C5
:10295C009A61FB683A691A6200BF1C37BD4680BC9D
:10296C00704780B487B000AFF860B9607A603B60A4
:10297C00FB681B6A23F48072FB681A62FB68DB69D4
:10298C007B61FB681B6A3B617B6923F003037B6102
:10299C007A697B6813437B617B6923F0F0037B616D
:1029AC003B681B01DBB27A6913437B613B6923F4FF
:1029BC0000733B61BB681B0203F400733A69134359
:1029CC003B61FB687A69DA61FB683A691A6200BF9D
:1029DC001C37BD4680BC704780B487B000AFF86030
:1029EC00B9607A603B60FB681B6A23F48052FB6819
:1029FC001A62FB68DB697B61FB681B6A3B617B6964
:102A0C0023F440737B617B681B027A6913437B61FF
:102A1C007B6923F470437B613B681B039BB27A692F
:102A2C0013437B613B6923F400533B61BB681B037D
:102A3C0003F400533A6913433B61FB687A69DA612A
:102A4C00FB683A691A6200BF1C37BD4680BC7047F0
:102A5C0080B485B000AF786039607B689B68FB60A0
:102A6C00FB6823F07003FB603A68FB68134343F088
:102A7C000703FB607B68FA689A6000BF1437BD4699
:102A8C0080BC704780B487B000AFF860B9607A60E2
:102A9C003B60FB689B687B617B6923F47F437B61B4
:102AAC003B681A027B681A43BB6813437A69134369
:102ABC007B61FB687A699A6000BF1C37BD4680BC9D
:102ACC00704780B487B000AFF860B9607A60BB68BB
:102ADC0003F01F03012202FA03F37B61FB681A6AFD
:102AEC007B69DB431A40FB681A62FB681A6ABB6895
:102AFC0003F01F03796801FA03F31A43FB681A62A7
:102B0C0000BF1C37BD4680BC7047000080B485B048
:102B1C0000AF786039607B6893F83C30012B01D1B1
:102B2C00022341E07B68012283F83C207B6802226F
:102B3C0083F83D207B681B685B68FB607B681B68C7
:102B4C009B68BB60FB6823F07003FB603B681B68F1
:102B5C00FA681343FB607B681B68FA685A607B68F1
:102B6C001B68144A934209D07B681B68B3F1804FF1
:102B7C0004D07B681B68104A93420CD1BB6823F0CD
:102B8C008003BB603B685B68BA681343BB607B68BF
:102B9C001B68BA689A607B68012283F83D207B68C9
:102BAC00002283F83C20002318461437BD4680BC15
:102BBC00704700BF002C01400004004080B483B07B
:102BCC0000AF786000BF0C37BD4680BC704780B446
:102BDC0083B000AF786000BF0C37BD4680BC704737
:102BEC0080B582B000AF78607B68002B01D10123E7
:102BFC003FE07B6893F83D30DBB2002B06D17B685D
:102C0C00002283F83C20786800F0EEFD7B682422DB
:102C1C0083F83D207B681B68DA687B681B6822F4AC
:102C2C000052DA60786800F005F97B681B681A6955
:102C3C007B681B6822F490421A617B681B685A6996
:102C4C007B681B6822F02A025A617B681B68DA6871
:102C5C007B681B6842F40052DA607B6800221A64BD
:102C6C007B68202283F83D207B68202283F83E205D
:102C7C00002318460837BD4680BD80B58AB002AF28
:102C8C00F860B9603B601346FB8000237B61FB68F6
:102C9C0093F83D30DBB2202B7CD1BB68002B02D0EB
:102CAC00FB88002B01D1012375E0FB6893F83C30C5
:102CBC00012B01D102236EE0FB68012283F83C203A
:102CCC00FB6800221A64FB68212283F83D20FDF783
:102CDC0013FD7861FB68FA889A84FB68FA88DA84B9
:102CEC00FB689B68B3F5805F08D1FB681B69002B00
:102CFC0004D10023FB61BB68BB6103E0BB68FB61D3
:102D0C000023BB61FB68002283F83C202AE03B686F
:102D1C0000937B6900228021F86800F040F803469C
:102D2C00002B01D0032336E0FB69002B0BD1BB69D0
:102D3C001B881A46FB681B68C2F308025A60BB6901
:102D4C000233BB6107E0FB691A78FB681B685A60A9
:102D5C00FB690133FB61FB68DB8C9BB2013B9AB2D4
:102D6C00FB68DA84FB68DB8C9BB2002BCFD13B6811
:102D7C0000937B6900224021F86800F010F80346AC
:102D8C00002B01D0032306E0FB68202283F83D20B2
:102D9C00002300E0022318462037BD4680BD80B5D5
:102DAC0084B000AFF860B9603B601346FB712CE057
:102DBC00BB69B3F1FF3F28D0BB69002B07D0FDF7EF
:102DCC009BFC02463B68D31ABA699A421DD2FB6837
:102DDC001B68DA68FB681B6822F4D072DA60FB6847
:102DEC001B685A69FB681B6822F001025A61FB6878
:102DFC00202283F83D20FB68202283F83E20FB68CC
:102E0C00002283F83C2003230FE0FB681B681A6840
:102E1C00BB681340BA689A420CBF01230023DBB293
:102E2C001A46FB799A42C3D0002318461037BD4688
:102E3C0080BD000080B584B000AF78607B681B68F3
:102E4C001B6923F440517B68DA687B681B680A4372
:102E5C001A617B689A687B681B691A437B685B699B
:102E6C001343BB607B681B68DB6823F4B05323F00F
:102E7C000C037A681268B9680B43D3607B681B68D3
:102E8C005B6923F440717B689A697B681B680A4311
:102E9C005A617B681B682C4A934203D1FEF7E4FA13
:102EAC00F86002E0FEF7CCFAF860FA6813469B0073
:102EBC0013449A001A447B685B689B00B2FBF3F3E3
:102ECC00224AA2FB03235B091901FA6813469B00F3
:102EDC0013449A001A447B685B689B00B2FBF3F2C4
:102EEC001A4BA3FB02035B09642000FB03F3D31A08
:102EFC001B013233154AA2FB03235B0903F0F003D9
:102F0C001944FA6813469B0013449A001A447B68D0
:102F1C005B689B00B2FBF3F20C4BA3FB02035B0957
:102F2C00642000FB03F3D31A1B013233074AA2FBC4
:102F3C0003235B0903F00F027B681B680A449A6049
:102F4C0000BF1037BD4680BD003801401F85EB51D6
:102F5C0080B483B000AF78607B68054A934202D19D
:102F6C00044B01221A6000BF0C37BD4680BC704771
:102F7C0020010020AC01002080B584B000AF786047
:102F8C007B681B7F082B5ED1314B1B68002B0AD151
:102F9C000C217868FFF7B8F903462E4A13602C4BC6
:102FAC0001221A604FE00C217868FFF7ADF9034657
:102FBC00294A1360284B1A68264B1B689A4207D97A
:102FCC00254B1A68234B1B68D31A244A13600DE057
:102FDC00204B1A68204B1B689A4207D91E4B1A6863
:102FEC001C4B1B68D31A013B1C4A13601C4BFB6027
:102FFC001A4B1B681846FDF759F903461946F86831
:10300C00FDF760FA03461A46164B1A60154B1B68FF
:10301C001846FDF7F3FA0346BB60BB68A3F5D07303
:10302C00BB60BA681049114800F000FD64233222DD
:10303C000E490F48FFF721FE7B681B6800225A627D
:10304C00034B00221A6000BF1037BD4680BD00BF85
:10305C00F0010020B0010020B4010020B8010020D4
:10306C0000247449F401002054430008BC010020E2
:10307C006801002080B582B000AFFDF7E5FA00F0E2
:10308C0089F800F079FA00F0C7F800F039F900F08F
:10309C00B7F900F047FA4FF400513848FDF7E4FD5A
:1030AC000346012B1BD108213548FEF7B7FA4FF424
:1030BC007A70FDF72BFB334B0122DA62304B1B6825
:1030CC001A682F4B1B6842F001021A6000BF2E4B8E
:1030DC001B68002BFBD02C4B00221A60DBE74FF453
:1030EC0080412648FDF7C0FD0346012B20D1042169
:1030FC002648FEF793FA09E04FF080427B68936311
:10310C007B6801337B600120FDF700FB7B68622B41
:10311C00F2D909E04FF080427B6893637B68013BF6
:10312C007B600120FDF7F2FA7B68002BF2D1B2E74D
:10313C004FF400411148FDF797FD0346012B0CD1CC
:10314C004FF080433222DA6308211048FEF766FA0A
:10315C000C210F48FEF7BAFB9DE704210B48FEF744
:10316C00F9FA08210948FEF7F5FA04210448FEF79C
:10317C00F1FA0C210648FEF7A7FC8CE7000C014085
:10318C002001002000040040AC010020D8000020E9
:10319C009000002080B590B000AF07F118032822F2
:1031AC000021184600F03AFC3B1D00221A605A60C0
:1031BC009A60DA601A610223BB610123BB6210239F
:1031CC00FB6202237B630023BB634FF45013FB634E
:1031DC0007F118031846FDF75FFD0346002B01D0DD
:1031EC0000F002FA0F237B600223BB600023FB601C
:1031FC004FF480633B6100237B613B1D0221184629
:10320C00FDF7CCFF0346002B01D000F0EDF900BF19
:10321C004037BD4680BD000080B58AB000AF07F1D5
:10322C00180300221A605A609A60DA6007F11003E2
:10323C0000221A605A603B4600221A605A609A605B
:10324C00DA602D4B2D4A1A602B4B3B225A602A4BCD
:10325C0000229A60284B4FF6FF72DA60264B002250
:10326C001A61254B00225A61234B00229A61224895
:10327C00FEF72CF90346002B01D000F0B5F94FF402
:10328C008053BB6107F1180319461B48FEF778FF02
:10329C000346002B01D000F0A7F91748FEF7BEFA41
:1032AC000346002B01D000F09FF900233B61002363
:1032BC007B6107F1100319460F48FFF727FC034603
:1032CC00002B01D000F090F900233B6001237B60C0
:1032DC000023BB600023FB603B460C2219460648CA
:1032EC00FEF7FBFD0346002B01D000F07DF900BF7B
:1032FC002837BD4680BD00BF90000020002C014047
:10330C0080B58EB000AF07F1280300221A605A6016
:10331C009A60DA6007F1200300221A605A603B1DA4
:10332C0000221A605A609A60DA601A615A619A61D6
:10333C00324B4FF080421A60304B3B225A602F4B7D
:10334C0000229A602D4B6322DA602C4B00221A610A
:10335C002A4B00229A612948FEF7B8F80346002B45
:10336C0001D000F041F94FF48053BB6207F1280300
:10337C0019462248FEF704FF0346002B01D000F04B
:10338C0033F91E48FEF7F1F80346002B01D000F08C
:10339C002BF900233B6200237B6207F120031946C3
:1033AC001648FFF7B3FB0346002B01D000F01CF9C5
:1033BC0060237B600023BB600023FB6000237B61E8
:1033CC003B1D042219460D48FEF71CFE0346002B3C
:1033DC0001D000F009F93B1D082219460748FEF7F9
:1033EC0011FE0346002B01D000F0FEF8034800F05C
:1033FC00A9F900BF3837BD4680BD00BFD8000020FA
:10340C0080B58EB000AF07F1280300221A605A6015
:10341C009A60DA6007F1200300221A605A603B1DA3
:10342C0000221A605A609A60DA601A615A619A61D5
:10343C003A4B3B4A1A60394B41F26F725A60374B28
:10344C0000229A60354B0A22DA60344B00221A6152
:10345C00324B00229A613148FEF738F80346002BB4
:10346C0001D000F0C1F84FF48053BB6207F1280380
:10347C0019462A48FEF784FE0346002B01D000F0C3
:10348C00B3F82648FEF771F80346002B01D000F084
:10349C00ABF808212148FEF7BFFB0346002B01D0F7
:1034AC0000F0A2F800233B6200237B6207F12003AB
:1034BC0019461A48FFF72AFB0346002B01D000F0EF
:1034CC0093F870237B600123BB600023FB60002317
:1034DC007B613B1D082219461048FEF793FD0346FD
:1034EC00002B01D000F080F8012208210B48FFF7D7
:1034FC00E8FA0A4B1B686FF001021A61074B1B6854
:10350C00DA68064B1B6842F00102DA60034800F0EF
:10351C0019F900BF3837BD4680BD00BF200100201F
:10352C000004004080B500AF114B124A1A60104BDA
:10353C004FF4E1325A600E4B00229A600C4B002281
:10354C00DA600B4B00221A61094B0C225A61084BB2
:10355C0000229A61064B0022DA610548FFF740FB16
:10356C000346002B01D000F03FF800BF80BD00BF28
:10357C00680100200038014080B586B000AF07F12B
:10358C00080300221A605A609A60DA60144B9B6937
:10359C00134A43F004039361114B9B6903F004033A
:1035AC007B607B680E4B9B690D4A43F0080393616B
:1035BC000B4B9B6903F008033B603B684FF4604383
:1035CC00BB600023FB6000233B6107F10803194635
:1035DC000448FDF7CDF900BF1837BD4680BD00BFCC
:1035EC0000100240000C014080B400AF00BFBD468B
:1035FC0080BC704780B485B000AF154B9B69144AF2
:10360C0043F001039361124B9B6903F00103BB6010
:10361C00BB680F4BDB690E4A43F08053D3610C4BF4
:10362C00DB6903F080537B607B680A4B5B68FB6053
:10363C00FB6823F0E063FB60FB6843F08063FB6096
:10364C00044AFB68536000BF1437BD4680BC70470A
:10365C00001002400000014080B58AB000AF7860D5
:10366C0007F1180300221A605A609A60DA607B68CE
:10367C001B68304A93422DD12F4B9B692E4A43F441
:10368C00006393612C4B9B6903F400637B617B6942
:10369C00294B9B69284A43F004039361264B9B6991
:1036AC0003F004033B613B694FF40063BB610023EF
:1036BC00FB6100233B6207F1180319461F48FDF715
:1036CC0057F9002200211B20FDF71BF91B20FDF7E9
:1036DC0034F92AE07B681B68B3F1804F0CD1164B90
:1036EC00DB69154A43F00103D361134BDB6903F02B
:1036FC000103FB60FB6818E07B681B68104A93426F
:10370C0013D10D4BDB690C4A43F00203D3610A4B16
:10371C00DB6903F00203BB60BB68002200211D20A3
:10372C00FDF7EFF81D20FDF708F900BF2837BD465F
:10373C0080BD00BF002C0140001002400008014079
:10374C000004004080B588B000AF786007F110032A
:10375C0000221A605A609A60DA607B681B68B3F1C9
:10376C00804F18D11C4B9B691B4A43F00403936197
:10377C00194B9B6903F00403FB60FB6806233B6158
:10378C0002237B610223FB6107F1100319461348E6
:10379C00FDF7EEF81CE07B681B68114A934217D1C9
:1037AC000D4B9B690C4A43F0080393610A4B9B69D0
:1037BC0003F00803BB60BB6801233B6102237B6100
:1037CC000223FB6107F1100319460648FDF7D0F8F8
:1037DC0000BF2037BD4680BD0010024000080140EC
:1037EC0000040040000C014080B58AB000AF786046
:1037FC0007F1140300221A605A609A60DA607B6841
:10380C001B68224A93423DD1214B9B69204A43F4C9
:10381C00804393611E4B9B6903F480433B613B697E
:10382C001B4B9B691A4A43F008039361184B9B6925
:10383C0003F00803FB60FB6840237B610223BB6140
:10384C0003233B6207F1140319461248FDF790F865
:10385C0080237B610023BB610023FB6107F1140310
:10386C0019460C48FDF784F80B4B5B687B627B6A4E
:10387C0043F0E0637B627B6A43F004037B62064A9D
:10388C007B6A536000BF2837BD4680BD00380140BD
:10389C0000100240000C01400000014080B400AF59
:1038AC0000BFBD4680BC704780B400AFFEE780B45B
:1038BC0000AFFEE780B400AFFEE780B400AFFEE7D8
:1038CC0080B400AF00BFBD4680BC704780B400AF71
:1038DC0000BFBD4680BC704780B400AF00BFBD4682
:1038EC0080BC704780B500AFFCF7F4FE00BF80BD14
:1038FC0080B500AF0248FEF7E8F900BF80BD00BFFD
:10390C009000002080B500AF0248FEF7DEF900BF42
:10391C0080BD00BF2001002080B584B000AF78606E
:10392C00114B1B68002B02D10F4B104A1A600E4B27
:10393C001B68FB600C4B1A687B6813446A46934205
:10394C0007D900F041F803460C221A604FF0FF3300
:10395C0006E0054B1A687B681344034A1360FB6846
:10396C0018461037BD4680BDF8010020100200201B
:10397C0080B400AF00BFBD4680BC70470C480D49F9
:10398C000D4A002302E0D458C4500433C4188C42AE
:10399C00F9D30A4A0A4C002301E013600432A24214
:1039AC00FBD3FFF7E5FF00F015F8FFF763FB70475B
:1039BC000000002070000020B843000870000020B8
:1039CC000C020020FEE70000014B1868704700BF96
:1039DC000C00002070B500260C4D0D4C641BA4107F
:1039EC00A64209D100F09CFC00260A4D0A4C641B2F
:1039FC00A410A64205D170BD55F8043B984701367A
:103A0C00EEE755F8043B98470136F2E7B04300085F
:103A1C00B0430008B0430008B44300080346024416
:103A2C00934200D1704703F8011BF9E70EB46FF015
:103A3C00004100B59CB01DAB02900690079104911B
:103A4C000848094953F8042B0591006802A9019311
:103A5C0000F068F80022029B1A701CB05DF804EBB1
:103A6C0003B070470C0000200802FFFF2DE9F0475F
:103A7C008E6882469E420C4690461F4638D88A89EC
:103A8C0012F4906F32D0256809690133A5EB010956
:103A9C0065694B4405EB450505EBD5756D109D42ED
:103AAC0038BF1D46530531D5294600F06FFB06463D
:103ABC0050B90C234FF0FF30CAF80030A38943F003
:103ACC004003A381BDE8F0874A46216900F0CEFA95
:103ADC00A38923F4906343F08003A38126614E44B1
:103AEC0026603E466561A5EB0905A560BE4200D97E
:103AFC003E4632464146206800F0C6FAA3680020D4
:103B0C009B1BA360236833442360DBE72A4600F049
:103B1C00B1FB06460028E1D15046216900F0CEFAEF
:103B2C00C7E700002DE9F04F98468B8907461B0626
:103B3C000D4614469DB00ED50B6963B9402100F0BB
:103B4C0025FB2860286120B90C233B604FF0FF3027
:103B5C00D1E040236B610023099320238DF8293099
:103B6C0030234FF00109CDF80C80DFF8A4818DF8DB
:103B7C002A3023469A4613F8012B0AB1252AF9D18B
:103B8C00BAEB040B0BD05B46224629463846FFF7AE
:103B9C006DFF013000F0AA80099A5A4409929AF8F4
:103BAC000030002B00F0A28000234FF0FF32CDE953
:103BBC0005230AF1010A049307938DF853301A93E5
:103BCC005446052214F8011B514800F041FA049A9E
:103BDC00D8B9D00644BF20238DF85330110744BF09
:103BEC002B238DF853309AF800302A2B15D05446DD
:103BFC0000204FF00A0C079A214611F8013B303B8C
:103C0C00092B4ED9B0B1079214E0A0EB080309FAC6
:103C1C0003F31343A2460493D2E7039B191D1B68BD
:103C2C000391002BBBBF5B4242F002020793079348
:103C3C00B8BF049223782E2B0CD163782A2B35D164
:103C4C00039B02341A1D1B680392002BB8BF4FF064
:103C5C00FF330593DFF8BCA003225046217800F017
:103C6C00F7F940B14023A0EB0A0003FA00F0049BE3
:103C7C0001340343049314F8011B062226488DF8E3
:103C8C00281000F0E5F9002838D0244B1BBB039B0F
:103C9C00073323F0070308330393099B3344099339
:103CAC0067E70C4601200CFB0232A5E700234FF01E
:103CBC000A0C194601340593204610F8012B303AB2
:103CCC00092A03D9002BC5D00591C3E7044601236B
:103CDC000CFB0121F0E703AB00932A463846104B4E
:103CEC0004A9AFF30080421C0646D6D1AB895B0613
:103CFC003FF52CAF09981DB0BDE8F08F03AB0093D6
:103D0C002A463846064B04A900F07CF8EBE700BFC6
:103D1C007C43000882430008864300080000000032
:103D2C00793A00082DE9F047164699468A680B69DE
:103D3C0007469342B8BF1346336091F843200C46B4
:103D4C00DDF820800AB1013333602368990642BF45
:103D5C00336802333360256815F0060506D104F18B
:103D6C00190AE36832689B1AAB4228DC94F84320AA
:103D7C00131E226818BF012392062DD449463846DB
:103D8C0004F14302C047013020D02368E56803F0FA
:103D9C000603042B18BF002532684FF00006A368F9
:103DAC0008BFAD1A226908BF25EAE5759342C4BF66
:103DBC009B1AED181A34B5421AD1002008E00123E1
:103DCC00524649463846C047013003D14FF0FF30C8
:103DDC00BDE8F0870135C4E73020E11881F84300D5
:103DEC005A1C94F845102244023382F84310C5E75C
:103DFC000123224649463846C0470130E6D00136F9
:103E0C00D9E700002DE9FF470F7E9146782F8046B9
:103E1C000C469A460C9D01F1430207D8622F0AD832
:103E2C00002F00F0D980582F00F0A48004F1420537
:103E3C0084F842703AE0A7F16303152BF6D801A180
:103E4C0051F823F0A93E0008BD3E0008393E000899
:103E5C00393E0008393E0008393E0008BD3E0008D6
:103E6C00393E0008393E0008393E0008393E00084A
:103E7C00CB3F0008ED3E0008AD3F0008393E00087E
:103E8C00393E0008ED3F0008393E0008ED3E0008C1
:103E9C00393E0008393E0008B53F00082B681A1D52
:103EAC001B682A6004F1420584F842300123A4E027
:103EBC0020682968060601F104030AD50E682B60F8
:103ECC00002E03DA2D23764284F843300A235E4811
:103EDC0019E00E6810F0400F2B6018BF36B2EFE7F8
:103EEC002B682068191D2960010601D51E6802E0A7
:103EFC004606FBD51E886F2F0CBF08230A23524899
:103F0C00002184F843106568002DA8BF2168A560C6
:103F1C00A4BF21F0040121600EB9002D4DD015462F
:103F2C00B6FBF3F103FB1167C75D05F8017D37465E
:103F3C00BB420E46F4D9082B0BD12368DE0708D5FB
:103F4C00236961689942DEBF302305F8013C05F115
:103F5C00FF35521B22614B4621464046CDF800A04E
:103F6C0003AAFFF7DFFE01304CD14FF0FF3004B055
:103F7C00BDE8F087344881F845702968236851F80A
:103F8C00046B29601D0614D5DF0744BF43F02003E2
:103F9C0023601EB9236823F0200323601023AFE7AE
:103FAC00236843F0200323607823284884F84530A5
:103FBC00E3E7590648BFB6B2E6E71546BBE72B6800
:103FCC002668181D6169286035061B6801D51960C3
:103FDC0002E07006FBD51980002315462361BAE771
:103FEC002B6800211A1D2A601D686268284600F0A3
:103FFC002FF808B1401B606063682361002384F8CC
:10400C004330A8E72A46494640462369D047013049
:10401C00ABD023689B0713D4E068039B9842B8BFCE
:10402C001846A4E70123324649464046D0470130A2
:10403C009BD00135E36803995B1AAB42F2DCEBE7EA
:10404C00002504F11906F5E78D4300089E4300088E
:10405C00034610B5C9B202449342184601D1002060
:10406C0003E0047801338C42F6D110BD0A4491422E
:10407C0000F1FF3300D1704710B511F8014B91429C
:10408C0003F8014FF9D110BD884210B501EB0204C1
:10409C0002D98442234607D8431EA14208D011F806
:1040AC00012B03F8012FF8E7014602448A4200D1A4
:1040BC0010BD13F8014D02F8014DF7E738B5054670
:1040CC00002940D051F8043C0C1F002BB8BFE41859
:1040DC0000F010F91C4A136833B963601460284669
:1040EC00BDE8384000F00CB9A34208D9206821186B
:1040FC008B4201BF19685B6809182160EDE71A460D
:10410C005B680BB1A342FAD911685018A0420BD1CD
:10411C0020680144501883421160E0D118685B6834
:10412C00014411605360DAE702D90C232B60D6E707
:10413C00206821188B4201BF19685B68091821603F
:10414C0063605460CBE738BDFC01002070B50E4EA7
:10415C000C463168054611B900F0BCF830602146B8
:10416C00284600F0B7F8431C0AD0C41C24F0030402
:10417C00A04207D0211A284600F0ACF8013001D13A
:10418C004FF0FF34204670BD000200202DE9F041B5
:10419C00CD1C25F0030508350C2D38BF0C25002D42
:1041AC00074601DBA94205D90C2300263B603046AB
:1041BC00BDE8F0812E4E00F09DF833681C4634BBF0
:1041CC0029463846FFF7C2FF431C04464DD13468DC
:1041DC002646002E40D123683146384604EB0308AE
:1041EC0000F078F880453AD1216803356D1A25F036
:1041FC00030508350C2D38BF0C2538462946FFF72A
:10420C00A5FF01302BD023682B4423600EE02268DD
:10421C00521B1ED40B2A16D96119A342256018BF54
:10422C005960636808BF316062514B60384604F1D5
:10423C000B0600F065F826F00706231DF21AB6D01F
:10424C009B1BA350B3E76268A3420CBF32605A6059
:10425C00ECE723466468B2E734467668B9E70C238A
:10426C0038463B6000F04CF8A1E72560DEE700BF64
:10427C00FC0100202DE9F041804614460E4621B980
:10428C001146BDE8F041FFF781BF2AB9FFF716FFD1
:10429C0025462846BDE8F08100F038F884420746F0
:1042AC0002D8B4EB500F12D821464046FFF76EFFF0
:1042BC0005460028EDD0BC422246314628BF3A467E
:1042CC00FFF7D4FE31464046FFF7F8FEE1E73546EE
:1042DC00DFE7000038B50023054D044608462B6087
:1042EC00FFF71AFB431C02D12B6803B1236038BDC6
:1042FC0004020020014800F011B800BF08020020A1
:10430C00014800F00CB800BF0802002051F8043C32
:10431C00181F002BBCBF0B58C01870477047704754
:10432C00F8B500BFF8BC08BC9E467047F8B500BF96
:08433C00F8BC08BC9E46704766
:1043440002030405060708090A0B0C0D0E0F1010D2
:10435400726573756C74203D202564200A0D00007D
:104364000000000000000000010203040607080921
:104374000000000001020304232D302B2000686C90
:104384004C00656667454647003031323334353674
:1043940037383941424344454600303132333435AD
:0C43A400363738396162636465660000DA
:0443B00031010008CF
:0443B4000D010008EF
:1043B80010000000010000000024F400100000209C
:1043C80000000000000000000000000000000000E5
:1043D80000000000000000000000000000000000D5
:1043E80000000000000000000000000000000000C5
:1043F80000000000000000000000000000000000B5
:1044080000000000000000000000000000000000A4
:104418000000000000000000000000000000000094
:04000005080039892D
:00000001FF
